{
  "address": "0x7C36deFFaC3966A1bc152547Dff4a3548233b508",
  "abi": [
    {
      "anonymous": false,
      "inputs": [
        {
          "indexed": false,
          "internalType": "uint256",
          "name": "",
          "type": "uint256"
        }
      ],
      "name": "AssignActivatableAddressToSenderReturn",
      "type": "event"
    },
    {
      "inputs": [
        {
          "internalType": "address",
          "name": "assignee",
          "type": "address"
        }
      ],
      "name": "assignActivatableAddressToSender",
      "outputs": [],
      "stateMutability": "nonpayable",
      "type": "function"
    },
    {
      "inputs": [],
      "name": "getActivationCodeOfSender",
      "outputs": [
        {
          "internalType": "uint256",
          "name": "",
          "type": "uint256"
        }
      ],
      "stateMutability": "view",
      "type": "function"
    },
    {
      "inputs": [],
      "name": "getDeviceOwner",
      "outputs": [
        {
          "internalType": "address",
          "name": "",
          "type": "address"
        }
      ],
      "stateMutability": "view",
      "type": "function"
    },
    {
      "inputs": [],
      "name": "getRelatedDevices",
      "outputs": [
        {
          "internalType": "address[]",
          "name": "",
          "type": "address[]"
        }
      ],
      "stateMutability": "view",
      "type": "function"
    },
    {
      "inputs": [],
      "name": "isSenderRegistered",
      "outputs": [
        {
          "internalType": "bool",
          "name": "",
          "type": "bool"
        }
      ],
      "stateMutability": "view",
      "type": "function"
    }
  ],
  "transactionHash": "0x90adf1601e4c4b24548e0fc39cf65f74b5877a7c6fe602d333ba1178373cb215",
  "args": [],
  "numDeployments": 2,
  "solcInputHash": "f4e0dbe22279740c581ee56e9cf99b91",
  "bytecode": "0x6080806040523461001657610534908161001c8239f35b600080fdfe60806040908082526004918236101561001757600080fd5b600091823560e01c9081633aafa388146104a25750806358944eb8146103ea5780639b8ae375146103ac578063e0f64efc146102ae5763ec9492971461005c57600080fd5b346102aa57602090816003193601126102a65783356001600160a01b03808216908183036102a2578186526000805160206104df833981519152908186528085882054168015908115610298575b5015610255578287528186528487205416156101ae575b505081518381019042825244848201523360601b6060820152605481526080810181811067ffffffffffffffff82111761019b5784525190206064900694600a8610610172575b5090846101697f4194273a0171865880e1d7a0089dcb6cfe51ce239b09acde0bf6cc5e071210b095969360018060a01b03166000527f83ed3ba29c1d52058c877df3ebd264cf957c42ef7764387349be0ccf6df0b63d602052604060002090565b5551908152a180f35b94600a8101809111610188579450610169610108565b634e487b7160e01b855260118652602485fd5b634e487b7160e01b875260418852602487fd5b3360009081527f83ed3ba29c1d52058c877df3ebd264cf957c42ef7764387349be0ccf6df0b63c6020526040902080549068010000000000000000821015610242576001820180825582101561022f5787528587200180546001600160a01b03199081168417909155918652845282852080549091163317905538806100c1565b634e487b7160e01b885260328952602488fd5b634e487b7160e01b885260418952602488fd5b845162461bcd60e51b8152808901879052601960248201527f44657669636520616c72656164792072656769737465726564000000000000006044820152606490fd5b90503314386100aa565b8580fd5b8280fd5b5080fd5b50346102aa57816003193601126102aa573360009081527f83ed3ba29c1d52058c877df3ebd264cf957c42ef7764387349be0ccf6df0b63c6020526040902091815190819284548084526020809401908196845284842090845b8682821061038f5750505050849003601f01601f191684019567ffffffffffffffff87118588101761037c575085815282865292518583018190528594938501939290915b82811061035c57505050500390f35b83516001600160a01b03168552869550938101939281019260010161034d565b634e487b7160e01b835260419052602482fd5b83546001600160a01b031685529093019260019283019201610308565b50346102aa57816003193601126102aa573382526000805160206104df8339815191526020908152918190205490516001600160a01b039091168152f35b5091903461049f578060031936011261049f573381526000805160206104df833981519152602052829020546001600160a01b03161561045d573360009081527f83ed3ba29c1d52058c877df3ebd264cf957c42ef7764387349be0ccf6df0b63d60209081526040909120548351908152f35b6020606492519162461bcd60e51b8352820152601960248201527f446576696365206e6f74207965742072656769737465726564000000000000006044820152fd5b80fd5b919050346102a657826003193601126102a6573383526000805160206104df83398151915260209081529220546001600160a01b031615158152f3fe83ed3ba29c1d52058c877df3ebd264cf957c42ef7764387349be0ccf6df0b63ba26469706673582212208a5097b73ee241e63c90e2c4af62c16d85fce530204a6ccf49a90f4148a972c564736f6c63430008120033",
  "devdoc": {
    "kind": "dev",
    "methods": {},
    "version": 1
  },
  "userdoc": {
    "kind": "user",
    "methods": {},
    "version": 1
  },
  "storageLayout": {
    "storage": [],
    "types": null
  }
}