{
  "address": "0x958Dc0F4aF62511010F0F3Ee4E10E0c5023d23D5",
  "abi": [
    {
      "inputs": [
        {
          "internalType": "uint256",
          "name": "tokenId",
          "type": "uint256"
        },
        {
          "internalType": "string",
          "name": "location",
          "type": "string"
        },
        {
          "internalType": "string",
          "name": "destination",
          "type": "string"
        },
        {
          "internalType": "string",
          "name": "message",
          "type": "string"
        }
      ],
      "name": "aimInitialSusu",
      "outputs": [
        {
          "internalType": "uint256",
          "name": "",
          "type": "uint256"
        },
        {
          "internalType": "string",
          "name": "",
          "type": "string"
        },
        {
          "internalType": "string",
          "name": "",
          "type": "string"
        },
        {
          "internalType": "string",
          "name": "",
          "type": "string"
        }
      ],
      "stateMutability": "nonpayable",
      "type": "function"
    },
    {
      "inputs": [
        {
          "internalType": "uint256",
          "name": "tokenId",
          "type": "uint256"
        },
        {
          "internalType": "string",
          "name": "location",
          "type": "string"
        }
      ],
      "name": "dropSusu",
      "outputs": [
        {
          "internalType": "uint256",
          "name": "",
          "type": "uint256"
        },
        {
          "internalType": "string",
          "name": "",
          "type": "string"
        }
      ],
      "stateMutability": "nonpayable",
      "type": "function"
    },
    {
      "inputs": [],
      "name": "getAllSusuwataris",
      "outputs": [
        {
          "components": [
            {
              "internalType": "uint256",
              "name": "tokenId",
              "type": "uint256"
            },
            {
              "internalType": "address",
              "name": "owner",
              "type": "address"
            }
          ],
          "internalType": "struct LibSusuwatari.SusuwatariInfo[]",
          "name": "",
          "type": "tuple[]"
        }
      ],
      "stateMutability": "view",
      "type": "function"
    },
    {
      "inputs": [],
      "name": "getBaggedSusus",
      "outputs": [
        {
          "components": [
            {
              "internalType": "uint256",
              "name": "tokenId",
              "type": "uint256"
            },
            {
              "internalType": "address",
              "name": "carrier",
              "type": "address"
            }
          ],
          "internalType": "struct LibSusuwatari.BaggedSusuInfo[]",
          "name": "",
          "type": "tuple[]"
        }
      ],
      "stateMutability": "view",
      "type": "function"
    },
    {
      "inputs": [],
      "name": "getCurrentState",
      "outputs": [
        {
          "components": [
            {
              "internalType": "uint256[]",
              "name": "ownedTokens",
              "type": "uint256[]"
            },
            {
              "components": [
                {
                  "internalType": "uint256",
                  "name": "susuTokenId",
                  "type": "uint256"
                },
                {
                  "internalType": "uint256",
                  "name": "dropCooldownTime",
                  "type": "uint256"
                },
                {
                  "internalType": "address",
                  "name": "ownerAddress",
                  "type": "address"
                }
              ],
              "internalType": "struct BaggageSlot",
              "name": "slot",
              "type": "tuple"
            }
          ],
          "internalType": "struct UserState",
          "name": "",
          "type": "tuple"
        }
      ],
      "stateMutability": "view",
      "type": "function"
    },
    {
      "inputs": [],
      "name": "giveSusuwatari",
      "outputs": [],
      "stateMutability": "nonpayable",
      "type": "function"
    },
    {
      "inputs": [],
      "name": "registerMe",
      "outputs": [],
      "stateMutability": "nonpayable",
      "type": "function"
    },
    {
      "inputs": [
        {
          "internalType": "uint256",
          "name": "tokenId",
          "type": "uint256"
        },
        {
          "internalType": "string",
          "name": "location",
          "type": "string"
        }
      ],
      "name": "tryPickupSusu",
      "outputs": [
        {
          "internalType": "uint256",
          "name": "",
          "type": "uint256"
        },
        {
          "internalType": "string",
          "name": "",
          "type": "string"
        }
      ],
      "stateMutability": "nonpayable",
      "type": "function"
    }
  ],
  "transactionHash": "0x5192b57534c1c05d89ee7dc746cae93c1f1bc05619d16e5d495b0cc20eb40a9d",
  "args": [],
  "numDeployments": 2,
  "solcInputHash": "d769a7db2637ea5329c0a5ad3962cc53",
  "bytecode": "0x608080604052346100165761218d908161001c8239f35b600080fdfe6080604052600436101561001257600080fd5b60003560e01c80632a9664c714611ac1578063378aa7011461187a5780633e14c7da146116325780637298c3c3146111725780637863074814610b4b5780639a198d611461067b578063b95d0b04146102585763c5b9c1411461007457600080fd5b34610253576000366003190112610253576000805160206121388339815191525460009060005b8181106101fb57506100ac826120cc565b916100ba6040519384611c41565b8083526100c9601f19916120cc565b0160005b8181106101d65750506000805b8281106101345760408051602080825286518183018190528188019383019160005b8281106101095784840385f35b8551805185526020908101516001600160a01b031690850152948101946040909301926001016100fc565b600181018082116101c057600081815260008051602061211883398151915260209081526040909120546001600160a01b0316908161017f575b50505061017a9061200a565b6100da565b9161017a9394916101b7936040519261019784611bf0565b83528201526101a682886120e3565b526101b181876120e3565b5061200a565b9190388061016e565b634e487b7160e01b600052601160045260246000fd5b6020906040516101e581611bf0565b60008152826000818301528287010152016100cd565b600181018082116101c057600090815260008051602061211883398151915260205260409020546001600160a01b031661023e575b6102399061200a565b61009b565b9161024b6102399161200a565b929050610230565b600080fd5b346102535761026636611cb8565b9061027b61027333611d32565b541515611ea1565b80151580610662575b61028d90611ee6565b60008051602061213883398151915254906000805b838110610609575b506102b791925015612019565b806000526000805160206120f883398151915260209281845260018060a01b039182600560406000200154166105c45760001984018481116101c0576102fd8491611d6b565b919054339260031b1c161461056757836000528085526040600020600281019160405187810190600091818654938b61033586611e13565b6001968088169081156105505750600114610515575b50500391610361601f1993848101835282611c41565b5190206040518a81019061038e8c82816103818d87815193849201611cea565b8101038084520182611c41565b519020036104c257604051428a82019081523360601b6bffffffffffffffffffffffff19166020820152603481018a905261012d929091906103db90826054850103908101835282611c41565b519020069161012c9283018093116101c05761045d966006850193845560058501926001600160601b0360a01b9233848654161785558a6000526000805160206121188339815191528c52604060002033858254161790558b52604060002096868803610461575b8b8b8b8b6040805194859485528401526040830190611d0d565b0390f35b866104896004926104806104a39560069b548d55808501908d01611f32565b60028b01611f32565b6104996003820160038b01611f32565b0160048801611f32565b6005860192541690825416179055549101558480808080808080610443565b60405162461bcd60e51b8152600481018a9052602560248201527f43616c6c6572206973206e6f7420696e2074686520636f7272656374206c6f6360448201526430ba34b7b760d91b6064820152608490fd5b9091508860005281600020866000915b838310610539575050508201018b8d61034b565b805488840186015287955091840191889101610525565b60ff19168652508015150283010190508b8d61034b565b60405162461bcd60e51b815260048101869052602f60248201527f546865206f776e65722063616e6e6f74206d6f766520686973206f776e20616960448201526e6d656420537573757761746172692160881b6064820152608490fd5b60405162461bcd60e51b815260048101869052601e60248201527f5375737520697320616c7265616479206265696e6720636172726965642100006044820152606490fd5b60018082018083116101c05760009081526000805160206120f883398151915260205260409020600501546001600160a01b03163314610652575061064d9061200a565b6102a2565b9150506102b791925082916102aa565b5060008051602061213883398151915254811115610284565b346102535760003660031901126102535761069533611d32565b54610b065760008051602061213883398151915254600181018091116101c057604051906106c282611c0b565b8152604051906106d182611c26565b6000825260208101918252604051916106e983611c26565b60008352604082019283526040519261070184611c26565b600084526060830193845260405161071881611c26565b600081526080840190815260a084019433865260c085019260008452600161073f33611d32565b5561074933611dc4565b85516000526000805160206120f883398151915260205260406000209486518655518051906001600160401b0382116109915781906107988261078f60018b0154611e13565b60018b01611e4d565b602090601f8311600114610a9457600092610a89575b50508160011b916000199060031b1c19161760018601555b51805160028601916001600160401b0382116109915781906107f2826107ec8654611e13565b86611e4d565b602090601f8311600114610a2357600092610a18575b50508160011b916000199060031b1c19161790555b51805160038501916001600160401b038211610991578190610843826107ec8654611e13565b602090601f83116001146109b2576000926109a7575b50508160011b916000199060031b1c19161790555b51805160048401916001600160401b03821161099157610898826108928554611e13565b85611e4d565b602090601f8311600114610925576006949392916000918361091a575b50508160011b916000199060031b1c19161790555b93516005830180546001600160a01b039092166001600160a01b03199283161790559351910155516000908152600080516020612118833981519152602052604090208054339216919091179055005b0151905088806108b5565b90601f198316918460005260206000209260005b818110610979575091600193918560069897969410610960575b505050811b0190556108ca565b015160001960f88460031b161c19169055888080610953565b92936020600181928786015181550195019301610939565b634e487b7160e01b600052604160045260246000fd5b015190508880610859565b6000858152602081209350601f198516905b818110610a0057509084600195949392106109e7575b505050811b01905561086e565b015160001960f88460031b161c191690558880806109da565b929360206001819287860151815501950193016109c4565b015190508980610808565b6000858152602081209350601f198516905b818110610a715750908460019594939210610a58575b505050811b01905561081d565b015160001960f88460031b161c19169055898080610a4b565b92936020600181928786015181550195019301610a35565b0151905089806107ae565b9250600188016000526020600020906000935b601f1984168510610aeb576001945083601f19811610610ad2575b505050811b0160018601556107c6565b015160001960f88460031b161c19169055898080610ac2565b81810151835560209485019460019093019290910190610aa7565b60405162461bcd60e51b815260206004820152601760248201527f5573657220616c726561647920726567697374657265640000000000000000006044820152606490fd5b34610253576080366003190112610253576024356001600160401b03811161025357610b7b903690600401611c62565b6044356001600160401b03811161025357610b9a903690600401611c62565b906064356001600160401b03811161025357610bba903690600401611c62565b91610bc761027333611d32565b600435151580611157575b610bdb90611ee6565b60043560001981019081116101c057610bf390611d6b565b905460039190911b1c6001600160a01b0316331480611124575b156110e9576004356000526000805160206120f8833981519152602052604060002061012d6040516020810190610c7881610c6a600435334287916054939183526001600160601b03199060601b16602083015260348201520190565b03601f198101835282611c41565b5190200661012c9081018091116101c057600682015582516001600160401b03811161099157610cb881610caf6001850154611e13565b60018501611e4d565b806020601f821160011461107c57600091611071575b508160011b916000199060031b1c19161760018201555b82516001600160401b03811161099157610d0f81610d066002850154611e13565b60028501611e4d565b806020601f821160011461100457600091610ff9575b508160011b916000199060031b1c19161760028201555b81516001600160401b03811161099157610d6681610d5d6003850154611e13565b60038501611e4d565b806020601f8211600114610f8c57600091610f81575b508160011b916000199060031b1c19161760038201555b83516001600160401b03811161099157610dbd81610db46004850154611e13565b60048501611e4d565b6020601f8211600114610f085792610e70959282610e7e9361045d96600091610efd575b508160011b916000199060031b1c19161760048201555b600581016001600160601b0360a01b80825416825560043560005260008051602061211883398151915260205260406000208181541690556000805160206120f8833981519152602052604060002092808403610e8c575b505050506040519586956004358752608060208801526080870190611d0d565b908582036040870152611d0d565b908382036060850152611d0d565b600692839282548655610ea56001840160018801611f32565b610eb56002840160028801611f32565b610ec56003840160038801611f32565b610ed56004840160048801611f32565b90546005860180549092166001600160a01b0391909116179055015491015586808080610e50565b905085015189610de1565b6004830160005260206000209060005b601f1984168110610f6957509260018361045d9693610e709996610e7e96601f19811610610f50575b5050811b016004820155610df8565b87015160001960f88460031b161c191690558980610f41565b9091602060018192858b015181550193019101610f18565b905083015186610d7c565b91506003830160005260206000206000925b601f1983168410610fe1576001935082601f19811610610fc8575b5050811b016003820155610d93565b85015160001960f88460031b161c191690558680610fb9565b85810151825560209384019360019092019101610f9e565b905084015186610d25565b91506002830160005260206000206000925b601f1983168410611059576001935082601f19811610611040575b5050811b016002820155610d3c565b86015160001960f88460031b161c191690558680611031565b86810151825560209384019360019092019101611016565b905084015186610cce565b91506001830160005260206000206000925b601f19831684106110d1576001935082601f198116106110b8575b5050811b016001820155610ce5565b86015160001960f88460031b161c1916905586806110a9565b8681015182556020938401936001909201910161108e565b60405162461bcd60e51b815260206004820152601360248201527221b0b63632b91034b9903737ba1037bbb732b960691b6044820152606490fd5b5060043560009081526000805160206120f883398151915260205260409020600501546001600160a01b03163314610c0d565b50600080516020612138833981519152546004351115610bd2565b346102535760003660031901126102535761118f61027333611d32565b600080516020612138833981519152546000805b8281106115dd575b506111b69015612019565b600181018091116101c057604051906111ce82611c0b565b8152604051906111dd82611c26565b6000825260208101918252604051916111f583611c26565b600083526040820192835260405161120c81611c26565b60008152606083019081526040519061122482611c26565b600082526080840191825260a0840194338652600060c086015261124733611dc4565b84516000526000805160206120f883398151915260205260406000209385518555518051906001600160401b0382116109915781906112968261128d60018a0154611e13565b60018a01611e4d565b602090601f831160011461156b57600092611560575b50508160011b916000199060031b1c19161760018501555b51805160028501916001600160401b0382116109915781906112ea826107ec8654611e13565b602090601f83116001146114fa576000926114ef575b50508160011b916000199060031b1c19161790555b51805160038401916001600160401b03821161099157819061133b826107ec8654611e13565b602090601f83116001146114895760009261147e575b50508160011b916000199060031b1c19161790555b51805160048301916001600160401b03821161099157819061138c826107ec8654611e13565b602090601f83116001146114185760009261140d575b50508160011b916000199060031b1c19161790555b600581019260018060a01b03905116926001600160601b0360a01b9384825416179055600660c0830151910155516000526000805160206121188339815191526020526040600020903390825416179055600080f35b0151905086806113a2565b6000858152602081209350601f198516905b818110611466575090846001959493921061144d575b505050811b0190556113b7565b015160001960f88460031b161c19169055868080611440565b9293602060018192878601518155019501930161142a565b015190508780611351565b6000858152602081209350601f198516905b8181106114d757509084600195949392106114be575b505050811b019055611366565b015160001960f88460031b161c191690558780806114b1565b9293602060018192878601518155019501930161149b565b015190508880611300565b6000858152602081209350601f198516905b818110611548575090846001959493921061152f575b505050811b019055611315565b015160001960f88460031b161c19169055888080611522565b9293602060018192878601518155019501930161150c565b0151905088806112ac565b9250600187016000526020600020906000935b601f19841685106115c2576001945083601f198116106115a9575b505050811b0160018501556112c4565b015160001960f88460031b161c19169055888080611599565b8181015183556020948501946001909301929091019061157e565b60018082018083116101c05760009081526000805160206120f883398151915260205260409020600501546001600160a01b0316331461162657506116219061200a565b6111a3565b91506111b690506111ab565b346102535761164036611cb8565b9061164d61027333611d32565b80151580611861575b61165f90611ee6565b806000526000805160206120f88339815191529060209282845260018060a01b033381600560406000200154160361180b5782600052838552604060002090600682016000815560028301918451966001600160401b038811610991576116ca886107ec8654611e13565b88601f89116001146117a357978061045d9899600091611798575b508160011b916000199060031b1c19161784555b60058501916001600160601b0360a01b91828454168455896000526000805160206121188339815191528b5260406000208381541690558a5260406000209580870361175a575b8a8a8a8a6040805194859485528401526040830190611d0d565b60048161048960069861177a94548b556104806001840160018d01611f32565b60058601925416908254161790555491015584808080808080611740565b90508701518b6116e5565b601f19891690856000528a6000209160005b8c8282106117f5575050918a9161045d9a9b600194106117dc575b5050811b0184556116f9565b89015160001960f88460031b161c191690558b806117d0565b600184958293958d0151815501940192016117b5565b60405162461bcd60e51b815260048101869052602860248201527f43616c6c657220646f65736e27742063617272792061205375737577617461726044820152676920546f6b656e2160c01b6064820152608490fd5b5060008051602061213883398151915254811115611656565b34610253576000366003190112610253576118936120ab565b5061189c6120ab565b5060008060008051602061213883398151915254905b818110611a7c57506118c3826120cc565b916118d16040519384611c41565b8083526118e0601f19916120cc565b019060209136838501376000805b828110611a205750506118ff61207c565b906000905b808210611993575b50506040519261191b84611bf0565b83528183019081526040519180835260a0830193519160808285015282518095528160c0850193016000955b80871061197c57505051805160408086019190915291810151606085015201516001600160a01b031660808301528190039150f35b909383806001928751815201950196019590611947565b60018201918281116101c0576000838152600080516020612118833981519152865260409020546001600160a01b039390841633146119de57506119d891925061200a565b90611904565b611a0c92508085526000526000805160206120f8833981519152855260066040600020015485850152611d6b565b90549060031b1c166040820152838061190c565b611a2981611d6b565b90543360039290921b1c6001600160a01b031614611a50575b611a4b9061200a565b6118ee565b90600182018083116101c05781611a7491611a6e611a4b94896120e3565b5261200a565b919050611a42565b611a8581611d6b565b90543360039290921b1c6001600160a01b031614611aac575b611aa79061200a565b6118b2565b91611ab9611aa79161200a565b929050611a9e565b346102535760003660031901126102535760008051602061213883398151915254611aeb816120cc565b90611af96040519283611c41565b808252601f19611b08826120cc565b0160005b818110611bcb57505060005b818110611b725760408051602080825285518183018190528187019383019160005b828110611b475784840385f35b8551805185526020908101516001600160a01b03169085015294810194604090930192600101611b3a565b60018101908181116101c057611bc691611b8b82611d6b565b905460405192611b9a84611bf0565b835260039190911b1c6001600160a01b03166020820152611bbb82866120e3565b526101b181856120e3565b611b18565b602090604051611bda81611bf0565b6000815282600081830152828701015201611b0c565b604081019081106001600160401b0382111761099157604052565b60e081019081106001600160401b0382111761099157604052565b602081019081106001600160401b0382111761099157604052565b90601f801991011681019081106001600160401b0382111761099157604052565b81601f82011215610253578035906001600160401b0382116109915760405192611c96601f8401601f191660200185611c41565b8284526020838301011161025357816000926020809301838601378301015290565b9060406003198301126102535760043591602435906001600160401b03821161025357611ce791600401611c62565b90565b60005b838110611cfd5750506000910152565b8181015183820152602001611ced565b90602091611d2681518092818552858086019101611cea565b601f01601f1916010190565b6001600160a01b031660009081527f202e1867cade063e32a2eb339a246f853a1a233314949ba8d9e2ac766f6ed8466020526040902090565b6000805160206121388339815191528054821015611dae576000527f5b627e705e277f4cd69351cfcf0179f3685951408382038c266c60748db0394a0190600090565b634e487b7160e01b600052603260045260246000fd5b60008051602061213883398151915280546801000000000000000081101561099157611df591600182019055611d6b565b819291549060031b9160018060a01b03809116831b921b1916179055565b90600182811c92168015611e43575b6020831014611e2d57565b634e487b7160e01b600052602260045260246000fd5b91607f1691611e22565b90601f8111611e5b57505050565b600091825260208220906020601f850160051c83019410611e97575b601f0160051c01915b828110611e8c57505050565b818155600101611e80565b9092508290611e77565b15611ea857565b60405162461bcd60e51b8152602060048201526016602482015275155cd95c881a5cc81b9bdd081c9959da5cdd195c995960521b6044820152606490fd5b15611eed57565b60405162461bcd60e51b815260206004820152601d60248201527f546865205375737577617461726920646f6573206e6f742065786973740000006044820152606490fd5b9080821461200657611f448154611e13565b906001600160401b038211610991578190611f63826107ec8654611e13565b600090601f8311600114611f9a57600092611f8f575b50508160011b916000199060031b1c1916179055565b015490503880611f79565b81526020808220858352818320935090601f1985169083905b828210611fed575050908460019594939210611fd4575b505050811b019055565b015460001960f88460031b161c19169055388080611fca565b8495819295850154815560018091019601940190611fb3565b5050565b60001981146101c05760010190565b1561202057565b60405162461bcd60e51b815260206004820152602e60248201527f43616c6c657220697320616c7265616479206361727279696e6720612053757360448201526d7577617461726920546f6b656e2160901b6064820152608490fd5b60405190606082018281106001600160401b038211176109915760405260006040838281528260208201520152565b604051906120b882611bf0565b816060815260206120c761207c565b910152565b6001600160401b0381116109915760051b60200190565b8051821015611dae5760209160051b01019056fe202e1867cade063e32a2eb339a246f853a1a233314949ba8d9e2ac766f6ed848202e1867cade063e32a2eb339a246f853a1a233314949ba8d9e2ac766f6ed84a202e1867cade063e32a2eb339a246f853a1a233314949ba8d9e2ac766f6ed847a26469706673582212204805b4a7965bd23618c03b05cedb1a58ed1b7d19300556578d5c862fc614683b64736f6c63430008120033",
  "devdoc": {
    "details": "Implementation of https://eips.ethereum.org/EIPS/eip-721[ERC721] Non-Fungible Token Standard, including the Metadata extension, but not including the Enumerable extension, which is available separately as {ERC721Enumerable}.",
    "kind": "dev",
    "methods": {},
    "version": 1
  },
  "userdoc": {
    "kind": "user",
    "methods": {},
    "version": 1
  },
  "storageLayout": {
    "storage": [],
    "types": null
  }
}