{
  "address": "0xBa8bCb19f17D75ecf8F307dB0cA0e32d4cD4C841",
  "abi": [
    {
      "inputs": [
        {
          "internalType": "uint256",
          "name": "tokenId",
          "type": "uint256"
        },
        {
          "internalType": "uint64",
          "name": "location",
          "type": "uint64"
        },
        {
          "internalType": "uint64",
          "name": "destination",
          "type": "uint64"
        },
        {
          "internalType": "string",
          "name": "message",
          "type": "string"
        }
      ],
      "name": "aimInitialSusu",
      "outputs": [
        {
          "internalType": "uint256",
          "name": "",
          "type": "uint256"
        },
        {
          "internalType": "uint64",
          "name": "",
          "type": "uint64"
        },
        {
          "internalType": "uint64",
          "name": "",
          "type": "uint64"
        },
        {
          "internalType": "string",
          "name": "",
          "type": "string"
        }
      ],
      "stateMutability": "nonpayable",
      "type": "function"
    },
    {
      "inputs": [
        {
          "internalType": "uint256",
          "name": "tokenId",
          "type": "uint256"
        },
        {
          "internalType": "uint64",
          "name": "location",
          "type": "uint64"
        }
      ],
      "name": "dropSusu",
      "outputs": [
        {
          "internalType": "uint256",
          "name": "",
          "type": "uint256"
        },
        {
          "internalType": "uint64",
          "name": "",
          "type": "uint64"
        }
      ],
      "stateMutability": "nonpayable",
      "type": "function"
    },
    {
      "inputs": [],
      "name": "getAllSusuwataris",
      "outputs": [
        {
          "components": [
            {
              "internalType": "uint256",
              "name": "tokenId",
              "type": "uint256"
            },
            {
              "internalType": "address",
              "name": "owner",
              "type": "address"
            }
          ],
          "internalType": "struct LibSusuwatari.SusuwatariInfo[]",
          "name": "",
          "type": "tuple[]"
        }
      ],
      "stateMutability": "view",
      "type": "function"
    },
    {
      "inputs": [],
      "name": "getBaggedSusus",
      "outputs": [
        {
          "components": [
            {
              "internalType": "uint256",
              "name": "tokenId",
              "type": "uint256"
            },
            {
              "internalType": "address",
              "name": "carrier",
              "type": "address"
            }
          ],
          "internalType": "struct LibSusuwatari.BaggedSusuInfo[]",
          "name": "",
          "type": "tuple[]"
        }
      ],
      "stateMutability": "view",
      "type": "function"
    },
    {
      "inputs": [],
      "name": "getCurrentState",
      "outputs": [
        {
          "components": [
            {
              "internalType": "uint256[]",
              "name": "ownedTokens",
              "type": "uint256[]"
            },
            {
              "components": [
                {
                  "internalType": "uint256",
                  "name": "susuTokenId",
                  "type": "uint256"
                },
                {
                  "internalType": "uint256",
                  "name": "dropCooldownTime",
                  "type": "uint256"
                },
                {
                  "internalType": "address",
                  "name": "ownerAddress",
                  "type": "address"
                }
              ],
              "internalType": "struct BaggageSlot",
              "name": "slot",
              "type": "tuple"
            },
            {
              "internalType": "uint8",
              "name": "team",
              "type": "uint8"
            }
          ],
          "internalType": "struct UserState",
          "name": "",
          "type": "tuple"
        }
      ],
      "stateMutability": "view",
      "type": "function"
    },
    {
      "inputs": [],
      "name": "giveSusuwatari",
      "outputs": [],
      "stateMutability": "nonpayable",
      "type": "function"
    },
    {
      "inputs": [
        {
          "internalType": "uint8",
          "name": "team",
          "type": "uint8"
        }
      ],
      "name": "registerMe",
      "outputs": [],
      "stateMutability": "nonpayable",
      "type": "function"
    },
    {
      "inputs": [
        {
          "internalType": "uint256",
          "name": "tokenId",
          "type": "uint256"
        },
        {
          "internalType": "uint64",
          "name": "location",
          "type": "uint64"
        }
      ],
      "name": "tryPickupSusu",
      "outputs": [
        {
          "internalType": "uint256",
          "name": "",
          "type": "uint256"
        },
        {
          "internalType": "uint64",
          "name": "",
          "type": "uint64"
        }
      ],
      "stateMutability": "nonpayable",
      "type": "function"
    }
  ],
  "transactionHash": "0xa6454e9e465fdee8f3e3e6b28501ef45f182e2a40887368d8f6611d9edbbf74a",
  "args": [],
  "numDeployments": 5,
  "solcInputHash": "466d35642c36d118460eb1a5302f5262",
  "bytecode": "0x6080806040523461001657611d01908161001c8239f35b600080fdfe6080604052600436101561001257600080fd5b60e0600035811c9081632a9664c7146115bd578163378aa7011461135c5781637298c3c3146110a157816374015e5114610bde57508063adc65c3814610917578063c5b9c14114610738578063ce603f23146104fc5763e803b6f21461007757600080fd5b346104e15760803660031901126104e1576100906116ec565b6001600160401b0360443516604435036104e157606435906001600160401b0382116104e157366023830112156104e15781600401356001600160401b0381116104e657604051906100ec601f8201601f19166020018361176e565b808252602493368583830101116104e157816000928660209301838601378301015261012261011a33611808565b5415156119ff565b6004351515806104c6575b61013690611a44565b60043560001981019081116104b15761014e90611841565b905460039190911b1c6001600160a01b031633148061047e575b1561044457600435600052600080516020611c4c833981519152602052604060002061012d60405160208101906101d3816101c5600435334287916054939183526001600160601b03199060601b16602083015260348201520190565b03601f19810183528261176e565b5190200661012c818101811161042f5701600482015560018101805467ffffffffffffffff19166001600160401b0385161781556102129084906118e9565b61022160443560018301611911565b8151936001600160401b03851161041b575061024d84610244600284015461193c565b60028401611976565b602093601f81116001146103a257908161031993926001600160401b0396600091610397575b508160011b916000199060031b1c19161760028201555b600381016001600160601b0360a01b808254168255600435600052600080516020611c8c8339815191526020526040600020818154169055600080516020611c4c83398151915260205260406000209280840361031d575b5050505060405193849360043585521660208401526001600160401b0360443516604084015260806060840152608083019061178f565b0390f35b60049283928254865561035f600187018b6001860154168c1982541617815561034f8c600187015460401c16826118e9565b8b600186015460801c1690611911565b61036f6002840160028801611a90565b90546003860180549092166001600160a01b03919091161790550154910155388080806102e2565b905083015138610273565b60028201600052602060002060005b601f19831681106104035750816001916001600160401b0397610319969594601f198116106103ea575b5050811b01600282015561028a565b85015160001960f88460031b161c1916905538806103db565b848701518255602096870196600190920191016103b1565b634e487b7160e01b60009081526041600452fd5b85634e487b7160e01b60005260116004526000fd5b60405162461bcd60e51b8152602060048201526013818501527221b0b63632b91034b9903737ba1037bbb732b960691b6044820152606490fd5b506004356000908152600080516020611c4c83398151915260205260409020600301546001600160a01b03163314610168565b83634e487b7160e01b60005260116004526000fd5b50600080516020611c6c83398151915254600435111561012d565b600080fd5b634e487b7160e01b600052604160045260246000fd5b346104e15760403660031901126104e1576004356105186116ec565b9061052561011a33611808565b8015158061071f575b61053790611a44565b6000818152600080516020611c4c83398151915260208181526040909220600301546001600160a01b039033908216036106c9579160a0917f6c8ef33398e406b6af68274e264c0895c5c01a99c0826f9852b15e9da7a8e92d93856000528183526040600020600481016000815560018201936105b48a866118e9565b60038301906001600160601b03881b90818354168355600080516020611c8c833981519152885260406000208281541690558752604060002094848603610657575b505050505050549060ff610609336117cf565b541690604051926001600160401b03918282168552828260401c169085015260801c1660408301528460608301526080820152a1604080519182526001600160401b03929092166020820152f35b6106ac6002866004975489556106a260018a018b6106966001600160401b038281809454166001600160401b03198654161785555460401c16836118e9565b8c5460801c1690611911565b0160028801611a90565b6003860192541690825416179055549101558680808080806105f6565b60405162461bcd60e51b815260048101849052602860248201527f43616c6c657220646f65736e27742063617272792061205375737577617461726044820152676920546f6b656e2160c01b6064820152608490fd5b50600080516020611c6c8339815191525481111561052e565b346104e15760003660031901126104e157600080516020611c6c8339815191525460009060005b8181106108bf575061077082611c20565b9161077e604051938461176e565b80835261078d601f1991611c20565b0160005b81811061089a5750506000805b8281106107f85760408051602080825286518183018190528188019383019160005b8281106107cd5784840385f35b8551805185526020908101516001600160a01b031690850152948101946040909301926001016107c0565b60018101808211610884576000818152600080516020611c8c83398151915260209081526040909120546001600160a01b03169081610843575b50505061083e90611b68565b61079e565b9161083e93949161087b936040519261085b84611702565b835282015261086a8288611c37565b526108758187611c37565b50611b68565b91908580610832565b634e487b7160e01b600052601160045260246000fd5b6020906040516108a981611702565b6000815282600081830152828701015201610791565b60018101808211610884576000908152600080516020611c8c83398151915260205260409020546001600160a01b0316610902575b6108fd90611b68565b61075f565b9161090f6108fd91611b68565b9290506108f4565b346104e1576020806003193601126104e15760043560ff8116908181036104e15761094133611808565b54610b9957600080516020611c6c833981519152546001808201809211610884576040519161096f83611738565b8252848201600081526040830194600086526060840192600084526040519661099788611753565b6000885260808601978852610a3260a087019533875260c088019460008652846109c033611808565b556109ca336117cf565b9060ff198254161790556109dd3361189a565b8751600052600080516020611c4c8339815191528b526040600020958851875584870191610a2a6001600160401b03809681809551166001600160401b03198754161786555116846118e9565b511690611911565b6002840191885180519283116104e657610a5683610a50865461193c565b86611976565b8a90601f8411600114610b0a57938380610afa9a999895600495600080516020611cac8339815191529f9895600080516020611c8c8339815191529a96600094610aff575b50501b916000199060031b1c19161790555b600383019560018060a01b03905116956001600160601b0360a01b9687825416179055519101558351600052526040600020903390825416179055519251916040519384933391856119ca565b0390a1005b015192503880610a9b565b90601f93929319831691856000528c6000209260005b818110610b84575093600080516020611c8c8339815191529793600080516020611cac8339815191529e9793610afa9c9b9a97938360049810610b6b575b505050811b019055610aad565b015160001960f88460031b161c191690558e8080610b5e565b82840151855593860193928e01928e01610b20565b60405162461bcd60e51b815260048101849052601760248201527f5573657220616c726561647920726567697374657265640000000000000000006044820152606490fd5b346104e15760403660031901126104e15760043590610bfb6116ec565b91610c0861011a33611808565b80151580611088575b610c1a90611a44565b600080516020611c6c83398151915254916000805b84811061102e575b50610c459192935015611b77565b81600052600080516020611c4c83398151915260209181835260018060a01b039260039184836040600020015416610fe957600019860186811161088457610c8d8691611841565b905490851b1c163314610f8c57856000528382526040600020926001958685016001600160401b0380825460401c1697818c16809903610f3957604051428882019081523360601b6bffffffffffffffffffffffff19166020820152603481018d905261012d91610d0181605484016101c5565b519020069061012c9182018092116108845760048901918255858901906001600160601b0360a01b9033828454161783558d600052600080516020611c8c8339815191528a526040600020338382541617905589528b6040600020958b8703610ecf575b50505050505050600260ff610d8983610d7d8c611841565b905490871b1c166117cf565b5416950191610d9789611841565b9054911b1c1692604051958887528187015260c06040870152600096825492610dbf8461193c565b938460c08a01528281169081600014610e8f5750600114610e30575b8a8a7f8b2bdc417511e0553507390ac2d6358cbb109f65f41ee5a9511390aba8957c808a808d8c8c336060850152608084015260a08301520390a1604080519182526001600160401b03929092166020820152f35b90939496975060005280600020926000935b838510610e7c57505050508401019291817f8b2bdc417511e0553507390ac2d6358cbb109f65f41ee5a9511390aba8957c80848980610ddb565b8054898601870152938201938101610e42565b60ff1916868a015250505050151560051b8401019350817f8b2bdc417511e0553507390ac2d6358cbb109f65f41ee5a9511390aba8957c80848980610ddb565b600495610f0b928d548955880191818154166001600160401b0319845416178355610f0082825460401c16846118e9565b5460801c1690611911565b610f1b60028b0160028701611a90565b85878601925416908254161790555491015589808080808b81610d65565b60405162461bcd60e51b815260048101889052602560248201527f43616c6c6572206973206e6f7420696e2074686520636f7272656374206c6f6360448201526430ba34b7b760d91b6064820152608490fd5b60405162461bcd60e51b815260048101839052602f60248201527f546865206f776e65722063616e6e6f74206d6f766520686973206f776e20616960448201526e6d656420537573757761746172692160881b6064820152608490fd5b60405162461bcd60e51b815260048101839052601e60248201527f5375737520697320616c7265616479206265696e6720636172726965642100006044820152606490fd5b6001808201808311610884576000908152600080516020611c4c83398151915260205260409020600301546001600160a01b03163314611077575061107290611b68565b610c2f565b93945084939150610c459050610c37565b50600080516020611c6c83398151915254811115610c11565b346104e15760003660031901126104e1576110be61011a33611808565b600080516020611c6c833981519152546000805b828110611307575b506110e59015611b77565b6001810180911161088457604051906110fd82611738565b8152602090818101906000825260408101600081526060820192600084526040519361112885611753565b600085526080840194855260a084019233845261119e60c0860192600084526111503361189a565b8651600052600080516020611c4c8339815191528952604060002094875186556001860191610a2a6001600160401b03809681809551166001600160401b03198754161786555116846118e9565b6002830190865180519182116104e6576111c2826111bc855461193c565b85611976565b8890601f831160011461127d579282600493600080516020611cac8339815191529b9693600080516020611c8c8339815191529896600092611272575b50508160011b916000199060031b1c19161790555b600383019560018060a01b03905116956001600160601b0360a01b9687825416179055519101558351600052526040600020903390825416179055610afa60ff61125d336117cf565b541691519251916040519384933391856119ca565b015190508c806111ff565b90601f19831691846000528a6000209260005b8181106112f0575093600080516020611cac8339815191529b9693600080516020611c8c83398151915298969360019383600498106112d7575b505050811b019055611214565b015160001960f88460031b161c191690558c80806112ca565b92938c600181928786015181550195019301611290565b6001808201808311610884576000908152600080516020611c4c83398151915260205260409020600301546001600160a01b03163314611350575061134b90611b68565b6110d2565b91506110e590506110da565b346104e15760003660031901126104e157611375611bf9565b5061137e611bf9565b5060008091600080516020611c6c83398151915254925b83811061157857506113a682611c20565b916113b4604051938461176e565b8083526113c3601f1991611c20565b019260209336858501376000805b82811061151c5750506113e2611bda565b906000905b80821061148f575b505060ff6113fc336117cf565b5416906040519361140c8561171d565b845284840190815260408401918252604051938585528560c0860191519460a0828801528551809352860194019060005b81811061147b5750505090839460ff925190815160408701528101516060860152604060018060a01b03910151166080850152511660a08301520390f35b82518652948701949187019160010161143d565b6001820191828111610884576000838152600080516020611c8c833981519152885260409020546001600160a01b039390841633146114da57506114d4919250611b68565b906113e7565b6115089250808552600052600080516020611c4c833981519152875260046040600020015487850152611841565b90549060031b1c16604082015284806113ef565b61152581611841565b90543360039290921b1c6001600160a01b03161461154c575b61154790611b68565b6113d1565b906001820180831161088457816115709161156a6115479489611c37565b52611b68565b91905061153e565b61158181611841565b90543360039290921b1c6001600160a01b0316146115a8575b6115a390611b68565b611395565b916115b56115a391611b68565b92905061159a565b346104e15760003660031901126104e157600080516020611c6c833981519152546115e781611c20565b906115f5604051928361176e565b808252601f1961160482611c20565b0160005b8181106116c757505060005b81811061166e5760408051602080825285518183018190528187019383019160005b8281106116435784840385f35b8551805185526020908101516001600160a01b03169085015294810194604090930192600101611636565b6001810190818111610884576116c29161168782611841565b90546040519261169684611702565b835260039190911b1c6001600160a01b031660208201526116b78286611c37565b526108758185611c37565b611614565b6020906040516116d681611702565b6000815282600081830152828701015201611608565b602435906001600160401b03821682036104e157565b604081019081106001600160401b038211176104e657604052565b606081019081106001600160401b038211176104e657604052565b60e081019081106001600160401b038211176104e657604052565b602081019081106001600160401b038211176104e657604052565b90601f801991011681019081106001600160401b038211176104e657604052565b919082519283825260005b8481106117bb575050826000602080949584010152601f8019910116010190565b60208183018101518483018201520161179a565b6001600160a01b031660009081527f202e1867cade063e32a2eb339a246f853a1a233314949ba8d9e2ac766f6ed8496020526040902090565b6001600160a01b031660009081527f202e1867cade063e32a2eb339a246f853a1a233314949ba8d9e2ac766f6ed8466020526040902090565b600080516020611c6c8339815191528054821015611884576000527f5b627e705e277f4cd69351cfcf0179f3685951408382038c266c60748db0394a0190600090565b634e487b7160e01b600052603260045260246000fd5b600080516020611c6c8339815191528054680100000000000000008110156104e6576118cb91600182019055611841565b819291549060031b9160018060a01b03809116831b921b1916179055565b9067ffffffffffffffff60401b82549160401b169067ffffffffffffffff60401b1916179055565b805467ffffffffffffffff60801b191660809290921b67ffffffffffffffff60801b16919091179055565b90600182811c9216801561196c575b602083101461195657565b634e487b7160e01b600052602260045260246000fd5b91607f169161194b565b90601f811161198457505050565b600091825260208220906020601f850160051c830194106119c0575b601f0160051c01915b8281106119b557505050565b8181556001016119a9565b90925082906119a0565b9294936119e960609360ff93865260806020870152608086019061178f565b6001600160a01b03909616604085015216910152565b15611a0657565b60405162461bcd60e51b8152602060048201526016602482015275155cd95c881a5cc81b9bdd081c9959da5cdd195c995960521b6044820152606490fd5b15611a4b57565b60405162461bcd60e51b815260206004820152601d60248201527f546865205375737577617461726920646f6573206e6f742065786973740000006044820152606490fd5b90808214611b6457611aa2815461193c565b906001600160401b0382116104e6578190611ac182610a50865461193c565b600090601f8311600114611af857600092611aed575b50508160011b916000199060031b1c1916179055565b015490503880611ad7565b81526020808220858352818320935090601f1985169083905b828210611b4b575050908460019594939210611b32575b505050811b019055565b015460001960f88460031b161c19169055388080611b28565b8495819295850154815560018091019601940190611b11565b5050565b60001981146108845760010190565b15611b7e57565b60405162461bcd60e51b815260206004820152602e60248201527f43616c6c657220697320616c7265616479206361727279696e6720612053757360448201526d7577617461726920546f6b656e2160901b6064820152608490fd5b60405190611be78261171d565b60006040838281528260208201520152565b60405190611c068261171d565b600060408360608152611c17611bda565b60208201520152565b6001600160401b0381116104e65760051b60200190565b80518210156118845760209160051b01019056fe202e1867cade063e32a2eb339a246f853a1a233314949ba8d9e2ac766f6ed848202e1867cade063e32a2eb339a246f853a1a233314949ba8d9e2ac766f6ed847202e1867cade063e32a2eb339a246f853a1a233314949ba8d9e2ac766f6ed84b2ca41edd488e9162ca27cfff639cbe72d7b237e97090033ebb9212a7ec2de82da2646970667358221220e8a2d0cfc7fba1203b520a579966206056ac686f6c995a74ad0962f4634b73b164736f6c63430008120033",
  "devdoc": {
    "details": "Implementation of https://eips.ethereum.org/EIPS/eip-721[ERC721] Non-Fungible Token Standard, including the Metadata extension, but not including the Enumerable extension, which is available separately as {ERC721Enumerable}.",
    "kind": "dev",
    "methods": {},
    "version": 1
  },
  "userdoc": {
    "kind": "user",
    "methods": {},
    "version": 1
  },
  "storageLayout": {
    "storage": [],
    "types": null
  }
}