{
  "address": "0xEd233BbB6E65272c229B1A8690426337582B4d81",
  "abi": [
    {
      "anonymous": false,
      "inputs": [
        {
          "indexed": false,
          "internalType": "uint256",
          "name": "",
          "type": "uint256"
        }
      ],
      "name": "AssignActivatableAddressToSenderReturn",
      "type": "event"
    },
    {
      "inputs": [
        {
          "internalType": "address",
          "name": "assignee",
          "type": "address"
        }
      ],
      "name": "assignActivatableAddressToSender",
      "outputs": [],
      "stateMutability": "nonpayable",
      "type": "function"
    },
    {
      "inputs": [],
      "name": "getActivationCodeOfSender",
      "outputs": [
        {
          "internalType": "uint256",
          "name": "",
          "type": "uint256"
        }
      ],
      "stateMutability": "view",
      "type": "function"
    },
    {
      "inputs": [],
      "name": "getDeviceOwner",
      "outputs": [
        {
          "internalType": "address",
          "name": "",
          "type": "address"
        }
      ],
      "stateMutability": "view",
      "type": "function"
    },
    {
      "inputs": [],
      "name": "getRelatedDevices",
      "outputs": [
        {
          "internalType": "address[]",
          "name": "",
          "type": "address[]"
        }
      ],
      "stateMutability": "view",
      "type": "function"
    },
    {
      "inputs": [],
      "name": "isSenderRegistered",
      "outputs": [
        {
          "internalType": "bool",
          "name": "",
          "type": "bool"
        }
      ],
      "stateMutability": "view",
      "type": "function"
    },
    {
      "inputs": [
        {
          "internalType": "uint8",
          "name": "team",
          "type": "uint8"
        }
      ],
      "name": "registerAndAssignMe",
      "outputs": [],
      "stateMutability": "nonpayable",
      "type": "function"
    }
  ],
  "transactionHash": "0x22fcd8286b51f06b6bddc303dcd7fd8edf3c82314893388b50d792797131589e",
  "args": [],
  "numDeployments": 1,
  "solcInputHash": "ca0a18bb592a346e81cf7a4d24805ea6",
  "bytecode": "0x60808060405234610016576109e9908161001c8239f35b600080fdfe60806040908082526004908136101561001757600080fd5b600092833560e01c9182633aafa388146107075750816358944eb8146106505781639b8ae37514610611578163e0f64efc14610511578163e9ced0651461009a575063ec9492971461006857600080fd5b3461009657602036600319011261009657356001600160a01b03811681036100965761009390610742565b80f35b5080fd5b839150346100965760208060031936011261050d57833560ff8116809103610509576100c533610742565b3360009081527f202e1867cade063e32a2eb339a246f853a1a233314949ba8d9e2ac766f6ed84660205260409020546104c6577f202e1867cade063e32a2eb339a246f853a1a233314949ba8d9e2ac766f6ed8478054916001928381018091116104b35785519367ffffffffffffffff9160e08601838111878210176104a057885285528585019388855287860189815260608701918a83528951958987018781108782111761048c5792600160401b9d928a9795928d8f7f202e1867cade063e32a2eb339a246f853a1a233314949ba8d9e2ac766f6ed8498f60c060a0849f9d9b8f908f8791895252608081019e8f52019d8e339052019d8e52896101fc3360018060a01b03166000527f202e1867cade063e32a2eb339a246f853a1a233314949ba8d9e2ac766f6ed846602052604060002090565b5533835252209060ff1982541617905580549e8f101561047957848f018082558f1015610466578d9e8d918f527f5b627e705e277f4cd69351cfcf0179f3685951408382038c266c60748db0394a019d6bffffffffffffffffffffffff60a01b9e8f33908254161790558b5181527f202e1867cade063e32a2eb339a246f853a1a233314949ba8d9e2ac766f6ed8488d5220988a518a5551848a01555160028901555160038801558087019351908151938411610453578454908382811c92168015610449575b8b8310146104365750601f81116103ee575b5088908c601f851160011461036357937f202e1867cade063e32a2eb339a246f853a1a233314949ba8d9e2ac766f6ed84b9a9998979593819382936006999794610358575b50501b916000199060031b1c19161790555b600584019060018060a01b03905116898254161790555191015551855252822090339082541617905580f35b015192508f8061031a565b9190601f9493941984168684528b8420935b8181106103d9575091600697959391857f202e1867cade063e32a2eb339a246f853a1a233314949ba8d9e2ac766f6ed84b9d9c9b9a989694106103c0575b505050811b01905561032c565b015160001960f88460031b161c191690558d80806103b3565b82840151855593860193928c01928c01610375565b848d52898d20601f850160051c8101918b861061042c575b601f0160051c019083908e5b838210610421575050506102d5565b81550183908e610412565b9091508190610406565b634e487b7160e01b8e526022905260248dfd5b91607f16916102c3565b634e487b7160e01b8d526041905260248cfd5b634e487b7160e01b8e526032845260248efd5b634e487b7160e01b8e526041845260248efd5b50634e487b7160e01b8c5260418d5260248cfd5b634e487b7160e01b8a5260418b5260248afd5b634e487b7160e01b875260118852602487fd5b825162461bcd60e51b8152808601839052601760248201527f5573657220616c726561647920726567697374657265640000000000000000006044820152606490fd5b8380fd5b8280fd5b839150346100965781600319360112610096573360009081527f83ed3ba29c1d52058c877df3ebd264cf957c42ef7764387349be0ccf6df0b63c6020526040902091815190819284548084526020809401908196845284842090845b868282106105f45750505050849003601f01601f191684019567ffffffffffffffff8711858810176105e1575085815282865292518583018190528594938501939290915b8281106105c157505050500390f35b83516001600160a01b0316855286955093810193928101926001016105b2565b634e487b7160e01b835260419052602482fd5b83546001600160a01b03168552909301926001928301920161056d565b8390346100965781600319360112610096573382526000805160206109948339815191526020908152918190205490516001600160a01b039091168152f35b828434610704578060031936011261070457338152600080516020610994833981519152602052829020546001600160a01b0316156106c2573360009081527f83ed3ba29c1d52058c877df3ebd264cf957c42ef7764387349be0ccf6df0b63d60209081526040909120548351908152f35b6020606492519162461bcd60e51b8352820152601960248201527f446576696365206e6f74207965742072656769737465726564000000000000006044820152fd5b80fd5b84913461050d578260031936011261050d5733835260008051602061099483398151915260209081529220546001600160a01b031615158152f35b60018060a01b0380821690600090828252600080516020610994833981519152926020938085526040928084862054168015908115610989575b5015610945578285528186528385205416156108a1575b505080518381019042825244838201523360601b6060820152605481526080810181811067ffffffffffffffff82111761088d5783525190206064900691600a8310610840575b50816108387f4194273a0171865880e1d7a0089dcb6cfe51ce239b09acde0bf6cc5e071210b09560018060a01b03166000527f83ed3ba29c1d52058c877df3ebd264cf957c42ef7764387349be0ccf6df0b63d602052604060002090565b5551908152a1565b600a83929495930180921161087957509092917f4194273a0171865880e1d7a0089dcb6cfe51ce239b09acde0bf6cc5e071210b06107da565b634e487b7160e01b81526011600452602490fd5b634e487b7160e01b85526041600452602485fd5b3360009081527f83ed3ba29c1d52058c877df3ebd264cf957c42ef7764387349be0ccf6df0b63c60205260409020805490600160401b821015610931576001820180825582101561091d5785528585200180546001600160a01b0319908116841790915591845284528183208054909116331790553880610793565b634e487b7160e01b86526032600452602486fd5b634e487b7160e01b86526041600452602486fd5b835162461bcd60e51b815260048101879052601960248201527f44657669636520616c72656164792072656769737465726564000000000000006044820152606490fd5b905033143861077c56fe83ed3ba29c1d52058c877df3ebd264cf957c42ef7764387349be0ccf6df0b63ba26469706673582212203efcae4f1d4cc11abd6c7298ab8d1e426e3b4566dfa292794ec32f67bfb90f7964736f6c63430008120033",
  "devdoc": {
    "kind": "dev",
    "methods": {},
    "version": 1
  },
  "userdoc": {
    "kind": "user",
    "methods": {},
    "version": 1
  },
  "storageLayout": {
    "storage": [],
    "types": null
  }
}