{
  "address": "0x10b973e00103408F3d653bCb2790Cd687f14d988",
  "abi": [
    {
      "anonymous": false,
      "inputs": [
        {
          "indexed": false,
          "internalType": "uint256",
          "name": "originLocation",
          "type": "uint256"
        },
        {
          "indexed": false,
          "internalType": "uint256",
          "name": "currentLocation",
          "type": "uint256"
        },
        {
          "indexed": false,
          "internalType": "uint256",
          "name": "destination",
          "type": "uint256"
        },
        {
          "indexed": false,
          "internalType": "uint256",
          "name": "tokenId",
          "type": "uint256"
        },
        {
          "indexed": false,
          "internalType": "uint8",
          "name": "team",
          "type": "uint8"
        },
        {
          "indexed": false,
          "internalType": "string",
          "name": "message",
          "type": "string"
        }
      ],
      "name": "DroppedSusu",
      "type": "event"
    },
    {
      "anonymous": false,
      "inputs": [
        {
          "indexed": false,
          "internalType": "uint256",
          "name": "tokenId",
          "type": "uint256"
        },
        {
          "indexed": false,
          "internalType": "string",
          "name": "message",
          "type": "string"
        },
        {
          "indexed": false,
          "internalType": "address",
          "name": "owner",
          "type": "address"
        },
        {
          "indexed": false,
          "internalType": "uint8",
          "name": "team",
          "type": "uint8"
        }
      ],
      "name": "MintedSusu",
      "type": "event"
    },
    {
      "anonymous": false,
      "inputs": [
        {
          "indexed": false,
          "internalType": "uint256",
          "name": "tokenId",
          "type": "uint256"
        },
        {
          "indexed": false,
          "internalType": "uint256",
          "name": "location",
          "type": "uint256"
        },
        {
          "indexed": false,
          "internalType": "string",
          "name": "message",
          "type": "string"
        },
        {
          "indexed": false,
          "internalType": "address",
          "name": "sender",
          "type": "address"
        },
        {
          "indexed": false,
          "internalType": "address",
          "name": "owner",
          "type": "address"
        },
        {
          "indexed": false,
          "internalType": "uint8",
          "name": "team",
          "type": "uint8"
        }
      ],
      "name": "PickedUpSusu",
      "type": "event"
    },
    {
      "inputs": [
        {
          "internalType": "uint256",
          "name": "tokenId",
          "type": "uint256"
        },
        {
          "internalType": "uint256",
          "name": "location",
          "type": "uint256"
        },
        {
          "internalType": "uint256",
          "name": "destination",
          "type": "uint256"
        },
        {
          "internalType": "string",
          "name": "message",
          "type": "string"
        }
      ],
      "name": "aimInitialSusu",
      "outputs": [],
      "stateMutability": "nonpayable",
      "type": "function"
    },
    {
      "inputs": [
        {
          "internalType": "uint256",
          "name": "tokenId",
          "type": "uint256"
        },
        {
          "internalType": "uint256",
          "name": "location",
          "type": "uint256"
        }
      ],
      "name": "dropSusu",
      "outputs": [],
      "stateMutability": "nonpayable",
      "type": "function"
    },
    {
      "inputs": [],
      "name": "getAllSusuwataris",
      "outputs": [
        {
          "components": [
            {
              "internalType": "uint256",
              "name": "tokenId",
              "type": "uint256"
            },
            {
              "internalType": "address",
              "name": "owner",
              "type": "address"
            },
            {
              "internalType": "bool",
              "name": "isCarrying",
              "type": "bool"
            }
          ],
          "internalType": "struct LibSusuwatari.SusuwatariInfo[]",
          "name": "",
          "type": "tuple[]"
        }
      ],
      "stateMutability": "view",
      "type": "function"
    },
    {
      "inputs": [],
      "name": "getBaggedSusus",
      "outputs": [
        {
          "components": [
            {
              "internalType": "uint256",
              "name": "tokenId",
              "type": "uint256"
            },
            {
              "internalType": "address",
              "name": "carrier",
              "type": "address"
            }
          ],
          "internalType": "struct LibSusuwatari.BaggedSusuInfo[]",
          "name": "",
          "type": "tuple[]"
        }
      ],
      "stateMutability": "view",
      "type": "function"
    },
    {
      "inputs": [],
      "name": "getCurrentState",
      "outputs": [
        {
          "components": [
            {
              "internalType": "uint256[]",
              "name": "ownedTokens",
              "type": "uint256[]"
            },
            {
              "components": [
                {
                  "internalType": "uint256",
                  "name": "susuTokenId",
                  "type": "uint256"
                },
                {
                  "internalType": "uint256",
                  "name": "dropCooldownTime",
                  "type": "uint256"
                },
                {
                  "internalType": "address",
                  "name": "ownerAddress",
                  "type": "address"
                }
              ],
              "internalType": "struct BaggageSlot",
              "name": "slot",
              "type": "tuple"
            },
            {
              "internalType": "uint8",
              "name": "team",
              "type": "uint8"
            }
          ],
          "internalType": "struct UserState",
          "name": "",
          "type": "tuple"
        }
      ],
      "stateMutability": "view",
      "type": "function"
    },
    {
      "inputs": [],
      "name": "giveSusuwatari",
      "outputs": [],
      "stateMutability": "nonpayable",
      "type": "function"
    },
    {
      "inputs": [
        {
          "internalType": "uint8",
          "name": "team",
          "type": "uint8"
        }
      ],
      "name": "registerMe",
      "outputs": [],
      "stateMutability": "nonpayable",
      "type": "function"
    },
    {
      "inputs": [
        {
          "internalType": "uint256",
          "name": "tokenId",
          "type": "uint256"
        },
        {
          "internalType": "uint256",
          "name": "location",
          "type": "uint256"
        }
      ],
      "name": "tryPickupSusu",
      "outputs": [],
      "stateMutability": "nonpayable",
      "type": "function"
    }
  ],
  "transactionHash": "0xe453c7a583956c70f31eb86adf56bc7288114fba149816b78934a603debf5eb0",
  "args": [],
  "numDeployments": 1,
  "solcInputHash": "ca0a18bb592a346e81cf7a4d24805ea6",
  "bytecode": "0x6080806040523461001657611b18908161001c8239f35b600080fdfe6080604052600436101561001257600080fd5b60003560e01c80632a9664c714611325578063378aa701146110c45780637298c3c314610e1f578063a6cd652314610c45578063adc65c38146109a0578063c5b9c141146107da578063cda94eb4146104985763ef410cf91461007457600080fd5b346104935760803660031901126104935760643567ffffffffffffffff8111610493573660238201121561049357806004013567ffffffffffffffff81116103de57604051916100ce601f8301601f1916602001846114fa565b8183523660248383010111610493578160009260246020930183860137830101526101036100fb336115ca565b54151561176e565b600435151580610478575b610117906117b3565b60043560001981019081116103f45761012f90611603565b905460039190911b1c6001600160a01b0316331480610445575b1561040a57600435600052600080516020611a6383398151915260205260406000209061012d60405160208101906101b5816101a7600435334287916054939183526001600160601b03199060601b16602083015260348201520190565b03601f1981018352826114fa565b5190200661012c9081018091116103f457600683015560243560018301556024356002830155604435600383015580519167ffffffffffffffff83116103de5761020f8361020660048401546116ab565b600484016116e5565b6020601f84116001146103505792807fd144ad124f19f42d8e72c22759ffa0941569c00e89e82a60e302397e7f2c44b494600091610345575b508160011b916000199060031b1c19161760048201555b600581016001600160601b0360a01b808254168255600435600052600080516020611aa38339815191526020526040600020818154169055600080516020611a638339815191526020526040600020928084036102e6575b858560ff6102c433611591565b54166102e160405192839260043560443560243560243587611739565b0390a1005b60069283928254865560018301546001870155600283015460028701556003830154600387015561031d60048401600488016117ff565b90546005860180549092166001600160a01b03919091161790550154910155388080806102b7565b905083015138610248565b6004820160005260206000209060005b601f19861681106103c65750936001917fd144ad124f19f42d8e72c22759ffa0941569c00e89e82a60e302397e7f2c44b49582601f198116106103ad575b5050811b01600482015561025f565b85015160001960f88460031b161c19169055388061039e565b90916020600181928588015181550193019101610360565b634e487b7160e01b600052604160045260246000fd5b634e487b7160e01b600052601160045260246000fd5b60405162461bcd60e51b815260206004820152601360248201527221b0b63632b91034b9903737ba1037bbb732b960691b6044820152606490fd5b506004356000908152600080516020611a6383398151915260205260409020600501546001600160a01b03163314610149565b50600080516020611a8383398151915254600435111561010e565b600080fd5b34610493576104a636611474565b6104b26100fb336115ca565b811515806107c1575b6104c4906117b3565b600080516020611a8383398151915254906000805b838110610768575b506104ee9192501561198d565b81600052600080516020611a638339815191529160209183835260018060a01b038060056040600020015416610723576000198301948386116103f4578161053587611603565b919054339260031b1c16146106c6578360005280855260406000209161012d60405187810190610589816101a78a334287916054939183526001600160601b03199060601b16602083015260348201520190565b519020069161012c9283018093116103f4577f5a050f3c76b2e5b15146cf18e5d9e162fb4e6c51d6d56165c477dcfc8e2c62d49761065f93610620926006870191825560058701916001600160601b0360a01b9133838554161784558a600052600080516020611aa38339815191528c52604060002033848254161790558b52604060002092888403610675575b50505050611603565b90549060031b1c1692610642600460ff61063987611591565b541694016118d8565b90604051968796875286015260c0604086015260c085019061151c565b91336060850152608084015260a08301520390a1005b6006928954855560018a0154600186015560028a0154600286015560038a015460038601556106aa60048b01600487016117ff565b8760058601925416908254161790555491015589808080610617565b60405162461bcd60e51b815260048101869052602f60248201527f546865206f776e65722063616e6e6f74206d6f766520686973206f776e20616960448201526e6d656420537573757761746172692160881b6064820152608490fd5b60405162461bcd60e51b815260048101859052601e60248201527f5375737520697320616c7265616479206265696e6720636172726965642100006044820152606490fd5b60018082018083116103f4576000908152600080516020611a6383398151915260205260409020600501546001600160a01b031633146107b157506107ac9061197e565b6104d9565b9150506104ee91925082916104e1565b50600080516020611a83833981519152548211156104bb565b3461049357600036600319011261049357600080516020611a838339815191525460009060005b818110610948575061081282611a36565b9161082060405193846114fa565b80835261082f601f1991611a36565b0160005b8181106109235750506000805b8281106108975760408051602080825286518183018190528188019383019160005b82811061086f5784840385f35b8551805185528201516001600160a01b03168483015294810194604090930192600101610862565b600181018082116103f4576000818152600080516020611aa383398151915260209081526040909120546001600160a01b031690816108e2575b5050506108dd9061197e565b610840565b916108dd93949161091a93604051926108fa846114c2565b83528201526109098288611a4e565b526109148187611a4e565b5061197e565b919085806108d1565b602090604051610932816114c2565b6000815282600081830152828701015201610833565b600181018082116103f4576000908152600080516020611aa383398151915260205260409020546001600160a01b031661098b575b6109869061197e565b610801565b916109986109869161197e565b92905061097d565b34610493576020806003193601126104935760043560ff8116808203610493576109c9336115ca565b54610c0057600080516020611a838339815191525491600183018093116103f457604051926109f7846114a6565b8352838301916000835260408401936000855260608101936000855260405194610a20866114de565b600086526080830195865260a083019633885260c0840194600086526001610a47336115ca565b55610a5133611591565b9060ff19825416179055610a643361165c565b8351600052600080516020611a6383398151915289526040600020928451845551600184015551600283015551600382015560048101855180519067ffffffffffffffff82116103de57610ac282610abc85546116ab565b856116e5565b8990601f8311600114610b73579282600080516020611aa383398151915293600080516020611ac38339815191529c936102e19a99989796600092610b68575b50508160011b916000199060031b1c19161790555b6005830192600660018060a01b0396878c5116956001600160601b0360a01b96878254161790555191015583516000525260406000209033908254161790555193519451166040519485948561155c565b015190508d80610b02565b90601f19831691846000528b6000209260005b818110610be9575093600080516020611ac38339815191529c936102e19a999897969360019383600080516020611aa38339815191529810610bd0575b505050811b019055610b17565b015160001960f88460031b161c191690558d8080610bc3565b92938d600181928786015181550195019301610b86565b60405162461bcd60e51b815260048101849052601760248201527f5573657220616c726561647920726567697374657265640000000000000000006044820152606490fd5b3461049357610c5336611474565b610c5f6100fb336115ca565b81151580610e06575b610c71906117b3565b81600052600080516020611a63833981519152908160205260018060a01b039133836005604060002001541603610db057836102e1917fd144ad124f19f42d8e72c22759ffa0941569c00e89e82a60e302397e7f2c44b49560005280602052604060002094600686016000815560028701958655600587016001600160601b0360a01b93848254168255600080516020611aa38339815191526020526040600020858154169055602052604060002093888503610d62575b50505050506001840154925493600381015491610d55600460ff610d4c33611591565b541693016118d8565b9260405196879687611739565b6006938954865560018a015460018701558854600287015560038a01546003870155610d9460048b01600488016117ff565b6005860192541690825416179055549101558580808080610d29565b60405162461bcd60e51b815260206004820152602860248201527f43616c6c657220646f65736e27742063617272792061205375737577617461726044820152676920546f6b656e2160c01b6064820152608490fd5b50600080516020611a8383398151915254821115610c68565b3461049357600036600319011261049357610e3c6100fb336115ca565b600080516020611a83833981519152546000805b82811061106f575b50610e63901561198d565b60018082018092116103f45760405191610e7c836114a6565b82526020918281016000815260408201906000825260608301916000835260405194610ea7866114de565b600086526080850195865260a085019333855260c086019260008452610ecc3361165c565b8651600052600080516020611a638339815191528952604060002094875186555183860155516002850155516003840155600483019086519081519167ffffffffffffffff83116103de57610f2b83610f2586546116ab565b866116e5565b8990601f8411600114610fe557928080600080516020611ac38339815191529c9794600080516020611aa3833981519152999794600697600094610fda575b50501b916000199060031b1c19161790555b600583019560018060a01b03905116956001600160601b0360a01b96878254161790555191015583516000525260406000209033908254161790556102e160ff610fc533611591565b5416915192519160405193849333918561155c565b015192508e80610f6a565b90601f93929319831691856000528b6000209260005b81811061105a575092600695928592600080516020611ac38339815191529e9996600080516020611aa38339815191529b999610611041575b505050811b019055610f7c565b015160001960f88460031b161c191690558c8080611034565b82840151855593860193928d01928d01610ffb565b60018082018083116103f4576000908152600080516020611a6383398151915260205260409020600501546001600160a01b031633146110b857506110b39061197e565b610e50565b9150610e639050610e58565b34610493576000366003190112610493576110dd611a0f565b506110e6611a0f565b50600080600080516020611a8383398151915254905b8181106112e0575061110d82611a36565b9161111b60405193846114fa565b80835261112a601f1991611a36565b019160209236848301376000805b8381106112845750506111496119f0565b916000905b8082106111f7575b505060ff61116333611591565b5416604051916111728361148a565b8252838201928352604082019081526040519284845260c0840192519260a08686015283518091528560e0860194019060005b8181106111e35750505090839460ff925190815160408701528101516060860152604060018060a01b03910151166080850152511660a08301520390f35b8251865294870194918701916001016111a5565b60018201918281116103f4576000838152600080516020611aa3833981519152875260409020546001600160a01b03939084163314611242575061123c91925061197e565b9061114e565b6112709250808652600052600080516020611a63833981519152865260066040600020015486860152611603565b90549060031b1c1660408301528380611156565b61128d81611603565b90543360039290921b1c6001600160a01b0316146112b4575b6112af9061197e565b611138565b90600182018083116103f457816112d8916112d26112af9487611a4e565b5261197e565b9190506112a6565b6112e981611603565b90543360039290921b1c6001600160a01b031614611310575b61130b9061197e565b6110fc565b9161131d61130b9161197e565b929050611302565b3461049357600036600319011261049357600080516020611a838339815191525461134f81611a36565b9061135d60405192836114fa565b808252601f1961136c82611a36565b0160005b81811061145d57505060005b8181106113e05760408051602080825285518183018190528187019383019160005b8281106113ab5784840385f35b855180518552808301516001600160a01b0316858401526040908101511515908501529481019460609093019260010161139e565b60018101908181116103f45781611458926000526020600080516020611aa3833981519152815260018060a01b0390816040600020541615159161142385611603565b905490604051956114338761148a565b865260031b1c1690830152604082015261144d8286611a4e565b526109148185611a4e565b61137c565b6020906114686119f0565b82828701015201611370565b6040906003190112610493576004359060243590565b6060810190811067ffffffffffffffff8211176103de57604052565b60e0810190811067ffffffffffffffff8211176103de57604052565b6040810190811067ffffffffffffffff8211176103de57604052565b6020810190811067ffffffffffffffff8211176103de57604052565b90601f8019910116810190811067ffffffffffffffff8211176103de57604052565b919082519283825260005b848110611548575050826000602080949584010152601f8019910116010190565b602081830181015184830182015201611527565b92949361157b60609360ff93865260806020870152608086019061151c565b6001600160a01b03909616604085015216910152565b6001600160a01b031660009081527f202e1867cade063e32a2eb339a246f853a1a233314949ba8d9e2ac766f6ed8496020526040902090565b6001600160a01b031660009081527f202e1867cade063e32a2eb339a246f853a1a233314949ba8d9e2ac766f6ed8466020526040902090565b600080516020611a838339815191528054821015611646576000527f5b627e705e277f4cd69351cfcf0179f3685951408382038c266c60748db0394a0190600090565b634e487b7160e01b600052603260045260246000fd5b600080516020611a838339815191528054680100000000000000008110156103de5761168d91600182019055611603565b819291549060031b9160018060a01b03809116831b921b1916179055565b90600182811c921680156116db575b60208310146116c557565b634e487b7160e01b600052602260045260246000fd5b91607f16916116ba565b90601f81116116f357505050565b600091825260208220906020601f850160051c8301941061172f575b601f0160051c01915b82811061172457505050565b818155600101611718565b909250829061170f565b929360c09460ff9361176b98979386526020860152604085015260608401521660808201528160a0820152019061151c565b90565b1561177557565b60405162461bcd60e51b8152602060048201526016602482015275155cd95c881a5cc81b9bdd081c9959da5cdd195c995960521b6044820152606490fd5b156117ba57565b60405162461bcd60e51b815260206004820152601d60248201527f546865205375737577617461726920646f6573206e6f742065786973740000006044820152606490fd5b908082146118d45761181181546116ab565b9067ffffffffffffffff82116103de57819061183182610f2586546116ab565b600090601f83116001146118685760009261185d575b50508160011b916000199060031b1c1916179055565b015490503880611847565b81526020808220858352818320935090601f1985169083905b8282106118bb5750509084600195949392106118a2575b505050811b019055565b015460001960f88460031b161c19169055388080611898565b8495819295850154815560018091019601940190611881565b5050565b90604051918260008254926118ec846116ab565b90818452600194858116908160001461195b5750600114611918575b5050611916925003836114fa565b565b9093915060005260209081600020936000915b81831061194357505061191693508201013880611908565b8554888401850152948501948794509183019161192b565b91505061191694506020925060ff191682840152151560051b8201013880611908565b60001981146103f45760010190565b1561199457565b60405162461bcd60e51b815260206004820152602e60248201527f43616c6c657220697320616c7265616479206361727279696e6720612053757360448201526d7577617461726920546f6b656e2160901b6064820152608490fd5b604051906119fd8261148a565b60006040838281528260208201520152565b60405190611a1c8261148a565b600060408360608152611a2d6119f0565b60208201520152565b67ffffffffffffffff81116103de5760051b60200190565b80518210156116465760209160051b01019056fe202e1867cade063e32a2eb339a246f853a1a233314949ba8d9e2ac766f6ed848202e1867cade063e32a2eb339a246f853a1a233314949ba8d9e2ac766f6ed847202e1867cade063e32a2eb339a246f853a1a233314949ba8d9e2ac766f6ed84b2ca41edd488e9162ca27cfff639cbe72d7b237e97090033ebb9212a7ec2de82da2646970667358221220ec28bbc51ccb3229c52625518d2d23b585c5590f68b69d337bab9bc7e46688c964736f6c63430008120033",
  "devdoc": {
    "details": "Implementation of https://eips.ethereum.org/EIPS/eip-721[ERC721] Non-Fungible Token Standard, including the Metadata extension, but not including the Enumerable extension, which is available separately as {ERC721Enumerable}.",
    "kind": "dev",
    "methods": {},
    "version": 1
  },
  "userdoc": {
    "kind": "user",
    "methods": {},
    "version": 1
  },
  "storageLayout": {
    "storage": [],
    "types": null
  }
}