{
  "_format": "hh-sol-artifact-1",
  "contractName": "SusuwatariLeafWalletFacet",
  "sourceName": "contracts/SusuwatariLeafWalletFacet.sol",
  "abi": [
    {
      "anonymous": false,
      "inputs": [
        {
          "indexed": false,
          "internalType": "uint256",
          "name": "",
          "type": "uint256"
        }
      ],
      "name": "AssignActivatableAddressToSenderReturn",
      "type": "event"
    },
    {
      "inputs": [
        {
          "internalType": "address",
          "name": "assignee",
          "type": "address"
        }
      ],
      "name": "assignActivatableAddressToSender",
      "outputs": [],
      "stateMutability": "nonpayable",
      "type": "function"
    },
    {
      "inputs": [],
      "name": "getActivationCodeOfSender",
      "outputs": [
        {
          "internalType": "uint256",
          "name": "",
          "type": "uint256"
        }
      ],
      "stateMutability": "view",
      "type": "function"
    },
    {
      "inputs": [],
      "name": "getDeviceOwner",
      "outputs": [
        {
          "internalType": "address",
          "name": "",
          "type": "address"
        }
      ],
      "stateMutability": "view",
      "type": "function"
    },
    {
      "inputs": [],
      "name": "getRelatedDevices",
      "outputs": [
        {
          "internalType": "address[]",
          "name": "",
          "type": "address[]"
        }
      ],
      "stateMutability": "view",
      "type": "function"
    },
    {
      "inputs": [],
      "name": "isSenderRegistered",
      "outputs": [
        {
          "internalType": "bool",
          "name": "",
          "type": "bool"
        }
      ],
      "stateMutability": "view",
      "type": "function"
    },
    {
      "inputs": [
        {
          "internalType": "uint8",
          "name": "team",
          "type": "uint8"
        }
      ],
      "name": "registerAndAssignMe",
      "outputs": [],
      "stateMutability": "nonpayable",
      "type": "function"
    }
  ],
  "bytecode": "0x60808060405234610016576109c5908161001c8239f35b600080fdfe608080604052600436101561001357600080fd5b60003560e01c9081633aafa388146106e15750806358944eb8146106265780639b8ae375146105e7578063e0f64efc146104f8578063e9ced065146100955763ec9492971461006157600080fd5b34610090576020366003190112610090576004356001600160a01b03811681036100905761008e9061071e565b005b600080fd5b346100905760203660031901126100905760043560ff8116809103610090576100bd3361071e565b3360009081527f202e1867cade063e32a2eb339a246f853a1a233314949ba8d9e2ac766f6ed84660205260409020546104b3577f202e1867cade063e32a2eb339a246f853a1a233314949ba8d9e2ac766f6ed847908154916001830180931161049d576040519160e083019367ffffffffffffffff9484811086821117610471576040528352602083016000815260408401600081526060850193600085526040519360208501858110898211176104715760409081526000808752608089019687523360a08a0181905260c08a0182905281527f202e1867cade063e32a2eb339a246f853a1a233314949ba8d9e2ac766f6ed8466020908152828220600190557f202e1867cade063e32a2eb339a246f853a1a233314949ba8d9e2ac766f6ed849905220805460ff19169091179055805490600160401b8210156104715760018201808255821015610487576000527f5b627e705e277f4cd69351cfcf0179f3685951408382038c266c60748db0394a01336001600160601b0360a01b82541617905584516000527f202e1867cade063e32a2eb339a246f853a1a233314949ba8d9e2ac766f6ed8486020526040600020938551855586600186019351166fffffffffffffffff00000000000000008454935160401b169167ffffffffffffffff60801b905160801b169267ffffffffffffffff60c01b16171717905551928351908111610471576002820154600181811c91168015610467575b602082101461045157601f8111610406575b506020601f8211600114610398578192939460009261038d575b50508160011b916000199060031b1c19161760028201555b6003810160018060a01b0360a0840151166001600160601b0360a01b825416179055600460c0830151910155516000527f202e1867cade063e32a2eb339a246f853a1a233314949ba8d9e2ac766f6ed84b6020526040600020336001600160601b0360a01b825416179055600080f35b015190508480610305565b6002830160005260206000209060005b601f19841681106103ee5750600193949583601f198116106103d5575b505050811b01600282015561031d565b015160001960f88460031b161c191690558480806103c5565b9091602060018192858a0151815501930191016103a8565b600283016000526020600020601f830160051c81019160208410610447575b601f0160051c01905b81811061043b57506102eb565b6000815560010161042e565b9091508190610425565b634e487b7160e01b600052602260045260246000fd5b90607f16906102d9565b634e487b7160e01b600052604160045260246000fd5b634e487b7160e01b600052603260045260246000fd5b634e487b7160e01b600052601160045260246000fd5b60405162461bcd60e51b815260206004820152601760248201527f5573657220616c726561647920726567697374657265640000000000000000006044820152606490fd5b34610090576000366003190112610090573360009081527f83ed3ba29c1d52058c877df3ebd264cf957c42ef7764387349be0ccf6df0b63c60205260409020604051908181548084526020809401908193600052846000209060005b868282106105ca5750505050819003601f01601f191681019267ffffffffffffffff8411828510176104715783929183604052818401908285525180915260408401929160005b8281106105aa57505050500390f35b83516001600160a01b03168552869550938101939281019260010161059b565b83546001600160a01b031685529093019260019283019201610554565b346100905760003660031901126100905733600052600080516020610970833981519152602052602060018060a01b0360406000205416604051908152f35b346100905760003660031901126100905733600090815260008051602061097083398151915260205260409020546001600160a01b03161561069c573360009081527f83ed3ba29c1d52058c877df3ebd264cf957c42ef7764387349be0ccf6df0b63d6020908152604090912054604051908152f35b60405162461bcd60e51b815260206004820152601960248201527f446576696365206e6f74207965742072656769737465726564000000000000006044820152606490fd5b346100905760003660031901126100905760209033600052600080516020610970833981519152825260018060a01b036040600020541615158152f35b60018060a01b0380821690600090828252600080516020610970833981519152926020938085526040928084862054168015908115610965575b50156109215782855281865283852054161561087d575b505080518381019042825244838201523360601b6060820152605481526080810181811067ffffffffffffffff8211176108695783525190206064900691600a831061081c575b50816108147f4194273a0171865880e1d7a0089dcb6cfe51ce239b09acde0bf6cc5e071210b09560018060a01b03166000527f83ed3ba29c1d52058c877df3ebd264cf957c42ef7764387349be0ccf6df0b63d602052604060002090565b5551908152a1565b600a83929495930180921161085557509092917f4194273a0171865880e1d7a0089dcb6cfe51ce239b09acde0bf6cc5e071210b06107b6565b634e487b7160e01b81526011600452602490fd5b634e487b7160e01b85526041600452602485fd5b3360009081527f83ed3ba29c1d52058c877df3ebd264cf957c42ef7764387349be0ccf6df0b63c60205260409020805490600160401b82101561090d57600182018082558210156108f95785528585200180546001600160a01b031990811684179091559184528452818320805490911633179055388061076f565b634e487b7160e01b86526032600452602486fd5b634e487b7160e01b86526041600452602486fd5b835162461bcd60e51b815260048101879052601960248201527f44657669636520616c72656164792072656769737465726564000000000000006044820152606490fd5b905033143861075856fe83ed3ba29c1d52058c877df3ebd264cf957c42ef7764387349be0ccf6df0b63ba26469706673582212203ebf23f51c183fe6010f24f6227635513d36ed99a6269e60a874399e130b24b864736f6c63430008120033",
  "linkReferences": {},
  "deployedLinkReferences": {}
}