{
  "_format": "hh-sol-artifact-1",
  "contractName": "SusuwatariFacet",
  "sourceName": "contracts/SusuwatariFacet.sol",
  "abi": [
    {
      "inputs": [
        {
          "internalType": "uint256",
          "name": "tokenId",
          "type": "uint256"
        },
        {
          "internalType": "uint64",
          "name": "location",
          "type": "uint64"
        },
        {
          "internalType": "uint64",
          "name": "destination",
          "type": "uint64"
        },
        {
          "internalType": "string",
          "name": "message",
          "type": "string"
        }
      ],
      "name": "aimInitialSusu",
      "outputs": [
        {
          "internalType": "uint256",
          "name": "",
          "type": "uint256"
        },
        {
          "internalType": "uint64",
          "name": "",
          "type": "uint64"
        },
        {
          "internalType": "uint64",
          "name": "",
          "type": "uint64"
        },
        {
          "internalType": "string",
          "name": "",
          "type": "string"
        }
      ],
      "stateMutability": "nonpayable",
      "type": "function"
    },
    {
      "inputs": [
        {
          "internalType": "uint256",
          "name": "tokenId",
          "type": "uint256"
        },
        {
          "internalType": "uint64",
          "name": "location",
          "type": "uint64"
        }
      ],
      "name": "dropSusu",
      "outputs": [
        {
          "internalType": "uint256",
          "name": "",
          "type": "uint256"
        },
        {
          "internalType": "uint64",
          "name": "",
          "type": "uint64"
        }
      ],
      "stateMutability": "nonpayable",
      "type": "function"
    },
    {
      "inputs": [],
      "name": "getAllSusuwataris",
      "outputs": [
        {
          "components": [
            {
              "internalType": "uint256",
              "name": "tokenId",
              "type": "uint256"
            },
            {
              "internalType": "address",
              "name": "owner",
              "type": "address"
            }
          ],
          "internalType": "struct LibSusuwatari.SusuwatariInfo[]",
          "name": "",
          "type": "tuple[]"
        }
      ],
      "stateMutability": "view",
      "type": "function"
    },
    {
      "inputs": [],
      "name": "getBaggedSusus",
      "outputs": [
        {
          "components": [
            {
              "internalType": "uint256",
              "name": "tokenId",
              "type": "uint256"
            },
            {
              "internalType": "address",
              "name": "carrier",
              "type": "address"
            }
          ],
          "internalType": "struct LibSusuwatari.BaggedSusuInfo[]",
          "name": "",
          "type": "tuple[]"
        }
      ],
      "stateMutability": "view",
      "type": "function"
    },
    {
      "inputs": [],
      "name": "getCurrentState",
      "outputs": [
        {
          "components": [
            {
              "internalType": "uint256[]",
              "name": "ownedTokens",
              "type": "uint256[]"
            },
            {
              "components": [
                {
                  "internalType": "uint256",
                  "name": "susuTokenId",
                  "type": "uint256"
                },
                {
                  "internalType": "uint256",
                  "name": "dropCooldownTime",
                  "type": "uint256"
                },
                {
                  "internalType": "address",
                  "name": "ownerAddress",
                  "type": "address"
                }
              ],
              "internalType": "struct BaggageSlot",
              "name": "slot",
              "type": "tuple"
            }
          ],
          "internalType": "struct UserState",
          "name": "",
          "type": "tuple"
        }
      ],
      "stateMutability": "view",
      "type": "function"
    },
    {
      "inputs": [],
      "name": "giveSusuwatari",
      "outputs": [],
      "stateMutability": "nonpayable",
      "type": "function"
    },
    {
      "inputs": [],
      "name": "registerMe",
      "outputs": [],
      "stateMutability": "nonpayable",
      "type": "function"
    },
    {
      "inputs": [
        {
          "internalType": "uint256",
          "name": "tokenId",
          "type": "uint256"
        },
        {
          "internalType": "uint64",
          "name": "location",
          "type": "uint64"
        }
      ],
      "name": "tryPickupSusu",
      "outputs": [
        {
          "internalType": "uint256",
          "name": "",
          "type": "uint256"
        },
        {
          "internalType": "uint64",
          "name": "",
          "type": "uint64"
        }
      ],
      "stateMutability": "nonpayable",
      "type": "function"
    }
  ],
  "bytecode": "0x6080806040523461001657611926908161001c8239f35b600080fdfe6080604052600436101561001257600080fd5b60003560e01c80632a9664c7146112bb578063378aa701146110745780637298c3c314610e7857806374015e5114610b1e5780639a198d61146108ba578063c5b9c141146106db578063ce603f231461050a5763e803b6f21461007457600080fd5b346104ef5760803660031901126104ef5761008d6113ea565b6044356001600160401b03811681036104ef57606435906001600160401b0382116104ef57366023830112156104ef578160040135916001600160401b0383116104f457604051926100e9601f8201601f191660200185611451565b808452602491368383830101116104ef57816000928460209301838801378501015261011f61011733611472565b541515611634565b6004351515806104d4575b61013390611679565b60043560001981019081116104525761014b906114ab565b905460039190911b1c6001600160a01b03163314806104a1575b156104675760043560005260008051602061189183398151915260205260406000209061012d60405160208101906101d1816101c3600435334287916054939183526001600160601b03199060601b16602083015260348201520190565b03601f198101835282611451565b5190200661012c90810180911161045257600483015560018201805467ffffffffffffffff19166001600160401b038716178155610210908690611553565b61021d836001840161157b565b8351906001600160401b03821161043e57506102498161024060028501546115a6565b600285016115e0565b6020601f82116001146103c75790806001600160401b039493926000916103bc575b508160011b916000199060031b1c19161760028201555b600381016001600160601b0360a01b8082541682556004356000526000805160206118b18339815191526020526040600020818154169055600080516020611891833981519152602052604060002092808403610342575b5050505081604051946004358652166020850152166040830152608060608301528181519182608083015260005b83811061032a57505081600060a0809484010152601f80199101168101030190f35b602082820181015160a0878401015285935001610308565b60049283928254865561038460018701896001860154168a198254161781556103748a600187015460401c1682611553565b89600186015460801c169061157b565b61039460028401600288016116c5565b90546003860180549092166001600160a01b03919091161790550154910155388080806102da565b90508501513861026b565b6002830160005260206000209060005b601f19841681106104265750916001916001600160401b0395949382601f1981161061040d575b5050811b016002820155610282565b87015160001960f88460031b161c1916905538806103fe565b9091602060018192858a0151815501930191016103d7565b634e487b7160e01b60009081526041600452fd5b50634e487b7160e01b60009081526011600452fd5b60649060136040519162461bcd60e51b8352602060048401528201527221b0b63632b91034b9903737ba1037bbb732b960691b6044820152fd5b50600435600090815260008051602061189183398151915260205260409020600301546001600160a01b03163314610165565b506000805160206118d183398151915254600435111561012a565b600080fd5b634e487b7160e01b600052604160045260246000fd5b346104ef5760403660031901126104ef576004356105266113ea565b9061053361011733611472565b801515806106c2575b61054590611679565b806000526000805160206118918339815191528060205260018060a01b03903382600360406000200154160361066c578260005280602052604060002091600483019060008255600184019261059b8785611553565b60038501916001600160601b0360a01b918284541684556000805160206118b183398151915260205260406000208381541690556020526040600020958087036105f8575b604080518981526001600160401b038b166020820152f35b60028161064460049861064e94548b5560018b01906001600160401b0390818154166001600160401b031984541617835561063982825460401c1684611553565b5460801c169061157b565b01600288016116c5565b600386019254169082541617905554910155828080808080806105e0565b60405162461bcd60e51b815260206004820152602860248201527f43616c6c657220646f65736e27742063617272792061205375737577617461726044820152676920546f6b656e2160c01b6064820152608490fd5b506000805160206118d18339815191525481111561053c565b346104ef5760003660031901126104ef576000805160206118d18339815191525460009060005b818110610862575061071382611865565b916107216040519384611451565b808352610730601f1991611865565b0160005b81811061083d5750506000805b82811061079b5760408051602080825286518183018190528188019383019160005b8281106107705784840385f35b8551805185526020908101516001600160a01b03169085015294810194604090930192600101610763565b600181018082116108275760008181526000805160206118b183398151915260209081526040909120546001600160a01b031690816107e6575b5050506107e1906117a3565b610741565b916107e193949161081e93604051926107fe84611400565b835282015261080d828861187c565b52610818818761187c565b506117a3565b919085806107d5565b634e487b7160e01b600052601160045260246000fd5b60209060405161084c81611400565b6000815282600081830152828701015201610734565b600181018082116108275760009081526000805160206118b183398151915260205260409020546001600160a01b03166108a5575b6108a0906117a3565b610702565b916108b26108a0916117a3565b929050610897565b346104ef5760003660031901126104ef576108d433611472565b54610ad9576000805160206118d183398151915254600180820180921161082757604051916109028361141b565b825260208083019260008452604081019360008552606082016000815260405161092b81611436565b600081526080840190815260a08401953387526109b360c0860193600085528261095433611472565b5561095e33611504565b8651600052600080516020611891833981519152885260406000209587518755838701916109ab6001600160401b03809d81809551166001600160401b0319875416178655511684611553565b51169061157b565b60028401915180519889116104f4576109d6896109d085546115a6565b856115e0565b8690601f8a11600114610a61579880600495949381936000805160206118b18339815191529b9c600094610a56575b50501b916000199060031b1c19161790555b600383019660018060a01b03905116966001600160601b0360a01b97888254161790555191015551600052526040600020903390825416179055600080f35b015192508c80610a05565b9890601f1982169984600052886000209a60005b818110610ac45750916000805160206118b18339815191529a9b91846004989796959410610aab575b505050811b019055610a17565b015160001960f88460031b161c191690558a8080610a9e565b838301518d559b85019b928a01928a01610a75565b60405162461bcd60e51b815260206004820152601760248201527f5573657220616c726561647920726567697374657265640000000000000000006044820152606490fd5b346104ef5760403660031901126104ef57600435610b3a6113ea565b90610b4761011733611472565b80151580610e5f575b610b5990611679565b6000805160206118d183398151915254906000805b838110610e06575b50610b83919250156117b2565b600081815260008051602061189183398151915260208181526040909220600301546001600160a01b03908116610dc157600019840184811161082757610bca82916114ab565b905460039190911b1c163314610d64578360005281835260406000209160018301936001600160401b039283865460401c1684891603610d1157604051428382019081523360601b6bffffffffffffffffffffffff191660208201526034810189905261012d91610c3e81605484016101c3565b519020069361012c948501809511610827576004860194855560038601936001600160601b0360a01b933385875416178655896000526000805160206118b183398151915281526040600020338682541617905552604060002096868803610cb9575b604080518a81526001600160401b038c166020820152f35b86610644600292610cf29460049a548c5560018c0191818154166001600160401b031984541617835561063982825460401c1684611553565b6003860192541690825416179055549101558280808080808080610ca1565b60405162461bcd60e51b815260048101839052602560248201527f43616c6c6572206973206e6f7420696e2074686520636f7272656374206c6f6360448201526430ba34b7b760d91b6064820152608490fd5b60405162461bcd60e51b815260048101849052602f60248201527f546865206f776e65722063616e6e6f74206d6f766520686973206f776e20616960448201526e6d656420537573757761746172692160881b6064820152608490fd5b60405162461bcd60e51b815260048101849052601e60248201527f5375737520697320616c7265616479206265696e6720636172726965642100006044820152606490fd5b600180820180831161082757600090815260008051602061189183398151915260205260409020600301546001600160a01b03163314610e4f5750610e4a906117a3565b610b6e565b915050610b839192508291610b76565b506000805160206118d183398151915254811115610b50565b346104ef5760003660031901126104ef57610e9561011733611472565b6000805160206118d1833981519152546000805b82811061101f575b50610ebc90156117b2565b60018082018092116108275760405191610ed58361141b565b8252602080830192600084526040810193600085526060820160008152604051610efe81611436565b600081526080840190815260a0840195338752610f2660c08601936000855261095e33611504565b60028401915180519889116104f457610f43896109d085546115a6565b8690601f8a11600114610fc1579880600495949381936000805160206118b18339815191529b9c600094610a565750501b916000199060031b1c1916179055600383019660018060a01b03905116966001600160601b0360a01b97888254161790555191015551600052526040600020903390825416179055600080f35b9890601f1982169984600052886000209a60005b81811061100a5750916000805160206118b18339815191529a9b91846004989796959410610aab57505050811b019055610a17565b838301518d559b85019b928a01928a01610fd5565b600180820180831161082757600090815260008051602061189183398151915260205260409020600301546001600160a01b031633146110685750611063906117a3565b610ea9565b9150610ebc9050610eb1565b346104ef5760003660031901126104ef5761108d611844565b50611096611844565b506000806000805160206118d183398151915254905b81811061127657506110bd82611865565b916110cb6040519384611451565b8083526110da601f1991611865565b019060209136838501376000805b82811061121a5750506110f9611815565b906000905b80821061118d575b50506040519261111584611400565b83528183019081526040519180835260a0830193519160808285015282518095528160c0850193016000955b80871061117657505051805160408086019190915291810151606085015201516001600160a01b031660808301528190039150f35b909383806001928751815201950196019590611141565b60018201918281116108275760008381526000805160206118b1833981519152865260409020546001600160a01b039390841633146111d857506111d29192506117a3565b906110fe565b61120692508085526000526000805160206118918339815191528552600460406000200154858501526114ab565b90549060031b1c1660408201528380611106565b611223816114ab565b90543360039290921b1c6001600160a01b03161461124a575b611245906117a3565b6110e8565b9060018201808311610827578161126e91611268611245948961187c565b526117a3565b91905061123c565b61127f816114ab565b90543360039290921b1c6001600160a01b0316146112a6575b6112a1906117a3565b6110ac565b916112b36112a1916117a3565b929050611298565b346104ef5760003660031901126104ef576000805160206118d1833981519152546112e581611865565b906112f36040519283611451565b808252601f1961130282611865565b0160005b8181106113c557505060005b81811061136c5760408051602080825285518183018190528187019383019160005b8281106113415784840385f35b8551805185526020908101516001600160a01b03169085015294810194604090930192600101611334565b6001810190818111610827576113c091611385826114ab565b90546040519261139484611400565b835260039190911b1c6001600160a01b031660208201526113b5828661187c565b52610818818561187c565b611312565b6020906040516113d481611400565b6000815282600081830152828701015201611306565b602435906001600160401b03821682036104ef57565b604081019081106001600160401b038211176104f457604052565b60e081019081106001600160401b038211176104f457604052565b602081019081106001600160401b038211176104f457604052565b90601f801991011681019081106001600160401b038211176104f457604052565b6001600160a01b031660009081527f202e1867cade063e32a2eb339a246f853a1a233314949ba8d9e2ac766f6ed8466020526040902090565b6000805160206118d183398151915280548210156114ee576000527f5b627e705e277f4cd69351cfcf0179f3685951408382038c266c60748db0394a0190600090565b634e487b7160e01b600052603260045260246000fd5b6000805160206118d18339815191528054680100000000000000008110156104f457611535916001820190556114ab565b819291549060031b9160018060a01b03809116831b921b1916179055565b9067ffffffffffffffff60401b82549160401b169067ffffffffffffffff60401b1916179055565b805467ffffffffffffffff60801b191660809290921b67ffffffffffffffff60801b16919091179055565b90600182811c921680156115d6575b60208310146115c057565b634e487b7160e01b600052602260045260246000fd5b91607f16916115b5565b90601f81116115ee57505050565b600091825260208220906020601f850160051c8301941061162a575b601f0160051c01915b82811061161f57505050565b818155600101611613565b909250829061160a565b1561163b57565b60405162461bcd60e51b8152602060048201526016602482015275155cd95c881a5cc81b9bdd081c9959da5cdd195c995960521b6044820152606490fd5b1561168057565b60405162461bcd60e51b815260206004820152601d60248201527f546865205375737577617461726920646f6573206e6f742065786973740000006044820152606490fd5b9080821461179f576116d781546115a6565b906001600160401b0382116104f45781906116fc826116f686546115a6565b866115e0565b600090601f831160011461173357600092611728575b50508160011b916000199060031b1c1916179055565b015490503880611712565b81526020808220858352818320935090601f1985169083905b82821061178657505090846001959493921061176d575b505050811b019055565b015460001960f88460031b161c19169055388080611763565b849581929585015481556001809101960194019061174c565b5050565b60001981146108275760010190565b156117b957565b60405162461bcd60e51b815260206004820152602e60248201527f43616c6c657220697320616c7265616479206361727279696e6720612053757360448201526d7577617461726920546f6b656e2160901b6064820152608490fd5b60405190606082018281106001600160401b038211176104f45760405260006040838281528260208201520152565b6040519061185182611400565b81606081526020611860611815565b910152565b6001600160401b0381116104f45760051b60200190565b80518210156114ee5760209160051b01019056fe202e1867cade063e32a2eb339a246f853a1a233314949ba8d9e2ac766f6ed848202e1867cade063e32a2eb339a246f853a1a233314949ba8d9e2ac766f6ed84a202e1867cade063e32a2eb339a246f853a1a233314949ba8d9e2ac766f6ed847a26469706673582212201d39fdfabbdc806dba09b23c6ca991f8d5efe144a935430b9ee82fb2e6ed58d764736f6c63430008120033",
  "linkReferences": {},
  "deployedLinkReferences": {}
}