{"contracts/LibSusuwatari.sol":{"LibSusuwatari":{"abi":[{"inputs":[{"internalType":"uint8","name":"month","type":"uint8"},{"internalType":"uint16","name":"year","type":"uint16"}],"name":"getDaysInMonth","outputs":[{"internalType":"uint8","name":"","type":"uint8"}],"stateMutability":"pure","type":"function"},{"inputs":[{"internalType":"uint256","name":"timestamp","type":"uint256"}],"name":"getMonth","outputs":[{"internalType":"uint8","name":"","type":"uint8"}],"stateMutability":"pure","type":"function"},{"inputs":[{"internalType":"uint256","name":"timestamp","type":"uint256"}],"name":"getYear","outputs":[{"internalType":"uint16","name":"","type":"uint16"}],"stateMutability":"pure","type":"function"},{"inputs":[{"internalType":"uint16","name":"year","type":"uint16"}],"name":"isLeapYear","outputs":[{"internalType":"bool","name":"","type":"bool"}],"stateMutability":"pure","type":"function"},{"inputs":[{"internalType":"uint256","name":"year","type":"uint256"}],"name":"leapYearsBefore","outputs":[{"internalType":"uint256","name":"","type":"uint256"}],"stateMutability":"pure","type":"function"}],"devdoc":{"kind":"dev","methods":{},"version":1},"evm":{"bytecode":{"linkReferences":{},"object":"6080806040523461001a576106e99081610021823930815050f35b50600080fdfe6040608081526004361015610015575b50600080fd5b60003560e01c806392d66313146100e5578063a324ad24146100cf578063a6f0e577146100a8578063b1999937146100835763b238ad0e146100565761000f565b61007f9061006c61006636610146565b906105cd565b905160ff90911681529081906020820190565b0390f35b5061007f906100996100943661010f565b61025f565b90519081529081906020820190565b5061007f906100be6100b936610121565b61017b565b905190151581529081906020820190565b5061007f9061006c6100e03661010f565b610479565b5061007f906100fb6100f63661010f565b6103a8565b905161ffff90911681529081906020820190565b602090600319011261000f5760043590565b602090600319011261000f5760043561ffff811681141561013f5790565b5050600080fd5b604090600319011261000f5760043560ff811681141561013f579060243561ffff81168114156101735790565b505050600080fd5b600381166101ae5761ffff8091168160648206166101a7576101909006166101a257600190565b600090565b5050600190565b50600090565b50634e487b7160e01b600052601160045260246000fd5b6301e1338081106101e1575b6301e1337f190190565b6101e96101b4565b6101d7565b6301e285008110610204575b6301e284ff190190565b61020c6101b4565b6101fa565b6101dd8110610223575b6101dc190190565b61022b6101b4565b61021b565b81811061023b570390565b6102436101b4565b0390565b81198111610253570190565b61025b6101b4565b0190565b61028d906001811061029d575b600019018060021c906101906064820491828410610290575b049103610247565b90565b6102986101b4565b610285565b6102a56101b4565b61026c565b7c87d206500cf71c7a443cd6c7ebe38ec0b59488f085555dd275ba5624c781116001166102db575b6301e285000290565b6102e36101b4565b6102d2565b7c883148f5cb1270b85273b667ae1cfdf5d70ac5a1ecccd54fe15c297df38111600116610319575b6301e133800290565b6103216101b4565b610310565b7dc22e450672894ab6cd8efb11d33f5617839a5bc7dea00c22e450672894ab8111600116610357575b620151800290565b61035f6101b4565b61034f565b61ffff166107b2811061037a575b6107b1190190565b6103826101b4565b610372565b61ffff166001811061039b575b6000190190565b6103a36101b4565b610394565b6301e133808104906104126107b28319811161046c575b61ffff93849101169261040c6103d48561025f565b6101dd9081811061045f575b6101dc1981016103ef816102aa565b946103f989610364565b16908110610452575b96959603016102e8565b90610247565b82811161041f5750905090565b6104439061042f6100b984610387565b156104495761043d906101ee565b91610387565b90610412565b61043d906101cb565b61045a6101b4565b610402565b6104676101b4565b6103e0565b6104746101b4565b6103bf565b610481610578565b9061049661048e826103a8565b61ffff168352565b6104eb6104ba6104b56100946104ae865161ffff1690565b61ffff1690565b610211565b61040c6104e66104c9836102aa565b926104e16104ae6104dc895161ffff1690565b610364565b610230565b6102e8565b6001905b600c60ff83161115610509575b5050506020015160ff1690565b61052f61052a61052461051e875161ffff1690565b856105cd565b60ff1690565b610326565b908361053b8284610247565b11610559576105539161054d91610247565b916105bb565b906104ef565b5050602091509161057160ff938383019060ff169052565b91386104fc565b604051906040820182811067ffffffffffffffff8211176105a25760405260006020838281520152565b505050634e487b7160e01b600052604160045260246000fd5b60ff6001911660ff8114610253570190565b60ff1660018114801561069b575b8015610691575b8015610687575b801561067d575b8015610673575b8015610669575b1561060a575050601f90565b6004811490811561065e575b8115610653575b8115610648575b50156106305750601e90565b6106399061017b565b1561064357601d90565b601c90565b600b91501438610624565b60098114915061061d565b600681149150610616565b50600c81146105fe565b50600a81146105f7565b50600881146105f0565b50600781146105e9565b50600581146105e2565b50600381146105db56fea364697066735822122078a15abef96075d2d70f38e35f48103095d877c66d9f39a275eafa1b390a1b246c6578706572696d656e74616cf564736f6c634300080a0041","opcodes":"PUSH1 0x80 DUP1 PUSH1 0x40 MSTORE CALLVALUE PUSH2 0x1A JUMPI PUSH2 0x6E9 SWAP1 DUP2 PUSH2 0x21 DUP3 CODECOPY ADDRESS DUP2 POP POP RETURN JUMPDEST POP PUSH1 0x0 DUP1 REVERT INVALID PUSH1 0x40 PUSH1 0x80 DUP2 MSTORE PUSH1 0x4 CALLDATASIZE LT ISZERO PUSH2 0x15 JUMPI JUMPDEST POP PUSH1 0x0 DUP1 REVERT JUMPDEST PUSH1 0x0 CALLDATALOAD PUSH1 0xE0 SHR DUP1 PUSH4 0x92D66313 EQ PUSH2 0xE5 JUMPI DUP1 PUSH4 0xA324AD24 EQ PUSH2 0xCF JUMPI DUP1 PUSH4 0xA6F0E577 EQ PUSH2 0xA8 JUMPI DUP1 PUSH4 0xB1999937 EQ PUSH2 0x83 JUMPI PUSH4 0xB238AD0E EQ PUSH2 0x56 JUMPI PUSH2 0xF JUMP JUMPDEST PUSH2 0x7F SWAP1 PUSH2 0x6C PUSH2 0x66 CALLDATASIZE PUSH2 0x146 JUMP JUMPDEST SWAP1 PUSH2 0x5CD JUMP JUMPDEST SWAP1 MLOAD PUSH1 0xFF SWAP1 SWAP2 AND DUP2 MSTORE SWAP1 DUP2 SWAP1 PUSH1 0x20 DUP3 ADD SWAP1 JUMP JUMPDEST SUB SWAP1 RETURN JUMPDEST POP PUSH2 0x7F SWAP1 PUSH2 0x99 PUSH2 0x94 CALLDATASIZE PUSH2 0x10F JUMP JUMPDEST PUSH2 0x25F JUMP JUMPDEST SWAP1 MLOAD SWAP1 DUP2 MSTORE SWAP1 DUP2 SWAP1 PUSH1 0x20 DUP3 ADD SWAP1 JUMP JUMPDEST POP PUSH2 0x7F SWAP1 PUSH2 0xBE PUSH2 0xB9 CALLDATASIZE PUSH2 0x121 JUMP JUMPDEST PUSH2 0x17B JUMP JUMPDEST SWAP1 MLOAD SWAP1 ISZERO ISZERO DUP2 MSTORE SWAP1 DUP2 SWAP1 PUSH1 0x20 DUP3 ADD SWAP1 JUMP JUMPDEST POP PUSH2 0x7F SWAP1 PUSH2 0x6C PUSH2 0xE0 CALLDATASIZE PUSH2 0x10F JUMP JUMPDEST PUSH2 0x479 JUMP JUMPDEST POP PUSH2 0x7F SWAP1 PUSH2 0xFB PUSH2 0xF6 CALLDATASIZE PUSH2 0x10F JUMP JUMPDEST PUSH2 0x3A8 JUMP JUMPDEST SWAP1 MLOAD PUSH2 0xFFFF SWAP1 SWAP2 AND DUP2 MSTORE SWAP1 DUP2 SWAP1 PUSH1 0x20 DUP3 ADD SWAP1 JUMP JUMPDEST PUSH1 0x20 SWAP1 PUSH1 0x3 NOT ADD SLT PUSH2 0xF JUMPI PUSH1 0x4 CALLDATALOAD SWAP1 JUMP JUMPDEST PUSH1 0x20 SWAP1 PUSH1 0x3 NOT ADD SLT PUSH2 0xF JUMPI PUSH1 0x4 CALLDATALOAD PUSH2 0xFFFF DUP2 AND DUP2 EQ ISZERO PUSH2 0x13F JUMPI SWAP1 JUMP JUMPDEST POP POP PUSH1 0x0 DUP1 REVERT JUMPDEST PUSH1 0x40 SWAP1 PUSH1 0x3 NOT ADD SLT PUSH2 0xF JUMPI PUSH1 0x4 CALLDATALOAD PUSH1 0xFF DUP2 AND DUP2 EQ ISZERO PUSH2 0x13F JUMPI SWAP1 PUSH1 0x24 CALLDATALOAD PUSH2 0xFFFF DUP2 AND DUP2 EQ ISZERO PUSH2 0x173 JUMPI SWAP1 JUMP JUMPDEST POP POP POP PUSH1 0x0 DUP1 REVERT JUMPDEST PUSH1 0x3 DUP2 AND PUSH2 0x1AE JUMPI PUSH2 0xFFFF DUP1 SWAP2 AND DUP2 PUSH1 0x64 DUP3 MOD AND PUSH2 0x1A7 JUMPI PUSH2 0x190 SWAP1 MOD AND PUSH2 0x1A2 JUMPI PUSH1 0x1 SWAP1 JUMP JUMPDEST PUSH1 0x0 SWAP1 JUMP JUMPDEST POP POP PUSH1 0x1 SWAP1 JUMP JUMPDEST POP PUSH1 0x0 SWAP1 JUMP JUMPDEST POP PUSH4 0x4E487B71 PUSH1 0xE0 SHL PUSH1 0x0 MSTORE PUSH1 0x11 PUSH1 0x4 MSTORE PUSH1 0x24 PUSH1 0x0 REVERT JUMPDEST PUSH4 0x1E13380 DUP2 LT PUSH2 0x1E1 JUMPI JUMPDEST PUSH4 0x1E1337F NOT ADD SWAP1 JUMP JUMPDEST PUSH2 0x1E9 PUSH2 0x1B4 JUMP JUMPDEST PUSH2 0x1D7 JUMP JUMPDEST PUSH4 0x1E28500 DUP2 LT PUSH2 0x204 JUMPI JUMPDEST PUSH4 0x1E284FF NOT ADD SWAP1 JUMP JUMPDEST PUSH2 0x20C PUSH2 0x1B4 JUMP JUMPDEST PUSH2 0x1FA JUMP JUMPDEST PUSH2 0x1DD DUP2 LT PUSH2 0x223 JUMPI JUMPDEST PUSH2 0x1DC NOT ADD SWAP1 JUMP JUMPDEST PUSH2 0x22B PUSH2 0x1B4 JUMP JUMPDEST PUSH2 0x21B JUMP JUMPDEST DUP2 DUP2 LT PUSH2 0x23B JUMPI SUB SWAP1 JUMP JUMPDEST PUSH2 0x243 PUSH2 0x1B4 JUMP JUMPDEST SUB SWAP1 JUMP JUMPDEST DUP2 NOT DUP2 GT PUSH2 0x253 JUMPI ADD SWAP1 JUMP JUMPDEST PUSH2 0x25B PUSH2 0x1B4 JUMP JUMPDEST ADD SWAP1 JUMP JUMPDEST PUSH2 0x28D SWAP1 PUSH1 0x1 DUP2 LT PUSH2 0x29D JUMPI JUMPDEST PUSH1 0x0 NOT ADD DUP1 PUSH1 0x2 SHR SWAP1 PUSH2 0x190 PUSH1 0x64 DUP3 DIV SWAP2 DUP3 DUP5 LT PUSH2 0x290 JUMPI JUMPDEST DIV SWAP2 SUB PUSH2 0x247 JUMP JUMPDEST SWAP1 JUMP JUMPDEST PUSH2 0x298 PUSH2 0x1B4 JUMP JUMPDEST PUSH2 0x285 JUMP JUMPDEST PUSH2 0x2A5 PUSH2 0x1B4 JUMP JUMPDEST PUSH2 0x26C JUMP JUMPDEST PUSH29 0x87D206500CF71C7A443CD6C7EBE38EC0B59488F085555DD275BA5624C7 DUP2 GT PUSH1 0x1 AND PUSH2 0x2DB JUMPI JUMPDEST PUSH4 0x1E28500 MUL SWAP1 JUMP JUMPDEST PUSH2 0x2E3 PUSH2 0x1B4 JUMP JUMPDEST PUSH2 0x2D2 JUMP JUMPDEST PUSH29 0x883148F5CB1270B85273B667AE1CFDF5D70AC5A1ECCCD54FE15C297DF3 DUP2 GT PUSH1 0x1 AND PUSH2 0x319 JUMPI JUMPDEST PUSH4 0x1E13380 MUL SWAP1 JUMP JUMPDEST PUSH2 0x321 PUSH2 0x1B4 JUMP JUMPDEST PUSH2 0x310 JUMP JUMPDEST PUSH30 0xC22E450672894AB6CD8EFB11D33F5617839A5BC7DEA00C22E450672894AB DUP2 GT PUSH1 0x1 AND PUSH2 0x357 JUMPI JUMPDEST PUSH3 0x15180 MUL SWAP1 JUMP JUMPDEST PUSH2 0x35F PUSH2 0x1B4 JUMP JUMPDEST PUSH2 0x34F JUMP JUMPDEST PUSH2 0xFFFF AND PUSH2 0x7B2 DUP2 LT PUSH2 0x37A JUMPI JUMPDEST PUSH2 0x7B1 NOT ADD SWAP1 JUMP JUMPDEST PUSH2 0x382 PUSH2 0x1B4 JUMP JUMPDEST PUSH2 0x372 JUMP JUMPDEST PUSH2 0xFFFF AND PUSH1 0x1 DUP2 LT PUSH2 0x39B JUMPI JUMPDEST PUSH1 0x0 NOT ADD SWAP1 JUMP JUMPDEST PUSH2 0x3A3 PUSH2 0x1B4 JUMP JUMPDEST PUSH2 0x394 JUMP JUMPDEST PUSH4 0x1E13380 DUP2 DIV SWAP1 PUSH2 0x412 PUSH2 0x7B2 DUP4 NOT DUP2 GT PUSH2 0x46C JUMPI JUMPDEST PUSH2 0xFFFF SWAP4 DUP5 SWAP2 ADD AND SWAP3 PUSH2 0x40C PUSH2 0x3D4 DUP6 PUSH2 0x25F JUMP JUMPDEST PUSH2 0x1DD SWAP1 DUP2 DUP2 LT PUSH2 0x45F JUMPI JUMPDEST PUSH2 0x1DC NOT DUP2 ADD PUSH2 0x3EF DUP2 PUSH2 0x2AA JUMP JUMPDEST SWAP5 PUSH2 0x3F9 DUP10 PUSH2 0x364 JUMP JUMPDEST AND SWAP1 DUP2 LT PUSH2 0x452 JUMPI JUMPDEST SWAP7 SWAP6 SWAP7 SUB ADD PUSH2 0x2E8 JUMP JUMPDEST SWAP1 PUSH2 0x247 JUMP JUMPDEST DUP3 DUP2 GT PUSH2 0x41F JUMPI POP SWAP1 POP SWAP1 JUMP JUMPDEST PUSH2 0x443 SWAP1 PUSH2 0x42F PUSH2 0xB9 DUP5 PUSH2 0x387 JUMP JUMPDEST ISZERO PUSH2 0x449 JUMPI PUSH2 0x43D SWAP1 PUSH2 0x1EE JUMP JUMPDEST SWAP2 PUSH2 0x387 JUMP JUMPDEST SWAP1 PUSH2 0x412 JUMP JUMPDEST PUSH2 0x43D SWAP1 PUSH2 0x1CB JUMP JUMPDEST PUSH2 0x45A PUSH2 0x1B4 JUMP JUMPDEST PUSH2 0x402 JUMP JUMPDEST PUSH2 0x467 PUSH2 0x1B4 JUMP JUMPDEST PUSH2 0x3E0 JUMP JUMPDEST PUSH2 0x474 PUSH2 0x1B4 JUMP JUMPDEST PUSH2 0x3BF JUMP JUMPDEST PUSH2 0x481 PUSH2 0x578 JUMP JUMPDEST SWAP1 PUSH2 0x496 PUSH2 0x48E DUP3 PUSH2 0x3A8 JUMP JUMPDEST PUSH2 0xFFFF AND DUP4 MSTORE JUMP JUMPDEST PUSH2 0x4EB PUSH2 0x4BA PUSH2 0x4B5 PUSH2 0x94 PUSH2 0x4AE DUP7 MLOAD PUSH2 0xFFFF AND SWAP1 JUMP JUMPDEST PUSH2 0xFFFF AND SWAP1 JUMP JUMPDEST PUSH2 0x211 JUMP JUMPDEST PUSH2 0x40C PUSH2 0x4E6 PUSH2 0x4C9 DUP4 PUSH2 0x2AA JUMP JUMPDEST SWAP3 PUSH2 0x4E1 PUSH2 0x4AE PUSH2 0x4DC DUP10 MLOAD PUSH2 0xFFFF AND SWAP1 JUMP JUMPDEST PUSH2 0x364 JUMP JUMPDEST PUSH2 0x230 JUMP JUMPDEST PUSH2 0x2E8 JUMP JUMPDEST PUSH1 0x1 SWAP1 JUMPDEST PUSH1 0xC PUSH1 0xFF DUP4 AND GT ISZERO PUSH2 0x509 JUMPI JUMPDEST POP POP POP PUSH1 0x20 ADD MLOAD PUSH1 0xFF AND SWAP1 JUMP JUMPDEST PUSH2 0x52F PUSH2 0x52A PUSH2 0x524 PUSH2 0x51E DUP8 MLOAD PUSH2 0xFFFF AND SWAP1 JUMP JUMPDEST DUP6 PUSH2 0x5CD JUMP JUMPDEST PUSH1 0xFF AND SWAP1 JUMP JUMPDEST PUSH2 0x326 JUMP JUMPDEST SWAP1 DUP4 PUSH2 0x53B DUP3 DUP5 PUSH2 0x247 JUMP JUMPDEST GT PUSH2 0x559 JUMPI PUSH2 0x553 SWAP2 PUSH2 0x54D SWAP2 PUSH2 0x247 JUMP JUMPDEST SWAP2 PUSH2 0x5BB JUMP JUMPDEST SWAP1 PUSH2 0x4EF JUMP JUMPDEST POP POP PUSH1 0x20 SWAP2 POP SWAP2 PUSH2 0x571 PUSH1 0xFF SWAP4 DUP4 DUP4 ADD SWAP1 PUSH1 0xFF AND SWAP1 MSTORE JUMP JUMPDEST SWAP2 CODESIZE PUSH2 0x4FC JUMP JUMPDEST PUSH1 0x40 MLOAD SWAP1 PUSH1 0x40 DUP3 ADD DUP3 DUP2 LT PUSH8 0xFFFFFFFFFFFFFFFF DUP3 GT OR PUSH2 0x5A2 JUMPI PUSH1 0x40 MSTORE PUSH1 0x0 PUSH1 0x20 DUP4 DUP3 DUP2 MSTORE ADD MSTORE JUMP JUMPDEST POP POP POP PUSH4 0x4E487B71 PUSH1 0xE0 SHL PUSH1 0x0 MSTORE PUSH1 0x41 PUSH1 0x4 MSTORE PUSH1 0x24 PUSH1 0x0 REVERT JUMPDEST PUSH1 0xFF PUSH1 0x1 SWAP2 AND PUSH1 0xFF DUP2 EQ PUSH2 0x253 JUMPI ADD SWAP1 JUMP JUMPDEST PUSH1 0xFF AND PUSH1 0x1 DUP2 EQ DUP1 ISZERO PUSH2 0x69B JUMPI JUMPDEST DUP1 ISZERO PUSH2 0x691 JUMPI JUMPDEST DUP1 ISZERO PUSH2 0x687 JUMPI JUMPDEST DUP1 ISZERO PUSH2 0x67D JUMPI JUMPDEST DUP1 ISZERO PUSH2 0x673 JUMPI JUMPDEST DUP1 ISZERO PUSH2 0x669 JUMPI JUMPDEST ISZERO PUSH2 0x60A JUMPI POP POP PUSH1 0x1F SWAP1 JUMP JUMPDEST PUSH1 0x4 DUP2 EQ SWAP1 DUP2 ISZERO PUSH2 0x65E JUMPI JUMPDEST DUP2 ISZERO PUSH2 0x653 JUMPI JUMPDEST DUP2 ISZERO PUSH2 0x648 JUMPI JUMPDEST POP ISZERO PUSH2 0x630 JUMPI POP PUSH1 0x1E SWAP1 JUMP JUMPDEST PUSH2 0x639 SWAP1 PUSH2 0x17B JUMP JUMPDEST ISZERO PUSH2 0x643 JUMPI PUSH1 0x1D SWAP1 JUMP JUMPDEST PUSH1 0x1C SWAP1 JUMP JUMPDEST PUSH1 0xB SWAP2 POP EQ CODESIZE PUSH2 0x624 JUMP JUMPDEST PUSH1 0x9 DUP2 EQ SWAP2 POP PUSH2 0x61D JUMP JUMPDEST PUSH1 0x6 DUP2 EQ SWAP2 POP PUSH2 0x616 JUMP JUMPDEST POP PUSH1 0xC DUP2 EQ PUSH2 0x5FE JUMP JUMPDEST POP PUSH1 0xA DUP2 EQ PUSH2 0x5F7 JUMP JUMPDEST POP PUSH1 0x8 DUP2 EQ PUSH2 0x5F0 JUMP JUMPDEST POP PUSH1 0x7 DUP2 EQ PUSH2 0x5E9 JUMP JUMPDEST POP PUSH1 0x5 DUP2 EQ PUSH2 0x5E2 JUMP JUMPDEST POP PUSH1 0x3 DUP2 EQ PUSH2 0x5DB JUMP INVALID LOG3 PUSH5 0x6970667358 0x22 SLT KECCAK256 PUSH25 0xA15ABEF96075D2D70F38E35F48103095D877C66D9F39A275EA STATICCALL SHL CODECOPY EXP SHL 0x24 PUSH13 0x6578706572696D656E74616CF5 PUSH5 0x736F6C6343 STOP ADDMOD EXP STOP COINBASE "},"gasEstimates":{"creation":{"codeDepositCost":"353800","executionCost":"infinite","totalCost":"infinite"},"external":{"getDaysInMonth(uint8,uint16)":"1008","getMonth(uint256)":"infinite","getYear(uint256)":"infinite","isLeapYear(uint16)":"415","leapYearsBefore(uint256)":"458"},"internal":{"abs(int64)":"infinite","char(bytes1)":"infinite","parseTimestamp(uint256)":"infinite","toAsciiString(address)":"infinite"}},"methodIdentifiers":{"getDaysInMonth(uint8,uint16)":"b238ad0e","getMonth(uint256)":"a324ad24","getYear(uint256)":"92d66313","isLeapYear(uint16)":"a6f0e577","leapYearsBefore(uint256)":"b1999937"}},"storageLayout":{"storage":[],"types":null},"userdoc":{"kind":"user","methods":{},"version":1}}}}