{"contracts/SusuwatariFacet.sol":{"SusuwatariFacet":{"abi":[{"anonymous":false,"inputs":[{"indexed":false,"internalType":"uint64","name":"donatedFinney","type":"uint64"},{"indexed":false,"internalType":"string","name":"name","type":"string"},{"indexed":false,"internalType":"uint16","name":"months","type":"uint16"},{"indexed":false,"internalType":"uint16","name":"currentMonth","type":"uint16"},{"indexed":false,"internalType":"uint16","name":"currentYear","type":"uint16"}],"name":"Donated","type":"event"},{"anonymous":false,"inputs":[{"indexed":false,"internalType":"uint32","name":"shareFinney","type":"uint32"},{"indexed":false,"internalType":"uint32","name":"transferDateId","type":"uint32"},{"indexed":false,"internalType":"uint16","name":"transferFromDonationBucketPos","type":"uint16"},{"indexed":false,"internalType":"uint16","name":"month","type":"uint16"},{"indexed":false,"internalType":"uint16","name":"year","type":"uint16"}],"name":"RemovedFromDonationBucket","type":"event"},{"anonymous":false,"inputs":[{"indexed":false,"internalType":"uint256","name":"amount","type":"uint256"},{"indexed":false,"internalType":"address","name":"to","type":"address"},{"indexed":false,"internalType":"uint16","name":"month","type":"uint16"},{"indexed":false,"internalType":"uint16","name":"year","type":"uint16"}],"name":"TransferedFairShare","type":"event"},{"anonymous":false,"inputs":[{"indexed":false,"internalType":"string","name":"url","type":"string"},{"indexed":false,"internalType":"bool","name":"up","type":"bool"},{"indexed":false,"internalType":"string","name":"title","type":"string"},{"indexed":false,"internalType":"address","name":"receiver","type":"address"},{"indexed":false,"internalType":"address","name":"sender","type":"address"},{"indexed":false,"internalType":"uint8","name":"month","type":"uint8"},{"indexed":false,"internalType":"uint16","name":"year","type":"uint16"}],"name":"Voted","type":"event"},{"inputs":[{"internalType":"uint16","name":"months","type":"uint16"},{"internalType":"string","name":"name","type":"string"}],"name":"donate","outputs":[],"stateMutability":"payable","type":"function"},{"inputs":[],"name":"donationBuckets","outputs":[{"components":[{"internalType":"uint16","name":"startMonth","type":"uint16"},{"internalType":"uint16","name":"startYear","type":"uint16"},{"internalType":"uint32[48]","name":"donationBuckets","type":"uint32[48]"}],"internalType":"struct SusuwatariFacet.DonationBuckets","name":"","type":"tuple"}],"stateMutability":"view","type":"function"},{"inputs":[],"name":"myFame","outputs":[{"internalType":"uint64","name":"","type":"uint64"}],"stateMutability":"view","type":"function"},{"inputs":[],"name":"setDonatingActive","outputs":[],"stateMutability":"nonpayable","type":"function"},{"inputs":[],"name":"setDonatingInactive","outputs":[],"stateMutability":"nonpayable","type":"function"},{"inputs":[],"name":"totalFame","outputs":[{"internalType":"uint256","name":"","type":"uint256"}],"stateMutability":"view","type":"function"},{"inputs":[{"internalType":"address payable","name":"to","type":"address"},{"internalType":"uint16","name":"month","type":"uint16"},{"internalType":"uint16","name":"year","type":"uint16"}],"name":"transfer","outputs":[],"stateMutability":"nonpayable","type":"function"},{"inputs":[{"internalType":"string","name":"url","type":"string"},{"internalType":"bool","name":"up","type":"bool"},{"internalType":"address","name":"receiver","type":"address"},{"internalType":"string","name":"title","type":"string"}],"name":"vote","outputs":[],"stateMutability":"nonpayable","type":"function"}],"devdoc":{"details":"Implementation of https://eips.ethereum.org/EIPS/eip-721[ERC721] Non-Fungible Token Standard, including the Metadata extension, but not including the Enumerable extension, which is available separately as {ERC721Enumerable}.","kind":"dev","methods":{},"version":1},"evm":{"bytecode":{"linkReferences":{},"object":"6080806040523461001657611db2908161001d8239f35b50600080fdfe6040608081526004361015610015575b50600080fd5b600090813560e01c806327e665f71461015e5780634f9b09af1461014b5780635f592bb514610134578063672296dc1461011c5780636e283c3814610101578063bc956abb146100c2578063c3269df9146100a85763db75953b1461007a575061000f565b346100a4576100a0915061008d3661018f565b610095611c72565b905191829182610390565b0390f35b5080fd5b50346100a4576100b73661018f565b6100bf610497565b51f35b50346100a4576100a091506100d63661018f565b6001600160401b036100e733610845565b54915191166001600160401b031681529081906020820190565b50346100a4576100bf6101133661031d565b92919091611206565b50346100a4576100bf61012e366102e2565b91611754565b50346100a4576101433661018f565b6100bf610445565b506100bf6101583661028b565b90610968565b50503461018c575061016f3661018f565b600080516020611d4f83398151915254608052607f1960a0016080f35b80fd5b600090600319011261000f57565b50634e487b7160e01b600052604160045260246000fd5b61060081019081106001600160401b038211176101d057604052565b6101d861019d565b604052565b60405190606082018281106001600160401b038211176101d057604052565b81601f82011215610283578035906001600160401b0392838311610276575b60405193601f8401601f19908116603f0116850190811185821017610269575b6040528284526020838301011161026057816000926020809301838601378301015290565b50505050600080fd5b61027161019d565b61023b565b61027e61019d565b61021b565b505050600080fd5b9060406003198301126102c95760043561ffff81168114156102835791602435906001600160401b038211610260576102c6916004016101fc565b90565b5050600080fd5b6001600160a01b038116141561000f57565b606090600319011261000f576004356102fa816102d0565b9061ffff9060243582811681141561026057916044359081168114156102605790565b60806003198201126102c9576001600160401b03906004358281116102605781610349916004016101fc565b926024358015158114156103865792604435610364816102d0565b9260643591821161037b576102c6916004016101fc565b505050505050600080fd5b5050505050600080fd5b91909161064081019260408061ffff92838151168552602093848201511684860152015192016000905b603082106103c85750505050565b828060019263ffffffff8751168152019401910190926103ba565b156103ea57565b5060405162461bcd60e51b815260206004820152602c60248201527f4f6e6c79206f776e657220697320616c6c6f77656420746f20706572666f726d60448201526b103a3434b99030b1ba34b7b760a11b6064820152608490fd5b61047960018060a01b037fc8fcad8db84d3cc18b4c41d551ea0ee66dd599cde068d998e57d5e09332c1320541633146103e3565b600080516020611d2f833981519152805461ff001916610100179055565b6104cb60018060a01b037fc8fcad8db84d3cc18b4c41d551ea0ee66dd599cde068d998e57d5e09332c1320541633146103e3565b600080516020611d2f833981519152805461ff0019169055565b50634e487b7160e01b600052601160045260246000fd5b60ff166001811061050f575b6000190190565b6105176104e5565b610508565b1561052357565b50606460405162461bcd60e51b815260206004820152602060248201527f4f6e6c79207570746f203234206d6f6e74687320697320737570706f727465646044820152fd5b50634e487b7160e01b600052601260045260246000fd5b8115610589570690565b610591610568565b0690565b1561059c57565b5060405162461bcd60e51b815260206004820152603860248201527f506179656420616d6f756e74206d75737420626520646576696461626c65206260448201527f7920746865206469737472696275746564206d6f6e74687300000000000000006064820152608490fd5b1561060f57565b5060405162461bcd60e51b815260206004820152603a60248201527f4c657373207468616e20312066696e6e657928312f313030302045544829206660448201527f72616374696f6e7320617265206e6f7420737570706f727465640000000000006064820152608490fd5b8115610685570490565b61068d610568565b0490565b1561069857565b5060405162461bcd60e51b815260206004820152603c60248201527f446f6e6174696f6e73206c6172676572207468616e20315f3030305f3030305f60448201527f3030302066696e6e657920617265206e6f7420737570706f72746564000000006064820152608490fd5b600c9061ffff80911680910482118115151661071e570290565b6107266104e5565b0290565b9061ffff8080931691168092038111610741570190565b6107496104e5565b0190565b61ffff166107b28110610763575b6107b1190190565b61076b6104e5565b61075b565b61ffff166001811061050f576000190190565b61ffff9182169116818110610796570390565b61079e6104e5565b0390565b63ffffffff9182169116818110610796570390565b60019063ffffffff809116908114610741570190565b9063ffffffff8080931691168092038111610741570190565b50634e487b7160e01b600052603260045260246000fd5b906030821015610838575b601c8260031c7f033cb808a453240b3c9916e6d1ccc504e492e2b2453192ff241c73847a521d07019260021b1690565b6108406107e6565b610808565b6001600160a01b031660009081527f033cb808a453240b3c9916e6d1ccc504e492e2b2453192ff241c73847a521d126020526040902090565b6001600160401b036001911667fffffffffffffffe8111610741570190565b906001600160401b038080931691168092038111610741570190565b6001906001198111610741570190565b81198111610741570190565b91908251928382526000905b84821061090e575092806020939411610901575b601f01601f1916010190565b60008382840101526108f5565b906020908180828501015190828601015201906108e1565b93959490610950608094936001600160401b0360ff9316875260a0602088015260a08701906108d5565b9661ffff809416604087015216606085015216910152565b91909161097442610d53565b91602083019161099661099061098b855160ff1690565b6104fc565b60ff1690565b9461ffff8216946109a96019871061051c565b6109bc6109b6873461057f565b15610595565b66038d7ea4c680006109d081340615610608565b3404926109e3633b9aca00851115610691565b610aaa6109f9610a9a610a026109f98b8961067b565b63ffffffff1690565b9a610a2e7f033cb808a453240b3c9916e6d1ccc504e492e2b2453192ff241c73847a521d115460ff1690565b60009015610bfd5750610a95610a8e60ff610a6760059650919390929496505b610a62610a5d8a5161ffff1690565b610704565b61072a565b931692610a88600080516020611d2f8339815191525461ffff9060101c1690565b90610783565b61ffff1690565b6107a2565b96875b610aaa6109f9838b6107cd565b63ffffffff821690811015610b2a5791610b216109f992610b1c8d610afa610af46030610aaa990692610aef610adf856107fd565b905463ffffffff9160031b1c1690565b6107cd565b916107fd565b90919082549060031b9163ffffffff9283811b93849216901b16911916179055565b6107b7565b91509150610a9d565b505050610bf8939497507f6a7f8439932380592f144688013b66f9f08c6c8571bc599d1b18ceae2cf67ed39650610bea610be1610b9997610bda610bc8600a8a04610bb3610b7733610845565b6001600160401b039d8e8416610b9483546001600160401b031690565b61089d565b6001600160401b03166001600160401b0319825416179055565b600080516020611d4f833981519152546108c9565b600080516020611d4f83398151915255565b5160ff1690565b925161ffff1690565b926040519687961686610926565b0390a1565b610a8e60ff610a67610a9593965091939092949650610a4e565b6301e133808110610c2d575b6301e1337f190190565b610c356104e5565b610c23565b6301e285008110610c50575b6301e284ff190190565b610c586104e5565b610c46565b6101dd8110610c6f575b6101dc190190565b610c776104e5565b610c67565b818110610796570390565b7c87d206500cf71c7a443cd6c7ebe38ec0b59488f085555dd275ba5624c78111600116610cb8575b6301e285000290565b610cc06104e5565b610caf565b7c883148f5cb1270b85273b667ae1cfdf5d70ac5a1ecccd54fe15c297df38111600116610cf6575b6301e133800290565b610cfe6104e5565b610ced565b7dc22e450672894ab6cd8efb11d33f5617839a5bc7dea00c22e450672894ab8111600116610d34575b620151800290565b610d3c6104e5565b610d2c565b60ff6001911660ff8114610741570190565b9060405191604083018381106001600160401b03821117610e6c575b604052600083526020830192600084528093610d95610d8d84610ec1565b61ffff168352565b610dee610db7610db2610dad610a8e865161ffff1690565b610e79565b610c5d565b610de8610de3610dc683610c87565b92610dde610a8e610dd9895161ffff1690565b61074d565b610c7c565b610cc5565b906108c9565b906001915b600c60ff84161115610e07575b5050505050565b610e27610e22610990610e1c875161ffff1690565b86610fca565b610d03565b9085610e3382846108c9565b11610e5157610e4b91610e45916108c9565b92610d41565b91610df3565b505060ff909116905250610e629050565b3880808080610e00565b610e7461019d565b610d6f565b6102c69060018110610eb4575b600019018060021c906101906064820491828410610ea7575b0491036108c9565b610eaf6104e5565b610e9f565b610ebc6104e5565b610e86565b6301e13380810490610f256107b283198111610f84575b61ffff938491011692610de8610eed85610e79565b6101dd90818110610f77575b6101dc198101610f0881610c87565b94610f128961074d565b16908110610f6a575b9695960301610cc5565b828111610f325750905090565b610f5b90610f47610f4284610770565b610f91565b15610f6157610f5590610c3a565b91610770565b90610f25565b610f5590610c17565b610f726104e5565b610f1b565b610f7f6104e5565b610ef9565b610f8c6104e5565b610ed8565b60038116610fc45761ffff809116816064820616610fbd57610190900616610fb857600190565b600090565b5050600190565b50600090565b60ff16600181148015611098575b801561108e575b8015611084575b801561107a575b8015611070575b8015611066575b15611007575050601f90565b6004811490811561105b575b8115611050575b8115611045575b501561102d5750601e90565b61103690610f91565b1561104057601d90565b601c90565b600b91501438611021565b60098114915061101a565b600681149150611013565b50600c8114610ffb565b50600a8114610ff4565b5060088114610fed565b5060078114610fe6565b5060058114610fdf565b5060038114610fd8565b6000527f033cb808a453240b3c9916e6d1ccc504e492e2b2453192ff241c73847a521d0e602052604060002090565b63ffffffff166000527f033cb808a453240b3c9916e6d1ccc504e492e2b2453192ff241c73847a521d0d602052604060002090565b805482101561111f575b60005260206000200190600090565b6111276107e6565b611110565b805461114f9168010000000000000000821015611172575b600182018155611106565b819291549060031b9160018060a01b039283811b93849216901b16911916179055565b61117a61019d565b611144565b60030b637fffffff19811461050f576000190190565b60019060030b637fffffff8114610741570190565b9590936111e360ff9360c0979a99956111ce61ffff9860e08c5260e08c01906108d5565b91151560208b015289820360408b01526108d5565b6001600160a01b039182166060890152981660808701521660a085015216910152565b7fd88c393c3c90d3e614d54b41cd8bf24bc2cd20390af15081efe05c39aa4a155b9392610bf89161123642610d53565b906112a3610be16020840161125261099061098b835160ff1690565b61111160901b87811614156112b2575b5061128861126f33610845565b610b9961128382546001600160401b031690565b61087e565b610bda610bc8600080516020611d4f833981519152546108b9565b926040519687963393886111aa565b611306906112e17f033cb808a453240b3c9916e6d1ccc504e492e2b2453192ff241c73847a521d115460ff1690565b6000901561144a5750610a95610a8e60ff60055b1692610a62610a5d8b5161ffff1690565b61132563ffffffff8216601489901b62100000600160b41b03166108c9565b908761136b611367611360856000527f033cb808a453240b3c9916e6d1ccc504e492e2b2453192ff241c73847a521d0f602052604060002090565b5460ff1690565b1590565b6113d6575b505088156113b2576113846113ac916110a2565b611397611392825460030b90565b611195565b63ffffffff198254169063ffffffff16179055565b38611262565b6113be6113d1916110a2565b6113976113cc825460030b90565b61117f565b6113ac565b61143e61144392611420611413866000527f033cb808a453240b3c9916e6d1ccc504e492e2b2453192ff241c73847a521d0f602052604060002090565b805460ff19166001179055565b61143961142c866110a2565b805463ffffffff19169055565b6110d1565b61112c565b3887611370565b610a8e60ff610a95926112f5565b1561145f57565b5060405162461bcd60e51b815260206004820152604260248201527f596f75722063616e206f6e6c79207472616e7366657220796f7572207368617260448201527f6520666f72206d6f6e7468206265666f7265207468652063757272656e74206f6064820152616e6560f01b608482015260a490fd5b156114dd57565b5060405162461bcd60e51b815260206004820152604360248201527f596f75722063616e206f6e6c79207472616e7366657220796f7572207368617260448201527f6520666f72206d6f6e74687320616674657220646f6e6174696f6e20737461726064820152621d195960ea1b608482015260a490fd5b1561155c57565b5060405162461bcd60e51b815260206004820152603360248201527f596f75722063616e2774207472616e7366657220736861726573206d6f7265206044820152723a3430b710191a1036b7b73a34399030b3b79760691b6064820152608490fd5b156115c557565b5060405162461bcd60e51b815260206004820152601860248201527f536861726520616c7265616479207472616e73666572656400000000000000006044820152606490fd5b1561161257565b5060405162461bcd60e51b815260206004820152602a60248201527f596f752068617665206e6f7420656e6f756768207570766f74657320746f20626044820152696520656c696769626c6560b01b6064820152608490fd5b6001906000198114610741570190565b63ffffffff918280921691829116920482118115151661071e570290565b906001600160401b038091169182156116b157160490565b6116b9610568565b160490565b156116c557565b5060405162461bcd60e51b815260206004820152602f60248201527f4e6f7420656e6f75676820646f6e6174696f6e7320666f722074686174206d6f60448201526e373a34399030bb30b4b630b136329760891b6064820152608490fd5b66ffffffffffffff8091168066038d7ea4c68000920482118115151661071e570290565b506040513d6000823e3d90fd5b909161177f610a8e61176542610d53565b610a62610a5d610be161099061098b602086015160ff1690565b92611798610a8e61179383610a6286610704565b610770565b94859163ffffffff936117f16018866117ea8188169b8b6117bd8e85819f1611611458565b610a956117e1610a8e600080516020611d2f8339815191525461ffff9060101c1690565b809e10156114d6565b1610611555565b6117fe883360141b6108c9565b9161183e611838611360856000527f033cb808a453240b3c9916e6d1ccc504e492e2b2453192ff241c73847a521d10602052604060002090565b156115be565b60009661186188611858611851876110a2565b5460030b90565b60030b1361160b565b8796885b61186e886110d1565b54811015611917576118c58c6118c06118ba6118ae6118ae611899878f611894906110d1565b611106565b905460039190911b1c6001600160a01b031690565b6001600160a01b031690565b60141b90565b6108c9565b8a6118db6118d5611851846110a2565b60030b90565b136118f0575b506118eb9061166b565b611865565b6118eb919961190a6109f96109f9611851611910956110a2565b9061089d565b98906118e1565b50889989979993959894969b50908061193185938c6107a2565b603061ffff919091160695611945876107fd565b905460039190911b1c63ffffffff1661195d8c6110a2565b5460030b63ffffffff166119709161167b565b63ffffffff169061198091611699565b63ffffffff1699611990876107fd565b905460039190911b1c63ffffffff16828c169384911610156119b1906116be565b6119ba876107fd565b81548d90600383901b1c63ffffffff16906119d4916107a2565b825463ffffffff60039390931b83811b80199092169390921690911b16179055611a27906000527f033cb808a453240b3c9916e6d1ccc504e492e2b2453192ff241c73847a521d10602052604060002090565b805460ff19166001179055611a3b82611723565b839066ffffffffffffff169182159d610bf89b7fd60ef7047ec8bfc45d19c2ec01830d929258bf2a7ae675fde3dab44fa17f2f769f98611ae197611adc96610bc8967feb338d42e19428a462947fce4ff0c28c2ccae6f7ecdb16beb0dc981f98ae967c9c611b68575b6001600160a01b038c1690f115611b5b575b600a840416610bb3611ac733610845565b610b9983610b9483546001600160401b031690565b611723565b6040805166ffffffffffffff9290921682526001600160a01b0392909216602082015261ffff858116928201929092529085166060820152608090a16040519586958693919594909260809360a086019763ffffffff809216875216602086015261ffff9283809216604087015216606085015216910152565b611b63611747565b611ab6565b506108fc611aa4565b60408051919060007f033cb808a453240b3c9916e6d1ccc504e492e2b2453192ff241c73847a521d07845b60306007840110611bb65750505050611bb4826101b4565b565b6001610100600892611c668554611c5b63ffffffff611bdc8582851663ffffffff169052565b611bf360208285828901921c1663ffffffff169052565b63ffffffff838c1c821616858c0152611c1960608285828901921c1663ffffffff169052565b611c3060808285828901921c1663ffffffff169052565b611c4760a08285828901921c1663ffffffff169052565b60c09083828701921c1663ffffffff169052565b60e090811c90830152565b01920192019190611b9c565b604051606081018181106001600160401b03821117611d21575b60405260008152600060208201526040805191611ca8836101b4565b610600368437015261ffff611d04600c82600080516020611d2f8339815191525460101c1692818406169261fffe8411611d14575b611cf66001611cea6101dd565b9501859061ffff169052565b04602083019061ffff169052565b611d0c611b71565b604082015290565b611d1c6104e5565b611cdd565b611d2961019d565b611c8c56fe033cb808a453240b3c9916e6d1ccc504e492e2b2453192ff241c73847a521d06033cb808a453240b3c9916e6d1ccc504e492e2b2453192ff241c73847a521d14a3646970667358221220256698cabf0f4e0df521a2a56cb0f4f7b2317f83a7a4d60d6901dcae71db636e6c6578706572696d656e74616cf564736f6c634300080a0041","opcodes":"PUSH1 0x80 DUP1 PUSH1 0x40 MSTORE CALLVALUE PUSH2 0x16 JUMPI PUSH2 0x1DB2 SWAP1 DUP2 PUSH2 0x1D DUP3 CODECOPY RETURN JUMPDEST POP PUSH1 0x0 DUP1 REVERT INVALID PUSH1 0x40 PUSH1 0x80 DUP2 MSTORE PUSH1 0x4 CALLDATASIZE LT ISZERO PUSH2 0x15 JUMPI JUMPDEST POP PUSH1 0x0 DUP1 REVERT JUMPDEST PUSH1 0x0 SWAP1 DUP2 CALLDATALOAD PUSH1 0xE0 SHR DUP1 PUSH4 0x27E665F7 EQ PUSH2 0x15E JUMPI DUP1 PUSH4 0x4F9B09AF EQ PUSH2 0x14B JUMPI DUP1 PUSH4 0x5F592BB5 EQ PUSH2 0x134 JUMPI DUP1 PUSH4 0x672296DC EQ PUSH2 0x11C JUMPI DUP1 PUSH4 0x6E283C38 EQ PUSH2 0x101 JUMPI DUP1 PUSH4 0xBC956ABB EQ PUSH2 0xC2 JUMPI DUP1 PUSH4 0xC3269DF9 EQ PUSH2 0xA8 JUMPI PUSH4 0xDB75953B EQ PUSH2 0x7A JUMPI POP PUSH2 0xF JUMP JUMPDEST CALLVALUE PUSH2 0xA4 JUMPI PUSH2 0xA0 SWAP2 POP PUSH2 0x8D CALLDATASIZE PUSH2 0x18F JUMP JUMPDEST PUSH2 0x95 PUSH2 0x1C72 JUMP JUMPDEST SWAP1 MLOAD SWAP2 DUP3 SWAP2 DUP3 PUSH2 0x390 JUMP JUMPDEST SUB SWAP1 RETURN JUMPDEST POP DUP1 REVERT JUMPDEST POP CALLVALUE PUSH2 0xA4 JUMPI PUSH2 0xB7 CALLDATASIZE PUSH2 0x18F JUMP JUMPDEST PUSH2 0xBF PUSH2 0x497 JUMP JUMPDEST MLOAD RETURN JUMPDEST POP CALLVALUE PUSH2 0xA4 JUMPI PUSH2 0xA0 SWAP2 POP PUSH2 0xD6 CALLDATASIZE PUSH2 0x18F JUMP JUMPDEST PUSH1 0x1 PUSH1 0x1 PUSH1 0x40 SHL SUB PUSH2 0xE7 CALLER PUSH2 0x845 JUMP JUMPDEST SLOAD SWAP2 MLOAD SWAP2 AND PUSH1 0x1 PUSH1 0x1 PUSH1 0x40 SHL SUB AND DUP2 MSTORE SWAP1 DUP2 SWAP1 PUSH1 0x20 DUP3 ADD SWAP1 JUMP JUMPDEST POP CALLVALUE PUSH2 0xA4 JUMPI PUSH2 0xBF PUSH2 0x113 CALLDATASIZE PUSH2 0x31D JUMP JUMPDEST SWAP3 SWAP2 SWAP1 SWAP2 PUSH2 0x1206 JUMP JUMPDEST POP CALLVALUE PUSH2 0xA4 JUMPI PUSH2 0xBF PUSH2 0x12E CALLDATASIZE PUSH2 0x2E2 JUMP JUMPDEST SWAP2 PUSH2 0x1754 JUMP JUMPDEST POP CALLVALUE PUSH2 0xA4 JUMPI PUSH2 0x143 CALLDATASIZE PUSH2 0x18F JUMP JUMPDEST PUSH2 0xBF PUSH2 0x445 JUMP JUMPDEST POP PUSH2 0xBF PUSH2 0x158 CALLDATASIZE PUSH2 0x28B JUMP JUMPDEST SWAP1 PUSH2 0x968 JUMP JUMPDEST POP POP CALLVALUE PUSH2 0x18C JUMPI POP PUSH2 0x16F CALLDATASIZE PUSH2 0x18F JUMP JUMPDEST PUSH1 0x0 DUP1 MLOAD PUSH1 0x20 PUSH2 0x1D4F DUP4 CODECOPY DUP2 MLOAD SWAP2 MSTORE SLOAD PUSH1 0x80 MSTORE PUSH1 0x7F NOT PUSH1 0xA0 ADD PUSH1 0x80 RETURN JUMPDEST DUP1 REVERT JUMPDEST PUSH1 0x0 SWAP1 PUSH1 0x3 NOT ADD SLT PUSH2 0xF JUMPI JUMP JUMPDEST POP PUSH4 0x4E487B71 PUSH1 0xE0 SHL PUSH1 0x0 MSTORE PUSH1 0x41 PUSH1 0x4 MSTORE PUSH1 0x24 PUSH1 0x0 REVERT JUMPDEST PUSH2 0x600 DUP2 ADD SWAP1 DUP2 LT PUSH1 0x1 PUSH1 0x1 PUSH1 0x40 SHL SUB DUP3 GT OR PUSH2 0x1D0 JUMPI PUSH1 0x40 MSTORE JUMP JUMPDEST PUSH2 0x1D8 PUSH2 0x19D JUMP JUMPDEST PUSH1 0x40 MSTORE JUMP JUMPDEST PUSH1 0x40 MLOAD SWAP1 PUSH1 0x60 DUP3 ADD DUP3 DUP2 LT PUSH1 0x1 PUSH1 0x1 PUSH1 0x40 SHL SUB DUP3 GT OR PUSH2 0x1D0 JUMPI PUSH1 0x40 MSTORE JUMP JUMPDEST DUP2 PUSH1 0x1F DUP3 ADD SLT ISZERO PUSH2 0x283 JUMPI DUP1 CALLDATALOAD SWAP1 PUSH1 0x1 PUSH1 0x1 PUSH1 0x40 SHL SUB SWAP3 DUP4 DUP4 GT PUSH2 0x276 JUMPI JUMPDEST PUSH1 0x40 MLOAD SWAP4 PUSH1 0x1F DUP5 ADD PUSH1 0x1F NOT SWAP1 DUP2 AND PUSH1 0x3F ADD AND DUP6 ADD SWAP1 DUP2 GT DUP6 DUP3 LT OR PUSH2 0x269 JUMPI JUMPDEST PUSH1 0x40 MSTORE DUP3 DUP5 MSTORE PUSH1 0x20 DUP4 DUP4 ADD ADD GT PUSH2 0x260 JUMPI DUP2 PUSH1 0x0 SWAP3 PUSH1 0x20 DUP1 SWAP4 ADD DUP4 DUP7 ADD CALLDATACOPY DUP4 ADD ADD MSTORE SWAP1 JUMP JUMPDEST POP POP POP POP PUSH1 0x0 DUP1 REVERT JUMPDEST PUSH2 0x271 PUSH2 0x19D JUMP JUMPDEST PUSH2 0x23B JUMP JUMPDEST PUSH2 0x27E PUSH2 0x19D JUMP JUMPDEST PUSH2 0x21B JUMP JUMPDEST POP POP POP PUSH1 0x0 DUP1 REVERT JUMPDEST SWAP1 PUSH1 0x40 PUSH1 0x3 NOT DUP4 ADD SLT PUSH2 0x2C9 JUMPI PUSH1 0x4 CALLDATALOAD PUSH2 0xFFFF DUP2 AND DUP2 EQ ISZERO PUSH2 0x283 JUMPI SWAP2 PUSH1 0x24 CALLDATALOAD SWAP1 PUSH1 0x1 PUSH1 0x1 PUSH1 0x40 SHL SUB DUP3 GT PUSH2 0x260 JUMPI PUSH2 0x2C6 SWAP2 PUSH1 0x4 ADD PUSH2 0x1FC JUMP JUMPDEST SWAP1 JUMP JUMPDEST POP POP PUSH1 0x0 DUP1 REVERT JUMPDEST PUSH1 0x1 PUSH1 0x1 PUSH1 0xA0 SHL SUB DUP2 AND EQ ISZERO PUSH2 0xF JUMPI JUMP JUMPDEST PUSH1 0x60 SWAP1 PUSH1 0x3 NOT ADD SLT PUSH2 0xF JUMPI PUSH1 0x4 CALLDATALOAD PUSH2 0x2FA DUP2 PUSH2 0x2D0 JUMP JUMPDEST SWAP1 PUSH2 0xFFFF SWAP1 PUSH1 0x24 CALLDATALOAD DUP3 DUP2 AND DUP2 EQ ISZERO PUSH2 0x260 JUMPI SWAP2 PUSH1 0x44 CALLDATALOAD SWAP1 DUP2 AND DUP2 EQ ISZERO PUSH2 0x260 JUMPI SWAP1 JUMP JUMPDEST PUSH1 0x80 PUSH1 0x3 NOT DUP3 ADD SLT PUSH2 0x2C9 JUMPI PUSH1 0x1 PUSH1 0x1 PUSH1 0x40 SHL SUB SWAP1 PUSH1 0x4 CALLDATALOAD DUP3 DUP2 GT PUSH2 0x260 JUMPI DUP2 PUSH2 0x349 SWAP2 PUSH1 0x4 ADD PUSH2 0x1FC JUMP JUMPDEST SWAP3 PUSH1 0x24 CALLDATALOAD DUP1 ISZERO ISZERO DUP2 EQ ISZERO PUSH2 0x386 JUMPI SWAP3 PUSH1 0x44 CALLDATALOAD PUSH2 0x364 DUP2 PUSH2 0x2D0 JUMP JUMPDEST SWAP3 PUSH1 0x64 CALLDATALOAD SWAP2 DUP3 GT PUSH2 0x37B JUMPI PUSH2 0x2C6 SWAP2 PUSH1 0x4 ADD PUSH2 0x1FC JUMP JUMPDEST POP POP POP POP POP POP PUSH1 0x0 DUP1 REVERT JUMPDEST POP POP POP POP POP PUSH1 0x0 DUP1 REVERT JUMPDEST SWAP2 SWAP1 SWAP2 PUSH2 0x640 DUP2 ADD SWAP3 PUSH1 0x40 DUP1 PUSH2 0xFFFF SWAP3 DUP4 DUP2 MLOAD AND DUP6 MSTORE PUSH1 0x20 SWAP4 DUP5 DUP3 ADD MLOAD AND DUP5 DUP7 ADD MSTORE ADD MLOAD SWAP3 ADD PUSH1 0x0 SWAP1 JUMPDEST PUSH1 0x30 DUP3 LT PUSH2 0x3C8 JUMPI POP POP POP POP JUMP JUMPDEST DUP3 DUP1 PUSH1 0x1 SWAP3 PUSH4 0xFFFFFFFF DUP8 MLOAD AND DUP2 MSTORE ADD SWAP5 ADD SWAP2 ADD SWAP1 SWAP3 PUSH2 0x3BA JUMP JUMPDEST ISZERO PUSH2 0x3EA JUMPI JUMP JUMPDEST POP PUSH1 0x40 MLOAD PUSH3 0x461BCD PUSH1 0xE5 SHL DUP2 MSTORE PUSH1 0x20 PUSH1 0x4 DUP3 ADD MSTORE PUSH1 0x2C PUSH1 0x24 DUP3 ADD MSTORE PUSH32 0x4F6E6C79206F776E657220697320616C6C6F77656420746F20706572666F726D PUSH1 0x44 DUP3 ADD MSTORE PUSH12 0x103A3434B99030B1BA34B7B7 PUSH1 0xA1 SHL PUSH1 0x64 DUP3 ADD MSTORE PUSH1 0x84 SWAP1 REVERT JUMPDEST PUSH2 0x479 PUSH1 0x1 DUP1 PUSH1 0xA0 SHL SUB PUSH32 0xC8FCAD8DB84D3CC18B4C41D551EA0EE66DD599CDE068D998E57D5E09332C1320 SLOAD AND CALLER EQ PUSH2 0x3E3 JUMP JUMPDEST PUSH1 0x0 DUP1 MLOAD PUSH1 0x20 PUSH2 0x1D2F DUP4 CODECOPY DUP2 MLOAD SWAP2 MSTORE DUP1 SLOAD PUSH2 0xFF00 NOT AND PUSH2 0x100 OR SWAP1 SSTORE JUMP JUMPDEST PUSH2 0x4CB PUSH1 0x1 DUP1 PUSH1 0xA0 SHL SUB PUSH32 0xC8FCAD8DB84D3CC18B4C41D551EA0EE66DD599CDE068D998E57D5E09332C1320 SLOAD AND CALLER EQ PUSH2 0x3E3 JUMP JUMPDEST PUSH1 0x0 DUP1 MLOAD PUSH1 0x20 PUSH2 0x1D2F DUP4 CODECOPY DUP2 MLOAD SWAP2 MSTORE DUP1 SLOAD PUSH2 0xFF00 NOT AND SWAP1 SSTORE JUMP JUMPDEST POP PUSH4 0x4E487B71 PUSH1 0xE0 SHL PUSH1 0x0 MSTORE PUSH1 0x11 PUSH1 0x4 MSTORE PUSH1 0x24 PUSH1 0x0 REVERT JUMPDEST PUSH1 0xFF AND PUSH1 0x1 DUP2 LT PUSH2 0x50F JUMPI JUMPDEST PUSH1 0x0 NOT ADD SWAP1 JUMP JUMPDEST PUSH2 0x517 PUSH2 0x4E5 JUMP JUMPDEST PUSH2 0x508 JUMP JUMPDEST ISZERO PUSH2 0x523 JUMPI JUMP JUMPDEST POP PUSH1 0x64 PUSH1 0x40 MLOAD PUSH3 0x461BCD PUSH1 0xE5 SHL DUP2 MSTORE PUSH1 0x20 PUSH1 0x4 DUP3 ADD MSTORE PUSH1 0x20 PUSH1 0x24 DUP3 ADD MSTORE PUSH32 0x4F6E6C79207570746F203234206D6F6E74687320697320737570706F72746564 PUSH1 0x44 DUP3 ADD MSTORE REVERT JUMPDEST POP PUSH4 0x4E487B71 PUSH1 0xE0 SHL PUSH1 0x0 MSTORE PUSH1 0x12 PUSH1 0x4 MSTORE PUSH1 0x24 PUSH1 0x0 REVERT JUMPDEST DUP2 ISZERO PUSH2 0x589 JUMPI MOD SWAP1 JUMP JUMPDEST PUSH2 0x591 PUSH2 0x568 JUMP JUMPDEST MOD SWAP1 JUMP JUMPDEST ISZERO PUSH2 0x59C JUMPI JUMP JUMPDEST POP PUSH1 0x40 MLOAD PUSH3 0x461BCD PUSH1 0xE5 SHL DUP2 MSTORE PUSH1 0x20 PUSH1 0x4 DUP3 ADD MSTORE PUSH1 0x38 PUSH1 0x24 DUP3 ADD MSTORE PUSH32 0x506179656420616D6F756E74206D75737420626520646576696461626C652062 PUSH1 0x44 DUP3 ADD MSTORE PUSH32 0x7920746865206469737472696275746564206D6F6E7468730000000000000000 PUSH1 0x64 DUP3 ADD MSTORE PUSH1 0x84 SWAP1 REVERT JUMPDEST ISZERO PUSH2 0x60F JUMPI JUMP JUMPDEST POP PUSH1 0x40 MLOAD PUSH3 0x461BCD PUSH1 0xE5 SHL DUP2 MSTORE PUSH1 0x20 PUSH1 0x4 DUP3 ADD MSTORE PUSH1 0x3A PUSH1 0x24 DUP3 ADD MSTORE PUSH32 0x4C657373207468616E20312066696E6E657928312F3130303020455448292066 PUSH1 0x44 DUP3 ADD MSTORE PUSH32 0x72616374696F6E7320617265206E6F7420737570706F72746564000000000000 PUSH1 0x64 DUP3 ADD MSTORE PUSH1 0x84 SWAP1 REVERT JUMPDEST DUP2 ISZERO PUSH2 0x685 JUMPI DIV SWAP1 JUMP JUMPDEST PUSH2 0x68D PUSH2 0x568 JUMP JUMPDEST DIV SWAP1 JUMP JUMPDEST ISZERO PUSH2 0x698 JUMPI JUMP JUMPDEST POP PUSH1 0x40 MLOAD PUSH3 0x461BCD PUSH1 0xE5 SHL DUP2 MSTORE PUSH1 0x20 PUSH1 0x4 DUP3 ADD MSTORE PUSH1 0x3C PUSH1 0x24 DUP3 ADD MSTORE PUSH32 0x446F6E6174696F6E73206C6172676572207468616E20315F3030305F3030305F PUSH1 0x44 DUP3 ADD MSTORE PUSH32 0x3030302066696E6E657920617265206E6F7420737570706F7274656400000000 PUSH1 0x64 DUP3 ADD MSTORE PUSH1 0x84 SWAP1 REVERT JUMPDEST PUSH1 0xC SWAP1 PUSH2 0xFFFF DUP1 SWAP2 AND DUP1 SWAP2 DIV DUP3 GT DUP2 ISZERO ISZERO AND PUSH2 0x71E JUMPI MUL SWAP1 JUMP JUMPDEST PUSH2 0x726 PUSH2 0x4E5 JUMP JUMPDEST MUL SWAP1 JUMP JUMPDEST SWAP1 PUSH2 0xFFFF DUP1 DUP1 SWAP4 AND SWAP2 AND DUP1 SWAP3 SUB DUP2 GT PUSH2 0x741 JUMPI ADD SWAP1 JUMP JUMPDEST PUSH2 0x749 PUSH2 0x4E5 JUMP JUMPDEST ADD SWAP1 JUMP JUMPDEST PUSH2 0xFFFF AND PUSH2 0x7B2 DUP2 LT PUSH2 0x763 JUMPI JUMPDEST PUSH2 0x7B1 NOT ADD SWAP1 JUMP JUMPDEST PUSH2 0x76B PUSH2 0x4E5 JUMP JUMPDEST PUSH2 0x75B JUMP JUMPDEST PUSH2 0xFFFF AND PUSH1 0x1 DUP2 LT PUSH2 0x50F JUMPI PUSH1 0x0 NOT ADD SWAP1 JUMP JUMPDEST PUSH2 0xFFFF SWAP2 DUP3 AND SWAP2 AND DUP2 DUP2 LT PUSH2 0x796 JUMPI SUB SWAP1 JUMP JUMPDEST PUSH2 0x79E PUSH2 0x4E5 JUMP JUMPDEST SUB SWAP1 JUMP JUMPDEST PUSH4 0xFFFFFFFF SWAP2 DUP3 AND SWAP2 AND DUP2 DUP2 LT PUSH2 0x796 JUMPI SUB SWAP1 JUMP JUMPDEST PUSH1 0x1 SWAP1 PUSH4 0xFFFFFFFF DUP1 SWAP2 AND SWAP1 DUP2 EQ PUSH2 0x741 JUMPI ADD SWAP1 JUMP JUMPDEST SWAP1 PUSH4 0xFFFFFFFF DUP1 DUP1 SWAP4 AND SWAP2 AND DUP1 SWAP3 SUB DUP2 GT PUSH2 0x741 JUMPI ADD SWAP1 JUMP JUMPDEST POP PUSH4 0x4E487B71 PUSH1 0xE0 SHL PUSH1 0x0 MSTORE PUSH1 0x32 PUSH1 0x4 MSTORE PUSH1 0x24 PUSH1 0x0 REVERT JUMPDEST SWAP1 PUSH1 0x30 DUP3 LT ISZERO PUSH2 0x838 JUMPI JUMPDEST PUSH1 0x1C DUP3 PUSH1 0x3 SHR PUSH32 0x33CB808A453240B3C9916E6D1CCC504E492E2B2453192FF241C73847A521D07 ADD SWAP3 PUSH1 0x2 SHL AND SWAP1 JUMP JUMPDEST PUSH2 0x840 PUSH2 0x7E6 JUMP JUMPDEST PUSH2 0x808 JUMP JUMPDEST PUSH1 0x1 PUSH1 0x1 PUSH1 0xA0 SHL SUB AND PUSH1 0x0 SWAP1 DUP2 MSTORE PUSH32 0x33CB808A453240B3C9916E6D1CCC504E492E2B2453192FF241C73847A521D12 PUSH1 0x20 MSTORE PUSH1 0x40 SWAP1 KECCAK256 SWAP1 JUMP JUMPDEST PUSH1 0x1 PUSH1 0x1 PUSH1 0x40 SHL SUB PUSH1 0x1 SWAP2 AND PUSH8 0xFFFFFFFFFFFFFFFE DUP2 GT PUSH2 0x741 JUMPI ADD SWAP1 JUMP JUMPDEST SWAP1 PUSH1 0x1 PUSH1 0x1 PUSH1 0x40 SHL SUB DUP1 DUP1 SWAP4 AND SWAP2 AND DUP1 SWAP3 SUB DUP2 GT PUSH2 0x741 JUMPI ADD SWAP1 JUMP JUMPDEST PUSH1 0x1 SWAP1 PUSH1 0x1 NOT DUP2 GT PUSH2 0x741 JUMPI ADD SWAP1 JUMP JUMPDEST DUP2 NOT DUP2 GT PUSH2 0x741 JUMPI ADD SWAP1 JUMP JUMPDEST SWAP2 SWAP1 DUP3 MLOAD SWAP3 DUP4 DUP3 MSTORE PUSH1 0x0 SWAP1 JUMPDEST DUP5 DUP3 LT PUSH2 0x90E JUMPI POP SWAP3 DUP1 PUSH1 0x20 SWAP4 SWAP5 GT PUSH2 0x901 JUMPI JUMPDEST PUSH1 0x1F ADD PUSH1 0x1F NOT AND ADD ADD SWAP1 JUMP JUMPDEST PUSH1 0x0 DUP4 DUP3 DUP5 ADD ADD MSTORE PUSH2 0x8F5 JUMP JUMPDEST SWAP1 PUSH1 0x20 SWAP1 DUP2 DUP1 DUP3 DUP6 ADD ADD MLOAD SWAP1 DUP3 DUP7 ADD ADD MSTORE ADD SWAP1 PUSH2 0x8E1 JUMP JUMPDEST SWAP4 SWAP6 SWAP5 SWAP1 PUSH2 0x950 PUSH1 0x80 SWAP5 SWAP4 PUSH1 0x1 PUSH1 0x1 PUSH1 0x40 SHL SUB PUSH1 0xFF SWAP4 AND DUP8 MSTORE PUSH1 0xA0 PUSH1 0x20 DUP9 ADD MSTORE PUSH1 0xA0 DUP8 ADD SWAP1 PUSH2 0x8D5 JUMP JUMPDEST SWAP7 PUSH2 0xFFFF DUP1 SWAP5 AND PUSH1 0x40 DUP8 ADD MSTORE AND PUSH1 0x60 DUP6 ADD MSTORE AND SWAP2 ADD MSTORE JUMP JUMPDEST SWAP2 SWAP1 SWAP2 PUSH2 0x974 TIMESTAMP PUSH2 0xD53 JUMP JUMPDEST SWAP2 PUSH1 0x20 DUP4 ADD SWAP2 PUSH2 0x996 PUSH2 0x990 PUSH2 0x98B DUP6 MLOAD PUSH1 0xFF AND SWAP1 JUMP JUMPDEST PUSH2 0x4FC JUMP JUMPDEST PUSH1 0xFF AND SWAP1 JUMP JUMPDEST SWAP5 PUSH2 0xFFFF DUP3 AND SWAP5 PUSH2 0x9A9 PUSH1 0x19 DUP8 LT PUSH2 0x51C JUMP JUMPDEST PUSH2 0x9BC PUSH2 0x9B6 DUP8 CALLVALUE PUSH2 0x57F JUMP JUMPDEST ISZERO PUSH2 0x595 JUMP JUMPDEST PUSH7 0x38D7EA4C68000 PUSH2 0x9D0 DUP2 CALLVALUE MOD ISZERO PUSH2 0x608 JUMP JUMPDEST CALLVALUE DIV SWAP3 PUSH2 0x9E3 PUSH4 0x3B9ACA00 DUP6 GT ISZERO PUSH2 0x691 JUMP JUMPDEST PUSH2 0xAAA PUSH2 0x9F9 PUSH2 0xA9A PUSH2 0xA02 PUSH2 0x9F9 DUP12 DUP10 PUSH2 0x67B JUMP JUMPDEST PUSH4 0xFFFFFFFF AND SWAP1 JUMP JUMPDEST SWAP11 PUSH2 0xA2E PUSH32 0x33CB808A453240B3C9916E6D1CCC504E492E2B2453192FF241C73847A521D11 SLOAD PUSH1 0xFF AND SWAP1 JUMP JUMPDEST PUSH1 0x0 SWAP1 ISZERO PUSH2 0xBFD JUMPI POP PUSH2 0xA95 PUSH2 0xA8E PUSH1 0xFF PUSH2 0xA67 PUSH1 0x5 SWAP7 POP SWAP2 SWAP4 SWAP1 SWAP3 SWAP5 SWAP7 POP JUMPDEST PUSH2 0xA62 PUSH2 0xA5D DUP11 MLOAD PUSH2 0xFFFF AND SWAP1 JUMP JUMPDEST PUSH2 0x704 JUMP JUMPDEST PUSH2 0x72A JUMP JUMPDEST SWAP4 AND SWAP3 PUSH2 0xA88 PUSH1 0x0 DUP1 MLOAD PUSH1 0x20 PUSH2 0x1D2F DUP4 CODECOPY DUP2 MLOAD SWAP2 MSTORE SLOAD PUSH2 0xFFFF SWAP1 PUSH1 0x10 SHR AND SWAP1 JUMP JUMPDEST SWAP1 PUSH2 0x783 JUMP JUMPDEST PUSH2 0xFFFF AND SWAP1 JUMP JUMPDEST PUSH2 0x7A2 JUMP JUMPDEST SWAP7 DUP8 JUMPDEST PUSH2 0xAAA PUSH2 0x9F9 DUP4 DUP12 PUSH2 0x7CD JUMP JUMPDEST PUSH4 0xFFFFFFFF DUP3 AND SWAP1 DUP2 LT ISZERO PUSH2 0xB2A JUMPI SWAP2 PUSH2 0xB21 PUSH2 0x9F9 SWAP3 PUSH2 0xB1C DUP14 PUSH2 0xAFA PUSH2 0xAF4 PUSH1 0x30 PUSH2 0xAAA SWAP10 MOD SWAP3 PUSH2 0xAEF PUSH2 0xADF DUP6 PUSH2 0x7FD JUMP JUMPDEST SWAP1 SLOAD PUSH4 0xFFFFFFFF SWAP2 PUSH1 0x3 SHL SHR AND SWAP1 JUMP JUMPDEST PUSH2 0x7CD JUMP JUMPDEST SWAP2 PUSH2 0x7FD JUMP JUMPDEST SWAP1 SWAP2 SWAP1 DUP3 SLOAD SWAP1 PUSH1 0x3 SHL SWAP2 PUSH4 0xFFFFFFFF SWAP3 DUP4 DUP2 SHL SWAP4 DUP5 SWAP3 AND SWAP1 SHL AND SWAP2 NOT AND OR SWAP1 SSTORE JUMP JUMPDEST PUSH2 0x7B7 JUMP JUMPDEST SWAP2 POP SWAP2 POP PUSH2 0xA9D JUMP JUMPDEST POP POP POP PUSH2 0xBF8 SWAP4 SWAP5 SWAP8 POP PUSH32 0x6A7F8439932380592F144688013B66F9F08C6C8571BC599D1B18CEAE2CF67ED3 SWAP7 POP PUSH2 0xBEA PUSH2 0xBE1 PUSH2 0xB99 SWAP8 PUSH2 0xBDA PUSH2 0xBC8 PUSH1 0xA DUP11 DIV PUSH2 0xBB3 PUSH2 0xB77 CALLER PUSH2 0x845 JUMP JUMPDEST PUSH1 0x1 PUSH1 0x1 PUSH1 0x40 SHL SUB SWAP14 DUP15 DUP5 AND PUSH2 0xB94 DUP4 SLOAD PUSH1 0x1 PUSH1 0x1 PUSH1 0x40 SHL SUB AND SWAP1 JUMP JUMPDEST PUSH2 0x89D JUMP JUMPDEST PUSH1 0x1 PUSH1 0x1 PUSH1 0x40 SHL SUB AND PUSH1 0x1 PUSH1 0x1 PUSH1 0x40 SHL SUB NOT DUP3 SLOAD AND OR SWAP1 SSTORE JUMP JUMPDEST PUSH1 0x0 DUP1 MLOAD PUSH1 0x20 PUSH2 0x1D4F DUP4 CODECOPY DUP2 MLOAD SWAP2 MSTORE SLOAD PUSH2 0x8C9 JUMP JUMPDEST PUSH1 0x0 DUP1 MLOAD PUSH1 0x20 PUSH2 0x1D4F DUP4 CODECOPY DUP2 MLOAD SWAP2 MSTORE SSTORE JUMP JUMPDEST MLOAD PUSH1 0xFF AND SWAP1 JUMP JUMPDEST SWAP3 MLOAD PUSH2 0xFFFF AND SWAP1 JUMP JUMPDEST SWAP3 PUSH1 0x40 MLOAD SWAP7 DUP8 SWAP7 AND DUP7 PUSH2 0x926 JUMP JUMPDEST SUB SWAP1 LOG1 JUMP JUMPDEST PUSH2 0xA8E PUSH1 0xFF PUSH2 0xA67 PUSH2 0xA95 SWAP4 SWAP7 POP SWAP2 SWAP4 SWAP1 SWAP3 SWAP5 SWAP7 POP PUSH2 0xA4E JUMP JUMPDEST PUSH4 0x1E13380 DUP2 LT PUSH2 0xC2D JUMPI JUMPDEST PUSH4 0x1E1337F NOT ADD SWAP1 JUMP JUMPDEST PUSH2 0xC35 PUSH2 0x4E5 JUMP JUMPDEST PUSH2 0xC23 JUMP JUMPDEST PUSH4 0x1E28500 DUP2 LT PUSH2 0xC50 JUMPI JUMPDEST PUSH4 0x1E284FF NOT ADD SWAP1 JUMP JUMPDEST PUSH2 0xC58 PUSH2 0x4E5 JUMP JUMPDEST PUSH2 0xC46 JUMP JUMPDEST PUSH2 0x1DD DUP2 LT PUSH2 0xC6F JUMPI JUMPDEST PUSH2 0x1DC NOT ADD SWAP1 JUMP JUMPDEST PUSH2 0xC77 PUSH2 0x4E5 JUMP JUMPDEST PUSH2 0xC67 JUMP JUMPDEST DUP2 DUP2 LT PUSH2 0x796 JUMPI SUB SWAP1 JUMP JUMPDEST PUSH29 0x87D206500CF71C7A443CD6C7EBE38EC0B59488F085555DD275BA5624C7 DUP2 GT PUSH1 0x1 AND PUSH2 0xCB8 JUMPI JUMPDEST PUSH4 0x1E28500 MUL SWAP1 JUMP JUMPDEST PUSH2 0xCC0 PUSH2 0x4E5 JUMP JUMPDEST PUSH2 0xCAF JUMP JUMPDEST PUSH29 0x883148F5CB1270B85273B667AE1CFDF5D70AC5A1ECCCD54FE15C297DF3 DUP2 GT PUSH1 0x1 AND PUSH2 0xCF6 JUMPI JUMPDEST PUSH4 0x1E13380 MUL SWAP1 JUMP JUMPDEST PUSH2 0xCFE PUSH2 0x4E5 JUMP JUMPDEST PUSH2 0xCED JUMP JUMPDEST PUSH30 0xC22E450672894AB6CD8EFB11D33F5617839A5BC7DEA00C22E450672894AB DUP2 GT PUSH1 0x1 AND PUSH2 0xD34 JUMPI JUMPDEST PUSH3 0x15180 MUL SWAP1 JUMP JUMPDEST PUSH2 0xD3C PUSH2 0x4E5 JUMP JUMPDEST PUSH2 0xD2C JUMP JUMPDEST PUSH1 0xFF PUSH1 0x1 SWAP2 AND PUSH1 0xFF DUP2 EQ PUSH2 0x741 JUMPI ADD SWAP1 JUMP JUMPDEST SWAP1 PUSH1 0x40 MLOAD SWAP2 PUSH1 0x40 DUP4 ADD DUP4 DUP2 LT PUSH1 0x1 PUSH1 0x1 PUSH1 0x40 SHL SUB DUP3 GT OR PUSH2 0xE6C JUMPI JUMPDEST PUSH1 0x40 MSTORE PUSH1 0x0 DUP4 MSTORE PUSH1 0x20 DUP4 ADD SWAP3 PUSH1 0x0 DUP5 MSTORE DUP1 SWAP4 PUSH2 0xD95 PUSH2 0xD8D DUP5 PUSH2 0xEC1 JUMP JUMPDEST PUSH2 0xFFFF AND DUP4 MSTORE JUMP JUMPDEST PUSH2 0xDEE PUSH2 0xDB7 PUSH2 0xDB2 PUSH2 0xDAD PUSH2 0xA8E DUP7 MLOAD PUSH2 0xFFFF AND SWAP1 JUMP JUMPDEST PUSH2 0xE79 JUMP JUMPDEST PUSH2 0xC5D JUMP JUMPDEST PUSH2 0xDE8 PUSH2 0xDE3 PUSH2 0xDC6 DUP4 PUSH2 0xC87 JUMP JUMPDEST SWAP3 PUSH2 0xDDE PUSH2 0xA8E PUSH2 0xDD9 DUP10 MLOAD PUSH2 0xFFFF AND SWAP1 JUMP JUMPDEST PUSH2 0x74D JUMP JUMPDEST PUSH2 0xC7C JUMP JUMPDEST PUSH2 0xCC5 JUMP JUMPDEST SWAP1 PUSH2 0x8C9 JUMP JUMPDEST SWAP1 PUSH1 0x1 SWAP2 JUMPDEST PUSH1 0xC PUSH1 0xFF DUP5 AND GT ISZERO PUSH2 0xE07 JUMPI JUMPDEST POP POP POP POP POP JUMP JUMPDEST PUSH2 0xE27 PUSH2 0xE22 PUSH2 0x990 PUSH2 0xE1C DUP8 MLOAD PUSH2 0xFFFF AND SWAP1 JUMP JUMPDEST DUP7 PUSH2 0xFCA JUMP JUMPDEST PUSH2 0xD03 JUMP JUMPDEST SWAP1 DUP6 PUSH2 0xE33 DUP3 DUP5 PUSH2 0x8C9 JUMP JUMPDEST GT PUSH2 0xE51 JUMPI PUSH2 0xE4B SWAP2 PUSH2 0xE45 SWAP2 PUSH2 0x8C9 JUMP JUMPDEST SWAP3 PUSH2 0xD41 JUMP JUMPDEST SWAP2 PUSH2 0xDF3 JUMP JUMPDEST POP POP PUSH1 0xFF SWAP1 SWAP2 AND SWAP1 MSTORE POP PUSH2 0xE62 SWAP1 POP JUMP JUMPDEST CODESIZE DUP1 DUP1 DUP1 DUP1 PUSH2 0xE00 JUMP JUMPDEST PUSH2 0xE74 PUSH2 0x19D JUMP JUMPDEST PUSH2 0xD6F JUMP JUMPDEST PUSH2 0x2C6 SWAP1 PUSH1 0x1 DUP2 LT PUSH2 0xEB4 JUMPI JUMPDEST PUSH1 0x0 NOT ADD DUP1 PUSH1 0x2 SHR SWAP1 PUSH2 0x190 PUSH1 0x64 DUP3 DIV SWAP2 DUP3 DUP5 LT PUSH2 0xEA7 JUMPI JUMPDEST DIV SWAP2 SUB PUSH2 0x8C9 JUMP JUMPDEST PUSH2 0xEAF PUSH2 0x4E5 JUMP JUMPDEST PUSH2 0xE9F JUMP JUMPDEST PUSH2 0xEBC PUSH2 0x4E5 JUMP JUMPDEST PUSH2 0xE86 JUMP JUMPDEST PUSH4 0x1E13380 DUP2 DIV SWAP1 PUSH2 0xF25 PUSH2 0x7B2 DUP4 NOT DUP2 GT PUSH2 0xF84 JUMPI JUMPDEST PUSH2 0xFFFF SWAP4 DUP5 SWAP2 ADD AND SWAP3 PUSH2 0xDE8 PUSH2 0xEED DUP6 PUSH2 0xE79 JUMP JUMPDEST PUSH2 0x1DD SWAP1 DUP2 DUP2 LT PUSH2 0xF77 JUMPI JUMPDEST PUSH2 0x1DC NOT DUP2 ADD PUSH2 0xF08 DUP2 PUSH2 0xC87 JUMP JUMPDEST SWAP5 PUSH2 0xF12 DUP10 PUSH2 0x74D JUMP JUMPDEST AND SWAP1 DUP2 LT PUSH2 0xF6A JUMPI JUMPDEST SWAP7 SWAP6 SWAP7 SUB ADD PUSH2 0xCC5 JUMP JUMPDEST DUP3 DUP2 GT PUSH2 0xF32 JUMPI POP SWAP1 POP SWAP1 JUMP JUMPDEST PUSH2 0xF5B SWAP1 PUSH2 0xF47 PUSH2 0xF42 DUP5 PUSH2 0x770 JUMP JUMPDEST PUSH2 0xF91 JUMP JUMPDEST ISZERO PUSH2 0xF61 JUMPI PUSH2 0xF55 SWAP1 PUSH2 0xC3A JUMP JUMPDEST SWAP2 PUSH2 0x770 JUMP JUMPDEST SWAP1 PUSH2 0xF25 JUMP JUMPDEST PUSH2 0xF55 SWAP1 PUSH2 0xC17 JUMP JUMPDEST PUSH2 0xF72 PUSH2 0x4E5 JUMP JUMPDEST PUSH2 0xF1B JUMP JUMPDEST PUSH2 0xF7F PUSH2 0x4E5 JUMP JUMPDEST PUSH2 0xEF9 JUMP JUMPDEST PUSH2 0xF8C PUSH2 0x4E5 JUMP JUMPDEST PUSH2 0xED8 JUMP JUMPDEST PUSH1 0x3 DUP2 AND PUSH2 0xFC4 JUMPI PUSH2 0xFFFF DUP1 SWAP2 AND DUP2 PUSH1 0x64 DUP3 MOD AND PUSH2 0xFBD JUMPI PUSH2 0x190 SWAP1 MOD AND PUSH2 0xFB8 JUMPI PUSH1 0x1 SWAP1 JUMP JUMPDEST PUSH1 0x0 SWAP1 JUMP JUMPDEST POP POP PUSH1 0x1 SWAP1 JUMP JUMPDEST POP PUSH1 0x0 SWAP1 JUMP JUMPDEST PUSH1 0xFF AND PUSH1 0x1 DUP2 EQ DUP1 ISZERO PUSH2 0x1098 JUMPI JUMPDEST DUP1 ISZERO PUSH2 0x108E JUMPI JUMPDEST DUP1 ISZERO PUSH2 0x1084 JUMPI JUMPDEST DUP1 ISZERO PUSH2 0x107A JUMPI JUMPDEST DUP1 ISZERO PUSH2 0x1070 JUMPI JUMPDEST DUP1 ISZERO PUSH2 0x1066 JUMPI JUMPDEST ISZERO PUSH2 0x1007 JUMPI POP POP PUSH1 0x1F SWAP1 JUMP JUMPDEST PUSH1 0x4 DUP2 EQ SWAP1 DUP2 ISZERO PUSH2 0x105B JUMPI JUMPDEST DUP2 ISZERO PUSH2 0x1050 JUMPI JUMPDEST DUP2 ISZERO PUSH2 0x1045 JUMPI JUMPDEST POP ISZERO PUSH2 0x102D JUMPI POP PUSH1 0x1E SWAP1 JUMP JUMPDEST PUSH2 0x1036 SWAP1 PUSH2 0xF91 JUMP JUMPDEST ISZERO PUSH2 0x1040 JUMPI PUSH1 0x1D SWAP1 JUMP JUMPDEST PUSH1 0x1C SWAP1 JUMP JUMPDEST PUSH1 0xB SWAP2 POP EQ CODESIZE PUSH2 0x1021 JUMP JUMPDEST PUSH1 0x9 DUP2 EQ SWAP2 POP PUSH2 0x101A JUMP JUMPDEST PUSH1 0x6 DUP2 EQ SWAP2 POP PUSH2 0x1013 JUMP JUMPDEST POP PUSH1 0xC DUP2 EQ PUSH2 0xFFB JUMP JUMPDEST POP PUSH1 0xA DUP2 EQ PUSH2 0xFF4 JUMP JUMPDEST POP PUSH1 0x8 DUP2 EQ PUSH2 0xFED JUMP JUMPDEST POP PUSH1 0x7 DUP2 EQ PUSH2 0xFE6 JUMP JUMPDEST POP PUSH1 0x5 DUP2 EQ PUSH2 0xFDF JUMP JUMPDEST POP PUSH1 0x3 DUP2 EQ PUSH2 0xFD8 JUMP JUMPDEST PUSH1 0x0 MSTORE PUSH32 0x33CB808A453240B3C9916E6D1CCC504E492E2B2453192FF241C73847A521D0E PUSH1 0x20 MSTORE PUSH1 0x40 PUSH1 0x0 KECCAK256 SWAP1 JUMP JUMPDEST PUSH4 0xFFFFFFFF AND PUSH1 0x0 MSTORE PUSH32 0x33CB808A453240B3C9916E6D1CCC504E492E2B2453192FF241C73847A521D0D PUSH1 0x20 MSTORE PUSH1 0x40 PUSH1 0x0 KECCAK256 SWAP1 JUMP JUMPDEST DUP1 SLOAD DUP3 LT ISZERO PUSH2 0x111F JUMPI JUMPDEST PUSH1 0x0 MSTORE PUSH1 0x20 PUSH1 0x0 KECCAK256 ADD SWAP1 PUSH1 0x0 SWAP1 JUMP JUMPDEST PUSH2 0x1127 PUSH2 0x7E6 JUMP JUMPDEST PUSH2 0x1110 JUMP JUMPDEST DUP1 SLOAD PUSH2 0x114F SWAP2 PUSH9 0x10000000000000000 DUP3 LT ISZERO PUSH2 0x1172 JUMPI JUMPDEST PUSH1 0x1 DUP3 ADD DUP2 SSTORE PUSH2 0x1106 JUMP JUMPDEST DUP2 SWAP3 SWAP2 SLOAD SWAP1 PUSH1 0x3 SHL SWAP2 PUSH1 0x1 DUP1 PUSH1 0xA0 SHL SUB SWAP3 DUP4 DUP2 SHL SWAP4 DUP5 SWAP3 AND SWAP1 SHL AND SWAP2 NOT AND OR SWAP1 SSTORE JUMP JUMPDEST PUSH2 0x117A PUSH2 0x19D JUMP JUMPDEST PUSH2 0x1144 JUMP JUMPDEST PUSH1 0x3 SIGNEXTEND PUSH4 0x7FFFFFFF NOT DUP2 EQ PUSH2 0x50F JUMPI PUSH1 0x0 NOT ADD SWAP1 JUMP JUMPDEST PUSH1 0x1 SWAP1 PUSH1 0x3 SIGNEXTEND PUSH4 0x7FFFFFFF DUP2 EQ PUSH2 0x741 JUMPI ADD SWAP1 JUMP JUMPDEST SWAP6 SWAP1 SWAP4 PUSH2 0x11E3 PUSH1 0xFF SWAP4 PUSH1 0xC0 SWAP8 SWAP11 SWAP10 SWAP6 PUSH2 0x11CE PUSH2 0xFFFF SWAP9 PUSH1 0xE0 DUP13 MSTORE PUSH1 0xE0 DUP13 ADD SWAP1 PUSH2 0x8D5 JUMP JUMPDEST SWAP2 ISZERO ISZERO PUSH1 0x20 DUP12 ADD MSTORE DUP10 DUP3 SUB PUSH1 0x40 DUP12 ADD MSTORE PUSH2 0x8D5 JUMP JUMPDEST PUSH1 0x1 PUSH1 0x1 PUSH1 0xA0 SHL SUB SWAP2 DUP3 AND PUSH1 0x60 DUP10 ADD MSTORE SWAP9 AND PUSH1 0x80 DUP8 ADD MSTORE AND PUSH1 0xA0 DUP6 ADD MSTORE AND SWAP2 ADD MSTORE JUMP JUMPDEST PUSH32 0xD88C393C3C90D3E614D54B41CD8BF24BC2CD20390AF15081EFE05C39AA4A155B SWAP4 SWAP3 PUSH2 0xBF8 SWAP2 PUSH2 0x1236 TIMESTAMP PUSH2 0xD53 JUMP JUMPDEST SWAP1 PUSH2 0x12A3 PUSH2 0xBE1 PUSH1 0x20 DUP5 ADD PUSH2 0x1252 PUSH2 0x990 PUSH2 0x98B DUP4 MLOAD PUSH1 0xFF AND SWAP1 JUMP JUMPDEST PUSH2 0x1111 PUSH1 0x90 SHL DUP8 DUP2 AND EQ ISZERO PUSH2 0x12B2 JUMPI JUMPDEST POP PUSH2 0x1288 PUSH2 0x126F CALLER PUSH2 0x845 JUMP JUMPDEST PUSH2 0xB99 PUSH2 0x1283 DUP3 SLOAD PUSH1 0x1 PUSH1 0x1 PUSH1 0x40 SHL SUB AND SWAP1 JUMP JUMPDEST PUSH2 0x87E JUMP JUMPDEST PUSH2 0xBDA PUSH2 0xBC8 PUSH1 0x0 DUP1 MLOAD PUSH1 0x20 PUSH2 0x1D4F DUP4 CODECOPY DUP2 MLOAD SWAP2 MSTORE SLOAD PUSH2 0x8B9 JUMP JUMPDEST SWAP3 PUSH1 0x40 MLOAD SWAP7 DUP8 SWAP7 CALLER SWAP4 DUP9 PUSH2 0x11AA JUMP JUMPDEST PUSH2 0x1306 SWAP1 PUSH2 0x12E1 PUSH32 0x33CB808A453240B3C9916E6D1CCC504E492E2B2453192FF241C73847A521D11 SLOAD PUSH1 0xFF AND SWAP1 JUMP JUMPDEST PUSH1 0x0 SWAP1 ISZERO PUSH2 0x144A JUMPI POP PUSH2 0xA95 PUSH2 0xA8E PUSH1 0xFF PUSH1 0x5 JUMPDEST AND SWAP3 PUSH2 0xA62 PUSH2 0xA5D DUP12 MLOAD PUSH2 0xFFFF AND SWAP1 JUMP JUMPDEST PUSH2 0x1325 PUSH4 0xFFFFFFFF DUP3 AND PUSH1 0x14 DUP10 SWAP1 SHL PUSH3 0x100000 PUSH1 0x1 PUSH1 0xB4 SHL SUB AND PUSH2 0x8C9 JUMP JUMPDEST SWAP1 DUP8 PUSH2 0x136B PUSH2 0x1367 PUSH2 0x1360 DUP6 PUSH1 0x0 MSTORE PUSH32 0x33CB808A453240B3C9916E6D1CCC504E492E2B2453192FF241C73847A521D0F PUSH1 0x20 MSTORE PUSH1 0x40 PUSH1 0x0 KECCAK256 SWAP1 JUMP JUMPDEST SLOAD PUSH1 0xFF AND SWAP1 JUMP JUMPDEST ISZERO SWAP1 JUMP JUMPDEST PUSH2 0x13D6 JUMPI JUMPDEST POP POP DUP9 ISZERO PUSH2 0x13B2 JUMPI PUSH2 0x1384 PUSH2 0x13AC SWAP2 PUSH2 0x10A2 JUMP JUMPDEST PUSH2 0x1397 PUSH2 0x1392 DUP3 SLOAD PUSH1 0x3 SIGNEXTEND SWAP1 JUMP JUMPDEST PUSH2 0x1195 JUMP JUMPDEST PUSH4 0xFFFFFFFF NOT DUP3 SLOAD AND SWAP1 PUSH4 0xFFFFFFFF AND OR SWAP1 SSTORE JUMP JUMPDEST CODESIZE PUSH2 0x1262 JUMP JUMPDEST PUSH2 0x13BE PUSH2 0x13D1 SWAP2 PUSH2 0x10A2 JUMP JUMPDEST PUSH2 0x1397 PUSH2 0x13CC DUP3 SLOAD PUSH1 0x3 SIGNEXTEND SWAP1 JUMP JUMPDEST PUSH2 0x117F JUMP JUMPDEST PUSH2 0x13AC JUMP JUMPDEST PUSH2 0x143E PUSH2 0x1443 SWAP3 PUSH2 0x1420 PUSH2 0x1413 DUP7 PUSH1 0x0 MSTORE PUSH32 0x33CB808A453240B3C9916E6D1CCC504E492E2B2453192FF241C73847A521D0F PUSH1 0x20 MSTORE PUSH1 0x40 PUSH1 0x0 KECCAK256 SWAP1 JUMP JUMPDEST DUP1 SLOAD PUSH1 0xFF NOT AND PUSH1 0x1 OR SWAP1 SSTORE JUMP JUMPDEST PUSH2 0x1439 PUSH2 0x142C DUP7 PUSH2 0x10A2 JUMP JUMPDEST DUP1 SLOAD PUSH4 0xFFFFFFFF NOT AND SWAP1 SSTORE JUMP JUMPDEST PUSH2 0x10D1 JUMP JUMPDEST PUSH2 0x112C JUMP JUMPDEST CODESIZE DUP8 PUSH2 0x1370 JUMP JUMPDEST PUSH2 0xA8E PUSH1 0xFF PUSH2 0xA95 SWAP3 PUSH2 0x12F5 JUMP JUMPDEST ISZERO PUSH2 0x145F JUMPI JUMP JUMPDEST POP PUSH1 0x40 MLOAD PUSH3 0x461BCD PUSH1 0xE5 SHL DUP2 MSTORE PUSH1 0x20 PUSH1 0x4 DUP3 ADD MSTORE PUSH1 0x42 PUSH1 0x24 DUP3 ADD MSTORE PUSH32 0x596F75722063616E206F6E6C79207472616E7366657220796F75722073686172 PUSH1 0x44 DUP3 ADD MSTORE PUSH32 0x6520666F72206D6F6E7468206265666F7265207468652063757272656E74206F PUSH1 0x64 DUP3 ADD MSTORE PUSH2 0x6E65 PUSH1 0xF0 SHL PUSH1 0x84 DUP3 ADD MSTORE PUSH1 0xA4 SWAP1 REVERT JUMPDEST ISZERO PUSH2 0x14DD JUMPI JUMP JUMPDEST POP PUSH1 0x40 MLOAD PUSH3 0x461BCD PUSH1 0xE5 SHL DUP2 MSTORE PUSH1 0x20 PUSH1 0x4 DUP3 ADD MSTORE PUSH1 0x43 PUSH1 0x24 DUP3 ADD MSTORE PUSH32 0x596F75722063616E206F6E6C79207472616E7366657220796F75722073686172 PUSH1 0x44 DUP3 ADD MSTORE PUSH32 0x6520666F72206D6F6E74687320616674657220646F6E6174696F6E2073746172 PUSH1 0x64 DUP3 ADD MSTORE PUSH3 0x1D1959 PUSH1 0xEA SHL PUSH1 0x84 DUP3 ADD MSTORE PUSH1 0xA4 SWAP1 REVERT JUMPDEST ISZERO PUSH2 0x155C JUMPI JUMP JUMPDEST POP PUSH1 0x40 MLOAD PUSH3 0x461BCD PUSH1 0xE5 SHL DUP2 MSTORE PUSH1 0x20 PUSH1 0x4 DUP3 ADD MSTORE PUSH1 0x33 PUSH1 0x24 DUP3 ADD MSTORE PUSH32 0x596F75722063616E2774207472616E7366657220736861726573206D6F726520 PUSH1 0x44 DUP3 ADD MSTORE PUSH19 0x3A3430B710191A1036B7B73A34399030B3B797 PUSH1 0x69 SHL PUSH1 0x64 DUP3 ADD MSTORE PUSH1 0x84 SWAP1 REVERT JUMPDEST ISZERO PUSH2 0x15C5 JUMPI JUMP JUMPDEST POP PUSH1 0x40 MLOAD PUSH3 0x461BCD PUSH1 0xE5 SHL DUP2 MSTORE PUSH1 0x20 PUSH1 0x4 DUP3 ADD MSTORE PUSH1 0x18 PUSH1 0x24 DUP3 ADD MSTORE PUSH32 0x536861726520616C7265616479207472616E7366657265640000000000000000 PUSH1 0x44 DUP3 ADD MSTORE PUSH1 0x64 SWAP1 REVERT JUMPDEST ISZERO PUSH2 0x1612 JUMPI JUMP JUMPDEST POP PUSH1 0x40 MLOAD PUSH3 0x461BCD PUSH1 0xE5 SHL DUP2 MSTORE PUSH1 0x20 PUSH1 0x4 DUP3 ADD MSTORE PUSH1 0x2A PUSH1 0x24 DUP3 ADD MSTORE PUSH32 0x596F752068617665206E6F7420656E6F756768207570766F74657320746F2062 PUSH1 0x44 DUP3 ADD MSTORE PUSH10 0x6520656C696769626C65 PUSH1 0xB0 SHL PUSH1 0x64 DUP3 ADD MSTORE PUSH1 0x84 SWAP1 REVERT JUMPDEST PUSH1 0x1 SWAP1 PUSH1 0x0 NOT DUP2 EQ PUSH2 0x741 JUMPI ADD SWAP1 JUMP JUMPDEST PUSH4 0xFFFFFFFF SWAP2 DUP3 DUP1 SWAP3 AND SWAP2 DUP3 SWAP2 AND SWAP3 DIV DUP3 GT DUP2 ISZERO ISZERO AND PUSH2 0x71E JUMPI MUL SWAP1 JUMP JUMPDEST SWAP1 PUSH1 0x1 PUSH1 0x1 PUSH1 0x40 SHL SUB DUP1 SWAP2 AND SWAP2 DUP3 ISZERO PUSH2 0x16B1 JUMPI AND DIV SWAP1 JUMP JUMPDEST PUSH2 0x16B9 PUSH2 0x568 JUMP JUMPDEST AND DIV SWAP1 JUMP JUMPDEST ISZERO PUSH2 0x16C5 JUMPI JUMP JUMPDEST POP PUSH1 0x40 MLOAD PUSH3 0x461BCD PUSH1 0xE5 SHL DUP2 MSTORE PUSH1 0x20 PUSH1 0x4 DUP3 ADD MSTORE PUSH1 0x2F PUSH1 0x24 DUP3 ADD MSTORE PUSH32 0x4E6F7420656E6F75676820646F6E6174696F6E7320666F722074686174206D6F PUSH1 0x44 DUP3 ADD MSTORE PUSH15 0x373A34399030BB30B4B630B1363297 PUSH1 0x89 SHL PUSH1 0x64 DUP3 ADD MSTORE PUSH1 0x84 SWAP1 REVERT JUMPDEST PUSH7 0xFFFFFFFFFFFFFF DUP1 SWAP2 AND DUP1 PUSH7 0x38D7EA4C68000 SWAP3 DIV DUP3 GT DUP2 ISZERO ISZERO AND PUSH2 0x71E JUMPI MUL SWAP1 JUMP JUMPDEST POP PUSH1 0x40 MLOAD RETURNDATASIZE PUSH1 0x0 DUP3 RETURNDATACOPY RETURNDATASIZE SWAP1 REVERT JUMPDEST SWAP1 SWAP2 PUSH2 0x177F PUSH2 0xA8E PUSH2 0x1765 TIMESTAMP PUSH2 0xD53 JUMP JUMPDEST PUSH2 0xA62 PUSH2 0xA5D PUSH2 0xBE1 PUSH2 0x990 PUSH2 0x98B PUSH1 0x20 DUP7 ADD MLOAD PUSH1 0xFF AND SWAP1 JUMP JUMPDEST SWAP3 PUSH2 0x1798 PUSH2 0xA8E PUSH2 0x1793 DUP4 PUSH2 0xA62 DUP7 PUSH2 0x704 JUMP JUMPDEST PUSH2 0x770 JUMP JUMPDEST SWAP5 DUP6 SWAP2 PUSH4 0xFFFFFFFF SWAP4 PUSH2 0x17F1 PUSH1 0x18 DUP7 PUSH2 0x17EA DUP2 DUP9 AND SWAP12 DUP12 PUSH2 0x17BD DUP15 DUP6 DUP2 SWAP16 AND GT PUSH2 0x1458 JUMP JUMPDEST PUSH2 0xA95 PUSH2 0x17E1 PUSH2 0xA8E PUSH1 0x0 DUP1 MLOAD PUSH1 0x20 PUSH2 0x1D2F DUP4 CODECOPY DUP2 MLOAD SWAP2 MSTORE SLOAD PUSH2 0xFFFF SWAP1 PUSH1 0x10 SHR AND SWAP1 JUMP JUMPDEST DUP1 SWAP15 LT ISZERO PUSH2 0x14D6 JUMP JUMPDEST AND LT PUSH2 0x1555 JUMP JUMPDEST PUSH2 0x17FE DUP9 CALLER PUSH1 0x14 SHL PUSH2 0x8C9 JUMP JUMPDEST SWAP2 PUSH2 0x183E PUSH2 0x1838 PUSH2 0x1360 DUP6 PUSH1 0x0 MSTORE PUSH32 0x33CB808A453240B3C9916E6D1CCC504E492E2B2453192FF241C73847A521D10 PUSH1 0x20 MSTORE PUSH1 0x40 PUSH1 0x0 KECCAK256 SWAP1 JUMP JUMPDEST ISZERO PUSH2 0x15BE JUMP JUMPDEST PUSH1 0x0 SWAP7 PUSH2 0x1861 DUP9 PUSH2 0x1858 PUSH2 0x1851 DUP8 PUSH2 0x10A2 JUMP JUMPDEST SLOAD PUSH1 0x3 SIGNEXTEND SWAP1 JUMP JUMPDEST PUSH1 0x3 SIGNEXTEND SGT PUSH2 0x160B JUMP JUMPDEST DUP8 SWAP7 DUP9 JUMPDEST PUSH2 0x186E DUP9 PUSH2 0x10D1 JUMP JUMPDEST SLOAD DUP2 LT ISZERO PUSH2 0x1917 JUMPI PUSH2 0x18C5 DUP13 PUSH2 0x18C0 PUSH2 0x18BA PUSH2 0x18AE PUSH2 0x18AE PUSH2 0x1899 DUP8 DUP16 PUSH2 0x1894 SWAP1 PUSH2 0x10D1 JUMP JUMPDEST PUSH2 0x1106 JUMP JUMPDEST SWAP1 SLOAD PUSH1 0x3 SWAP2 SWAP1 SWAP2 SHL SHR PUSH1 0x1 PUSH1 0x1 PUSH1 0xA0 SHL SUB AND SWAP1 JUMP JUMPDEST PUSH1 0x1 PUSH1 0x1 PUSH1 0xA0 SHL SUB AND SWAP1 JUMP JUMPDEST PUSH1 0x14 SHL SWAP1 JUMP JUMPDEST PUSH2 0x8C9 JUMP JUMPDEST DUP11 PUSH2 0x18DB PUSH2 0x18D5 PUSH2 0x1851 DUP5 PUSH2 0x10A2 JUMP JUMPDEST PUSH1 0x3 SIGNEXTEND SWAP1 JUMP JUMPDEST SGT PUSH2 0x18F0 JUMPI JUMPDEST POP PUSH2 0x18EB SWAP1 PUSH2 0x166B JUMP JUMPDEST PUSH2 0x1865 JUMP JUMPDEST PUSH2 0x18EB SWAP2 SWAP10 PUSH2 0x190A PUSH2 0x9F9 PUSH2 0x9F9 PUSH2 0x1851 PUSH2 0x1910 SWAP6 PUSH2 0x10A2 JUMP JUMPDEST SWAP1 PUSH2 0x89D JUMP JUMPDEST SWAP9 SWAP1 PUSH2 0x18E1 JUMP JUMPDEST POP DUP9 SWAP10 DUP10 SWAP8 SWAP10 SWAP4 SWAP6 SWAP9 SWAP5 SWAP7 SWAP12 POP SWAP1 DUP1 PUSH2 0x1931 DUP6 SWAP4 DUP13 PUSH2 0x7A2 JUMP JUMPDEST PUSH1 0x30 PUSH2 0xFFFF SWAP2 SWAP1 SWAP2 AND MOD SWAP6 PUSH2 0x1945 DUP8 PUSH2 0x7FD JUMP JUMPDEST SWAP1 SLOAD PUSH1 0x3 SWAP2 SWAP1 SWAP2 SHL SHR PUSH4 0xFFFFFFFF AND PUSH2 0x195D DUP13 PUSH2 0x10A2 JUMP JUMPDEST SLOAD PUSH1 0x3 SIGNEXTEND PUSH4 0xFFFFFFFF AND PUSH2 0x1970 SWAP2 PUSH2 0x167B JUMP JUMPDEST PUSH4 0xFFFFFFFF AND SWAP1 PUSH2 0x1980 SWAP2 PUSH2 0x1699 JUMP JUMPDEST PUSH4 0xFFFFFFFF AND SWAP10 PUSH2 0x1990 DUP8 PUSH2 0x7FD JUMP JUMPDEST SWAP1 SLOAD PUSH1 0x3 SWAP2 SWAP1 SWAP2 SHL SHR PUSH4 0xFFFFFFFF AND DUP3 DUP13 AND SWAP4 DUP5 SWAP2 AND LT ISZERO PUSH2 0x19B1 SWAP1 PUSH2 0x16BE JUMP JUMPDEST PUSH2 0x19BA DUP8 PUSH2 0x7FD JUMP JUMPDEST DUP2 SLOAD DUP14 SWAP1 PUSH1 0x3 DUP4 SWAP1 SHL SHR PUSH4 0xFFFFFFFF AND SWAP1 PUSH2 0x19D4 SWAP2 PUSH2 0x7A2 JUMP JUMPDEST DUP3 SLOAD PUSH4 0xFFFFFFFF PUSH1 0x3 SWAP4 SWAP1 SWAP4 SHL DUP4 DUP2 SHL DUP1 NOT SWAP1 SWAP3 AND SWAP4 SWAP1 SWAP3 AND SWAP1 SWAP2 SHL AND OR SWAP1 SSTORE PUSH2 0x1A27 SWAP1 PUSH1 0x0 MSTORE PUSH32 0x33CB808A453240B3C9916E6D1CCC504E492E2B2453192FF241C73847A521D10 PUSH1 0x20 MSTORE PUSH1 0x40 PUSH1 0x0 KECCAK256 SWAP1 JUMP JUMPDEST DUP1 SLOAD PUSH1 0xFF NOT AND PUSH1 0x1 OR SWAP1 SSTORE PUSH2 0x1A3B DUP3 PUSH2 0x1723 JUMP JUMPDEST DUP4 SWAP1 PUSH7 0xFFFFFFFFFFFFFF AND SWAP2 DUP3 ISZERO SWAP14 PUSH2 0xBF8 SWAP12 PUSH32 0xD60EF7047EC8BFC45D19C2EC01830D929258BF2A7AE675FDE3DAB44FA17F2F76 SWAP16 SWAP9 PUSH2 0x1AE1 SWAP8 PUSH2 0x1ADC SWAP7 PUSH2 0xBC8 SWAP7 PUSH32 0xEB338D42E19428A462947FCE4FF0C28C2CCAE6F7ECDB16BEB0DC981F98AE967C SWAP13 PUSH2 0x1B68 JUMPI JUMPDEST PUSH1 0x1 PUSH1 0x1 PUSH1 0xA0 SHL SUB DUP13 AND SWAP1 CALL ISZERO PUSH2 0x1B5B JUMPI JUMPDEST PUSH1 0xA DUP5 DIV AND PUSH2 0xBB3 PUSH2 0x1AC7 CALLER PUSH2 0x845 JUMP JUMPDEST PUSH2 0xB99 DUP4 PUSH2 0xB94 DUP4 SLOAD PUSH1 0x1 PUSH1 0x1 PUSH1 0x40 SHL SUB AND SWAP1 JUMP JUMPDEST PUSH2 0x1723 JUMP JUMPDEST PUSH1 0x40 DUP1 MLOAD PUSH7 0xFFFFFFFFFFFFFF SWAP3 SWAP1 SWAP3 AND DUP3 MSTORE PUSH1 0x1 PUSH1 0x1 PUSH1 0xA0 SHL SUB SWAP3 SWAP1 SWAP3 AND PUSH1 0x20 DUP3 ADD MSTORE PUSH2 0xFFFF DUP6 DUP2 AND SWAP3 DUP3 ADD SWAP3 SWAP1 SWAP3 MSTORE SWAP1 DUP6 AND PUSH1 0x60 DUP3 ADD MSTORE PUSH1 0x80 SWAP1 LOG1 PUSH1 0x40 MLOAD SWAP6 DUP7 SWAP6 DUP7 SWAP4 SWAP2 SWAP6 SWAP5 SWAP1 SWAP3 PUSH1 0x80 SWAP4 PUSH1 0xA0 DUP7 ADD SWAP8 PUSH4 0xFFFFFFFF DUP1 SWAP3 AND DUP8 MSTORE AND PUSH1 0x20 DUP7 ADD MSTORE PUSH2 0xFFFF SWAP3 DUP4 DUP1 SWAP3 AND PUSH1 0x40 DUP8 ADD MSTORE AND PUSH1 0x60 DUP6 ADD MSTORE AND SWAP2 ADD MSTORE JUMP JUMPDEST PUSH2 0x1B63 PUSH2 0x1747 JUMP JUMPDEST PUSH2 0x1AB6 JUMP JUMPDEST POP PUSH2 0x8FC PUSH2 0x1AA4 JUMP JUMPDEST PUSH1 0x40 DUP1 MLOAD SWAP2 SWAP1 PUSH1 0x0 PUSH32 0x33CB808A453240B3C9916E6D1CCC504E492E2B2453192FF241C73847A521D07 DUP5 JUMPDEST PUSH1 0x30 PUSH1 0x7 DUP5 ADD LT PUSH2 0x1BB6 JUMPI POP POP POP POP PUSH2 0x1BB4 DUP3 PUSH2 0x1B4 JUMP JUMPDEST JUMP JUMPDEST PUSH1 0x1 PUSH2 0x100 PUSH1 0x8 SWAP3 PUSH2 0x1C66 DUP6 SLOAD PUSH2 0x1C5B PUSH4 0xFFFFFFFF PUSH2 0x1BDC DUP6 DUP3 DUP6 AND PUSH4 0xFFFFFFFF AND SWAP1 MSTORE JUMP JUMPDEST PUSH2 0x1BF3 PUSH1 0x20 DUP3 DUP6 DUP3 DUP10 ADD SWAP3 SHR AND PUSH4 0xFFFFFFFF AND SWAP1 MSTORE JUMP JUMPDEST PUSH4 0xFFFFFFFF DUP4 DUP13 SHR DUP3 AND AND DUP6 DUP13 ADD MSTORE PUSH2 0x1C19 PUSH1 0x60 DUP3 DUP6 DUP3 DUP10 ADD SWAP3 SHR AND PUSH4 0xFFFFFFFF AND SWAP1 MSTORE JUMP JUMPDEST PUSH2 0x1C30 PUSH1 0x80 DUP3 DUP6 DUP3 DUP10 ADD SWAP3 SHR AND PUSH4 0xFFFFFFFF AND SWAP1 MSTORE JUMP JUMPDEST PUSH2 0x1C47 PUSH1 0xA0 DUP3 DUP6 DUP3 DUP10 ADD SWAP3 SHR AND PUSH4 0xFFFFFFFF AND SWAP1 MSTORE JUMP JUMPDEST PUSH1 0xC0 SWAP1 DUP4 DUP3 DUP8 ADD SWAP3 SHR AND PUSH4 0xFFFFFFFF AND SWAP1 MSTORE JUMP JUMPDEST PUSH1 0xE0 SWAP1 DUP2 SHR SWAP1 DUP4 ADD MSTORE JUMP JUMPDEST ADD SWAP3 ADD SWAP3 ADD SWAP2 SWAP1 PUSH2 0x1B9C JUMP JUMPDEST PUSH1 0x40 MLOAD PUSH1 0x60 DUP2 ADD DUP2 DUP2 LT PUSH1 0x1 PUSH1 0x1 PUSH1 0x40 SHL SUB DUP3 GT OR PUSH2 0x1D21 JUMPI JUMPDEST PUSH1 0x40 MSTORE PUSH1 0x0 DUP2 MSTORE PUSH1 0x0 PUSH1 0x20 DUP3 ADD MSTORE PUSH1 0x40 DUP1 MLOAD SWAP2 PUSH2 0x1CA8 DUP4 PUSH2 0x1B4 JUMP JUMPDEST PUSH2 0x600 CALLDATASIZE DUP5 CALLDATACOPY ADD MSTORE PUSH2 0xFFFF PUSH2 0x1D04 PUSH1 0xC DUP3 PUSH1 0x0 DUP1 MLOAD PUSH1 0x20 PUSH2 0x1D2F DUP4 CODECOPY DUP2 MLOAD SWAP2 MSTORE SLOAD PUSH1 0x10 SHR AND SWAP3 DUP2 DUP5 MOD AND SWAP3 PUSH2 0xFFFE DUP5 GT PUSH2 0x1D14 JUMPI JUMPDEST PUSH2 0x1CF6 PUSH1 0x1 PUSH2 0x1CEA PUSH2 0x1DD JUMP JUMPDEST SWAP6 ADD DUP6 SWAP1 PUSH2 0xFFFF AND SWAP1 MSTORE JUMP JUMPDEST DIV PUSH1 0x20 DUP4 ADD SWAP1 PUSH2 0xFFFF AND SWAP1 MSTORE JUMP JUMPDEST PUSH2 0x1D0C PUSH2 0x1B71 JUMP JUMPDEST PUSH1 0x40 DUP3 ADD MSTORE SWAP1 JUMP JUMPDEST PUSH2 0x1D1C PUSH2 0x4E5 JUMP JUMPDEST PUSH2 0x1CDD JUMP JUMPDEST PUSH2 0x1D29 PUSH2 0x19D JUMP JUMPDEST PUSH2 0x1C8C JUMP INVALID SUB EXTCODECOPY 0xB8 ADDMOD LOG4 MSTORE8 0x24 SIGNEXTEND EXTCODECOPY SWAP10 AND 0xE6 0xD1 0xCC 0xC5 DIV 0xE4 SWAP3 0xE2 0xB2 GASLIMIT BALANCE SWAP3 SELFDESTRUCT 0x24 SHR PUSH20 0x847A521D06033CB808A453240B3C9916E6D1CCC5 DIV 0xE4 SWAP3 0xE2 0xB2 GASLIMIT BALANCE SWAP3 SELFDESTRUCT 0x24 SHR PUSH20 0x847A521D14A3646970667358221220256698CABF 0xF 0x4E 0xD CREATE2 0x21 LOG2 0xA5 PUSH13 0xB0F4F7B2317F83A7A4D60D6901 0xDC 0xAE PUSH18 0xDB636E6C6578706572696D656E74616CF564 PUSH20 0x6F6C634300080A00410000000000000000000000 "},"gasEstimates":{"creation":{"codeDepositCost":"1520400","executionCost":"1599","totalCost":"1521999"},"external":{"donate(uint16,string)":"infinite","donationBuckets()":"infinite","myFame()":"2588","setDonatingActive()":"26655","setDonatingInactive()":"26737","totalFame()":"2328","transfer(address,uint16,uint16)":"infinite","vote(string,bool,address,string)":"infinite"}},"methodIdentifiers":{"donate(uint16,string)":"4f9b09af","donationBuckets()":"db75953b","myFame()":"bc956abb","setDonatingActive()":"5f592bb5","setDonatingInactive()":"c3269df9","totalFame()":"27e665f7","transfer(address,uint16,uint16)":"672296dc","vote(string,bool,address,string)":"6e283c38"}},"storageLayout":{"storage":[],"types":null},"userdoc":{"kind":"user","methods":{},"version":1}}}}