{"contracts/InitFacet.sol":{"InitFacet":{"abi":[{"inputs":[],"stateMutability":"nonpayable","type":"constructor"},{"inputs":[{"internalType":"uint16","name":"currentMonth","type":"uint16"},{"internalType":"uint16","name":"currentYear","type":"uint16"},{"internalType":"bool","name":"isTesting","type":"bool"}],"name":"init","outputs":[],"stateMutability":"nonpayable","type":"function"}],"devdoc":{"kind":"dev","methods":{},"version":1},"evm":{"bytecode":{"linkReferences":{},"object":"60806040523461007a577fc8fcad8db84d3cc18b4c41d551ea0ee66dd599cde068d998e57d5e09332c13208054336001600160a01b0319821681179092556001600160a01b03167f8be0079c531659141344cd1fd0a4f28419497f9722a3daafe3b4186f6b6457e060006080a361037c806100806080396080f35b600080fdfe6080604052600436101561001257600080fd5b6000803560e01c6359259007146100295750600080fd5b346100775760603660031901126100775760043561ffff81168114156100735761005161007a565b6044359081151582141561006d5761006892610093565b604051f35b50505080fd5b5080fd5b80fd5b6024359061ffff821682141561008c57565b5050600080fd5b919060018060a01b037fc8fcad8db84d3cc18b4c41d551ea0ee66dd599cde068d998e57d5e09332c132054163314156100d1576100cf92610145565b565b50505050608460405162461bcd60e51b815260206004820152602c60248201527f4f6e6c79206f776e657220697320616c6c6f77656420746f20706572666f726d60448201526b103a3434b99030b1ba34b7b760a11b6064820152fd5b50634e487b7160e01b600052601160045260246000fd5b6101f892600c926101f19261ffff80958180809416946001861061032b575b1680830482118115151661031e575b02169160001901168094038111610311575b63ffff00007f033cb808a453240b3c9916e6d1ccc504e492e2b2453192ff241c73847a521d06948554920160101b169063ffff000019161783557f033cb808a453240b3c9916e6d1ccc504e492e2b2453192ff241c73847a521d119060ff801983541691151516179055565b5460ff1690565b6100cf577f033cb808a453240b3c9916e6d1ccc504e492e2b2453192ff241c73847a521d06805461ff0019166101001790556307e4c70760e21b6000527fc8fcad8db84d3cc18b4c41d551ea0ee66dd599cde068d998e57d5e09332c131f60205261028b7ff97e938d8af42f52387bb74b8b526fda8f184cc2aa534340a8d75a88fbecc7755b805460ff19166001179055565b6348e2b09360e01b6000527fc8fcad8db84d3cc18b4c41d551ea0ee66dd599cde068d998e57d5e09332c131f6020526102e37f65d510a5d8f7ef134ec444f7f34ee808c8eeb5177cdfd16be0c40fe1ab43369561027e565b7f033cb808a453240b3c9916e6d1ccc504e492e2b2453192ff241c73847a521d06805460ff19166001179055565b61031961012e565b610185565b61032661012e565b610173565b61033361012e565b61016456fea3646970667358221220d5915c920c9ac445f36643434e1e12bc9d30857c5193caebe63987bc577bbdb96c6578706572696d656e74616cf564736f6c634300080a0041","opcodes":"PUSH1 0x80 PUSH1 0x40 MSTORE CALLVALUE PUSH2 0x7A JUMPI PUSH32 0xC8FCAD8DB84D3CC18B4C41D551EA0EE66DD599CDE068D998E57D5E09332C1320 DUP1 SLOAD CALLER PUSH1 0x1 PUSH1 0x1 PUSH1 0xA0 SHL SUB NOT DUP3 AND DUP2 OR SWAP1 SWAP3 SSTORE PUSH1 0x1 PUSH1 0x1 PUSH1 0xA0 SHL SUB AND PUSH32 0x8BE0079C531659141344CD1FD0A4F28419497F9722A3DAAFE3B4186F6B6457E0 PUSH1 0x0 PUSH1 0x80 LOG3 PUSH2 0x37C DUP1 PUSH2 0x80 PUSH1 0x80 CODECOPY PUSH1 0x80 RETURN JUMPDEST PUSH1 0x0 DUP1 REVERT INVALID PUSH1 0x80 PUSH1 0x40 MSTORE PUSH1 0x4 CALLDATASIZE LT ISZERO PUSH2 0x12 JUMPI PUSH1 0x0 DUP1 REVERT JUMPDEST PUSH1 0x0 DUP1 CALLDATALOAD PUSH1 0xE0 SHR PUSH4 0x59259007 EQ PUSH2 0x29 JUMPI POP PUSH1 0x0 DUP1 REVERT JUMPDEST CALLVALUE PUSH2 0x77 JUMPI PUSH1 0x60 CALLDATASIZE PUSH1 0x3 NOT ADD SLT PUSH2 0x77 JUMPI PUSH1 0x4 CALLDATALOAD PUSH2 0xFFFF DUP2 AND DUP2 EQ ISZERO PUSH2 0x73 JUMPI PUSH2 0x51 PUSH2 0x7A JUMP JUMPDEST PUSH1 0x44 CALLDATALOAD SWAP1 DUP2 ISZERO ISZERO DUP3 EQ ISZERO PUSH2 0x6D JUMPI PUSH2 0x68 SWAP3 PUSH2 0x93 JUMP JUMPDEST PUSH1 0x40 MLOAD RETURN JUMPDEST POP POP POP DUP1 REVERT JUMPDEST POP DUP1 REVERT JUMPDEST DUP1 REVERT JUMPDEST PUSH1 0x24 CALLDATALOAD SWAP1 PUSH2 0xFFFF DUP3 AND DUP3 EQ ISZERO PUSH2 0x8C JUMPI JUMP JUMPDEST POP POP PUSH1 0x0 DUP1 REVERT JUMPDEST SWAP2 SWAP1 PUSH1 0x1 DUP1 PUSH1 0xA0 SHL SUB PUSH32 0xC8FCAD8DB84D3CC18B4C41D551EA0EE66DD599CDE068D998E57D5E09332C1320 SLOAD AND CALLER EQ ISZERO PUSH2 0xD1 JUMPI PUSH2 0xCF SWAP3 PUSH2 0x145 JUMP JUMPDEST JUMP JUMPDEST POP POP POP POP PUSH1 0x84 PUSH1 0x40 MLOAD PUSH3 0x461BCD PUSH1 0xE5 SHL DUP2 MSTORE PUSH1 0x20 PUSH1 0x4 DUP3 ADD MSTORE PUSH1 0x2C PUSH1 0x24 DUP3 ADD MSTORE PUSH32 0x4F6E6C79206F776E657220697320616C6C6F77656420746F20706572666F726D PUSH1 0x44 DUP3 ADD MSTORE PUSH12 0x103A3434B99030B1BA34B7B7 PUSH1 0xA1 SHL PUSH1 0x64 DUP3 ADD MSTORE REVERT JUMPDEST POP PUSH4 0x4E487B71 PUSH1 0xE0 SHL PUSH1 0x0 MSTORE PUSH1 0x11 PUSH1 0x4 MSTORE PUSH1 0x24 PUSH1 0x0 REVERT JUMPDEST PUSH2 0x1F8 SWAP3 PUSH1 0xC SWAP3 PUSH2 0x1F1 SWAP3 PUSH2 0xFFFF DUP1 SWAP6 DUP2 DUP1 DUP1 SWAP5 AND SWAP5 PUSH1 0x1 DUP7 LT PUSH2 0x32B JUMPI JUMPDEST AND DUP1 DUP4 DIV DUP3 GT DUP2 ISZERO ISZERO AND PUSH2 0x31E JUMPI JUMPDEST MUL AND SWAP2 PUSH1 0x0 NOT ADD AND DUP1 SWAP5 SUB DUP2 GT PUSH2 0x311 JUMPI JUMPDEST PUSH4 0xFFFF0000 PUSH32 0x33CB808A453240B3C9916E6D1CCC504E492E2B2453192FF241C73847A521D06 SWAP5 DUP6 SLOAD SWAP3 ADD PUSH1 0x10 SHL AND SWAP1 PUSH4 0xFFFF0000 NOT AND OR DUP4 SSTORE PUSH32 0x33CB808A453240B3C9916E6D1CCC504E492E2B2453192FF241C73847A521D11 SWAP1 PUSH1 0xFF DUP1 NOT DUP4 SLOAD AND SWAP2 ISZERO ISZERO AND OR SWAP1 SSTORE JUMP JUMPDEST SLOAD PUSH1 0xFF AND SWAP1 JUMP JUMPDEST PUSH2 0xCF JUMPI PUSH32 0x33CB808A453240B3C9916E6D1CCC504E492E2B2453192FF241C73847A521D06 DUP1 SLOAD PUSH2 0xFF00 NOT AND PUSH2 0x100 OR SWAP1 SSTORE PUSH4 0x7E4C707 PUSH1 0xE2 SHL PUSH1 0x0 MSTORE PUSH32 0xC8FCAD8DB84D3CC18B4C41D551EA0EE66DD599CDE068D998E57D5E09332C131F PUSH1 0x20 MSTORE PUSH2 0x28B PUSH32 0xF97E938D8AF42F52387BB74B8B526FDA8F184CC2AA534340A8D75A88FBECC775 JUMPDEST DUP1 SLOAD PUSH1 0xFF NOT AND PUSH1 0x1 OR SWAP1 SSTORE JUMP JUMPDEST PUSH4 0x48E2B093 PUSH1 0xE0 SHL PUSH1 0x0 MSTORE PUSH32 0xC8FCAD8DB84D3CC18B4C41D551EA0EE66DD599CDE068D998E57D5E09332C131F PUSH1 0x20 MSTORE PUSH2 0x2E3 PUSH32 0x65D510A5D8F7EF134EC444F7F34EE808C8EEB5177CDFD16BE0C40FE1AB433695 PUSH2 0x27E JUMP JUMPDEST PUSH32 0x33CB808A453240B3C9916E6D1CCC504E492E2B2453192FF241C73847A521D06 DUP1 SLOAD PUSH1 0xFF NOT AND PUSH1 0x1 OR SWAP1 SSTORE JUMP JUMPDEST PUSH2 0x319 PUSH2 0x12E JUMP JUMPDEST PUSH2 0x185 JUMP JUMPDEST PUSH2 0x326 PUSH2 0x12E JUMP JUMPDEST PUSH2 0x173 JUMP JUMPDEST PUSH2 0x333 PUSH2 0x12E JUMP JUMPDEST PUSH2 0x164 JUMP INVALID LOG3 PUSH5 0x6970667358 0x22 SLT KECCAK256 0xD5 SWAP2 0x5C SWAP3 0xC SWAP11 0xC4 GASLIMIT RETURN PUSH7 0x43434E1E12BC9D ADDRESS DUP6 PUSH29 0x5193CAEBE63987BC577BBDB96C6578706572696D656E74616CF564736F PUSH13 0x634300080A0041000000000000 "},"gasEstimates":{"creation":{"codeDepositCost":"178400","executionCost":"25995","totalCost":"204395"},"external":{"init(uint16,uint16,bool)":"infinite"}},"methodIdentifiers":{"init(uint16,uint16,bool)":"59259007"}},"storageLayout":{"storage":[],"types":null},"userdoc":{"kind":"user","methods":{},"version":1}}}}