{"contracts/InitFacet.sol":{"InitFacet":{"abi":[{"inputs":[],"stateMutability":"nonpayable","type":"constructor"},{"inputs":[],"name":"init","outputs":[],"stateMutability":"nonpayable","type":"function"}],"devdoc":{"kind":"dev","methods":{},"version":1},"evm":{"bytecode":{"linkReferences":{},"object":"60806040523461007a577fc8fcad8db84d3cc18b4c41d551ea0ee66dd599cde068d998e57d5e09332c13208054336001600160a01b0319821681179092556001600160a01b03167f8be0079c531659141344cd1fd0a4f28419497f9722a3daafe3b4186f6b6457e060006080a36101ce806100806080396080f35b600080fdfe6080604052600436101561001257600080fd5b6000803560e01c63e1c7392a146100295750600080fd5b346100ca57806003193601126100ca577fc8fcad8db84d3cc18b4c41d551ea0ee66dd599cde068d998e57d5e09332c1320546001600160a01b0316331415610078576100736100cd565b604051f35b5062461bcd60e51b6080526020608452602c60a4527f4f6e6c79206f776e657220697320616c6c6f77656420746f20706572666f726d60c4526b103a3434b99030b1ba34b7b760a11b60e45260846080fd5b80fd5b7f202e1867cade063e32a2eb339a246f853a1a233314949ba8d9e2ac766f6ed84660ff815416610187577fc8fcad8db84d3cc18b4c41d551ea0ee66dd599cde068d998e57d5e09332c131f6020527ff97e938d8af42f52387bb74b8b526fda8f184cc2aa534340a8d75a88fbecc7758054600160ff1991821681179092556348e2b09360e01b6000527f65d510a5d8f7ef134ec444f7f34ee808c8eeb5177cdfd16be0c40fe1ab4336958054821683179055825416179055565b5056fea3646970667358221220a4bd25f35411ed9da847e158368530e4e69971d9664a4c4e2a1ee675cf574b046c6578706572696d656e74616cf564736f6c634300080a0041","opcodes":"PUSH1 0x80 PUSH1 0x40 MSTORE CALLVALUE PUSH2 0x7A JUMPI PUSH32 0xC8FCAD8DB84D3CC18B4C41D551EA0EE66DD599CDE068D998E57D5E09332C1320 DUP1 SLOAD CALLER PUSH1 0x1 PUSH1 0x1 PUSH1 0xA0 SHL SUB NOT DUP3 AND DUP2 OR SWAP1 SWAP3 SSTORE PUSH1 0x1 PUSH1 0x1 PUSH1 0xA0 SHL SUB AND PUSH32 0x8BE0079C531659141344CD1FD0A4F28419497F9722A3DAAFE3B4186F6B6457E0 PUSH1 0x0 PUSH1 0x80 LOG3 PUSH2 0x1CE DUP1 PUSH2 0x80 PUSH1 0x80 CODECOPY PUSH1 0x80 RETURN JUMPDEST PUSH1 0x0 DUP1 REVERT INVALID PUSH1 0x80 PUSH1 0x40 MSTORE PUSH1 0x4 CALLDATASIZE LT ISZERO PUSH2 0x12 JUMPI PUSH1 0x0 DUP1 REVERT JUMPDEST PUSH1 0x0 DUP1 CALLDATALOAD PUSH1 0xE0 SHR PUSH4 0xE1C7392A EQ PUSH2 0x29 JUMPI POP PUSH1 0x0 DUP1 REVERT JUMPDEST CALLVALUE PUSH2 0xCA JUMPI DUP1 PUSH1 0x3 NOT CALLDATASIZE ADD SLT PUSH2 0xCA JUMPI PUSH32 0xC8FCAD8DB84D3CC18B4C41D551EA0EE66DD599CDE068D998E57D5E09332C1320 SLOAD PUSH1 0x1 PUSH1 0x1 PUSH1 0xA0 SHL SUB AND CALLER EQ ISZERO PUSH2 0x78 JUMPI PUSH2 0x73 PUSH2 0xCD JUMP JUMPDEST PUSH1 0x40 MLOAD RETURN JUMPDEST POP PUSH3 0x461BCD PUSH1 0xE5 SHL PUSH1 0x80 MSTORE PUSH1 0x20 PUSH1 0x84 MSTORE PUSH1 0x2C PUSH1 0xA4 MSTORE PUSH32 0x4F6E6C79206F776E657220697320616C6C6F77656420746F20706572666F726D PUSH1 0xC4 MSTORE PUSH12 0x103A3434B99030B1BA34B7B7 PUSH1 0xA1 SHL PUSH1 0xE4 MSTORE PUSH1 0x84 PUSH1 0x80 REVERT JUMPDEST DUP1 REVERT JUMPDEST PUSH32 0x202E1867CADE063E32A2EB339A246F853A1A233314949BA8D9E2AC766F6ED846 PUSH1 0xFF DUP2 SLOAD AND PUSH2 0x187 JUMPI PUSH32 0xC8FCAD8DB84D3CC18B4C41D551EA0EE66DD599CDE068D998E57D5E09332C131F PUSH1 0x20 MSTORE PUSH32 0xF97E938D8AF42F52387BB74B8B526FDA8F184CC2AA534340A8D75A88FBECC775 DUP1 SLOAD PUSH1 0x1 PUSH1 0xFF NOT SWAP2 DUP3 AND DUP2 OR SWAP1 SWAP3 SSTORE PUSH4 0x48E2B093 PUSH1 0xE0 SHL PUSH1 0x0 MSTORE PUSH32 0x65D510A5D8F7EF134EC444F7F34EE808C8EEB5177CDFD16BE0C40FE1AB433695 DUP1 SLOAD DUP3 AND DUP4 OR SWAP1 SSTORE DUP3 SLOAD AND OR SWAP1 SSTORE JUMP JUMPDEST POP JUMP INVALID LOG3 PUSH5 0x6970667358 0x22 SLT KECCAK256 LOG4 0xBD 0x25 RETURN SLOAD GT 0xED SWAP14 0xA8 SELFBALANCE 0xE1 PC CALLDATASIZE DUP6 ADDRESS 0xE4 0xE6 SWAP10 PUSH18 0xD9664A4C4E2A1EE675CF574B046C65787065 PUSH19 0x696D656E74616CF564736F6C634300080A0041 "},"gasEstimates":{"creation":{"codeDepositCost":"92400","executionCost":"25915","totalCost":"118315"},"external":{"init()":"77113"}},"methodIdentifiers":{"init()":"e1c7392a"}},"storageLayout":{"storage":[],"types":null},"userdoc":{"kind":"user","methods":{},"version":1}}}}