{"contracts/LeafWalletRegistryCore.sol":{"LeafWalletRegistryCore":{"abi":[{"inputs":[],"name":"getDeviceOwner","outputs":[{"internalType":"address","name":"","type":"address"}],"stateMutability":"view","type":"function"},{"inputs":[],"name":"getRelatedDevices","outputs":[{"internalType":"address[]","name":"","type":"address[]"}],"stateMutability":"view","type":"function"},{"inputs":[],"name":"isSenderRegistered","outputs":[{"internalType":"bool","name":"","type":"bool"}],"stateMutability":"view","type":"function"}],"devdoc":{"kind":"dev","methods":{},"version":1},"evm":{"bytecode":{"linkReferences":{},"object":"608080604052346100165761021c908161001c8239f35b600080fdfe6080604090808252600436101561001557600080fd5b600090813560e01c9081633aafa38814610194575080639b8ae3751461013f5763e0f64efc1461004457600080fd5b3461013c578060031936011261013c573381526020907f83ed3ba29c1d52058c877df3ebd264cf957c42ef7764387349be0ccf6df0b63c825282812091835191828285549182815201908195835283832090835b8582821061011f5750505050839003601f01601f191683019467ffffffffffffffff86118487101761010b5785815282865292518583018190528594938501939290915b8281106100eb57505050500390f35b83516001600160a01b0316855286955093810193928101926001016100dc565b634e487b7160e01b82526041600452602482fd5b83546001600160a01b031685529093019260019283019201610098565b80fd5b5090346101905781600319360112610190573382527f83ed3ba29c1d52058c877df3ebd264cf957c42ef7764387349be0ccf6df0b63b6020908152918190205490516001600160a01b039091168152f35b5080fd5b905082346101e257826003193601126101e2573383527f83ed3ba29c1d52058c877df3ebd264cf957c42ef7764387349be0ccf6df0b63b60209081529220546001600160a01b031615158152f35b8280fdfea2646970667358221220c0f6674cfd098bd8b9ad12668c8bc0548bee7c3a3b7210c2fe5fe848e268b8ac64736f6c63430008120033","opcodes":"PUSH1 0x80 DUP1 PUSH1 0x40 MSTORE CALLVALUE PUSH2 0x16 JUMPI PUSH2 0x21C SWAP1 DUP2 PUSH2 0x1C DUP3 CODECOPY RETURN JUMPDEST PUSH1 0x0 DUP1 REVERT INVALID PUSH1 0x80 PUSH1 0x40 SWAP1 DUP1 DUP3 MSTORE PUSH1 0x4 CALLDATASIZE LT ISZERO PUSH2 0x15 JUMPI PUSH1 0x0 DUP1 REVERT JUMPDEST PUSH1 0x0 SWAP1 DUP2 CALLDATALOAD PUSH1 0xE0 SHR SWAP1 DUP2 PUSH4 0x3AAFA388 EQ PUSH2 0x194 JUMPI POP DUP1 PUSH4 0x9B8AE375 EQ PUSH2 0x13F JUMPI PUSH4 0xE0F64EFC EQ PUSH2 0x44 JUMPI PUSH1 0x0 DUP1 REVERT JUMPDEST CALLVALUE PUSH2 0x13C JUMPI DUP1 PUSH1 0x3 NOT CALLDATASIZE ADD SLT PUSH2 0x13C JUMPI CALLER DUP2 MSTORE PUSH1 0x20 SWAP1 PUSH32 0x83ED3BA29C1D52058C877DF3EBD264CF957C42EF7764387349BE0CCF6DF0B63C DUP3 MSTORE DUP3 DUP2 KECCAK256 SWAP2 DUP4 MLOAD SWAP2 DUP3 DUP3 DUP6 SLOAD SWAP2 DUP3 DUP2 MSTORE ADD SWAP1 DUP2 SWAP6 DUP4 MSTORE DUP4 DUP4 KECCAK256 SWAP1 DUP4 JUMPDEST DUP6 DUP3 DUP3 LT PUSH2 0x11F JUMPI POP POP POP POP DUP4 SWAP1 SUB PUSH1 0x1F ADD PUSH1 0x1F NOT AND DUP4 ADD SWAP5 PUSH8 0xFFFFFFFFFFFFFFFF DUP7 GT DUP5 DUP8 LT OR PUSH2 0x10B JUMPI DUP6 DUP2 MSTORE DUP3 DUP7 MSTORE SWAP3 MLOAD DUP6 DUP4 ADD DUP2 SWAP1 MSTORE DUP6 SWAP5 SWAP4 DUP6 ADD SWAP4 SWAP3 SWAP1 SWAP2 JUMPDEST DUP3 DUP2 LT PUSH2 0xEB JUMPI POP POP POP POP SUB SWAP1 RETURN JUMPDEST DUP4 MLOAD PUSH1 0x1 PUSH1 0x1 PUSH1 0xA0 SHL SUB AND DUP6 MSTORE DUP7 SWAP6 POP SWAP4 DUP2 ADD SWAP4 SWAP3 DUP2 ADD SWAP3 PUSH1 0x1 ADD PUSH2 0xDC JUMP JUMPDEST PUSH4 0x4E487B71 PUSH1 0xE0 SHL DUP3 MSTORE PUSH1 0x41 PUSH1 0x4 MSTORE PUSH1 0x24 DUP3 REVERT JUMPDEST DUP4 SLOAD PUSH1 0x1 PUSH1 0x1 PUSH1 0xA0 SHL SUB AND DUP6 MSTORE SWAP1 SWAP4 ADD SWAP3 PUSH1 0x1 SWAP3 DUP4 ADD SWAP3 ADD PUSH2 0x98 JUMP JUMPDEST DUP1 REVERT JUMPDEST POP SWAP1 CALLVALUE PUSH2 0x190 JUMPI DUP2 PUSH1 0x3 NOT CALLDATASIZE ADD SLT PUSH2 0x190 JUMPI CALLER DUP3 MSTORE PUSH32 0x83ED3BA29C1D52058C877DF3EBD264CF957C42EF7764387349BE0CCF6DF0B63B PUSH1 0x20 SWAP1 DUP2 MSTORE SWAP2 DUP2 SWAP1 KECCAK256 SLOAD SWAP1 MLOAD PUSH1 0x1 PUSH1 0x1 PUSH1 0xA0 SHL SUB SWAP1 SWAP2 AND DUP2 MSTORE RETURN JUMPDEST POP DUP1 REVERT JUMPDEST SWAP1 POP DUP3 CALLVALUE PUSH2 0x1E2 JUMPI DUP3 PUSH1 0x3 NOT CALLDATASIZE ADD SLT PUSH2 0x1E2 JUMPI CALLER DUP4 MSTORE PUSH32 0x83ED3BA29C1D52058C877DF3EBD264CF957C42EF7764387349BE0CCF6DF0B63B PUSH1 0x20 SWAP1 DUP2 MSTORE SWAP3 KECCAK256 SLOAD PUSH1 0x1 PUSH1 0x1 PUSH1 0xA0 SHL SUB AND ISZERO ISZERO DUP2 MSTORE RETURN JUMPDEST DUP3 DUP1 REVERT INVALID LOG2 PUSH5 0x6970667358 0x22 SLT KECCAK256 0xC0 0xF6 PUSH8 0x4CFD098BD8B9AD12 PUSH7 0x8C8BC0548BEE7C GASPRICE EXTCODESIZE PUSH19 0x10C2FE5FE848E268B8AC64736F6C6343000812 STOP CALLER "},"gasEstimates":{"creation":{"codeDepositCost":"108000","executionCost":"159","totalCost":"108159"},"external":{"getDeviceOwner()":"2386","getRelatedDevices()":"infinite","isSenderRegistered()":"2353"},"internal":{"_assignAddressToSender(address)":"infinite"}},"methodIdentifiers":{"getDeviceOwner()":"9b8ae375","getRelatedDevices()":"e0f64efc","isSenderRegistered()":"3aafa388"}},"storageLayout":{"storage":[],"types":null},"userdoc":{"kind":"user","methods":{},"version":1}}}}