{"contracts/SusuwatariFacet.sol":{"SusuwatariFacet":{"abi":[{"inputs":[{"internalType":"uint256","name":"tokenId","type":"uint256"},{"internalType":"string","name":"location","type":"string"},{"internalType":"string","name":"destination","type":"string"},{"internalType":"string","name":"message","type":"string"}],"name":"aimInitialSusu","outputs":[{"internalType":"uint256","name":"","type":"uint256"},{"internalType":"string","name":"","type":"string"},{"internalType":"string","name":"","type":"string"},{"internalType":"string","name":"","type":"string"}],"stateMutability":"nonpayable","type":"function"},{"inputs":[{"internalType":"uint256","name":"tokenId","type":"uint256"},{"internalType":"string","name":"location","type":"string"},{"internalType":"string","name":"destination","type":"string"},{"internalType":"string","name":"message","type":"string"}],"name":"dropSusu","outputs":[{"internalType":"uint256","name":"","type":"uint256"},{"internalType":"string","name":"","type":"string"},{"internalType":"string","name":"","type":"string"},{"internalType":"string","name":"","type":"string"}],"stateMutability":"nonpayable","type":"function"},{"inputs":[],"name":"getCurrentState","outputs":[{"components":[{"internalType":"uint256[]","name":"ownedTokens","type":"uint256[]"},{"components":[{"internalType":"uint256","name":"susuTokenId","type":"uint256"},{"internalType":"uint256","name":"dropCooldownTime","type":"uint256"},{"internalType":"address","name":"ownerAddress","type":"address"}],"internalType":"struct BaggageSlot","name":"slot","type":"tuple"}],"internalType":"struct UserState","name":"","type":"tuple"}],"stateMutability":"view","type":"function"},{"inputs":[],"name":"registerMe","outputs":[],"stateMutability":"nonpayable","type":"function"},{"inputs":[{"internalType":"uint256","name":"tokenId","type":"uint256"},{"internalType":"string","name":"location","type":"string"},{"internalType":"string","name":"destination","type":"string"},{"internalType":"string","name":"message","type":"string"}],"name":"tryPickupSusu","outputs":[{"internalType":"uint256","name":"","type":"uint256"},{"internalType":"string","name":"","type":"string"},{"internalType":"string","name":"","type":"string"},{"internalType":"string","name":"","type":"string"}],"stateMutability":"nonpayable","type":"function"}],"devdoc":{"details":"Implementation of https://eips.ethereum.org/EIPS/eip-721[ERC721] Non-Fungible Token Standard, including the Metadata extension, but not including the Enumerable extension, which is available separately as {ERC721Enumerable}.","kind":"dev","methods":{},"version":1},"evm":{"bytecode":{"linkReferences":{"contracts/LibSusuwatari.sol":{"LibSusuwatari":[{"length":20,"start":5037}]}},"object":"6080806040523461001657611939908161001c8239f35b600080fdfe608080604052600436101561001357600080fd5b60003560e01c908163378aa701146112e4575080635fd9a90d14610f69578063786307481461096d57806383d4fdce146106c157639a198d611461005657600080fd5b346106bc5760003660031901126106bc5761007033611746565b54610677576000805160206118e4833981519152805460018101809111610661576040519060e082018281106001600160401b0382111761040b576040528152604051916100bd836115ae565b60008352602082019283526040516100d4816115ae565b6000815260408301526040516100e9816115ae565b6000815260608301526040516100fe816115ae565b6000815260808301523360a0830152600060c0830152600161011f33611746565b5580546801000000000000000081101561040b576101429160018201905561177f565b81549060031b9033821b9160018060a01b03901b191617905580516000526000805160206118a483398151915260205260406000209181518355519182516001600160401b03811161040b5761019b60018301546117d8565b601f811161061a575b506020601f82116001146105ac57819293946000926105a1575b50508160011b916000199060031b1c19161760018201555b60408201519182516001600160401b03811161040b576101f960028401546117d8565b601f811161055a575b506020601f82116001146104ec57819293946000926104e1575b50508160011b916000199060031b1c19161760028301555b60608101519182516001600160401b03811161040b5761025760038301546117d8565b601f811161049a575b506020601f821160011461042c5781929394600092610421575b50508160011b916000199060031b1c19161760038201555b60808201519182516001600160401b03811161040b576102b560048401546117d8565b601f81116103c0575b506020601f82116001146103545781929394600092610349575b50508160011b916000199060031b1c19161760048301555b600582019160018060a01b0360a083015116926001600160601b0360a01b9384825416179055600660c0830151910155516000526000805160206118c48339815191526020526040600020903390825416179055600080f35b0151905038806102d8565b601f198216906004850160005260206000209160005b8181106103a85750958360019596971061038f575b505050811b0160048301556102f0565b015160001960f88460031b161c1916905538808061037f565b9192602060018192868b01518155019401920161036a565b600484016000526020600020601f830160051c81019160208410610401575b601f0160051c01905b8181106103f557506102be565b600081556001016103e8565b90915081906103df565b634e487b7160e01b600052604160045260246000fd5b01519050388061027a565b6003830160005260206000209060005b601f19841681106104825750600193949583601f19811610610469575b505050811b016003820155610292565b015160001960f88460031b161c19169055388080610459565b9091602060018192858a01518155019301910161043c565b600383016000526020600020601f830160051c8101602084106104da575b601f830160051c820181106104ce575050610260565b600081556001016104b8565b50806104b8565b01519050388061021c565b6002840160005260206000209060005b601f19841681106105425750600193949583601f19811610610529575b505050811b016002830155610234565b015160001960f88460031b161c19169055388080610519565b9091602060018192858a0151815501930191016104fc565b600284016000526020600020601f830160051c81016020841061059a575b601f830160051c8201811061058e575050610202565b60008155600101610578565b5080610578565b0151905038806101be565b6001830160005260206000209060005b601f19841681106106025750600193949583601f198116106105e9575b505050811b0160018201556101d6565b015160001960f88460031b161c191690553880806105d9565b9091602060018192858a0151815501930191016105bc565b600183016000526020600020601f830160051c81016020841061065a575b601f830160051c8201811061064e5750506101a4565b60008155600101610638565b5080610638565b634e487b7160e01b600052601160045260246000fd5b60405162461bcd60e51b815260206004820152601760248201527f5573657220616c726561647920726567697374657265640000000000000000006044820152606490fd5b600080fd5b346106bc576106cf36611640565b5050906106e66106de33611746565b541515611812565b80151580610954575b6106f890611857565b806000526000805160206118a48339815191526020908082523360018060a01b0360056040600020015416036108fe578260005281526040600020926040519061012d8383018361076987334285916054939183526001600160601b03199060601b16602083015260348201520190565b039361077d601f19958681018352826115c9565b5190200661012c90810180911161066157600686015560028501918151916001600160401b03831161040b576107b384546117d8565b601f81116108b8575b508491601f841160011461084257509180600594926000805160206118c4833981519152979894600092610837575b50508160011b916000199060031b1c19161790555b01926001600160601b0360a01b9384815416905560005252604060002090339082541617905560405180610833816116c6565b0390f35b0151905088806107eb565b60008581528681209392918516905b8181106108a157509260019285926000805160206118c4833981519152999a966005989610610888575b505050811b019055610800565b015160001960f88460031b161c1916905588808061087b565b929387600181928786015181550195019301610851565b8460005285600020601f850160051c8101918786106108f4575b601f0160051c01905b8181106108e857506107bc565b600081556001016108db565b90915081906108d2565b60405162461bcd60e51b815260048101839052602860248201527f43616c6c657220646f65736e27742063617272792061205375737577617461726044820152676920546f6b656e2160c01b6064820152608490fd5b506000805160206118e4833981519152548111156106ef565b346106bc5761097b36611640565b9161098b6106de94929433611746565b81151580610f50575b61099d90611857565b6109a68261177f565b905460039190911b1c6001600160a01b0390811633149081610f25575b5015610eea57816000526000805160206118a483398151915260205260406000209061012d6040516020810190610a2c81610a1e88334287916054939183526001600160601b03199060601b16602083015260348201520190565b03601f1981018352826115c9565b5190200661012c90810180911161066157600683015580516001600160401b03811161040b57610a5f60018401546117d8565b601f8111610ea3575b50806020601f8211600114610e3857600091610e2d575b508160011b916000199060031b1c19161760018301555b8051906001600160401b03821161040b578190610ab660028501546117d8565b601f8111610dda575b50602090601f8311600114610d6d57600092610d62575b50508160011b916000199060031b1c19161760028201555b83516001600160401b03811161040b57610b0b60038301546117d8565b601f8111610d1b575b50602094601f8211600114610caf57948192939495600092610ca4575b50508160011b916000199060031b1c19161760038201555b6004810183516001600160401b03811161040b57610b6782546117d8565b601f8111610c5c575b506020601f8211600114610bf257819060059596600092610be7575b50508160011b916000199060031b1c19161790555b01906001600160601b0360a01b9133838254161790556000526000805160206118c4833981519152602052604060002090339082541617905560405180610833816116c6565b015190508680610b8c565b601f198216958360005260206000209660005b818110610c445750916005969791846001959410610c2b575b505050811b019055610ba1565b015160001960f88460031b161c19169055868080610c1e565b83830151895560019098019760209384019301610c05565b826000526020600020601f830160051c81019160208410610c9a575b601f0160051c01905b818110610c8e5750610b70565b60008155600101610c81565b9091508190610c78565b015190508580610b31565b601f198216956003840160005260206000209160005b888110610d0357508360019596979810610cea575b505050811b016003820155610b49565b015160001960f88460031b161c19169055858080610cda565b91926020600181928685015181550194019201610cc5565b600383016000526020600020601f830160051c810160208410610d5b575b601f830160051c82018110610d4f575050610b14565b60008155600101610d39565b5080610d39565b015190508680610ad6565b600285016000908152602081209350601f198516905b818110610dc25750908460019594939210610da9575b505050811b016002820155610aee565b015160001960f88460031b161c19169055868080610d99565b92936020600181928786015181550195019301610d83565b909150600284016000526020600020601f840160051c810160208510610e26575b90849392915b601f830160051c82018110610e17575050610abf565b60008155859450600101610e01565b5080610dfb565b905082015187610a7f565b600185016000908152602081209250601f198416905b818110610e8b57509083600194939210610e72575b5050811b016001830155610a96565b84015160001960f88460031b161c191690558780610e63565b91926020600181928689015181550194019201610e4e565b600184016000526020600020601f830160051c810160208410610ee3575b601f830160051c82018110610ed7575050610a68565b60008155600101610ec1565b5080610ec1565b60405162461bcd60e51b815260206004820152601360248201527221b0b63632b91034b9903737ba1037bbb732b960691b6044820152606490fd5b9050826000526000805160206118a483398151915260205233906005604060002001541614856109c3565b506000805160206118e483398151915254821115610994565b346106bc57610f7736611640565b5050610f856106de33611746565b811515806112cb575b610f9790611857565b6000806000805160206118e483398151915254905b818110611280575b50506112275760008281526000805160206118a483398151915260208181526040909220600501546001600160a01b03166111e25783600052815260406000209160028301906040519182848101916000908054611011816117d8565b916001918983821691826000146111c757505060011461118b575b5050500392611043601f19948581018352826115c9565b5190209060405190848282519260005b8481106111745750506110739281016000838201520380845201826115c9565b8381519101200361112157604051428382019081523360601b6bffffffffffffffffffffffff191660208201526034810186905261012d929091906110c3908260548501039081018352826115c9565b5190200661012c908101809111610661578260059160066000805160206118c483398151915295015501926001600160601b0360a01b93338582541617905560005252604060002090339082541617905560405180610833816116c6565b60405162461bcd60e51b815260048101839052602560248201527f43616c6c6572206973206e6f7420696e2074686520636f7272656374206c6f6360448201526430ba34b7b760d91b6064820152608490fd5b818101840151868201850152889386935001611053565b88935060005282600020906000915b8383106111af5750505082010188808061102c565b8054838a01860152889550899490920191810161119a565b93509450505060ff191684528015150282010188808061102c565b60405162461bcd60e51b815260048101839052601e60248201527f5375737520697320616c7265616479206265696e6720636172726965642100006044820152606490fd5b60405162461bcd60e51b815260206004820152602b60248201527f43616c6c657220697320616c726561647920636172727920612053757375776160448201526a7461726920546f6b656e2160a81b6064820152608490fd5b60008181526000805160206118a483398151915260205260409020600501546001600160a01b031633146112bf57600019811461066157600101610fac565b50505060018380610fb4565b506000805160206118e483398151915254821115610f8e565b346106bc5760003660031901126106bc576112fe81611578565b6060815260405161130e81611593565b600081526020809260008284015260006040840152015260018060a01b03807fc8fcad8db84d3cc18b4c41d551ea0ee66dd599cde068d998e57d5e09332c13205416330361151e576040516351514c2b60e11b81527f202e1867cade063e32a2eb339a246f853a1a233314949ba8d9e2ac766f6ed846600482015260008160248173__$0820f723aeb6f00714a6a0f17f71596d4d$__5af49081156115125760009161141c575b506040519183835260a083019180519260808686015283518091528560c0860194019060005b81811061140857505050848495604092015190815183870152810151606086015201511660808301520390f35b8251865294870194918701916001016113db565b90503d806000833e61142e81836115c9565b81019083818303126106bc5780516001600160401b03918282116106bc57019081830390608082126106bc576040519361146785611578565b83518281116106bc57840181601f820112156106bc57805192831161040b578260051b6040519361149a8a8301866115c9565b845288808501918301019283116106bc5788809201905b8382106115035750505050906060918452601f1901126106bc576060604051916114da83611593565b858101518352604081015186840152015183811681036106bc57604082015283820152836113b5565b815181529082019082016114b1565b6040513d6000823e3d90fd5b60405162461bcd60e51b815260048101839052602c60248201527f4f6e6c79206f776e657220697320616c6c6f77656420746f20706572666f726d60448201526b103a3434b99030b1ba34b7b760a11b6064820152608490fd5b604081019081106001600160401b0382111761040b57604052565b606081019081106001600160401b0382111761040b57604052565b602081019081106001600160401b0382111761040b57604052565b90601f801991011681019081106001600160401b0382111761040b57604052565b81601f820112156106bc578035906001600160401b03821161040b576040519261161e601f8401601f1916602001856115c9565b828452602083830101116106bc57816000926020809301838601378301015290565b9060806003198301126106bc57600435916001600160401b03916024358381116106bc5782611671916004016115ea565b926044358181116106bc5783611689916004016115ea565b926064359182116106bc576116a0916004016115ea565b90565b60005b8281106116b557506000910152565b6080810151828201526020016116a6565b60e0906000815260806020820152601f6060518060808401526116ec8160a085016116a3565b81199182910116820160a083820301604084015281601f6060518060a08501526117198160c086016116a3565b01160191606060c082850301910152601f6060518060c085015261173f818686016116a3565b0116010190565b6001600160a01b031660009081527f202e1867cade063e32a2eb339a246f853a1a233314949ba8d9e2ac766f6ed8466020526040902090565b6000805160206118e483398151915280548210156117c2576000527f5b627e705e277f4cd69351cfcf0179f3685951408382038c266c60748db0394a0190600090565b634e487b7160e01b600052603260045260246000fd5b90600182811c92168015611808575b60208310146117f257565b634e487b7160e01b600052602260045260246000fd5b91607f16916117e7565b1561181957565b60405162461bcd60e51b8152602060048201526016602482015275155cd95c881a5cc81b9bdd081c9959da5cdd195c995960521b6044820152606490fd5b1561185e57565b60405162461bcd60e51b815260206004820152601d60248201527f546865205375737577617461726920646f6573206e6f742065786973740000006044820152606490fdfe202e1867cade063e32a2eb339a246f853a1a233314949ba8d9e2ac766f6ed848202e1867cade063e32a2eb339a246f853a1a233314949ba8d9e2ac766f6ed84a202e1867cade063e32a2eb339a246f853a1a233314949ba8d9e2ac766f6ed847a2646970667358221220fc1c86396897708c5fc6e711f1f83f462627cff76a89332abfdb7b50ccc8506e64736f6c63430008120033","opcodes":"PUSH1 0x80 DUP1 PUSH1 0x40 MSTORE CALLVALUE PUSH2 0x16 JUMPI PUSH2 0x1939 SWAP1 DUP2 PUSH2 0x1C DUP3 CODECOPY RETURN JUMPDEST PUSH1 0x0 DUP1 REVERT INVALID PUSH1 0x80 DUP1 PUSH1 0x40 MSTORE PUSH1 0x4 CALLDATASIZE LT ISZERO PUSH2 0x13 JUMPI PUSH1 0x0 DUP1 REVERT JUMPDEST PUSH1 0x0 CALLDATALOAD PUSH1 0xE0 SHR SWAP1 DUP2 PUSH4 0x378AA701 EQ PUSH2 0x12E4 JUMPI POP DUP1 PUSH4 0x5FD9A90D EQ PUSH2 0xF69 JUMPI DUP1 PUSH4 0x78630748 EQ PUSH2 0x96D JUMPI DUP1 PUSH4 0x83D4FDCE EQ PUSH2 0x6C1 JUMPI PUSH4 0x9A198D61 EQ PUSH2 0x56 JUMPI PUSH1 0x0 DUP1 REVERT JUMPDEST CALLVALUE PUSH2 0x6BC JUMPI PUSH1 0x0 CALLDATASIZE PUSH1 0x3 NOT ADD SLT PUSH2 0x6BC JUMPI PUSH2 0x70 CALLER PUSH2 0x1746 JUMP JUMPDEST SLOAD PUSH2 0x677 JUMPI PUSH1 0x0 DUP1 MLOAD PUSH1 0x20 PUSH2 0x18E4 DUP4 CODECOPY DUP2 MLOAD SWAP2 MSTORE DUP1 SLOAD PUSH1 0x1 DUP2 ADD DUP1 SWAP2 GT PUSH2 0x661 JUMPI PUSH1 0x40 MLOAD SWAP1 PUSH1 0xE0 DUP3 ADD DUP3 DUP2 LT PUSH1 0x1 PUSH1 0x1 PUSH1 0x40 SHL SUB DUP3 GT OR PUSH2 0x40B JUMPI PUSH1 0x40 MSTORE DUP2 MSTORE PUSH1 0x40 MLOAD SWAP2 PUSH2 0xBD DUP4 PUSH2 0x15AE JUMP JUMPDEST PUSH1 0x0 DUP4 MSTORE PUSH1 0x20 DUP3 ADD SWAP3 DUP4 MSTORE PUSH1 0x40 MLOAD PUSH2 0xD4 DUP2 PUSH2 0x15AE JUMP JUMPDEST PUSH1 0x0 DUP2 MSTORE PUSH1 0x40 DUP4 ADD MSTORE PUSH1 0x40 MLOAD PUSH2 0xE9 DUP2 PUSH2 0x15AE JUMP JUMPDEST PUSH1 0x0 DUP2 MSTORE PUSH1 0x60 DUP4 ADD MSTORE PUSH1 0x40 MLOAD PUSH2 0xFE DUP2 PUSH2 0x15AE JUMP JUMPDEST PUSH1 0x0 DUP2 MSTORE PUSH1 0x80 DUP4 ADD MSTORE CALLER PUSH1 0xA0 DUP4 ADD MSTORE PUSH1 0x0 PUSH1 0xC0 DUP4 ADD MSTORE PUSH1 0x1 PUSH2 0x11F CALLER PUSH2 0x1746 JUMP JUMPDEST SSTORE DUP1 SLOAD PUSH9 0x10000000000000000 DUP2 LT ISZERO PUSH2 0x40B JUMPI PUSH2 0x142 SWAP2 PUSH1 0x1 DUP3 ADD SWAP1 SSTORE PUSH2 0x177F JUMP JUMPDEST DUP2 SLOAD SWAP1 PUSH1 0x3 SHL SWAP1 CALLER DUP3 SHL SWAP2 PUSH1 0x1 DUP1 PUSH1 0xA0 SHL SUB SWAP1 SHL NOT AND OR SWAP1 SSTORE DUP1 MLOAD PUSH1 0x0 MSTORE PUSH1 0x0 DUP1 MLOAD PUSH1 0x20 PUSH2 0x18A4 DUP4 CODECOPY DUP2 MLOAD SWAP2 MSTORE PUSH1 0x20 MSTORE PUSH1 0x40 PUSH1 0x0 KECCAK256 SWAP2 DUP2 MLOAD DUP4 SSTORE MLOAD SWAP2 DUP3 MLOAD PUSH1 0x1 PUSH1 0x1 PUSH1 0x40 SHL SUB DUP2 GT PUSH2 0x40B JUMPI PUSH2 0x19B PUSH1 0x1 DUP4 ADD SLOAD PUSH2 0x17D8 JUMP JUMPDEST PUSH1 0x1F DUP2 GT PUSH2 0x61A JUMPI JUMPDEST POP PUSH1 0x20 PUSH1 0x1F DUP3 GT PUSH1 0x1 EQ PUSH2 0x5AC JUMPI DUP2 SWAP3 SWAP4 SWAP5 PUSH1 0x0 SWAP3 PUSH2 0x5A1 JUMPI JUMPDEST POP POP DUP2 PUSH1 0x1 SHL SWAP2 PUSH1 0x0 NOT SWAP1 PUSH1 0x3 SHL SHR NOT AND OR PUSH1 0x1 DUP3 ADD SSTORE JUMPDEST PUSH1 0x40 DUP3 ADD MLOAD SWAP2 DUP3 MLOAD PUSH1 0x1 PUSH1 0x1 PUSH1 0x40 SHL SUB DUP2 GT PUSH2 0x40B JUMPI PUSH2 0x1F9 PUSH1 0x2 DUP5 ADD SLOAD PUSH2 0x17D8 JUMP JUMPDEST PUSH1 0x1F DUP2 GT PUSH2 0x55A JUMPI JUMPDEST POP PUSH1 0x20 PUSH1 0x1F DUP3 GT PUSH1 0x1 EQ PUSH2 0x4EC JUMPI DUP2 SWAP3 SWAP4 SWAP5 PUSH1 0x0 SWAP3 PUSH2 0x4E1 JUMPI JUMPDEST POP POP DUP2 PUSH1 0x1 SHL SWAP2 PUSH1 0x0 NOT SWAP1 PUSH1 0x3 SHL SHR NOT AND OR PUSH1 0x2 DUP4 ADD SSTORE JUMPDEST PUSH1 0x60 DUP2 ADD MLOAD SWAP2 DUP3 MLOAD PUSH1 0x1 PUSH1 0x1 PUSH1 0x40 SHL SUB DUP2 GT PUSH2 0x40B JUMPI PUSH2 0x257 PUSH1 0x3 DUP4 ADD SLOAD PUSH2 0x17D8 JUMP JUMPDEST PUSH1 0x1F DUP2 GT PUSH2 0x49A JUMPI JUMPDEST POP PUSH1 0x20 PUSH1 0x1F DUP3 GT PUSH1 0x1 EQ PUSH2 0x42C JUMPI DUP2 SWAP3 SWAP4 SWAP5 PUSH1 0x0 SWAP3 PUSH2 0x421 JUMPI JUMPDEST POP POP DUP2 PUSH1 0x1 SHL SWAP2 PUSH1 0x0 NOT SWAP1 PUSH1 0x3 SHL SHR NOT AND OR PUSH1 0x3 DUP3 ADD SSTORE JUMPDEST PUSH1 0x80 DUP3 ADD MLOAD SWAP2 DUP3 MLOAD PUSH1 0x1 PUSH1 0x1 PUSH1 0x40 SHL SUB DUP2 GT PUSH2 0x40B JUMPI PUSH2 0x2B5 PUSH1 0x4 DUP5 ADD SLOAD PUSH2 0x17D8 JUMP JUMPDEST PUSH1 0x1F DUP2 GT PUSH2 0x3C0 JUMPI JUMPDEST POP PUSH1 0x20 PUSH1 0x1F DUP3 GT PUSH1 0x1 EQ PUSH2 0x354 JUMPI DUP2 SWAP3 SWAP4 SWAP5 PUSH1 0x0 SWAP3 PUSH2 0x349 JUMPI JUMPDEST POP POP DUP2 PUSH1 0x1 SHL SWAP2 PUSH1 0x0 NOT SWAP1 PUSH1 0x3 SHL SHR NOT AND OR PUSH1 0x4 DUP4 ADD SSTORE JUMPDEST PUSH1 0x5 DUP3 ADD SWAP2 PUSH1 0x1 DUP1 PUSH1 0xA0 SHL SUB PUSH1 0xA0 DUP4 ADD MLOAD AND SWAP3 PUSH1 0x1 PUSH1 0x1 PUSH1 0x60 SHL SUB PUSH1 0xA0 SHL SWAP4 DUP5 DUP3 SLOAD AND OR SWAP1 SSTORE PUSH1 0x6 PUSH1 0xC0 DUP4 ADD MLOAD SWAP2 ADD SSTORE MLOAD PUSH1 0x0 MSTORE PUSH1 0x0 DUP1 MLOAD PUSH1 0x20 PUSH2 0x18C4 DUP4 CODECOPY DUP2 MLOAD SWAP2 MSTORE PUSH1 0x20 MSTORE PUSH1 0x40 PUSH1 0x0 KECCAK256 SWAP1 CALLER SWAP1 DUP3 SLOAD AND OR SWAP1 SSTORE PUSH1 0x0 DUP1 RETURN JUMPDEST ADD MLOAD SWAP1 POP CODESIZE DUP1 PUSH2 0x2D8 JUMP JUMPDEST PUSH1 0x1F NOT DUP3 AND SWAP1 PUSH1 0x4 DUP6 ADD PUSH1 0x0 MSTORE PUSH1 0x20 PUSH1 0x0 KECCAK256 SWAP2 PUSH1 0x0 JUMPDEST DUP2 DUP2 LT PUSH2 0x3A8 JUMPI POP SWAP6 DUP4 PUSH1 0x1 SWAP6 SWAP7 SWAP8 LT PUSH2 0x38F JUMPI JUMPDEST POP POP POP DUP2 SHL ADD PUSH1 0x4 DUP4 ADD SSTORE PUSH2 0x2F0 JUMP JUMPDEST ADD MLOAD PUSH1 0x0 NOT PUSH1 0xF8 DUP5 PUSH1 0x3 SHL AND SHR NOT AND SWAP1 SSTORE CODESIZE DUP1 DUP1 PUSH2 0x37F JUMP JUMPDEST SWAP2 SWAP3 PUSH1 0x20 PUSH1 0x1 DUP2 SWAP3 DUP7 DUP12 ADD MLOAD DUP2 SSTORE ADD SWAP5 ADD SWAP3 ADD PUSH2 0x36A JUMP JUMPDEST PUSH1 0x4 DUP5 ADD PUSH1 0x0 MSTORE PUSH1 0x20 PUSH1 0x0 KECCAK256 PUSH1 0x1F DUP4 ADD PUSH1 0x5 SHR DUP2 ADD SWAP2 PUSH1 0x20 DUP5 LT PUSH2 0x401 JUMPI JUMPDEST PUSH1 0x1F ADD PUSH1 0x5 SHR ADD SWAP1 JUMPDEST DUP2 DUP2 LT PUSH2 0x3F5 JUMPI POP PUSH2 0x2BE JUMP JUMPDEST PUSH1 0x0 DUP2 SSTORE PUSH1 0x1 ADD PUSH2 0x3E8 JUMP JUMPDEST SWAP1 SWAP2 POP DUP2 SWAP1 PUSH2 0x3DF JUMP JUMPDEST PUSH4 0x4E487B71 PUSH1 0xE0 SHL PUSH1 0x0 MSTORE PUSH1 0x41 PUSH1 0x4 MSTORE PUSH1 0x24 PUSH1 0x0 REVERT JUMPDEST ADD MLOAD SWAP1 POP CODESIZE DUP1 PUSH2 0x27A JUMP JUMPDEST PUSH1 0x3 DUP4 ADD PUSH1 0x0 MSTORE PUSH1 0x20 PUSH1 0x0 KECCAK256 SWAP1 PUSH1 0x0 JUMPDEST PUSH1 0x1F NOT DUP5 AND DUP2 LT PUSH2 0x482 JUMPI POP PUSH1 0x1 SWAP4 SWAP5 SWAP6 DUP4 PUSH1 0x1F NOT DUP2 AND LT PUSH2 0x469 JUMPI JUMPDEST POP POP POP DUP2 SHL ADD PUSH1 0x3 DUP3 ADD SSTORE PUSH2 0x292 JUMP JUMPDEST ADD MLOAD PUSH1 0x0 NOT PUSH1 0xF8 DUP5 PUSH1 0x3 SHL AND SHR NOT AND SWAP1 SSTORE CODESIZE DUP1 DUP1 PUSH2 0x459 JUMP JUMPDEST SWAP1 SWAP2 PUSH1 0x20 PUSH1 0x1 DUP2 SWAP3 DUP6 DUP11 ADD MLOAD DUP2 SSTORE ADD SWAP4 ADD SWAP2 ADD PUSH2 0x43C JUMP JUMPDEST PUSH1 0x3 DUP4 ADD PUSH1 0x0 MSTORE PUSH1 0x20 PUSH1 0x0 KECCAK256 PUSH1 0x1F DUP4 ADD PUSH1 0x5 SHR DUP2 ADD PUSH1 0x20 DUP5 LT PUSH2 0x4DA JUMPI JUMPDEST PUSH1 0x1F DUP4 ADD PUSH1 0x5 SHR DUP3 ADD DUP2 LT PUSH2 0x4CE JUMPI POP POP PUSH2 0x260 JUMP JUMPDEST PUSH1 0x0 DUP2 SSTORE PUSH1 0x1 ADD PUSH2 0x4B8 JUMP JUMPDEST POP DUP1 PUSH2 0x4B8 JUMP JUMPDEST ADD MLOAD SWAP1 POP CODESIZE DUP1 PUSH2 0x21C JUMP JUMPDEST PUSH1 0x2 DUP5 ADD PUSH1 0x0 MSTORE PUSH1 0x20 PUSH1 0x0 KECCAK256 SWAP1 PUSH1 0x0 JUMPDEST PUSH1 0x1F NOT DUP5 AND DUP2 LT PUSH2 0x542 JUMPI POP PUSH1 0x1 SWAP4 SWAP5 SWAP6 DUP4 PUSH1 0x1F NOT DUP2 AND LT PUSH2 0x529 JUMPI JUMPDEST POP POP POP DUP2 SHL ADD PUSH1 0x2 DUP4 ADD SSTORE PUSH2 0x234 JUMP JUMPDEST ADD MLOAD PUSH1 0x0 NOT PUSH1 0xF8 DUP5 PUSH1 0x3 SHL AND SHR NOT AND SWAP1 SSTORE CODESIZE DUP1 DUP1 PUSH2 0x519 JUMP JUMPDEST SWAP1 SWAP2 PUSH1 0x20 PUSH1 0x1 DUP2 SWAP3 DUP6 DUP11 ADD MLOAD DUP2 SSTORE ADD SWAP4 ADD SWAP2 ADD PUSH2 0x4FC JUMP JUMPDEST PUSH1 0x2 DUP5 ADD PUSH1 0x0 MSTORE PUSH1 0x20 PUSH1 0x0 KECCAK256 PUSH1 0x1F DUP4 ADD PUSH1 0x5 SHR DUP2 ADD PUSH1 0x20 DUP5 LT PUSH2 0x59A JUMPI JUMPDEST PUSH1 0x1F DUP4 ADD PUSH1 0x5 SHR DUP3 ADD DUP2 LT PUSH2 0x58E JUMPI POP POP PUSH2 0x202 JUMP JUMPDEST PUSH1 0x0 DUP2 SSTORE PUSH1 0x1 ADD PUSH2 0x578 JUMP JUMPDEST POP DUP1 PUSH2 0x578 JUMP JUMPDEST ADD MLOAD SWAP1 POP CODESIZE DUP1 PUSH2 0x1BE JUMP JUMPDEST PUSH1 0x1 DUP4 ADD PUSH1 0x0 MSTORE PUSH1 0x20 PUSH1 0x0 KECCAK256 SWAP1 PUSH1 0x0 JUMPDEST PUSH1 0x1F NOT DUP5 AND DUP2 LT PUSH2 0x602 JUMPI POP PUSH1 0x1 SWAP4 SWAP5 SWAP6 DUP4 PUSH1 0x1F NOT DUP2 AND LT PUSH2 0x5E9 JUMPI JUMPDEST POP POP POP DUP2 SHL ADD PUSH1 0x1 DUP3 ADD SSTORE PUSH2 0x1D6 JUMP JUMPDEST ADD MLOAD PUSH1 0x0 NOT PUSH1 0xF8 DUP5 PUSH1 0x3 SHL AND SHR NOT AND SWAP1 SSTORE CODESIZE DUP1 DUP1 PUSH2 0x5D9 JUMP JUMPDEST SWAP1 SWAP2 PUSH1 0x20 PUSH1 0x1 DUP2 SWAP3 DUP6 DUP11 ADD MLOAD DUP2 SSTORE ADD SWAP4 ADD SWAP2 ADD PUSH2 0x5BC JUMP JUMPDEST PUSH1 0x1 DUP4 ADD PUSH1 0x0 MSTORE PUSH1 0x20 PUSH1 0x0 KECCAK256 PUSH1 0x1F DUP4 ADD PUSH1 0x5 SHR DUP2 ADD PUSH1 0x20 DUP5 LT PUSH2 0x65A JUMPI JUMPDEST PUSH1 0x1F DUP4 ADD PUSH1 0x5 SHR DUP3 ADD DUP2 LT PUSH2 0x64E JUMPI POP POP PUSH2 0x1A4 JUMP JUMPDEST PUSH1 0x0 DUP2 SSTORE PUSH1 0x1 ADD PUSH2 0x638 JUMP JUMPDEST POP DUP1 PUSH2 0x638 JUMP JUMPDEST PUSH4 0x4E487B71 PUSH1 0xE0 SHL PUSH1 0x0 MSTORE PUSH1 0x11 PUSH1 0x4 MSTORE PUSH1 0x24 PUSH1 0x0 REVERT JUMPDEST PUSH1 0x40 MLOAD PUSH3 0x461BCD PUSH1 0xE5 SHL DUP2 MSTORE PUSH1 0x20 PUSH1 0x4 DUP3 ADD MSTORE PUSH1 0x17 PUSH1 0x24 DUP3 ADD MSTORE PUSH32 0x5573657220616C72656164792072656769737465726564000000000000000000 PUSH1 0x44 DUP3 ADD MSTORE PUSH1 0x64 SWAP1 REVERT JUMPDEST PUSH1 0x0 DUP1 REVERT JUMPDEST CALLVALUE PUSH2 0x6BC JUMPI PUSH2 0x6CF CALLDATASIZE PUSH2 0x1640 JUMP JUMPDEST POP POP SWAP1 PUSH2 0x6E6 PUSH2 0x6DE CALLER PUSH2 0x1746 JUMP JUMPDEST SLOAD ISZERO ISZERO PUSH2 0x1812 JUMP JUMPDEST DUP1 ISZERO ISZERO DUP1 PUSH2 0x954 JUMPI JUMPDEST PUSH2 0x6F8 SWAP1 PUSH2 0x1857 JUMP JUMPDEST DUP1 PUSH1 0x0 MSTORE PUSH1 0x0 DUP1 MLOAD PUSH1 0x20 PUSH2 0x18A4 DUP4 CODECOPY DUP2 MLOAD SWAP2 MSTORE PUSH1 0x20 SWAP1 DUP1 DUP3 MSTORE CALLER PUSH1 0x1 DUP1 PUSH1 0xA0 SHL SUB PUSH1 0x5 PUSH1 0x40 PUSH1 0x0 KECCAK256 ADD SLOAD AND SUB PUSH2 0x8FE JUMPI DUP3 PUSH1 0x0 MSTORE DUP2 MSTORE PUSH1 0x40 PUSH1 0x0 KECCAK256 SWAP3 PUSH1 0x40 MLOAD SWAP1 PUSH2 0x12D DUP4 DUP4 ADD DUP4 PUSH2 0x769 DUP8 CALLER TIMESTAMP DUP6 SWAP2 PUSH1 0x54 SWAP4 SWAP2 DUP4 MSTORE PUSH1 0x1 PUSH1 0x1 PUSH1 0x60 SHL SUB NOT SWAP1 PUSH1 0x60 SHL AND PUSH1 0x20 DUP4 ADD MSTORE PUSH1 0x34 DUP3 ADD MSTORE ADD SWAP1 JUMP JUMPDEST SUB SWAP4 PUSH2 0x77D PUSH1 0x1F NOT SWAP6 DUP7 DUP2 ADD DUP4 MSTORE DUP3 PUSH2 0x15C9 JUMP JUMPDEST MLOAD SWAP1 KECCAK256 MOD PUSH2 0x12C SWAP1 DUP2 ADD DUP1 SWAP2 GT PUSH2 0x661 JUMPI PUSH1 0x6 DUP7 ADD SSTORE PUSH1 0x2 DUP6 ADD SWAP2 DUP2 MLOAD SWAP2 PUSH1 0x1 PUSH1 0x1 PUSH1 0x40 SHL SUB DUP4 GT PUSH2 0x40B JUMPI PUSH2 0x7B3 DUP5 SLOAD PUSH2 0x17D8 JUMP JUMPDEST PUSH1 0x1F DUP2 GT PUSH2 0x8B8 JUMPI JUMPDEST POP DUP5 SWAP2 PUSH1 0x1F DUP5 GT PUSH1 0x1 EQ PUSH2 0x842 JUMPI POP SWAP2 DUP1 PUSH1 0x5 SWAP5 SWAP3 PUSH1 0x0 DUP1 MLOAD PUSH1 0x20 PUSH2 0x18C4 DUP4 CODECOPY DUP2 MLOAD SWAP2 MSTORE SWAP8 SWAP9 SWAP5 PUSH1 0x0 SWAP3 PUSH2 0x837 JUMPI JUMPDEST POP POP DUP2 PUSH1 0x1 SHL SWAP2 PUSH1 0x0 NOT SWAP1 PUSH1 0x3 SHL SHR NOT AND OR SWAP1 SSTORE JUMPDEST ADD SWAP3 PUSH1 0x1 PUSH1 0x1 PUSH1 0x60 SHL SUB PUSH1 0xA0 SHL SWAP4 DUP5 DUP2 SLOAD AND SWAP1 SSTORE PUSH1 0x0 MSTORE MSTORE PUSH1 0x40 PUSH1 0x0 KECCAK256 SWAP1 CALLER SWAP1 DUP3 SLOAD AND OR SWAP1 SSTORE PUSH1 0x40 MLOAD DUP1 PUSH2 0x833 DUP2 PUSH2 0x16C6 JUMP JUMPDEST SUB SWAP1 RETURN JUMPDEST ADD MLOAD SWAP1 POP DUP9 DUP1 PUSH2 0x7EB JUMP JUMPDEST PUSH1 0x0 DUP6 DUP2 MSTORE DUP7 DUP2 KECCAK256 SWAP4 SWAP3 SWAP2 DUP6 AND SWAP1 JUMPDEST DUP2 DUP2 LT PUSH2 0x8A1 JUMPI POP SWAP3 PUSH1 0x1 SWAP3 DUP6 SWAP3 PUSH1 0x0 DUP1 MLOAD PUSH1 0x20 PUSH2 0x18C4 DUP4 CODECOPY DUP2 MLOAD SWAP2 MSTORE SWAP10 SWAP11 SWAP7 PUSH1 0x5 SWAP9 SWAP7 LT PUSH2 0x888 JUMPI JUMPDEST POP POP POP DUP2 SHL ADD SWAP1 SSTORE PUSH2 0x800 JUMP JUMPDEST ADD MLOAD PUSH1 0x0 NOT PUSH1 0xF8 DUP5 PUSH1 0x3 SHL AND SHR NOT AND SWAP1 SSTORE DUP9 DUP1 DUP1 PUSH2 0x87B JUMP JUMPDEST SWAP3 SWAP4 DUP8 PUSH1 0x1 DUP2 SWAP3 DUP8 DUP7 ADD MLOAD DUP2 SSTORE ADD SWAP6 ADD SWAP4 ADD PUSH2 0x851 JUMP JUMPDEST DUP5 PUSH1 0x0 MSTORE DUP6 PUSH1 0x0 KECCAK256 PUSH1 0x1F DUP6 ADD PUSH1 0x5 SHR DUP2 ADD SWAP2 DUP8 DUP7 LT PUSH2 0x8F4 JUMPI JUMPDEST PUSH1 0x1F ADD PUSH1 0x5 SHR ADD SWAP1 JUMPDEST DUP2 DUP2 LT PUSH2 0x8E8 JUMPI POP PUSH2 0x7BC JUMP JUMPDEST PUSH1 0x0 DUP2 SSTORE PUSH1 0x1 ADD PUSH2 0x8DB JUMP JUMPDEST SWAP1 SWAP2 POP DUP2 SWAP1 PUSH2 0x8D2 JUMP JUMPDEST PUSH1 0x40 MLOAD PUSH3 0x461BCD PUSH1 0xE5 SHL DUP2 MSTORE PUSH1 0x4 DUP2 ADD DUP4 SWAP1 MSTORE PUSH1 0x28 PUSH1 0x24 DUP3 ADD MSTORE PUSH32 0x43616C6C657220646F65736E2774206361727279206120537573757761746172 PUSH1 0x44 DUP3 ADD MSTORE PUSH8 0x6920546F6B656E21 PUSH1 0xC0 SHL PUSH1 0x64 DUP3 ADD MSTORE PUSH1 0x84 SWAP1 REVERT JUMPDEST POP PUSH1 0x0 DUP1 MLOAD PUSH1 0x20 PUSH2 0x18E4 DUP4 CODECOPY DUP2 MLOAD SWAP2 MSTORE SLOAD DUP2 GT ISZERO PUSH2 0x6EF JUMP JUMPDEST CALLVALUE PUSH2 0x6BC JUMPI PUSH2 0x97B CALLDATASIZE PUSH2 0x1640 JUMP JUMPDEST SWAP2 PUSH2 0x98B PUSH2 0x6DE SWAP5 SWAP3 SWAP5 CALLER PUSH2 0x1746 JUMP JUMPDEST DUP2 ISZERO ISZERO DUP1 PUSH2 0xF50 JUMPI JUMPDEST PUSH2 0x99D SWAP1 PUSH2 0x1857 JUMP JUMPDEST PUSH2 0x9A6 DUP3 PUSH2 0x177F JUMP JUMPDEST SWAP1 SLOAD PUSH1 0x3 SWAP2 SWAP1 SWAP2 SHL SHR PUSH1 0x1 PUSH1 0x1 PUSH1 0xA0 SHL SUB SWAP1 DUP2 AND CALLER EQ SWAP1 DUP2 PUSH2 0xF25 JUMPI JUMPDEST POP ISZERO PUSH2 0xEEA JUMPI DUP2 PUSH1 0x0 MSTORE PUSH1 0x0 DUP1 MLOAD PUSH1 0x20 PUSH2 0x18A4 DUP4 CODECOPY DUP2 MLOAD SWAP2 MSTORE PUSH1 0x20 MSTORE PUSH1 0x40 PUSH1 0x0 KECCAK256 SWAP1 PUSH2 0x12D PUSH1 0x40 MLOAD PUSH1 0x20 DUP2 ADD SWAP1 PUSH2 0xA2C DUP2 PUSH2 0xA1E DUP9 CALLER TIMESTAMP DUP8 SWAP2 PUSH1 0x54 SWAP4 SWAP2 DUP4 MSTORE PUSH1 0x1 PUSH1 0x1 PUSH1 0x60 SHL SUB NOT SWAP1 PUSH1 0x60 SHL AND PUSH1 0x20 DUP4 ADD MSTORE PUSH1 0x34 DUP3 ADD MSTORE ADD SWAP1 JUMP JUMPDEST SUB PUSH1 0x1F NOT DUP2 ADD DUP4 MSTORE DUP3 PUSH2 0x15C9 JUMP JUMPDEST MLOAD SWAP1 KECCAK256 MOD PUSH2 0x12C SWAP1 DUP2 ADD DUP1 SWAP2 GT PUSH2 0x661 JUMPI PUSH1 0x6 DUP4 ADD SSTORE DUP1 MLOAD PUSH1 0x1 PUSH1 0x1 PUSH1 0x40 SHL SUB DUP2 GT PUSH2 0x40B JUMPI PUSH2 0xA5F PUSH1 0x1 DUP5 ADD SLOAD PUSH2 0x17D8 JUMP JUMPDEST PUSH1 0x1F DUP2 GT PUSH2 0xEA3 JUMPI JUMPDEST POP DUP1 PUSH1 0x20 PUSH1 0x1F DUP3 GT PUSH1 0x1 EQ PUSH2 0xE38 JUMPI PUSH1 0x0 SWAP2 PUSH2 0xE2D JUMPI JUMPDEST POP DUP2 PUSH1 0x1 SHL SWAP2 PUSH1 0x0 NOT SWAP1 PUSH1 0x3 SHL SHR NOT AND OR PUSH1 0x1 DUP4 ADD SSTORE JUMPDEST DUP1 MLOAD SWAP1 PUSH1 0x1 PUSH1 0x1 PUSH1 0x40 SHL SUB DUP3 GT PUSH2 0x40B JUMPI DUP2 SWAP1 PUSH2 0xAB6 PUSH1 0x2 DUP6 ADD SLOAD PUSH2 0x17D8 JUMP JUMPDEST PUSH1 0x1F DUP2 GT PUSH2 0xDDA JUMPI JUMPDEST POP PUSH1 0x20 SWAP1 PUSH1 0x1F DUP4 GT PUSH1 0x1 EQ PUSH2 0xD6D JUMPI PUSH1 0x0 SWAP3 PUSH2 0xD62 JUMPI JUMPDEST POP POP DUP2 PUSH1 0x1 SHL SWAP2 PUSH1 0x0 NOT SWAP1 PUSH1 0x3 SHL SHR NOT AND OR PUSH1 0x2 DUP3 ADD SSTORE JUMPDEST DUP4 MLOAD PUSH1 0x1 PUSH1 0x1 PUSH1 0x40 SHL SUB DUP2 GT PUSH2 0x40B JUMPI PUSH2 0xB0B PUSH1 0x3 DUP4 ADD SLOAD PUSH2 0x17D8 JUMP JUMPDEST PUSH1 0x1F DUP2 GT PUSH2 0xD1B JUMPI JUMPDEST POP PUSH1 0x20 SWAP5 PUSH1 0x1F DUP3 GT PUSH1 0x1 EQ PUSH2 0xCAF JUMPI SWAP5 DUP2 SWAP3 SWAP4 SWAP5 SWAP6 PUSH1 0x0 SWAP3 PUSH2 0xCA4 JUMPI JUMPDEST POP POP DUP2 PUSH1 0x1 SHL SWAP2 PUSH1 0x0 NOT SWAP1 PUSH1 0x3 SHL SHR NOT AND OR PUSH1 0x3 DUP3 ADD SSTORE JUMPDEST PUSH1 0x4 DUP2 ADD DUP4 MLOAD PUSH1 0x1 PUSH1 0x1 PUSH1 0x40 SHL SUB DUP2 GT PUSH2 0x40B JUMPI PUSH2 0xB67 DUP3 SLOAD PUSH2 0x17D8 JUMP JUMPDEST PUSH1 0x1F DUP2 GT PUSH2 0xC5C JUMPI JUMPDEST POP PUSH1 0x20 PUSH1 0x1F DUP3 GT PUSH1 0x1 EQ PUSH2 0xBF2 JUMPI DUP2 SWAP1 PUSH1 0x5 SWAP6 SWAP7 PUSH1 0x0 SWAP3 PUSH2 0xBE7 JUMPI JUMPDEST POP POP DUP2 PUSH1 0x1 SHL SWAP2 PUSH1 0x0 NOT SWAP1 PUSH1 0x3 SHL SHR NOT AND OR SWAP1 SSTORE JUMPDEST ADD SWAP1 PUSH1 0x1 PUSH1 0x1 PUSH1 0x60 SHL SUB PUSH1 0xA0 SHL SWAP2 CALLER DUP4 DUP3 SLOAD AND OR SWAP1 SSTORE PUSH1 0x0 MSTORE PUSH1 0x0 DUP1 MLOAD PUSH1 0x20 PUSH2 0x18C4 DUP4 CODECOPY DUP2 MLOAD SWAP2 MSTORE PUSH1 0x20 MSTORE PUSH1 0x40 PUSH1 0x0 KECCAK256 SWAP1 CALLER SWAP1 DUP3 SLOAD AND OR SWAP1 SSTORE PUSH1 0x40 MLOAD DUP1 PUSH2 0x833 DUP2 PUSH2 0x16C6 JUMP JUMPDEST ADD MLOAD SWAP1 POP DUP7 DUP1 PUSH2 0xB8C JUMP JUMPDEST PUSH1 0x1F NOT DUP3 AND SWAP6 DUP4 PUSH1 0x0 MSTORE PUSH1 0x20 PUSH1 0x0 KECCAK256 SWAP7 PUSH1 0x0 JUMPDEST DUP2 DUP2 LT PUSH2 0xC44 JUMPI POP SWAP2 PUSH1 0x5 SWAP7 SWAP8 SWAP2 DUP5 PUSH1 0x1 SWAP6 SWAP5 LT PUSH2 0xC2B JUMPI JUMPDEST POP POP POP DUP2 SHL ADD SWAP1 SSTORE PUSH2 0xBA1 JUMP JUMPDEST ADD MLOAD PUSH1 0x0 NOT PUSH1 0xF8 DUP5 PUSH1 0x3 SHL AND SHR NOT AND SWAP1 SSTORE DUP7 DUP1 DUP1 PUSH2 0xC1E JUMP JUMPDEST DUP4 DUP4 ADD MLOAD DUP10 SSTORE PUSH1 0x1 SWAP1 SWAP9 ADD SWAP8 PUSH1 0x20 SWAP4 DUP5 ADD SWAP4 ADD PUSH2 0xC05 JUMP JUMPDEST DUP3 PUSH1 0x0 MSTORE PUSH1 0x20 PUSH1 0x0 KECCAK256 PUSH1 0x1F DUP4 ADD PUSH1 0x5 SHR DUP2 ADD SWAP2 PUSH1 0x20 DUP5 LT PUSH2 0xC9A JUMPI JUMPDEST PUSH1 0x1F ADD PUSH1 0x5 SHR ADD SWAP1 JUMPDEST DUP2 DUP2 LT PUSH2 0xC8E JUMPI POP PUSH2 0xB70 JUMP JUMPDEST PUSH1 0x0 DUP2 SSTORE PUSH1 0x1 ADD PUSH2 0xC81 JUMP JUMPDEST SWAP1 SWAP2 POP DUP2 SWAP1 PUSH2 0xC78 JUMP JUMPDEST ADD MLOAD SWAP1 POP DUP6 DUP1 PUSH2 0xB31 JUMP JUMPDEST PUSH1 0x1F NOT DUP3 AND SWAP6 PUSH1 0x3 DUP5 ADD PUSH1 0x0 MSTORE PUSH1 0x20 PUSH1 0x0 KECCAK256 SWAP2 PUSH1 0x0 JUMPDEST DUP9 DUP2 LT PUSH2 0xD03 JUMPI POP DUP4 PUSH1 0x1 SWAP6 SWAP7 SWAP8 SWAP9 LT PUSH2 0xCEA JUMPI JUMPDEST POP POP POP DUP2 SHL ADD PUSH1 0x3 DUP3 ADD SSTORE PUSH2 0xB49 JUMP JUMPDEST ADD MLOAD PUSH1 0x0 NOT PUSH1 0xF8 DUP5 PUSH1 0x3 SHL AND SHR NOT AND SWAP1 SSTORE DUP6 DUP1 DUP1 PUSH2 0xCDA JUMP JUMPDEST SWAP2 SWAP3 PUSH1 0x20 PUSH1 0x1 DUP2 SWAP3 DUP7 DUP6 ADD MLOAD DUP2 SSTORE ADD SWAP5 ADD SWAP3 ADD PUSH2 0xCC5 JUMP JUMPDEST PUSH1 0x3 DUP4 ADD PUSH1 0x0 MSTORE PUSH1 0x20 PUSH1 0x0 KECCAK256 PUSH1 0x1F DUP4 ADD PUSH1 0x5 SHR DUP2 ADD PUSH1 0x20 DUP5 LT PUSH2 0xD5B JUMPI JUMPDEST PUSH1 0x1F DUP4 ADD PUSH1 0x5 SHR DUP3 ADD DUP2 LT PUSH2 0xD4F JUMPI POP POP PUSH2 0xB14 JUMP JUMPDEST PUSH1 0x0 DUP2 SSTORE PUSH1 0x1 ADD PUSH2 0xD39 JUMP JUMPDEST POP DUP1 PUSH2 0xD39 JUMP JUMPDEST ADD MLOAD SWAP1 POP DUP7 DUP1 PUSH2 0xAD6 JUMP JUMPDEST PUSH1 0x2 DUP6 ADD PUSH1 0x0 SWAP1 DUP2 MSTORE PUSH1 0x20 DUP2 KECCAK256 SWAP4 POP PUSH1 0x1F NOT DUP6 AND SWAP1 JUMPDEST DUP2 DUP2 LT PUSH2 0xDC2 JUMPI POP SWAP1 DUP5 PUSH1 0x1 SWAP6 SWAP5 SWAP4 SWAP3 LT PUSH2 0xDA9 JUMPI JUMPDEST POP POP POP DUP2 SHL ADD PUSH1 0x2 DUP3 ADD SSTORE PUSH2 0xAEE JUMP JUMPDEST ADD MLOAD PUSH1 0x0 NOT PUSH1 0xF8 DUP5 PUSH1 0x3 SHL AND SHR NOT AND SWAP1 SSTORE DUP7 DUP1 DUP1 PUSH2 0xD99 JUMP JUMPDEST SWAP3 SWAP4 PUSH1 0x20 PUSH1 0x1 DUP2 SWAP3 DUP8 DUP7 ADD MLOAD DUP2 SSTORE ADD SWAP6 ADD SWAP4 ADD PUSH2 0xD83 JUMP JUMPDEST SWAP1 SWAP2 POP PUSH1 0x2 DUP5 ADD PUSH1 0x0 MSTORE PUSH1 0x20 PUSH1 0x0 KECCAK256 PUSH1 0x1F DUP5 ADD PUSH1 0x5 SHR DUP2 ADD PUSH1 0x20 DUP6 LT PUSH2 0xE26 JUMPI JUMPDEST SWAP1 DUP5 SWAP4 SWAP3 SWAP2 JUMPDEST PUSH1 0x1F DUP4 ADD PUSH1 0x5 SHR DUP3 ADD DUP2 LT PUSH2 0xE17 JUMPI POP POP PUSH2 0xABF JUMP JUMPDEST PUSH1 0x0 DUP2 SSTORE DUP6 SWAP5 POP PUSH1 0x1 ADD PUSH2 0xE01 JUMP JUMPDEST POP DUP1 PUSH2 0xDFB JUMP JUMPDEST SWAP1 POP DUP3 ADD MLOAD DUP8 PUSH2 0xA7F JUMP JUMPDEST PUSH1 0x1 DUP6 ADD PUSH1 0x0 SWAP1 DUP2 MSTORE PUSH1 0x20 DUP2 KECCAK256 SWAP3 POP PUSH1 0x1F NOT DUP5 AND SWAP1 JUMPDEST DUP2 DUP2 LT PUSH2 0xE8B JUMPI POP SWAP1 DUP4 PUSH1 0x1 SWAP5 SWAP4 SWAP3 LT PUSH2 0xE72 JUMPI JUMPDEST POP POP DUP2 SHL ADD PUSH1 0x1 DUP4 ADD SSTORE PUSH2 0xA96 JUMP JUMPDEST DUP5 ADD MLOAD PUSH1 0x0 NOT PUSH1 0xF8 DUP5 PUSH1 0x3 SHL AND SHR NOT AND SWAP1 SSTORE DUP8 DUP1 PUSH2 0xE63 JUMP JUMPDEST SWAP2 SWAP3 PUSH1 0x20 PUSH1 0x1 DUP2 SWAP3 DUP7 DUP10 ADD MLOAD DUP2 SSTORE ADD SWAP5 ADD SWAP3 ADD PUSH2 0xE4E JUMP JUMPDEST PUSH1 0x1 DUP5 ADD PUSH1 0x0 MSTORE PUSH1 0x20 PUSH1 0x0 KECCAK256 PUSH1 0x1F DUP4 ADD PUSH1 0x5 SHR DUP2 ADD PUSH1 0x20 DUP5 LT PUSH2 0xEE3 JUMPI JUMPDEST PUSH1 0x1F DUP4 ADD PUSH1 0x5 SHR DUP3 ADD DUP2 LT PUSH2 0xED7 JUMPI POP POP PUSH2 0xA68 JUMP JUMPDEST PUSH1 0x0 DUP2 SSTORE PUSH1 0x1 ADD PUSH2 0xEC1 JUMP JUMPDEST POP DUP1 PUSH2 0xEC1 JUMP JUMPDEST PUSH1 0x40 MLOAD PUSH3 0x461BCD PUSH1 0xE5 SHL DUP2 MSTORE PUSH1 0x20 PUSH1 0x4 DUP3 ADD MSTORE PUSH1 0x13 PUSH1 0x24 DUP3 ADD MSTORE PUSH19 0x21B0B63632B91034B9903737BA1037BBB732B9 PUSH1 0x69 SHL PUSH1 0x44 DUP3 ADD MSTORE PUSH1 0x64 SWAP1 REVERT JUMPDEST SWAP1 POP DUP3 PUSH1 0x0 MSTORE PUSH1 0x0 DUP1 MLOAD PUSH1 0x20 PUSH2 0x18A4 DUP4 CODECOPY DUP2 MLOAD SWAP2 MSTORE PUSH1 0x20 MSTORE CALLER SWAP1 PUSH1 0x5 PUSH1 0x40 PUSH1 0x0 KECCAK256 ADD SLOAD AND EQ DUP6 PUSH2 0x9C3 JUMP JUMPDEST POP PUSH1 0x0 DUP1 MLOAD PUSH1 0x20 PUSH2 0x18E4 DUP4 CODECOPY DUP2 MLOAD SWAP2 MSTORE SLOAD DUP3 GT ISZERO PUSH2 0x994 JUMP JUMPDEST CALLVALUE PUSH2 0x6BC JUMPI PUSH2 0xF77 CALLDATASIZE PUSH2 0x1640 JUMP JUMPDEST POP POP PUSH2 0xF85 PUSH2 0x6DE CALLER PUSH2 0x1746 JUMP JUMPDEST DUP2 ISZERO ISZERO DUP1 PUSH2 0x12CB JUMPI JUMPDEST PUSH2 0xF97 SWAP1 PUSH2 0x1857 JUMP JUMPDEST PUSH1 0x0 DUP1 PUSH1 0x0 DUP1 MLOAD PUSH1 0x20 PUSH2 0x18E4 DUP4 CODECOPY DUP2 MLOAD SWAP2 MSTORE SLOAD SWAP1 JUMPDEST DUP2 DUP2 LT PUSH2 0x1280 JUMPI JUMPDEST POP POP PUSH2 0x1227 JUMPI PUSH1 0x0 DUP3 DUP2 MSTORE PUSH1 0x0 DUP1 MLOAD PUSH1 0x20 PUSH2 0x18A4 DUP4 CODECOPY DUP2 MLOAD SWAP2 MSTORE PUSH1 0x20 DUP2 DUP2 MSTORE PUSH1 0x40 SWAP1 SWAP3 KECCAK256 PUSH1 0x5 ADD SLOAD PUSH1 0x1 PUSH1 0x1 PUSH1 0xA0 SHL SUB AND PUSH2 0x11E2 JUMPI DUP4 PUSH1 0x0 MSTORE DUP2 MSTORE PUSH1 0x40 PUSH1 0x0 KECCAK256 SWAP2 PUSH1 0x2 DUP4 ADD SWAP1 PUSH1 0x40 MLOAD SWAP2 DUP3 DUP5 DUP2 ADD SWAP2 PUSH1 0x0 SWAP1 DUP1 SLOAD PUSH2 0x1011 DUP2 PUSH2 0x17D8 JUMP JUMPDEST SWAP2 PUSH1 0x1 SWAP2 DUP10 DUP4 DUP3 AND SWAP2 DUP3 PUSH1 0x0 EQ PUSH2 0x11C7 JUMPI POP POP PUSH1 0x1 EQ PUSH2 0x118B JUMPI JUMPDEST POP POP POP SUB SWAP3 PUSH2 0x1043 PUSH1 0x1F NOT SWAP5 DUP6 DUP2 ADD DUP4 MSTORE DUP3 PUSH2 0x15C9 JUMP JUMPDEST MLOAD SWAP1 KECCAK256 SWAP1 PUSH1 0x40 MLOAD SWAP1 DUP5 DUP3 DUP3 MLOAD SWAP3 PUSH1 0x0 JUMPDEST DUP5 DUP2 LT PUSH2 0x1174 JUMPI POP POP PUSH2 0x1073 SWAP3 DUP2 ADD PUSH1 0x0 DUP4 DUP3 ADD MSTORE SUB DUP1 DUP5 MSTORE ADD DUP3 PUSH2 0x15C9 JUMP JUMPDEST DUP4 DUP2 MLOAD SWAP2 ADD KECCAK256 SUB PUSH2 0x1121 JUMPI PUSH1 0x40 MLOAD TIMESTAMP DUP4 DUP3 ADD SWAP1 DUP2 MSTORE CALLER PUSH1 0x60 SHL PUSH12 0xFFFFFFFFFFFFFFFFFFFFFFFF NOT AND PUSH1 0x20 DUP3 ADD MSTORE PUSH1 0x34 DUP2 ADD DUP7 SWAP1 MSTORE PUSH2 0x12D SWAP3 SWAP1 SWAP2 SWAP1 PUSH2 0x10C3 SWAP1 DUP3 PUSH1 0x54 DUP6 ADD SUB SWAP1 DUP2 ADD DUP4 MSTORE DUP3 PUSH2 0x15C9 JUMP JUMPDEST MLOAD SWAP1 KECCAK256 MOD PUSH2 0x12C SWAP1 DUP2 ADD DUP1 SWAP2 GT PUSH2 0x661 JUMPI DUP3 PUSH1 0x5 SWAP2 PUSH1 0x6 PUSH1 0x0 DUP1 MLOAD PUSH1 0x20 PUSH2 0x18C4 DUP4 CODECOPY DUP2 MLOAD SWAP2 MSTORE SWAP6 ADD SSTORE ADD SWAP3 PUSH1 0x1 PUSH1 0x1 PUSH1 0x60 SHL SUB PUSH1 0xA0 SHL SWAP4 CALLER DUP6 DUP3 SLOAD AND OR SWAP1 SSTORE PUSH1 0x0 MSTORE MSTORE PUSH1 0x40 PUSH1 0x0 KECCAK256 SWAP1 CALLER SWAP1 DUP3 SLOAD AND OR SWAP1 SSTORE PUSH1 0x40 MLOAD DUP1 PUSH2 0x833 DUP2 PUSH2 0x16C6 JUMP JUMPDEST PUSH1 0x40 MLOAD PUSH3 0x461BCD PUSH1 0xE5 SHL DUP2 MSTORE PUSH1 0x4 DUP2 ADD DUP4 SWAP1 MSTORE PUSH1 0x25 PUSH1 0x24 DUP3 ADD MSTORE PUSH32 0x43616C6C6572206973206E6F7420696E2074686520636F7272656374206C6F63 PUSH1 0x44 DUP3 ADD MSTORE PUSH5 0x30BA34B7B7 PUSH1 0xD9 SHL PUSH1 0x64 DUP3 ADD MSTORE PUSH1 0x84 SWAP1 REVERT JUMPDEST DUP2 DUP2 ADD DUP5 ADD MLOAD DUP7 DUP3 ADD DUP6 ADD MSTORE DUP9 SWAP4 DUP7 SWAP4 POP ADD PUSH2 0x1053 JUMP JUMPDEST DUP9 SWAP4 POP PUSH1 0x0 MSTORE DUP3 PUSH1 0x0 KECCAK256 SWAP1 PUSH1 0x0 SWAP2 JUMPDEST DUP4 DUP4 LT PUSH2 0x11AF JUMPI POP POP POP DUP3 ADD ADD DUP9 DUP1 DUP1 PUSH2 0x102C JUMP JUMPDEST DUP1 SLOAD DUP4 DUP11 ADD DUP7 ADD MSTORE DUP9 SWAP6 POP DUP10 SWAP5 SWAP1 SWAP3 ADD SWAP2 DUP2 ADD PUSH2 0x119A JUMP JUMPDEST SWAP4 POP SWAP5 POP POP POP PUSH1 0xFF NOT AND DUP5 MSTORE DUP1 ISZERO ISZERO MUL DUP3 ADD ADD DUP9 DUP1 DUP1 PUSH2 0x102C JUMP JUMPDEST PUSH1 0x40 MLOAD PUSH3 0x461BCD PUSH1 0xE5 SHL DUP2 MSTORE PUSH1 0x4 DUP2 ADD DUP4 SWAP1 MSTORE PUSH1 0x1E PUSH1 0x24 DUP3 ADD MSTORE PUSH32 0x5375737520697320616C7265616479206265696E672063617272696564210000 PUSH1 0x44 DUP3 ADD MSTORE PUSH1 0x64 SWAP1 REVERT JUMPDEST PUSH1 0x40 MLOAD PUSH3 0x461BCD PUSH1 0xE5 SHL DUP2 MSTORE PUSH1 0x20 PUSH1 0x4 DUP3 ADD MSTORE PUSH1 0x2B PUSH1 0x24 DUP3 ADD MSTORE PUSH32 0x43616C6C657220697320616C7265616479206361727279206120537573757761 PUSH1 0x44 DUP3 ADD MSTORE PUSH11 0x7461726920546F6B656E21 PUSH1 0xA8 SHL PUSH1 0x64 DUP3 ADD MSTORE PUSH1 0x84 SWAP1 REVERT JUMPDEST PUSH1 0x0 DUP2 DUP2 MSTORE PUSH1 0x0 DUP1 MLOAD PUSH1 0x20 PUSH2 0x18A4 DUP4 CODECOPY DUP2 MLOAD SWAP2 MSTORE PUSH1 0x20 MSTORE PUSH1 0x40 SWAP1 KECCAK256 PUSH1 0x5 ADD SLOAD PUSH1 0x1 PUSH1 0x1 PUSH1 0xA0 SHL SUB AND CALLER EQ PUSH2 0x12BF JUMPI PUSH1 0x0 NOT DUP2 EQ PUSH2 0x661 JUMPI PUSH1 0x1 ADD PUSH2 0xFAC JUMP JUMPDEST POP POP POP PUSH1 0x1 DUP4 DUP1 PUSH2 0xFB4 JUMP JUMPDEST POP PUSH1 0x0 DUP1 MLOAD PUSH1 0x20 PUSH2 0x18E4 DUP4 CODECOPY DUP2 MLOAD SWAP2 MSTORE SLOAD DUP3 GT ISZERO PUSH2 0xF8E JUMP JUMPDEST CALLVALUE PUSH2 0x6BC JUMPI PUSH1 0x0 CALLDATASIZE PUSH1 0x3 NOT ADD SLT PUSH2 0x6BC JUMPI PUSH2 0x12FE DUP2 PUSH2 0x1578 JUMP JUMPDEST PUSH1 0x60 DUP2 MSTORE PUSH1 0x40 MLOAD PUSH2 0x130E DUP2 PUSH2 0x1593 JUMP JUMPDEST PUSH1 0x0 DUP2 MSTORE PUSH1 0x20 DUP1 SWAP3 PUSH1 0x0 DUP3 DUP5 ADD MSTORE PUSH1 0x0 PUSH1 0x40 DUP5 ADD MSTORE ADD MSTORE PUSH1 0x1 DUP1 PUSH1 0xA0 SHL SUB DUP1 PUSH32 0xC8FCAD8DB84D3CC18B4C41D551EA0EE66DD599CDE068D998E57D5E09332C1320 SLOAD AND CALLER SUB PUSH2 0x151E JUMPI PUSH1 0x40 MLOAD PUSH4 0x51514C2B PUSH1 0xE1 SHL DUP2 MSTORE PUSH32 0x202E1867CADE063E32A2EB339A246F853A1A233314949BA8D9E2AC766F6ED846 PUSH1 0x4 DUP3 ADD MSTORE PUSH1 0x0 DUP2 PUSH1 0x24 DUP2 PUSH20 0x0 GAS DELEGATECALL SWAP1 DUP2 ISZERO PUSH2 0x1512 JUMPI PUSH1 0x0 SWAP2 PUSH2 0x141C JUMPI JUMPDEST POP PUSH1 0x40 MLOAD SWAP2 DUP4 DUP4 MSTORE PUSH1 0xA0 DUP4 ADD SWAP2 DUP1 MLOAD SWAP3 PUSH1 0x80 DUP7 DUP7 ADD MSTORE DUP4 MLOAD DUP1 SWAP2 MSTORE DUP6 PUSH1 0xC0 DUP7 ADD SWAP5 ADD SWAP1 PUSH1 0x0 JUMPDEST DUP2 DUP2 LT PUSH2 0x1408 JUMPI POP POP POP DUP5 DUP5 SWAP6 PUSH1 0x40 SWAP3 ADD MLOAD SWAP1 DUP2 MLOAD DUP4 DUP8 ADD MSTORE DUP2 ADD MLOAD PUSH1 0x60 DUP7 ADD MSTORE ADD MLOAD AND PUSH1 0x80 DUP4 ADD MSTORE SUB SWAP1 RETURN JUMPDEST DUP3 MLOAD DUP7 MSTORE SWAP5 DUP8 ADD SWAP5 SWAP2 DUP8 ADD SWAP2 PUSH1 0x1 ADD PUSH2 0x13DB JUMP JUMPDEST SWAP1 POP RETURNDATASIZE DUP1 PUSH1 0x0 DUP4 RETURNDATACOPY PUSH2 0x142E DUP2 DUP4 PUSH2 0x15C9 JUMP JUMPDEST DUP2 ADD SWAP1 DUP4 DUP2 DUP4 SUB SLT PUSH2 0x6BC JUMPI DUP1 MLOAD PUSH1 0x1 PUSH1 0x1 PUSH1 0x40 SHL SUB SWAP2 DUP3 DUP3 GT PUSH2 0x6BC JUMPI ADD SWAP1 DUP2 DUP4 SUB SWAP1 PUSH1 0x80 DUP3 SLT PUSH2 0x6BC JUMPI PUSH1 0x40 MLOAD SWAP4 PUSH2 0x1467 DUP6 PUSH2 0x1578 JUMP JUMPDEST DUP4 MLOAD DUP3 DUP2 GT PUSH2 0x6BC JUMPI DUP5 ADD DUP2 PUSH1 0x1F DUP3 ADD SLT ISZERO PUSH2 0x6BC JUMPI DUP1 MLOAD SWAP3 DUP4 GT PUSH2 0x40B JUMPI DUP3 PUSH1 0x5 SHL PUSH1 0x40 MLOAD SWAP4 PUSH2 0x149A DUP11 DUP4 ADD DUP7 PUSH2 0x15C9 JUMP JUMPDEST DUP5 MSTORE DUP9 DUP1 DUP6 ADD SWAP2 DUP4 ADD ADD SWAP3 DUP4 GT PUSH2 0x6BC JUMPI DUP9 DUP1 SWAP3 ADD SWAP1 JUMPDEST DUP4 DUP3 LT PUSH2 0x1503 JUMPI POP POP POP POP SWAP1 PUSH1 0x60 SWAP2 DUP5 MSTORE PUSH1 0x1F NOT ADD SLT PUSH2 0x6BC JUMPI PUSH1 0x60 PUSH1 0x40 MLOAD SWAP2 PUSH2 0x14DA DUP4 PUSH2 0x1593 JUMP JUMPDEST DUP6 DUP2 ADD MLOAD DUP4 MSTORE PUSH1 0x40 DUP2 ADD MLOAD DUP7 DUP5 ADD MSTORE ADD MLOAD DUP4 DUP2 AND DUP2 SUB PUSH2 0x6BC JUMPI PUSH1 0x40 DUP3 ADD MSTORE DUP4 DUP3 ADD MSTORE DUP4 PUSH2 0x13B5 JUMP JUMPDEST DUP2 MLOAD DUP2 MSTORE SWAP1 DUP3 ADD SWAP1 DUP3 ADD PUSH2 0x14B1 JUMP JUMPDEST PUSH1 0x40 MLOAD RETURNDATASIZE PUSH1 0x0 DUP3 RETURNDATACOPY RETURNDATASIZE SWAP1 REVERT JUMPDEST PUSH1 0x40 MLOAD PUSH3 0x461BCD PUSH1 0xE5 SHL DUP2 MSTORE PUSH1 0x4 DUP2 ADD DUP4 SWAP1 MSTORE PUSH1 0x2C PUSH1 0x24 DUP3 ADD MSTORE PUSH32 0x4F6E6C79206F776E657220697320616C6C6F77656420746F20706572666F726D PUSH1 0x44 DUP3 ADD MSTORE PUSH12 0x103A3434B99030B1BA34B7B7 PUSH1 0xA1 SHL PUSH1 0x64 DUP3 ADD MSTORE PUSH1 0x84 SWAP1 REVERT JUMPDEST PUSH1 0x40 DUP2 ADD SWAP1 DUP2 LT PUSH1 0x1 PUSH1 0x1 PUSH1 0x40 SHL SUB DUP3 GT OR PUSH2 0x40B JUMPI PUSH1 0x40 MSTORE JUMP JUMPDEST PUSH1 0x60 DUP2 ADD SWAP1 DUP2 LT PUSH1 0x1 PUSH1 0x1 PUSH1 0x40 SHL SUB DUP3 GT OR PUSH2 0x40B JUMPI PUSH1 0x40 MSTORE JUMP JUMPDEST PUSH1 0x20 DUP2 ADD SWAP1 DUP2 LT PUSH1 0x1 PUSH1 0x1 PUSH1 0x40 SHL SUB DUP3 GT OR PUSH2 0x40B JUMPI PUSH1 0x40 MSTORE JUMP JUMPDEST SWAP1 PUSH1 0x1F DUP1 NOT SWAP2 ADD AND DUP2 ADD SWAP1 DUP2 LT PUSH1 0x1 PUSH1 0x1 PUSH1 0x40 SHL SUB DUP3 GT OR PUSH2 0x40B JUMPI PUSH1 0x40 MSTORE JUMP JUMPDEST DUP2 PUSH1 0x1F DUP3 ADD SLT ISZERO PUSH2 0x6BC JUMPI DUP1 CALLDATALOAD SWAP1 PUSH1 0x1 PUSH1 0x1 PUSH1 0x40 SHL SUB DUP3 GT PUSH2 0x40B JUMPI PUSH1 0x40 MLOAD SWAP3 PUSH2 0x161E PUSH1 0x1F DUP5 ADD PUSH1 0x1F NOT AND PUSH1 0x20 ADD DUP6 PUSH2 0x15C9 JUMP JUMPDEST DUP3 DUP5 MSTORE PUSH1 0x20 DUP4 DUP4 ADD ADD GT PUSH2 0x6BC JUMPI DUP2 PUSH1 0x0 SWAP3 PUSH1 0x20 DUP1 SWAP4 ADD DUP4 DUP7 ADD CALLDATACOPY DUP4 ADD ADD MSTORE SWAP1 JUMP JUMPDEST SWAP1 PUSH1 0x80 PUSH1 0x3 NOT DUP4 ADD SLT PUSH2 0x6BC JUMPI PUSH1 0x4 CALLDATALOAD SWAP2 PUSH1 0x1 PUSH1 0x1 PUSH1 0x40 SHL SUB SWAP2 PUSH1 0x24 CALLDATALOAD DUP4 DUP2 GT PUSH2 0x6BC JUMPI DUP3 PUSH2 0x1671 SWAP2 PUSH1 0x4 ADD PUSH2 0x15EA JUMP JUMPDEST SWAP3 PUSH1 0x44 CALLDATALOAD DUP2 DUP2 GT PUSH2 0x6BC JUMPI DUP4 PUSH2 0x1689 SWAP2 PUSH1 0x4 ADD PUSH2 0x15EA JUMP JUMPDEST SWAP3 PUSH1 0x64 CALLDATALOAD SWAP2 DUP3 GT PUSH2 0x6BC JUMPI PUSH2 0x16A0 SWAP2 PUSH1 0x4 ADD PUSH2 0x15EA JUMP JUMPDEST SWAP1 JUMP JUMPDEST PUSH1 0x0 JUMPDEST DUP3 DUP2 LT PUSH2 0x16B5 JUMPI POP PUSH1 0x0 SWAP2 ADD MSTORE JUMP JUMPDEST PUSH1 0x80 DUP2 ADD MLOAD DUP3 DUP3 ADD MSTORE PUSH1 0x20 ADD PUSH2 0x16A6 JUMP JUMPDEST PUSH1 0xE0 SWAP1 PUSH1 0x0 DUP2 MSTORE PUSH1 0x80 PUSH1 0x20 DUP3 ADD MSTORE PUSH1 0x1F PUSH1 0x60 MLOAD DUP1 PUSH1 0x80 DUP5 ADD MSTORE PUSH2 0x16EC DUP2 PUSH1 0xA0 DUP6 ADD PUSH2 0x16A3 JUMP JUMPDEST DUP2 NOT SWAP2 DUP3 SWAP2 ADD AND DUP3 ADD PUSH1 0xA0 DUP4 DUP3 SUB ADD PUSH1 0x40 DUP5 ADD MSTORE DUP2 PUSH1 0x1F PUSH1 0x60 MLOAD DUP1 PUSH1 0xA0 DUP6 ADD MSTORE PUSH2 0x1719 DUP2 PUSH1 0xC0 DUP7 ADD PUSH2 0x16A3 JUMP JUMPDEST ADD AND ADD SWAP2 PUSH1 0x60 PUSH1 0xC0 DUP3 DUP6 SUB ADD SWAP2 ADD MSTORE PUSH1 0x1F PUSH1 0x60 MLOAD DUP1 PUSH1 0xC0 DUP6 ADD MSTORE PUSH2 0x173F DUP2 DUP7 DUP7 ADD PUSH2 0x16A3 JUMP JUMPDEST ADD AND ADD ADD SWAP1 JUMP JUMPDEST PUSH1 0x1 PUSH1 0x1 PUSH1 0xA0 SHL SUB AND PUSH1 0x0 SWAP1 DUP2 MSTORE PUSH32 0x202E1867CADE063E32A2EB339A246F853A1A233314949BA8D9E2AC766F6ED846 PUSH1 0x20 MSTORE PUSH1 0x40 SWAP1 KECCAK256 SWAP1 JUMP JUMPDEST PUSH1 0x0 DUP1 MLOAD PUSH1 0x20 PUSH2 0x18E4 DUP4 CODECOPY DUP2 MLOAD SWAP2 MSTORE DUP1 SLOAD DUP3 LT ISZERO PUSH2 0x17C2 JUMPI PUSH1 0x0 MSTORE PUSH32 0x5B627E705E277F4CD69351CFCF0179F3685951408382038C266C60748DB0394A ADD SWAP1 PUSH1 0x0 SWAP1 JUMP JUMPDEST PUSH4 0x4E487B71 PUSH1 0xE0 SHL PUSH1 0x0 MSTORE PUSH1 0x32 PUSH1 0x4 MSTORE PUSH1 0x24 PUSH1 0x0 REVERT JUMPDEST SWAP1 PUSH1 0x1 DUP3 DUP2 SHR SWAP3 AND DUP1 ISZERO PUSH2 0x1808 JUMPI JUMPDEST PUSH1 0x20 DUP4 LT EQ PUSH2 0x17F2 JUMPI JUMP JUMPDEST PUSH4 0x4E487B71 PUSH1 0xE0 SHL PUSH1 0x0 MSTORE PUSH1 0x22 PUSH1 0x4 MSTORE PUSH1 0x24 PUSH1 0x0 REVERT JUMPDEST SWAP2 PUSH1 0x7F AND SWAP2 PUSH2 0x17E7 JUMP JUMPDEST ISZERO PUSH2 0x1819 JUMPI JUMP JUMPDEST PUSH1 0x40 MLOAD PUSH3 0x461BCD PUSH1 0xE5 SHL DUP2 MSTORE PUSH1 0x20 PUSH1 0x4 DUP3 ADD MSTORE PUSH1 0x16 PUSH1 0x24 DUP3 ADD MSTORE PUSH22 0x155CD95C881A5CC81B9BDD081C9959DA5CDD195C9959 PUSH1 0x52 SHL PUSH1 0x44 DUP3 ADD MSTORE PUSH1 0x64 SWAP1 REVERT JUMPDEST ISZERO PUSH2 0x185E JUMPI JUMP JUMPDEST PUSH1 0x40 MLOAD PUSH3 0x461BCD PUSH1 0xE5 SHL DUP2 MSTORE PUSH1 0x20 PUSH1 0x4 DUP3 ADD MSTORE PUSH1 0x1D PUSH1 0x24 DUP3 ADD MSTORE PUSH32 0x546865205375737577617461726920646F6573206E6F74206578697374000000 PUSH1 0x44 DUP3 ADD MSTORE PUSH1 0x64 SWAP1 REVERT INVALID KECCAK256 0x2E XOR PUSH8 0xCADE063E32A2EB33 SWAP11 0x24 PUSH16 0x853A1A233314949BA8D9E2AC766F6ED8 BASEFEE KECCAK256 0x2E XOR PUSH8 0xCADE063E32A2EB33 SWAP11 0x24 PUSH16 0x853A1A233314949BA8D9E2AC766F6ED8 0x4A KECCAK256 0x2E XOR PUSH8 0xCADE063E32A2EB33 SWAP11 0x24 PUSH16 0x853A1A233314949BA8D9E2AC766F6ED8 SELFBALANCE LOG2 PUSH5 0x6970667358 0x22 SLT KECCAK256 0xFC SHR DUP7 CODECOPY PUSH9 0x97708C5FC6E711F1F8 EXTCODEHASH CHAINID 0x26 0x27 0xCF 0xF7 PUSH11 0x89332ABFDB7B50CCC8506E PUSH5 0x736F6C6343 STOP ADDMOD SLT STOP CALLER "},"gasEstimates":{"creation":{"codeDepositCost":"1291400","executionCost":"1351","totalCost":"1292751"},"external":{"aimInitialSusu(uint256,string,string,string)":"infinite","dropSusu(uint256,string,string,string)":"infinite","getCurrentState()":"infinite","registerMe()":"infinite","tryPickupSusu(uint256,string,string,string)":"infinite"}},"methodIdentifiers":{"aimInitialSusu(uint256,string,string,string)":"78630748","dropSusu(uint256,string,string,string)":"83d4fdce","getCurrentState()":"378aa701","registerMe()":"9a198d61","tryPickupSusu(uint256,string,string,string)":"5fd9a90d"}},"storageLayout":{"storage":[],"types":null},"userdoc":{"kind":"user","methods":{},"version":1}}}}