{"contracts/LeafWalletRegistryBase.sol":{"LeafWalletRegistryBasic":{"abi":[{"inputs":[{"internalType":"address","name":"assignee","type":"address"}],"name":"assignAddressToSender","outputs":[],"stateMutability":"nonpayable","type":"function"},{"inputs":[],"name":"getDeviceOwner","outputs":[{"internalType":"address","name":"","type":"address"}],"stateMutability":"view","type":"function"},{"inputs":[],"name":"getRelatedDevices","outputs":[{"internalType":"address[]","name":"","type":"address[]"}],"stateMutability":"view","type":"function"},{"inputs":[],"name":"isSenderRegistered","outputs":[{"internalType":"bool","name":"","type":"bool"}],"stateMutability":"view","type":"function"}],"devdoc":{"kind":"dev","methods":{},"version":1},"evm":{"bytecode":{"linkReferences":{},"object":"60808060405234610016576103a6908161001c8239f35b600080fdfe60806040908082526004918236101561001757600080fd5b600091823560e01c9081633aafa388146103225750806356a593e3146101a25780639b8ae375146101525763e0f64efc1461005157600080fd5b3461014e578160031936011261014e573360009081527f83ed3ba29c1d52058c877df3ebd264cf957c42ef7764387349be0ccf6df0b63c6020526040902091815190819284548084526020809401908196845284842090845b868282106101315750505050849003601f01601f191684019567ffffffffffffffff87118588101761011e575085815282865292518583018190528594938501939290915b8281106100fe57505050500390f35b83516001600160a01b0316855286955093810193928101926001016100ef565b634e487b7160e01b835260419052602482fd5b83546001600160a01b0316855290930192600192830192016100aa565b5080fd5b503461014e578160031936011261014e573382527f83ed3ba29c1d52058c877df3ebd264cf957c42ef7764387349be0ccf6df0b63b6020908152918190205490516001600160a01b039091168152f35b5082903461031e576020918260031936011261031a576001600160a01b03813581811694919290859003610316578486527f83ed3ba29c1d52058c877df3ebd264cf957c42ef7764387349be0ccf6df0b63b92838352808588205416801590811561030c575b50156102ca57858752838352848720541615610222578580f35b3360009081527f83ed3ba29c1d52058c877df3ebd264cf957c42ef7764387349be0ccf6df0b63c60205260409020805491680100000000000000008310156102b757600183018083558310156102a4575086528186200180546001600160a01b0319908116861790915593855252822080549091163317905581808080808580f35b634e487b7160e01b885260329052602487fd5b634e487b7160e01b885260419052602487fd5b5060649184519162461bcd60e51b8352820152601960248201527f44657669636520616c72656164792072656769737465726564000000000000006044820152fd5b9050331488610208565b8580fd5b8380fd5b8280fd5b9190503461031e578260031936011261031e573383527f83ed3ba29c1d52058c877df3ebd264cf957c42ef7764387349be0ccf6df0b63b60209081529220546001600160a01b031615158152f3fea264697066735822122001f3a865b2068cf8f1e4def0a4538c9068507ebcfa53fe591203ab6e7cf0dc2364736f6c63430008120033","opcodes":"PUSH1 0x80 DUP1 PUSH1 0x40 MSTORE CALLVALUE PUSH2 0x16 JUMPI PUSH2 0x3A6 SWAP1 DUP2 PUSH2 0x1C DUP3 CODECOPY RETURN JUMPDEST PUSH1 0x0 DUP1 REVERT INVALID PUSH1 0x80 PUSH1 0x40 SWAP1 DUP1 DUP3 MSTORE PUSH1 0x4 SWAP2 DUP3 CALLDATASIZE LT ISZERO PUSH2 0x17 JUMPI PUSH1 0x0 DUP1 REVERT JUMPDEST PUSH1 0x0 SWAP2 DUP3 CALLDATALOAD PUSH1 0xE0 SHR SWAP1 DUP2 PUSH4 0x3AAFA388 EQ PUSH2 0x322 JUMPI POP DUP1 PUSH4 0x56A593E3 EQ PUSH2 0x1A2 JUMPI DUP1 PUSH4 0x9B8AE375 EQ PUSH2 0x152 JUMPI PUSH4 0xE0F64EFC EQ PUSH2 0x51 JUMPI PUSH1 0x0 DUP1 REVERT JUMPDEST CALLVALUE PUSH2 0x14E JUMPI DUP2 PUSH1 0x3 NOT CALLDATASIZE ADD SLT PUSH2 0x14E JUMPI CALLER PUSH1 0x0 SWAP1 DUP2 MSTORE PUSH32 0x83ED3BA29C1D52058C877DF3EBD264CF957C42EF7764387349BE0CCF6DF0B63C PUSH1 0x20 MSTORE PUSH1 0x40 SWAP1 KECCAK256 SWAP2 DUP2 MLOAD SWAP1 DUP2 SWAP3 DUP5 SLOAD DUP1 DUP5 MSTORE PUSH1 0x20 DUP1 SWAP5 ADD SWAP1 DUP2 SWAP7 DUP5 MSTORE DUP5 DUP5 KECCAK256 SWAP1 DUP5 JUMPDEST DUP7 DUP3 DUP3 LT PUSH2 0x131 JUMPI POP POP POP POP DUP5 SWAP1 SUB PUSH1 0x1F ADD PUSH1 0x1F NOT AND DUP5 ADD SWAP6 PUSH8 0xFFFFFFFFFFFFFFFF DUP8 GT DUP6 DUP9 LT OR PUSH2 0x11E JUMPI POP DUP6 DUP2 MSTORE DUP3 DUP7 MSTORE SWAP3 MLOAD DUP6 DUP4 ADD DUP2 SWAP1 MSTORE DUP6 SWAP5 SWAP4 DUP6 ADD SWAP4 SWAP3 SWAP1 SWAP2 JUMPDEST DUP3 DUP2 LT PUSH2 0xFE JUMPI POP POP POP POP SUB SWAP1 RETURN JUMPDEST DUP4 MLOAD PUSH1 0x1 PUSH1 0x1 PUSH1 0xA0 SHL SUB AND DUP6 MSTORE DUP7 SWAP6 POP SWAP4 DUP2 ADD SWAP4 SWAP3 DUP2 ADD SWAP3 PUSH1 0x1 ADD PUSH2 0xEF JUMP JUMPDEST PUSH4 0x4E487B71 PUSH1 0xE0 SHL DUP4 MSTORE PUSH1 0x41 SWAP1 MSTORE PUSH1 0x24 DUP3 REVERT JUMPDEST DUP4 SLOAD PUSH1 0x1 PUSH1 0x1 PUSH1 0xA0 SHL SUB AND DUP6 MSTORE SWAP1 SWAP4 ADD SWAP3 PUSH1 0x1 SWAP3 DUP4 ADD SWAP3 ADD PUSH2 0xAA JUMP JUMPDEST POP DUP1 REVERT JUMPDEST POP CALLVALUE PUSH2 0x14E JUMPI DUP2 PUSH1 0x3 NOT CALLDATASIZE ADD SLT PUSH2 0x14E JUMPI CALLER DUP3 MSTORE PUSH32 0x83ED3BA29C1D52058C877DF3EBD264CF957C42EF7764387349BE0CCF6DF0B63B PUSH1 0x20 SWAP1 DUP2 MSTORE SWAP2 DUP2 SWAP1 KECCAK256 SLOAD SWAP1 MLOAD PUSH1 0x1 PUSH1 0x1 PUSH1 0xA0 SHL SUB SWAP1 SWAP2 AND DUP2 MSTORE RETURN JUMPDEST POP DUP3 SWAP1 CALLVALUE PUSH2 0x31E JUMPI PUSH1 0x20 SWAP2 DUP3 PUSH1 0x3 NOT CALLDATASIZE ADD SLT PUSH2 0x31A JUMPI PUSH1 0x1 PUSH1 0x1 PUSH1 0xA0 SHL SUB DUP2 CALLDATALOAD DUP2 DUP2 AND SWAP5 SWAP2 SWAP3 SWAP1 DUP6 SWAP1 SUB PUSH2 0x316 JUMPI DUP5 DUP7 MSTORE PUSH32 0x83ED3BA29C1D52058C877DF3EBD264CF957C42EF7764387349BE0CCF6DF0B63B SWAP3 DUP4 DUP4 MSTORE DUP1 DUP6 DUP9 KECCAK256 SLOAD AND DUP1 ISZERO SWAP1 DUP2 ISZERO PUSH2 0x30C JUMPI JUMPDEST POP ISZERO PUSH2 0x2CA JUMPI DUP6 DUP8 MSTORE DUP4 DUP4 MSTORE DUP5 DUP8 KECCAK256 SLOAD AND ISZERO PUSH2 0x222 JUMPI DUP6 DUP1 RETURN JUMPDEST CALLER PUSH1 0x0 SWAP1 DUP2 MSTORE PUSH32 0x83ED3BA29C1D52058C877DF3EBD264CF957C42EF7764387349BE0CCF6DF0B63C PUSH1 0x20 MSTORE PUSH1 0x40 SWAP1 KECCAK256 DUP1 SLOAD SWAP2 PUSH9 0x10000000000000000 DUP4 LT ISZERO PUSH2 0x2B7 JUMPI PUSH1 0x1 DUP4 ADD DUP1 DUP4 SSTORE DUP4 LT ISZERO PUSH2 0x2A4 JUMPI POP DUP7 MSTORE DUP2 DUP7 KECCAK256 ADD DUP1 SLOAD PUSH1 0x1 PUSH1 0x1 PUSH1 0xA0 SHL SUB NOT SWAP1 DUP2 AND DUP7 OR SWAP1 SWAP2 SSTORE SWAP4 DUP6 MSTORE MSTORE DUP3 KECCAK256 DUP1 SLOAD SWAP1 SWAP2 AND CALLER OR SWAP1 SSTORE DUP2 DUP1 DUP1 DUP1 DUP1 DUP6 DUP1 RETURN JUMPDEST PUSH4 0x4E487B71 PUSH1 0xE0 SHL DUP9 MSTORE PUSH1 0x32 SWAP1 MSTORE PUSH1 0x24 DUP8 REVERT JUMPDEST PUSH4 0x4E487B71 PUSH1 0xE0 SHL DUP9 MSTORE PUSH1 0x41 SWAP1 MSTORE PUSH1 0x24 DUP8 REVERT JUMPDEST POP PUSH1 0x64 SWAP2 DUP5 MLOAD SWAP2 PUSH3 0x461BCD PUSH1 0xE5 SHL DUP4 MSTORE DUP3 ADD MSTORE PUSH1 0x19 PUSH1 0x24 DUP3 ADD MSTORE PUSH32 0x44657669636520616C7265616479207265676973746572656400000000000000 PUSH1 0x44 DUP3 ADD MSTORE REVERT JUMPDEST SWAP1 POP CALLER EQ DUP9 PUSH2 0x208 JUMP JUMPDEST DUP6 DUP1 REVERT JUMPDEST DUP4 DUP1 REVERT JUMPDEST DUP3 DUP1 REVERT JUMPDEST SWAP2 SWAP1 POP CALLVALUE PUSH2 0x31E JUMPI DUP3 PUSH1 0x3 NOT CALLDATASIZE ADD SLT PUSH2 0x31E JUMPI CALLER DUP4 MSTORE PUSH32 0x83ED3BA29C1D52058C877DF3EBD264CF957C42EF7764387349BE0CCF6DF0B63B PUSH1 0x20 SWAP1 DUP2 MSTORE SWAP3 KECCAK256 SLOAD PUSH1 0x1 PUSH1 0x1 PUSH1 0xA0 SHL SUB AND ISZERO ISZERO DUP2 MSTORE RETURN INVALID LOG2 PUSH5 0x6970667358 0x22 SLT KECCAK256 ADD RETURN 0xA8 PUSH6 0xB2068CF8F1E4 0xDE CREATE LOG4 MSTORE8 DUP13 SWAP1 PUSH9 0x507EBCFA53FE591203 0xAB PUSH15 0x7CF0DC2364736F6C63430008120033 "},"gasEstimates":{"creation":{"codeDepositCost":"186800","executionCost":"239","totalCost":"187039"},"external":{"assignAddressToSender(address)":"77617","getDeviceOwner()":"2411","getRelatedDevices()":"infinite","isSenderRegistered()":"2359"}},"methodIdentifiers":{"assignAddressToSender(address)":"56a593e3","getDeviceOwner()":"9b8ae375","getRelatedDevices()":"e0f64efc","isSenderRegistered()":"3aafa388"}},"storageLayout":{"storage":[],"types":null},"userdoc":{"kind":"user","methods":{},"version":1}}}}