{"contracts/SusuwatariLeafWalletFacet.sol":{"SusuwatariLeafWalletFacet":{"abi":[{"anonymous":false,"inputs":[{"indexed":false,"internalType":"uint256","name":"","type":"uint256"}],"name":"AssignActivatableAddressToSenderReturn","type":"event"},{"inputs":[{"internalType":"address","name":"assignee","type":"address"}],"name":"assignActivatableAddressToSender","outputs":[],"stateMutability":"nonpayable","type":"function"},{"inputs":[],"name":"getActivationCodeOfSender","outputs":[{"internalType":"uint256","name":"","type":"uint256"}],"stateMutability":"view","type":"function"},{"inputs":[],"name":"getDeviceOwner","outputs":[{"internalType":"address","name":"","type":"address"}],"stateMutability":"view","type":"function"},{"inputs":[],"name":"getRelatedDevices","outputs":[{"internalType":"address[]","name":"","type":"address[]"}],"stateMutability":"view","type":"function"},{"inputs":[],"name":"isSenderRegistered","outputs":[{"internalType":"bool","name":"","type":"bool"}],"stateMutability":"view","type":"function"},{"inputs":[{"internalType":"uint8","name":"team","type":"uint8"}],"name":"registerAndAssignMe","outputs":[],"stateMutability":"nonpayable","type":"function"}],"devdoc":{"kind":"dev","methods":{},"version":1},"evm":{"bytecode":{"linkReferences":{},"object":"60808060405234610016576109e9908161001c8239f35b600080fdfe60806040908082526004908136101561001757600080fd5b600092833560e01c9182633aafa388146107075750816358944eb8146106505781639b8ae37514610611578163e0f64efc14610511578163e9ced0651461009a575063ec9492971461006857600080fd5b3461009657602036600319011261009657356001600160a01b03811681036100965761009390610742565b80f35b5080fd5b839150346100965760208060031936011261050d57833560ff8116809103610509576100c533610742565b3360009081527f202e1867cade063e32a2eb339a246f853a1a233314949ba8d9e2ac766f6ed84660205260409020546104c6577f202e1867cade063e32a2eb339a246f853a1a233314949ba8d9e2ac766f6ed8478054916001928381018091116104b35785519367ffffffffffffffff9160e08601838111878210176104a057885285528585019388855287860189815260608701918a83528951958987018781108782111761048c5792600160401b9d928a9795928d8f7f202e1867cade063e32a2eb339a246f853a1a233314949ba8d9e2ac766f6ed8498f60c060a0849f9d9b8f908f8791895252608081019e8f52019d8e339052019d8e52896101fc3360018060a01b03166000527f202e1867cade063e32a2eb339a246f853a1a233314949ba8d9e2ac766f6ed846602052604060002090565b5533835252209060ff1982541617905580549e8f101561047957848f018082558f1015610466578d9e8d918f527f5b627e705e277f4cd69351cfcf0179f3685951408382038c266c60748db0394a019d6bffffffffffffffffffffffff60a01b9e8f33908254161790558b5181527f202e1867cade063e32a2eb339a246f853a1a233314949ba8d9e2ac766f6ed8488d5220988a518a5551848a01555160028901555160038801558087019351908151938411610453578454908382811c92168015610449575b8b8310146104365750601f81116103ee575b5088908c601f851160011461036357937f202e1867cade063e32a2eb339a246f853a1a233314949ba8d9e2ac766f6ed84b9a9998979593819382936006999794610358575b50501b916000199060031b1c19161790555b600584019060018060a01b03905116898254161790555191015551855252822090339082541617905580f35b015192508f8061031a565b9190601f9493941984168684528b8420935b8181106103d9575091600697959391857f202e1867cade063e32a2eb339a246f853a1a233314949ba8d9e2ac766f6ed84b9d9c9b9a989694106103c0575b505050811b01905561032c565b015160001960f88460031b161c191690558d80806103b3565b82840151855593860193928c01928c01610375565b848d52898d20601f850160051c8101918b861061042c575b601f0160051c019083908e5b838210610421575050506102d5565b81550183908e610412565b9091508190610406565b634e487b7160e01b8e526022905260248dfd5b91607f16916102c3565b634e487b7160e01b8d526041905260248cfd5b634e487b7160e01b8e526032845260248efd5b634e487b7160e01b8e526041845260248efd5b50634e487b7160e01b8c5260418d5260248cfd5b634e487b7160e01b8a5260418b5260248afd5b634e487b7160e01b875260118852602487fd5b825162461bcd60e51b8152808601839052601760248201527f5573657220616c726561647920726567697374657265640000000000000000006044820152606490fd5b8380fd5b8280fd5b839150346100965781600319360112610096573360009081527f83ed3ba29c1d52058c877df3ebd264cf957c42ef7764387349be0ccf6df0b63c6020526040902091815190819284548084526020809401908196845284842090845b868282106105f45750505050849003601f01601f191684019567ffffffffffffffff8711858810176105e1575085815282865292518583018190528594938501939290915b8281106105c157505050500390f35b83516001600160a01b0316855286955093810193928101926001016105b2565b634e487b7160e01b835260419052602482fd5b83546001600160a01b03168552909301926001928301920161056d565b8390346100965781600319360112610096573382526000805160206109948339815191526020908152918190205490516001600160a01b039091168152f35b828434610704578060031936011261070457338152600080516020610994833981519152602052829020546001600160a01b0316156106c2573360009081527f83ed3ba29c1d52058c877df3ebd264cf957c42ef7764387349be0ccf6df0b63d60209081526040909120548351908152f35b6020606492519162461bcd60e51b8352820152601960248201527f446576696365206e6f74207965742072656769737465726564000000000000006044820152fd5b80fd5b84913461050d578260031936011261050d5733835260008051602061099483398151915260209081529220546001600160a01b031615158152f35b60018060a01b0380821690600090828252600080516020610994833981519152926020938085526040928084862054168015908115610989575b5015610945578285528186528385205416156108a1575b505080518381019042825244838201523360601b6060820152605481526080810181811067ffffffffffffffff82111761088d5783525190206064900691600a8310610840575b50816108387f4194273a0171865880e1d7a0089dcb6cfe51ce239b09acde0bf6cc5e071210b09560018060a01b03166000527f83ed3ba29c1d52058c877df3ebd264cf957c42ef7764387349be0ccf6df0b63d602052604060002090565b5551908152a1565b600a83929495930180921161087957509092917f4194273a0171865880e1d7a0089dcb6cfe51ce239b09acde0bf6cc5e071210b06107da565b634e487b7160e01b81526011600452602490fd5b634e487b7160e01b85526041600452602485fd5b3360009081527f83ed3ba29c1d52058c877df3ebd264cf957c42ef7764387349be0ccf6df0b63c60205260409020805490600160401b821015610931576001820180825582101561091d5785528585200180546001600160a01b0319908116841790915591845284528183208054909116331790553880610793565b634e487b7160e01b86526032600452602486fd5b634e487b7160e01b86526041600452602486fd5b835162461bcd60e51b815260048101879052601960248201527f44657669636520616c72656164792072656769737465726564000000000000006044820152606490fd5b905033143861077c56fe83ed3ba29c1d52058c877df3ebd264cf957c42ef7764387349be0ccf6df0b63ba26469706673582212203efcae4f1d4cc11abd6c7298ab8d1e426e3b4566dfa292794ec32f67bfb90f7964736f6c63430008120033","opcodes":"PUSH1 0x80 DUP1 PUSH1 0x40 MSTORE CALLVALUE PUSH2 0x16 JUMPI PUSH2 0x9E9 SWAP1 DUP2 PUSH2 0x1C DUP3 CODECOPY RETURN JUMPDEST PUSH1 0x0 DUP1 REVERT INVALID PUSH1 0x80 PUSH1 0x40 SWAP1 DUP1 DUP3 MSTORE PUSH1 0x4 SWAP1 DUP2 CALLDATASIZE LT ISZERO PUSH2 0x17 JUMPI PUSH1 0x0 DUP1 REVERT JUMPDEST PUSH1 0x0 SWAP3 DUP4 CALLDATALOAD PUSH1 0xE0 SHR SWAP2 DUP3 PUSH4 0x3AAFA388 EQ PUSH2 0x707 JUMPI POP DUP2 PUSH4 0x58944EB8 EQ PUSH2 0x650 JUMPI DUP2 PUSH4 0x9B8AE375 EQ PUSH2 0x611 JUMPI DUP2 PUSH4 0xE0F64EFC EQ PUSH2 0x511 JUMPI DUP2 PUSH4 0xE9CED065 EQ PUSH2 0x9A JUMPI POP PUSH4 0xEC949297 EQ PUSH2 0x68 JUMPI PUSH1 0x0 DUP1 REVERT JUMPDEST CALLVALUE PUSH2 0x96 JUMPI PUSH1 0x20 CALLDATASIZE PUSH1 0x3 NOT ADD SLT PUSH2 0x96 JUMPI CALLDATALOAD PUSH1 0x1 PUSH1 0x1 PUSH1 0xA0 SHL SUB DUP2 AND DUP2 SUB PUSH2 0x96 JUMPI PUSH2 0x93 SWAP1 PUSH2 0x742 JUMP JUMPDEST DUP1 RETURN JUMPDEST POP DUP1 REVERT JUMPDEST DUP4 SWAP2 POP CALLVALUE PUSH2 0x96 JUMPI PUSH1 0x20 DUP1 PUSH1 0x3 NOT CALLDATASIZE ADD SLT PUSH2 0x50D JUMPI DUP4 CALLDATALOAD PUSH1 0xFF DUP2 AND DUP1 SWAP2 SUB PUSH2 0x509 JUMPI PUSH2 0xC5 CALLER PUSH2 0x742 JUMP JUMPDEST CALLER PUSH1 0x0 SWAP1 DUP2 MSTORE PUSH32 0x202E1867CADE063E32A2EB339A246F853A1A233314949BA8D9E2AC766F6ED846 PUSH1 0x20 MSTORE PUSH1 0x40 SWAP1 KECCAK256 SLOAD PUSH2 0x4C6 JUMPI PUSH32 0x202E1867CADE063E32A2EB339A246F853A1A233314949BA8D9E2AC766F6ED847 DUP1 SLOAD SWAP2 PUSH1 0x1 SWAP3 DUP4 DUP2 ADD DUP1 SWAP2 GT PUSH2 0x4B3 JUMPI DUP6 MLOAD SWAP4 PUSH8 0xFFFFFFFFFFFFFFFF SWAP2 PUSH1 0xE0 DUP7 ADD DUP4 DUP2 GT DUP8 DUP3 LT OR PUSH2 0x4A0 JUMPI DUP9 MSTORE DUP6 MSTORE DUP6 DUP6 ADD SWAP4 DUP9 DUP6 MSTORE DUP8 DUP7 ADD DUP10 DUP2 MSTORE PUSH1 0x60 DUP8 ADD SWAP2 DUP11 DUP4 MSTORE DUP10 MLOAD SWAP6 DUP10 DUP8 ADD DUP8 DUP2 LT DUP8 DUP3 GT OR PUSH2 0x48C JUMPI SWAP3 PUSH1 0x1 PUSH1 0x40 SHL SWAP14 SWAP3 DUP11 SWAP8 SWAP6 SWAP3 DUP14 DUP16 PUSH32 0x202E1867CADE063E32A2EB339A246F853A1A233314949BA8D9E2AC766F6ED849 DUP16 PUSH1 0xC0 PUSH1 0xA0 DUP5 SWAP16 SWAP14 SWAP12 DUP16 SWAP1 DUP16 DUP8 SWAP2 DUP10 MSTORE MSTORE PUSH1 0x80 DUP2 ADD SWAP15 DUP16 MSTORE ADD SWAP14 DUP15 CALLER SWAP1 MSTORE ADD SWAP14 DUP15 MSTORE DUP10 PUSH2 0x1FC CALLER PUSH1 0x1 DUP1 PUSH1 0xA0 SHL SUB AND PUSH1 0x0 MSTORE PUSH32 0x202E1867CADE063E32A2EB339A246F853A1A233314949BA8D9E2AC766F6ED846 PUSH1 0x20 MSTORE PUSH1 0x40 PUSH1 0x0 KECCAK256 SWAP1 JUMP JUMPDEST SSTORE CALLER DUP4 MSTORE MSTORE KECCAK256 SWAP1 PUSH1 0xFF NOT DUP3 SLOAD AND OR SWAP1 SSTORE DUP1 SLOAD SWAP15 DUP16 LT ISZERO PUSH2 0x479 JUMPI DUP5 DUP16 ADD DUP1 DUP3 SSTORE DUP16 LT ISZERO PUSH2 0x466 JUMPI DUP14 SWAP15 DUP14 SWAP2 DUP16 MSTORE PUSH32 0x5B627E705E277F4CD69351CFCF0179F3685951408382038C266C60748DB0394A ADD SWAP14 PUSH12 0xFFFFFFFFFFFFFFFFFFFFFFFF PUSH1 0xA0 SHL SWAP15 DUP16 CALLER SWAP1 DUP3 SLOAD AND OR SWAP1 SSTORE DUP12 MLOAD DUP2 MSTORE PUSH32 0x202E1867CADE063E32A2EB339A246F853A1A233314949BA8D9E2AC766F6ED848 DUP14 MSTORE KECCAK256 SWAP9 DUP11 MLOAD DUP11 SSTORE MLOAD DUP5 DUP11 ADD SSTORE MLOAD PUSH1 0x2 DUP10 ADD SSTORE MLOAD PUSH1 0x3 DUP9 ADD SSTORE DUP1 DUP8 ADD SWAP4 MLOAD SWAP1 DUP2 MLOAD SWAP4 DUP5 GT PUSH2 0x453 JUMPI DUP5 SLOAD SWAP1 DUP4 DUP3 DUP2 SHR SWAP3 AND DUP1 ISZERO PUSH2 0x449 JUMPI JUMPDEST DUP12 DUP4 LT EQ PUSH2 0x436 JUMPI POP PUSH1 0x1F DUP2 GT PUSH2 0x3EE JUMPI JUMPDEST POP DUP9 SWAP1 DUP13 PUSH1 0x1F DUP6 GT PUSH1 0x1 EQ PUSH2 0x363 JUMPI SWAP4 PUSH32 0x202E1867CADE063E32A2EB339A246F853A1A233314949BA8D9E2AC766F6ED84B SWAP11 SWAP10 SWAP9 SWAP8 SWAP6 SWAP4 DUP2 SWAP4 DUP3 SWAP4 PUSH1 0x6 SWAP10 SWAP8 SWAP5 PUSH2 0x358 JUMPI JUMPDEST POP POP SHL SWAP2 PUSH1 0x0 NOT SWAP1 PUSH1 0x3 SHL SHR NOT AND OR SWAP1 SSTORE JUMPDEST PUSH1 0x5 DUP5 ADD SWAP1 PUSH1 0x1 DUP1 PUSH1 0xA0 SHL SUB SWAP1 MLOAD AND DUP10 DUP3 SLOAD AND OR SWAP1 SSTORE MLOAD SWAP2 ADD SSTORE MLOAD DUP6 MSTORE MSTORE DUP3 KECCAK256 SWAP1 CALLER SWAP1 DUP3 SLOAD AND OR SWAP1 SSTORE DUP1 RETURN JUMPDEST ADD MLOAD SWAP3 POP DUP16 DUP1 PUSH2 0x31A JUMP JUMPDEST SWAP2 SWAP1 PUSH1 0x1F SWAP5 SWAP4 SWAP5 NOT DUP5 AND DUP7 DUP5 MSTORE DUP12 DUP5 KECCAK256 SWAP4 JUMPDEST DUP2 DUP2 LT PUSH2 0x3D9 JUMPI POP SWAP2 PUSH1 0x6 SWAP8 SWAP6 SWAP4 SWAP2 DUP6 PUSH32 0x202E1867CADE063E32A2EB339A246F853A1A233314949BA8D9E2AC766F6ED84B SWAP14 SWAP13 SWAP12 SWAP11 SWAP9 SWAP7 SWAP5 LT PUSH2 0x3C0 JUMPI JUMPDEST POP POP POP DUP2 SHL ADD SWAP1 SSTORE PUSH2 0x32C JUMP JUMPDEST ADD MLOAD PUSH1 0x0 NOT PUSH1 0xF8 DUP5 PUSH1 0x3 SHL AND SHR NOT AND SWAP1 SSTORE DUP14 DUP1 DUP1 PUSH2 0x3B3 JUMP JUMPDEST DUP3 DUP5 ADD MLOAD DUP6 SSTORE SWAP4 DUP7 ADD SWAP4 SWAP3 DUP13 ADD SWAP3 DUP13 ADD PUSH2 0x375 JUMP JUMPDEST DUP5 DUP14 MSTORE DUP10 DUP14 KECCAK256 PUSH1 0x1F DUP6 ADD PUSH1 0x5 SHR DUP2 ADD SWAP2 DUP12 DUP7 LT PUSH2 0x42C JUMPI JUMPDEST PUSH1 0x1F ADD PUSH1 0x5 SHR ADD SWAP1 DUP4 SWAP1 DUP15 JUMPDEST DUP4 DUP3 LT PUSH2 0x421 JUMPI POP POP POP PUSH2 0x2D5 JUMP JUMPDEST DUP2 SSTORE ADD DUP4 SWAP1 DUP15 PUSH2 0x412 JUMP JUMPDEST SWAP1 SWAP2 POP DUP2 SWAP1 PUSH2 0x406 JUMP JUMPDEST PUSH4 0x4E487B71 PUSH1 0xE0 SHL DUP15 MSTORE PUSH1 0x22 SWAP1 MSTORE PUSH1 0x24 DUP14 REVERT JUMPDEST SWAP2 PUSH1 0x7F AND SWAP2 PUSH2 0x2C3 JUMP JUMPDEST PUSH4 0x4E487B71 PUSH1 0xE0 SHL DUP14 MSTORE PUSH1 0x41 SWAP1 MSTORE PUSH1 0x24 DUP13 REVERT JUMPDEST PUSH4 0x4E487B71 PUSH1 0xE0 SHL DUP15 MSTORE PUSH1 0x32 DUP5 MSTORE PUSH1 0x24 DUP15 REVERT JUMPDEST PUSH4 0x4E487B71 PUSH1 0xE0 SHL DUP15 MSTORE PUSH1 0x41 DUP5 MSTORE PUSH1 0x24 DUP15 REVERT JUMPDEST POP PUSH4 0x4E487B71 PUSH1 0xE0 SHL DUP13 MSTORE PUSH1 0x41 DUP14 MSTORE PUSH1 0x24 DUP13 REVERT JUMPDEST PUSH4 0x4E487B71 PUSH1 0xE0 SHL DUP11 MSTORE PUSH1 0x41 DUP12 MSTORE PUSH1 0x24 DUP11 REVERT JUMPDEST PUSH4 0x4E487B71 PUSH1 0xE0 SHL DUP8 MSTORE PUSH1 0x11 DUP9 MSTORE PUSH1 0x24 DUP8 REVERT JUMPDEST DUP3 MLOAD PUSH3 0x461BCD PUSH1 0xE5 SHL DUP2 MSTORE DUP1 DUP7 ADD DUP4 SWAP1 MSTORE PUSH1 0x17 PUSH1 0x24 DUP3 ADD MSTORE PUSH32 0x5573657220616C72656164792072656769737465726564000000000000000000 PUSH1 0x44 DUP3 ADD MSTORE PUSH1 0x64 SWAP1 REVERT JUMPDEST DUP4 DUP1 REVERT JUMPDEST DUP3 DUP1 REVERT JUMPDEST DUP4 SWAP2 POP CALLVALUE PUSH2 0x96 JUMPI DUP2 PUSH1 0x3 NOT CALLDATASIZE ADD SLT PUSH2 0x96 JUMPI CALLER PUSH1 0x0 SWAP1 DUP2 MSTORE PUSH32 0x83ED3BA29C1D52058C877DF3EBD264CF957C42EF7764387349BE0CCF6DF0B63C PUSH1 0x20 MSTORE PUSH1 0x40 SWAP1 KECCAK256 SWAP2 DUP2 MLOAD SWAP1 DUP2 SWAP3 DUP5 SLOAD DUP1 DUP5 MSTORE PUSH1 0x20 DUP1 SWAP5 ADD SWAP1 DUP2 SWAP7 DUP5 MSTORE DUP5 DUP5 KECCAK256 SWAP1 DUP5 JUMPDEST DUP7 DUP3 DUP3 LT PUSH2 0x5F4 JUMPI POP POP POP POP DUP5 SWAP1 SUB PUSH1 0x1F ADD PUSH1 0x1F NOT AND DUP5 ADD SWAP6 PUSH8 0xFFFFFFFFFFFFFFFF DUP8 GT DUP6 DUP9 LT OR PUSH2 0x5E1 JUMPI POP DUP6 DUP2 MSTORE DUP3 DUP7 MSTORE SWAP3 MLOAD DUP6 DUP4 ADD DUP2 SWAP1 MSTORE DUP6 SWAP5 SWAP4 DUP6 ADD SWAP4 SWAP3 SWAP1 SWAP2 JUMPDEST DUP3 DUP2 LT PUSH2 0x5C1 JUMPI POP POP POP POP SUB SWAP1 RETURN JUMPDEST DUP4 MLOAD PUSH1 0x1 PUSH1 0x1 PUSH1 0xA0 SHL SUB AND DUP6 MSTORE DUP7 SWAP6 POP SWAP4 DUP2 ADD SWAP4 SWAP3 DUP2 ADD SWAP3 PUSH1 0x1 ADD PUSH2 0x5B2 JUMP JUMPDEST PUSH4 0x4E487B71 PUSH1 0xE0 SHL DUP4 MSTORE PUSH1 0x41 SWAP1 MSTORE PUSH1 0x24 DUP3 REVERT JUMPDEST DUP4 SLOAD PUSH1 0x1 PUSH1 0x1 PUSH1 0xA0 SHL SUB AND DUP6 MSTORE SWAP1 SWAP4 ADD SWAP3 PUSH1 0x1 SWAP3 DUP4 ADD SWAP3 ADD PUSH2 0x56D JUMP JUMPDEST DUP4 SWAP1 CALLVALUE PUSH2 0x96 JUMPI DUP2 PUSH1 0x3 NOT CALLDATASIZE ADD SLT PUSH2 0x96 JUMPI CALLER DUP3 MSTORE PUSH1 0x0 DUP1 MLOAD PUSH1 0x20 PUSH2 0x994 DUP4 CODECOPY DUP2 MLOAD SWAP2 MSTORE PUSH1 0x20 SWAP1 DUP2 MSTORE SWAP2 DUP2 SWAP1 KECCAK256 SLOAD SWAP1 MLOAD PUSH1 0x1 PUSH1 0x1 PUSH1 0xA0 SHL SUB SWAP1 SWAP2 AND DUP2 MSTORE RETURN JUMPDEST DUP3 DUP5 CALLVALUE PUSH2 0x704 JUMPI DUP1 PUSH1 0x3 NOT CALLDATASIZE ADD SLT PUSH2 0x704 JUMPI CALLER DUP2 MSTORE PUSH1 0x0 DUP1 MLOAD PUSH1 0x20 PUSH2 0x994 DUP4 CODECOPY DUP2 MLOAD SWAP2 MSTORE PUSH1 0x20 MSTORE DUP3 SWAP1 KECCAK256 SLOAD PUSH1 0x1 PUSH1 0x1 PUSH1 0xA0 SHL SUB AND ISZERO PUSH2 0x6C2 JUMPI CALLER PUSH1 0x0 SWAP1 DUP2 MSTORE PUSH32 0x83ED3BA29C1D52058C877DF3EBD264CF957C42EF7764387349BE0CCF6DF0B63D PUSH1 0x20 SWAP1 DUP2 MSTORE PUSH1 0x40 SWAP1 SWAP2 KECCAK256 SLOAD DUP4 MLOAD SWAP1 DUP2 MSTORE RETURN JUMPDEST PUSH1 0x20 PUSH1 0x64 SWAP3 MLOAD SWAP2 PUSH3 0x461BCD PUSH1 0xE5 SHL DUP4 MSTORE DUP3 ADD MSTORE PUSH1 0x19 PUSH1 0x24 DUP3 ADD MSTORE PUSH32 0x446576696365206E6F7420796574207265676973746572656400000000000000 PUSH1 0x44 DUP3 ADD MSTORE REVERT JUMPDEST DUP1 REVERT JUMPDEST DUP5 SWAP2 CALLVALUE PUSH2 0x50D JUMPI DUP3 PUSH1 0x3 NOT CALLDATASIZE ADD SLT PUSH2 0x50D JUMPI CALLER DUP4 MSTORE PUSH1 0x0 DUP1 MLOAD PUSH1 0x20 PUSH2 0x994 DUP4 CODECOPY DUP2 MLOAD SWAP2 MSTORE PUSH1 0x20 SWAP1 DUP2 MSTORE SWAP3 KECCAK256 SLOAD PUSH1 0x1 PUSH1 0x1 PUSH1 0xA0 SHL SUB AND ISZERO ISZERO DUP2 MSTORE RETURN JUMPDEST PUSH1 0x1 DUP1 PUSH1 0xA0 SHL SUB DUP1 DUP3 AND SWAP1 PUSH1 0x0 SWAP1 DUP3 DUP3 MSTORE PUSH1 0x0 DUP1 MLOAD PUSH1 0x20 PUSH2 0x994 DUP4 CODECOPY DUP2 MLOAD SWAP2 MSTORE SWAP3 PUSH1 0x20 SWAP4 DUP1 DUP6 MSTORE PUSH1 0x40 SWAP3 DUP1 DUP5 DUP7 KECCAK256 SLOAD AND DUP1 ISZERO SWAP1 DUP2 ISZERO PUSH2 0x989 JUMPI JUMPDEST POP ISZERO PUSH2 0x945 JUMPI DUP3 DUP6 MSTORE DUP2 DUP7 MSTORE DUP4 DUP6 KECCAK256 SLOAD AND ISZERO PUSH2 0x8A1 JUMPI JUMPDEST POP POP DUP1 MLOAD DUP4 DUP2 ADD SWAP1 TIMESTAMP DUP3 MSTORE PREVRANDAO DUP4 DUP3 ADD MSTORE CALLER PUSH1 0x60 SHL PUSH1 0x60 DUP3 ADD MSTORE PUSH1 0x54 DUP2 MSTORE PUSH1 0x80 DUP2 ADD DUP2 DUP2 LT PUSH8 0xFFFFFFFFFFFFFFFF DUP3 GT OR PUSH2 0x88D JUMPI DUP4 MSTORE MLOAD SWAP1 KECCAK256 PUSH1 0x64 SWAP1 MOD SWAP2 PUSH1 0xA DUP4 LT PUSH2 0x840 JUMPI JUMPDEST POP DUP2 PUSH2 0x838 PUSH32 0x4194273A0171865880E1D7A0089DCB6CFE51CE239B09ACDE0BF6CC5E071210B0 SWAP6 PUSH1 0x1 DUP1 PUSH1 0xA0 SHL SUB AND PUSH1 0x0 MSTORE PUSH32 0x83ED3BA29C1D52058C877DF3EBD264CF957C42EF7764387349BE0CCF6DF0B63D PUSH1 0x20 MSTORE PUSH1 0x40 PUSH1 0x0 KECCAK256 SWAP1 JUMP JUMPDEST SSTORE MLOAD SWAP1 DUP2 MSTORE LOG1 JUMP JUMPDEST PUSH1 0xA DUP4 SWAP3 SWAP5 SWAP6 SWAP4 ADD DUP1 SWAP3 GT PUSH2 0x879 JUMPI POP SWAP1 SWAP3 SWAP2 PUSH32 0x4194273A0171865880E1D7A0089DCB6CFE51CE239B09ACDE0BF6CC5E071210B0 PUSH2 0x7DA JUMP JUMPDEST PUSH4 0x4E487B71 PUSH1 0xE0 SHL DUP2 MSTORE PUSH1 0x11 PUSH1 0x4 MSTORE PUSH1 0x24 SWAP1 REVERT JUMPDEST PUSH4 0x4E487B71 PUSH1 0xE0 SHL DUP6 MSTORE PUSH1 0x41 PUSH1 0x4 MSTORE PUSH1 0x24 DUP6 REVERT JUMPDEST CALLER PUSH1 0x0 SWAP1 DUP2 MSTORE PUSH32 0x83ED3BA29C1D52058C877DF3EBD264CF957C42EF7764387349BE0CCF6DF0B63C PUSH1 0x20 MSTORE PUSH1 0x40 SWAP1 KECCAK256 DUP1 SLOAD SWAP1 PUSH1 0x1 PUSH1 0x40 SHL DUP3 LT ISZERO PUSH2 0x931 JUMPI PUSH1 0x1 DUP3 ADD DUP1 DUP3 SSTORE DUP3 LT ISZERO PUSH2 0x91D JUMPI DUP6 MSTORE DUP6 DUP6 KECCAK256 ADD DUP1 SLOAD PUSH1 0x1 PUSH1 0x1 PUSH1 0xA0 SHL SUB NOT SWAP1 DUP2 AND DUP5 OR SWAP1 SWAP2 SSTORE SWAP2 DUP5 MSTORE DUP5 MSTORE DUP2 DUP4 KECCAK256 DUP1 SLOAD SWAP1 SWAP2 AND CALLER OR SWAP1 SSTORE CODESIZE DUP1 PUSH2 0x793 JUMP JUMPDEST PUSH4 0x4E487B71 PUSH1 0xE0 SHL DUP7 MSTORE PUSH1 0x32 PUSH1 0x4 MSTORE PUSH1 0x24 DUP7 REVERT JUMPDEST PUSH4 0x4E487B71 PUSH1 0xE0 SHL DUP7 MSTORE PUSH1 0x41 PUSH1 0x4 MSTORE PUSH1 0x24 DUP7 REVERT JUMPDEST DUP4 MLOAD PUSH3 0x461BCD PUSH1 0xE5 SHL DUP2 MSTORE PUSH1 0x4 DUP2 ADD DUP8 SWAP1 MSTORE PUSH1 0x19 PUSH1 0x24 DUP3 ADD MSTORE PUSH32 0x44657669636520616C7265616479207265676973746572656400000000000000 PUSH1 0x44 DUP3 ADD MSTORE PUSH1 0x64 SWAP1 REVERT JUMPDEST SWAP1 POP CALLER EQ CODESIZE PUSH2 0x77C JUMP INVALID DUP4 0xED EXTCODESIZE LOG2 SWAP13 SAR MSTORE SDIV DUP13 DUP8 PUSH30 0xF3EBD264CF957C42EF7764387349BE0CCF6DF0B63BA26469706673582212 KECCAK256 RETURNDATACOPY 0xFC 0xAE 0x4F SAR 0x4C 0xC1 BYTE 0xBD PUSH13 0x7298AB8D1E426E3B4566DFA292 PUSH26 0x4EC32F67BFB90F7964736F6C6343000812003300000000000000 "},"gasEstimates":{"creation":{"codeDepositCost":"507400","executionCost":"550","totalCost":"507950"},"external":{"assignActivatableAddressToSender(address)":"infinite","getActivationCodeOfSender()":"infinite","getDeviceOwner()":"infinite","getRelatedDevices()":"infinite","isSenderRegistered()":"2390","registerAndAssignMe(uint8)":"infinite"}},"methodIdentifiers":{"assignActivatableAddressToSender(address)":"ec949297","getActivationCodeOfSender()":"58944eb8","getDeviceOwner()":"9b8ae375","getRelatedDevices()":"e0f64efc","isSenderRegistered()":"3aafa388","registerAndAssignMe(uint8)":"e9ced065"}},"storageLayout":{"storage":[],"types":null},"userdoc":{"kind":"user","methods":{},"version":1}}}}