{"contracts/SusuwatariFacet.sol":{"SusuwatariFacet":{"abi":[{"anonymous":false,"inputs":[{"indexed":false,"internalType":"uint256","name":"originLocation","type":"uint256"},{"indexed":false,"internalType":"uint256","name":"currentLocation","type":"uint256"},{"indexed":false,"internalType":"uint256","name":"destination","type":"uint256"},{"indexed":false,"internalType":"uint256","name":"tokenId","type":"uint256"},{"indexed":false,"internalType":"uint8","name":"team","type":"uint8"},{"indexed":false,"internalType":"string","name":"message","type":"string"}],"name":"DroppedSusu","type":"event"},{"anonymous":false,"inputs":[{"indexed":false,"internalType":"uint256","name":"tokenId","type":"uint256"},{"indexed":false,"internalType":"string","name":"message","type":"string"},{"indexed":false,"internalType":"address","name":"owner","type":"address"},{"indexed":false,"internalType":"uint8","name":"team","type":"uint8"}],"name":"MintedSusu","type":"event"},{"anonymous":false,"inputs":[{"indexed":false,"internalType":"uint256","name":"tokenId","type":"uint256"},{"indexed":false,"internalType":"uint256","name":"location","type":"uint256"},{"indexed":false,"internalType":"string","name":"message","type":"string"},{"indexed":false,"internalType":"address","name":"sender","type":"address"},{"indexed":false,"internalType":"address","name":"owner","type":"address"},{"indexed":false,"internalType":"uint8","name":"team","type":"uint8"}],"name":"PickedUpSusu","type":"event"},{"inputs":[{"internalType":"uint256","name":"tokenId","type":"uint256"},{"internalType":"uint256","name":"location","type":"uint256"},{"internalType":"uint256","name":"destination","type":"uint256"},{"internalType":"string","name":"message","type":"string"}],"name":"aimInitialSusu","outputs":[],"stateMutability":"nonpayable","type":"function"},{"inputs":[{"internalType":"uint256","name":"tokenId","type":"uint256"},{"internalType":"uint256","name":"location","type":"uint256"}],"name":"dropSusu","outputs":[],"stateMutability":"nonpayable","type":"function"},{"inputs":[],"name":"getAllSusuwataris","outputs":[{"components":[{"internalType":"uint256","name":"tokenId","type":"uint256"},{"internalType":"address","name":"owner","type":"address"},{"internalType":"bool","name":"isCarrying","type":"bool"}],"internalType":"struct LibSusuwatari.SusuwatariInfo[]","name":"","type":"tuple[]"}],"stateMutability":"view","type":"function"},{"inputs":[],"name":"getBaggedSusus","outputs":[{"components":[{"internalType":"uint256","name":"tokenId","type":"uint256"},{"internalType":"address","name":"carrier","type":"address"}],"internalType":"struct LibSusuwatari.BaggedSusuInfo[]","name":"","type":"tuple[]"}],"stateMutability":"view","type":"function"},{"inputs":[],"name":"getCurrentState","outputs":[{"components":[{"internalType":"uint256[]","name":"ownedTokens","type":"uint256[]"},{"components":[{"internalType":"uint256","name":"susuTokenId","type":"uint256"},{"internalType":"uint256","name":"dropCooldownTime","type":"uint256"},{"internalType":"address","name":"ownerAddress","type":"address"}],"internalType":"struct BaggageSlot","name":"slot","type":"tuple"},{"internalType":"uint8","name":"team","type":"uint8"}],"internalType":"struct UserState","name":"","type":"tuple"}],"stateMutability":"view","type":"function"},{"inputs":[],"name":"giveSusuwatari","outputs":[],"stateMutability":"nonpayable","type":"function"},{"inputs":[{"internalType":"uint8","name":"team","type":"uint8"}],"name":"registerMe","outputs":[],"stateMutability":"nonpayable","type":"function"},{"inputs":[{"internalType":"uint256","name":"tokenId","type":"uint256"},{"internalType":"uint256","name":"location","type":"uint256"}],"name":"tryPickupSusu","outputs":[],"stateMutability":"nonpayable","type":"function"}],"devdoc":{"details":"Implementation of https://eips.ethereum.org/EIPS/eip-721[ERC721] Non-Fungible Token Standard, including the Metadata extension, but not including the Enumerable extension, which is available separately as {ERC721Enumerable}.","kind":"dev","methods":{},"version":1},"evm":{"bytecode":{"linkReferences":{},"object":"6080806040523461001657611b18908161001c8239f35b600080fdfe6080604052600436101561001257600080fd5b60003560e01c80632a9664c714611325578063378aa701146110c45780637298c3c314610e1f578063a6cd652314610c45578063adc65c38146109a0578063c5b9c141146107da578063cda94eb4146104985763ef410cf91461007457600080fd5b346104935760803660031901126104935760643567ffffffffffffffff8111610493573660238201121561049357806004013567ffffffffffffffff81116103de57604051916100ce601f8301601f1916602001846114fa565b8183523660248383010111610493578160009260246020930183860137830101526101036100fb336115ca565b54151561176e565b600435151580610478575b610117906117b3565b60043560001981019081116103f45761012f90611603565b905460039190911b1c6001600160a01b0316331480610445575b1561040a57600435600052600080516020611a6383398151915260205260406000209061012d60405160208101906101b5816101a7600435334287916054939183526001600160601b03199060601b16602083015260348201520190565b03601f1981018352826114fa565b5190200661012c9081018091116103f457600683015560243560018301556024356002830155604435600383015580519167ffffffffffffffff83116103de5761020f8361020660048401546116ab565b600484016116e5565b6020601f84116001146103505792807fd144ad124f19f42d8e72c22759ffa0941569c00e89e82a60e302397e7f2c44b494600091610345575b508160011b916000199060031b1c19161760048201555b600581016001600160601b0360a01b808254168255600435600052600080516020611aa38339815191526020526040600020818154169055600080516020611a638339815191526020526040600020928084036102e6575b858560ff6102c433611591565b54166102e160405192839260043560443560243560243587611739565b0390a1005b60069283928254865560018301546001870155600283015460028701556003830154600387015561031d60048401600488016117ff565b90546005860180549092166001600160a01b03919091161790550154910155388080806102b7565b905083015138610248565b6004820160005260206000209060005b601f19861681106103c65750936001917fd144ad124f19f42d8e72c22759ffa0941569c00e89e82a60e302397e7f2c44b49582601f198116106103ad575b5050811b01600482015561025f565b85015160001960f88460031b161c19169055388061039e565b90916020600181928588015181550193019101610360565b634e487b7160e01b600052604160045260246000fd5b634e487b7160e01b600052601160045260246000fd5b60405162461bcd60e51b815260206004820152601360248201527221b0b63632b91034b9903737ba1037bbb732b960691b6044820152606490fd5b506004356000908152600080516020611a6383398151915260205260409020600501546001600160a01b03163314610149565b50600080516020611a8383398151915254600435111561010e565b600080fd5b34610493576104a636611474565b6104b26100fb336115ca565b811515806107c1575b6104c4906117b3565b600080516020611a8383398151915254906000805b838110610768575b506104ee9192501561198d565b81600052600080516020611a638339815191529160209183835260018060a01b038060056040600020015416610723576000198301948386116103f4578161053587611603565b919054339260031b1c16146106c6578360005280855260406000209161012d60405187810190610589816101a78a334287916054939183526001600160601b03199060601b16602083015260348201520190565b519020069161012c9283018093116103f4577f5a050f3c76b2e5b15146cf18e5d9e162fb4e6c51d6d56165c477dcfc8e2c62d49761065f93610620926006870191825560058701916001600160601b0360a01b9133838554161784558a600052600080516020611aa38339815191528c52604060002033848254161790558b52604060002092888403610675575b50505050611603565b90549060031b1c1692610642600460ff61063987611591565b541694016118d8565b90604051968796875286015260c0604086015260c085019061151c565b91336060850152608084015260a08301520390a1005b6006928954855560018a0154600186015560028a0154600286015560038a015460038601556106aa60048b01600487016117ff565b8760058601925416908254161790555491015589808080610617565b60405162461bcd60e51b815260048101869052602f60248201527f546865206f776e65722063616e6e6f74206d6f766520686973206f776e20616960448201526e6d656420537573757761746172692160881b6064820152608490fd5b60405162461bcd60e51b815260048101859052601e60248201527f5375737520697320616c7265616479206265696e6720636172726965642100006044820152606490fd5b60018082018083116103f4576000908152600080516020611a6383398151915260205260409020600501546001600160a01b031633146107b157506107ac9061197e565b6104d9565b9150506104ee91925082916104e1565b50600080516020611a83833981519152548211156104bb565b3461049357600036600319011261049357600080516020611a838339815191525460009060005b818110610948575061081282611a36565b9161082060405193846114fa565b80835261082f601f1991611a36565b0160005b8181106109235750506000805b8281106108975760408051602080825286518183018190528188019383019160005b82811061086f5784840385f35b8551805185528201516001600160a01b03168483015294810194604090930192600101610862565b600181018082116103f4576000818152600080516020611aa383398151915260209081526040909120546001600160a01b031690816108e2575b5050506108dd9061197e565b610840565b916108dd93949161091a93604051926108fa846114c2565b83528201526109098288611a4e565b526109148187611a4e565b5061197e565b919085806108d1565b602090604051610932816114c2565b6000815282600081830152828701015201610833565b600181018082116103f4576000908152600080516020611aa383398151915260205260409020546001600160a01b031661098b575b6109869061197e565b610801565b916109986109869161197e565b92905061097d565b34610493576020806003193601126104935760043560ff8116808203610493576109c9336115ca565b54610c0057600080516020611a838339815191525491600183018093116103f457604051926109f7846114a6565b8352838301916000835260408401936000855260608101936000855260405194610a20866114de565b600086526080830195865260a083019633885260c0840194600086526001610a47336115ca565b55610a5133611591565b9060ff19825416179055610a643361165c565b8351600052600080516020611a6383398151915289526040600020928451845551600184015551600283015551600382015560048101855180519067ffffffffffffffff82116103de57610ac282610abc85546116ab565b856116e5565b8990601f8311600114610b73579282600080516020611aa383398151915293600080516020611ac38339815191529c936102e19a99989796600092610b68575b50508160011b916000199060031b1c19161790555b6005830192600660018060a01b0396878c5116956001600160601b0360a01b96878254161790555191015583516000525260406000209033908254161790555193519451166040519485948561155c565b015190508d80610b02565b90601f19831691846000528b6000209260005b818110610be9575093600080516020611ac38339815191529c936102e19a999897969360019383600080516020611aa38339815191529810610bd0575b505050811b019055610b17565b015160001960f88460031b161c191690558d8080610bc3565b92938d600181928786015181550195019301610b86565b60405162461bcd60e51b815260048101849052601760248201527f5573657220616c726561647920726567697374657265640000000000000000006044820152606490fd5b3461049357610c5336611474565b610c5f6100fb336115ca565b81151580610e06575b610c71906117b3565b81600052600080516020611a63833981519152908160205260018060a01b039133836005604060002001541603610db057836102e1917fd144ad124f19f42d8e72c22759ffa0941569c00e89e82a60e302397e7f2c44b49560005280602052604060002094600686016000815560028701958655600587016001600160601b0360a01b93848254168255600080516020611aa38339815191526020526040600020858154169055602052604060002093888503610d62575b50505050506001840154925493600381015491610d55600460ff610d4c33611591565b541693016118d8565b9260405196879687611739565b6006938954865560018a015460018701558854600287015560038a01546003870155610d9460048b01600488016117ff565b6005860192541690825416179055549101558580808080610d29565b60405162461bcd60e51b815260206004820152602860248201527f43616c6c657220646f65736e27742063617272792061205375737577617461726044820152676920546f6b656e2160c01b6064820152608490fd5b50600080516020611a8383398151915254821115610c68565b3461049357600036600319011261049357610e3c6100fb336115ca565b600080516020611a83833981519152546000805b82811061106f575b50610e63901561198d565b60018082018092116103f45760405191610e7c836114a6565b82526020918281016000815260408201906000825260608301916000835260405194610ea7866114de565b600086526080850195865260a085019333855260c086019260008452610ecc3361165c565b8651600052600080516020611a638339815191528952604060002094875186555183860155516002850155516003840155600483019086519081519167ffffffffffffffff83116103de57610f2b83610f2586546116ab565b866116e5565b8990601f8411600114610fe557928080600080516020611ac38339815191529c9794600080516020611aa3833981519152999794600697600094610fda575b50501b916000199060031b1c19161790555b600583019560018060a01b03905116956001600160601b0360a01b96878254161790555191015583516000525260406000209033908254161790556102e160ff610fc533611591565b5416915192519160405193849333918561155c565b015192508e80610f6a565b90601f93929319831691856000528b6000209260005b81811061105a575092600695928592600080516020611ac38339815191529e9996600080516020611aa38339815191529b999610611041575b505050811b019055610f7c565b015160001960f88460031b161c191690558c8080611034565b82840151855593860193928d01928d01610ffb565b60018082018083116103f4576000908152600080516020611a6383398151915260205260409020600501546001600160a01b031633146110b857506110b39061197e565b610e50565b9150610e639050610e58565b34610493576000366003190112610493576110dd611a0f565b506110e6611a0f565b50600080600080516020611a8383398151915254905b8181106112e0575061110d82611a36565b9161111b60405193846114fa565b80835261112a601f1991611a36565b019160209236848301376000805b8381106112845750506111496119f0565b916000905b8082106111f7575b505060ff61116333611591565b5416604051916111728361148a565b8252838201928352604082019081526040519284845260c0840192519260a08686015283518091528560e0860194019060005b8181106111e35750505090839460ff925190815160408701528101516060860152604060018060a01b03910151166080850152511660a08301520390f35b8251865294870194918701916001016111a5565b60018201918281116103f4576000838152600080516020611aa3833981519152875260409020546001600160a01b03939084163314611242575061123c91925061197e565b9061114e565b6112709250808652600052600080516020611a63833981519152865260066040600020015486860152611603565b90549060031b1c1660408301528380611156565b61128d81611603565b90543360039290921b1c6001600160a01b0316146112b4575b6112af9061197e565b611138565b90600182018083116103f457816112d8916112d26112af9487611a4e565b5261197e565b9190506112a6565b6112e981611603565b90543360039290921b1c6001600160a01b031614611310575b61130b9061197e565b6110fc565b9161131d61130b9161197e565b929050611302565b3461049357600036600319011261049357600080516020611a838339815191525461134f81611a36565b9061135d60405192836114fa565b808252601f1961136c82611a36565b0160005b81811061145d57505060005b8181106113e05760408051602080825285518183018190528187019383019160005b8281106113ab5784840385f35b855180518552808301516001600160a01b0316858401526040908101511515908501529481019460609093019260010161139e565b60018101908181116103f45781611458926000526020600080516020611aa3833981519152815260018060a01b0390816040600020541615159161142385611603565b905490604051956114338761148a565b865260031b1c1690830152604082015261144d8286611a4e565b526109148185611a4e565b61137c565b6020906114686119f0565b82828701015201611370565b6040906003190112610493576004359060243590565b6060810190811067ffffffffffffffff8211176103de57604052565b60e0810190811067ffffffffffffffff8211176103de57604052565b6040810190811067ffffffffffffffff8211176103de57604052565b6020810190811067ffffffffffffffff8211176103de57604052565b90601f8019910116810190811067ffffffffffffffff8211176103de57604052565b919082519283825260005b848110611548575050826000602080949584010152601f8019910116010190565b602081830181015184830182015201611527565b92949361157b60609360ff93865260806020870152608086019061151c565b6001600160a01b03909616604085015216910152565b6001600160a01b031660009081527f202e1867cade063e32a2eb339a246f853a1a233314949ba8d9e2ac766f6ed8496020526040902090565b6001600160a01b031660009081527f202e1867cade063e32a2eb339a246f853a1a233314949ba8d9e2ac766f6ed8466020526040902090565b600080516020611a838339815191528054821015611646576000527f5b627e705e277f4cd69351cfcf0179f3685951408382038c266c60748db0394a0190600090565b634e487b7160e01b600052603260045260246000fd5b600080516020611a838339815191528054680100000000000000008110156103de5761168d91600182019055611603565b819291549060031b9160018060a01b03809116831b921b1916179055565b90600182811c921680156116db575b60208310146116c557565b634e487b7160e01b600052602260045260246000fd5b91607f16916116ba565b90601f81116116f357505050565b600091825260208220906020601f850160051c8301941061172f575b601f0160051c01915b82811061172457505050565b818155600101611718565b909250829061170f565b929360c09460ff9361176b98979386526020860152604085015260608401521660808201528160a0820152019061151c565b90565b1561177557565b60405162461bcd60e51b8152602060048201526016602482015275155cd95c881a5cc81b9bdd081c9959da5cdd195c995960521b6044820152606490fd5b156117ba57565b60405162461bcd60e51b815260206004820152601d60248201527f546865205375737577617461726920646f6573206e6f742065786973740000006044820152606490fd5b908082146118d45761181181546116ab565b9067ffffffffffffffff82116103de57819061183182610f2586546116ab565b600090601f83116001146118685760009261185d575b50508160011b916000199060031b1c1916179055565b015490503880611847565b81526020808220858352818320935090601f1985169083905b8282106118bb5750509084600195949392106118a2575b505050811b019055565b015460001960f88460031b161c19169055388080611898565b8495819295850154815560018091019601940190611881565b5050565b90604051918260008254926118ec846116ab565b90818452600194858116908160001461195b5750600114611918575b5050611916925003836114fa565b565b9093915060005260209081600020936000915b81831061194357505061191693508201013880611908565b8554888401850152948501948794509183019161192b565b91505061191694506020925060ff191682840152151560051b8201013880611908565b60001981146103f45760010190565b1561199457565b60405162461bcd60e51b815260206004820152602e60248201527f43616c6c657220697320616c7265616479206361727279696e6720612053757360448201526d7577617461726920546f6b656e2160901b6064820152608490fd5b604051906119fd8261148a565b60006040838281528260208201520152565b60405190611a1c8261148a565b600060408360608152611a2d6119f0565b60208201520152565b67ffffffffffffffff81116103de5760051b60200190565b80518210156116465760209160051b01019056fe202e1867cade063e32a2eb339a246f853a1a233314949ba8d9e2ac766f6ed848202e1867cade063e32a2eb339a246f853a1a233314949ba8d9e2ac766f6ed847202e1867cade063e32a2eb339a246f853a1a233314949ba8d9e2ac766f6ed84b2ca41edd488e9162ca27cfff639cbe72d7b237e97090033ebb9212a7ec2de82da2646970667358221220ec28bbc51ccb3229c52625518d2d23b585c5590f68b69d337bab9bc7e46688c964736f6c63430008120033","opcodes":"PUSH1 0x80 DUP1 PUSH1 0x40 MSTORE CALLVALUE PUSH2 0x16 JUMPI PUSH2 0x1B18 SWAP1 DUP2 PUSH2 0x1C DUP3 CODECOPY RETURN JUMPDEST PUSH1 0x0 DUP1 REVERT INVALID PUSH1 0x80 PUSH1 0x40 MSTORE PUSH1 0x4 CALLDATASIZE LT ISZERO PUSH2 0x12 JUMPI PUSH1 0x0 DUP1 REVERT JUMPDEST PUSH1 0x0 CALLDATALOAD PUSH1 0xE0 SHR DUP1 PUSH4 0x2A9664C7 EQ PUSH2 0x1325 JUMPI DUP1 PUSH4 0x378AA701 EQ PUSH2 0x10C4 JUMPI DUP1 PUSH4 0x7298C3C3 EQ PUSH2 0xE1F JUMPI DUP1 PUSH4 0xA6CD6523 EQ PUSH2 0xC45 JUMPI DUP1 PUSH4 0xADC65C38 EQ PUSH2 0x9A0 JUMPI DUP1 PUSH4 0xC5B9C141 EQ PUSH2 0x7DA JUMPI DUP1 PUSH4 0xCDA94EB4 EQ PUSH2 0x498 JUMPI PUSH4 0xEF410CF9 EQ PUSH2 0x74 JUMPI PUSH1 0x0 DUP1 REVERT JUMPDEST CALLVALUE PUSH2 0x493 JUMPI PUSH1 0x80 CALLDATASIZE PUSH1 0x3 NOT ADD SLT PUSH2 0x493 JUMPI PUSH1 0x64 CALLDATALOAD PUSH8 0xFFFFFFFFFFFFFFFF DUP2 GT PUSH2 0x493 JUMPI CALLDATASIZE PUSH1 0x23 DUP3 ADD SLT ISZERO PUSH2 0x493 JUMPI DUP1 PUSH1 0x4 ADD CALLDATALOAD PUSH8 0xFFFFFFFFFFFFFFFF DUP2 GT PUSH2 0x3DE JUMPI PUSH1 0x40 MLOAD SWAP2 PUSH2 0xCE PUSH1 0x1F DUP4 ADD PUSH1 0x1F NOT AND PUSH1 0x20 ADD DUP5 PUSH2 0x14FA JUMP JUMPDEST DUP2 DUP4 MSTORE CALLDATASIZE PUSH1 0x24 DUP4 DUP4 ADD ADD GT PUSH2 0x493 JUMPI DUP2 PUSH1 0x0 SWAP3 PUSH1 0x24 PUSH1 0x20 SWAP4 ADD DUP4 DUP7 ADD CALLDATACOPY DUP4 ADD ADD MSTORE PUSH2 0x103 PUSH2 0xFB CALLER PUSH2 0x15CA JUMP JUMPDEST SLOAD ISZERO ISZERO PUSH2 0x176E JUMP JUMPDEST PUSH1 0x4 CALLDATALOAD ISZERO ISZERO DUP1 PUSH2 0x478 JUMPI JUMPDEST PUSH2 0x117 SWAP1 PUSH2 0x17B3 JUMP JUMPDEST PUSH1 0x4 CALLDATALOAD PUSH1 0x0 NOT DUP2 ADD SWAP1 DUP2 GT PUSH2 0x3F4 JUMPI PUSH2 0x12F SWAP1 PUSH2 0x1603 JUMP JUMPDEST SWAP1 SLOAD PUSH1 0x3 SWAP2 SWAP1 SWAP2 SHL SHR PUSH1 0x1 PUSH1 0x1 PUSH1 0xA0 SHL SUB AND CALLER EQ DUP1 PUSH2 0x445 JUMPI JUMPDEST ISZERO PUSH2 0x40A JUMPI PUSH1 0x4 CALLDATALOAD PUSH1 0x0 MSTORE PUSH1 0x0 DUP1 MLOAD PUSH1 0x20 PUSH2 0x1A63 DUP4 CODECOPY DUP2 MLOAD SWAP2 MSTORE PUSH1 0x20 MSTORE PUSH1 0x40 PUSH1 0x0 KECCAK256 SWAP1 PUSH2 0x12D PUSH1 0x40 MLOAD PUSH1 0x20 DUP2 ADD SWAP1 PUSH2 0x1B5 DUP2 PUSH2 0x1A7 PUSH1 0x4 CALLDATALOAD CALLER TIMESTAMP DUP8 SWAP2 PUSH1 0x54 SWAP4 SWAP2 DUP4 MSTORE PUSH1 0x1 PUSH1 0x1 PUSH1 0x60 SHL SUB NOT SWAP1 PUSH1 0x60 SHL AND PUSH1 0x20 DUP4 ADD MSTORE PUSH1 0x34 DUP3 ADD MSTORE ADD SWAP1 JUMP JUMPDEST SUB PUSH1 0x1F NOT DUP2 ADD DUP4 MSTORE DUP3 PUSH2 0x14FA JUMP JUMPDEST MLOAD SWAP1 KECCAK256 MOD PUSH2 0x12C SWAP1 DUP2 ADD DUP1 SWAP2 GT PUSH2 0x3F4 JUMPI PUSH1 0x6 DUP4 ADD SSTORE PUSH1 0x24 CALLDATALOAD PUSH1 0x1 DUP4 ADD SSTORE PUSH1 0x24 CALLDATALOAD PUSH1 0x2 DUP4 ADD SSTORE PUSH1 0x44 CALLDATALOAD PUSH1 0x3 DUP4 ADD SSTORE DUP1 MLOAD SWAP2 PUSH8 0xFFFFFFFFFFFFFFFF DUP4 GT PUSH2 0x3DE JUMPI PUSH2 0x20F DUP4 PUSH2 0x206 PUSH1 0x4 DUP5 ADD SLOAD PUSH2 0x16AB JUMP JUMPDEST PUSH1 0x4 DUP5 ADD PUSH2 0x16E5 JUMP JUMPDEST PUSH1 0x20 PUSH1 0x1F DUP5 GT PUSH1 0x1 EQ PUSH2 0x350 JUMPI SWAP3 DUP1 PUSH32 0xD144AD124F19F42D8E72C22759FFA0941569C00E89E82A60E302397E7F2C44B4 SWAP5 PUSH1 0x0 SWAP2 PUSH2 0x345 JUMPI JUMPDEST POP DUP2 PUSH1 0x1 SHL SWAP2 PUSH1 0x0 NOT SWAP1 PUSH1 0x3 SHL SHR NOT AND OR PUSH1 0x4 DUP3 ADD SSTORE JUMPDEST PUSH1 0x5 DUP2 ADD PUSH1 0x1 PUSH1 0x1 PUSH1 0x60 SHL SUB PUSH1 0xA0 SHL DUP1 DUP3 SLOAD AND DUP3 SSTORE PUSH1 0x4 CALLDATALOAD PUSH1 0x0 MSTORE PUSH1 0x0 DUP1 MLOAD PUSH1 0x20 PUSH2 0x1AA3 DUP4 CODECOPY DUP2 MLOAD SWAP2 MSTORE PUSH1 0x20 MSTORE PUSH1 0x40 PUSH1 0x0 KECCAK256 DUP2 DUP2 SLOAD AND SWAP1 SSTORE PUSH1 0x0 DUP1 MLOAD PUSH1 0x20 PUSH2 0x1A63 DUP4 CODECOPY DUP2 MLOAD SWAP2 MSTORE PUSH1 0x20 MSTORE PUSH1 0x40 PUSH1 0x0 KECCAK256 SWAP3 DUP1 DUP5 SUB PUSH2 0x2E6 JUMPI JUMPDEST DUP6 DUP6 PUSH1 0xFF PUSH2 0x2C4 CALLER PUSH2 0x1591 JUMP JUMPDEST SLOAD AND PUSH2 0x2E1 PUSH1 0x40 MLOAD SWAP3 DUP4 SWAP3 PUSH1 0x4 CALLDATALOAD PUSH1 0x44 CALLDATALOAD PUSH1 0x24 CALLDATALOAD PUSH1 0x24 CALLDATALOAD DUP8 PUSH2 0x1739 JUMP JUMPDEST SUB SWAP1 LOG1 STOP JUMPDEST PUSH1 0x6 SWAP3 DUP4 SWAP3 DUP3 SLOAD DUP7 SSTORE PUSH1 0x1 DUP4 ADD SLOAD PUSH1 0x1 DUP8 ADD SSTORE PUSH1 0x2 DUP4 ADD SLOAD PUSH1 0x2 DUP8 ADD SSTORE PUSH1 0x3 DUP4 ADD SLOAD PUSH1 0x3 DUP8 ADD SSTORE PUSH2 0x31D PUSH1 0x4 DUP5 ADD PUSH1 0x4 DUP9 ADD PUSH2 0x17FF JUMP JUMPDEST SWAP1 SLOAD PUSH1 0x5 DUP7 ADD DUP1 SLOAD SWAP1 SWAP3 AND PUSH1 0x1 PUSH1 0x1 PUSH1 0xA0 SHL SUB SWAP2 SWAP1 SWAP2 AND OR SWAP1 SSTORE ADD SLOAD SWAP2 ADD SSTORE CODESIZE DUP1 DUP1 DUP1 PUSH2 0x2B7 JUMP JUMPDEST SWAP1 POP DUP4 ADD MLOAD CODESIZE PUSH2 0x248 JUMP JUMPDEST PUSH1 0x4 DUP3 ADD PUSH1 0x0 MSTORE PUSH1 0x20 PUSH1 0x0 KECCAK256 SWAP1 PUSH1 0x0 JUMPDEST PUSH1 0x1F NOT DUP7 AND DUP2 LT PUSH2 0x3C6 JUMPI POP SWAP4 PUSH1 0x1 SWAP2 PUSH32 0xD144AD124F19F42D8E72C22759FFA0941569C00E89E82A60E302397E7F2C44B4 SWAP6 DUP3 PUSH1 0x1F NOT DUP2 AND LT PUSH2 0x3AD JUMPI JUMPDEST POP POP DUP2 SHL ADD PUSH1 0x4 DUP3 ADD SSTORE PUSH2 0x25F JUMP JUMPDEST DUP6 ADD MLOAD PUSH1 0x0 NOT PUSH1 0xF8 DUP5 PUSH1 0x3 SHL AND SHR NOT AND SWAP1 SSTORE CODESIZE DUP1 PUSH2 0x39E JUMP JUMPDEST SWAP1 SWAP2 PUSH1 0x20 PUSH1 0x1 DUP2 SWAP3 DUP6 DUP9 ADD MLOAD DUP2 SSTORE ADD SWAP4 ADD SWAP2 ADD PUSH2 0x360 JUMP JUMPDEST PUSH4 0x4E487B71 PUSH1 0xE0 SHL PUSH1 0x0 MSTORE PUSH1 0x41 PUSH1 0x4 MSTORE PUSH1 0x24 PUSH1 0x0 REVERT JUMPDEST PUSH4 0x4E487B71 PUSH1 0xE0 SHL PUSH1 0x0 MSTORE PUSH1 0x11 PUSH1 0x4 MSTORE PUSH1 0x24 PUSH1 0x0 REVERT JUMPDEST PUSH1 0x40 MLOAD PUSH3 0x461BCD PUSH1 0xE5 SHL DUP2 MSTORE PUSH1 0x20 PUSH1 0x4 DUP3 ADD MSTORE PUSH1 0x13 PUSH1 0x24 DUP3 ADD MSTORE PUSH19 0x21B0B63632B91034B9903737BA1037BBB732B9 PUSH1 0x69 SHL PUSH1 0x44 DUP3 ADD MSTORE PUSH1 0x64 SWAP1 REVERT JUMPDEST POP PUSH1 0x4 CALLDATALOAD PUSH1 0x0 SWAP1 DUP2 MSTORE PUSH1 0x0 DUP1 MLOAD PUSH1 0x20 PUSH2 0x1A63 DUP4 CODECOPY DUP2 MLOAD SWAP2 MSTORE PUSH1 0x20 MSTORE PUSH1 0x40 SWAP1 KECCAK256 PUSH1 0x5 ADD SLOAD PUSH1 0x1 PUSH1 0x1 PUSH1 0xA0 SHL SUB AND CALLER EQ PUSH2 0x149 JUMP JUMPDEST POP PUSH1 0x0 DUP1 MLOAD PUSH1 0x20 PUSH2 0x1A83 DUP4 CODECOPY DUP2 MLOAD SWAP2 MSTORE SLOAD PUSH1 0x4 CALLDATALOAD GT ISZERO PUSH2 0x10E JUMP JUMPDEST PUSH1 0x0 DUP1 REVERT JUMPDEST CALLVALUE PUSH2 0x493 JUMPI PUSH2 0x4A6 CALLDATASIZE PUSH2 0x1474 JUMP JUMPDEST PUSH2 0x4B2 PUSH2 0xFB CALLER PUSH2 0x15CA JUMP JUMPDEST DUP2 ISZERO ISZERO DUP1 PUSH2 0x7C1 JUMPI JUMPDEST PUSH2 0x4C4 SWAP1 PUSH2 0x17B3 JUMP JUMPDEST PUSH1 0x0 DUP1 MLOAD PUSH1 0x20 PUSH2 0x1A83 DUP4 CODECOPY DUP2 MLOAD SWAP2 MSTORE SLOAD SWAP1 PUSH1 0x0 DUP1 JUMPDEST DUP4 DUP2 LT PUSH2 0x768 JUMPI JUMPDEST POP PUSH2 0x4EE SWAP2 SWAP3 POP ISZERO PUSH2 0x198D JUMP JUMPDEST DUP2 PUSH1 0x0 MSTORE PUSH1 0x0 DUP1 MLOAD PUSH1 0x20 PUSH2 0x1A63 DUP4 CODECOPY DUP2 MLOAD SWAP2 MSTORE SWAP2 PUSH1 0x20 SWAP2 DUP4 DUP4 MSTORE PUSH1 0x1 DUP1 PUSH1 0xA0 SHL SUB DUP1 PUSH1 0x5 PUSH1 0x40 PUSH1 0x0 KECCAK256 ADD SLOAD AND PUSH2 0x723 JUMPI PUSH1 0x0 NOT DUP4 ADD SWAP5 DUP4 DUP7 GT PUSH2 0x3F4 JUMPI DUP2 PUSH2 0x535 DUP8 PUSH2 0x1603 JUMP JUMPDEST SWAP2 SWAP1 SLOAD CALLER SWAP3 PUSH1 0x3 SHL SHR AND EQ PUSH2 0x6C6 JUMPI DUP4 PUSH1 0x0 MSTORE DUP1 DUP6 MSTORE PUSH1 0x40 PUSH1 0x0 KECCAK256 SWAP2 PUSH2 0x12D PUSH1 0x40 MLOAD DUP8 DUP2 ADD SWAP1 PUSH2 0x589 DUP2 PUSH2 0x1A7 DUP11 CALLER TIMESTAMP DUP8 SWAP2 PUSH1 0x54 SWAP4 SWAP2 DUP4 MSTORE PUSH1 0x1 PUSH1 0x1 PUSH1 0x60 SHL SUB NOT SWAP1 PUSH1 0x60 SHL AND PUSH1 0x20 DUP4 ADD MSTORE PUSH1 0x34 DUP3 ADD MSTORE ADD SWAP1 JUMP JUMPDEST MLOAD SWAP1 KECCAK256 MOD SWAP2 PUSH2 0x12C SWAP3 DUP4 ADD DUP1 SWAP4 GT PUSH2 0x3F4 JUMPI PUSH32 0x5A050F3C76B2E5B15146CF18E5D9E162FB4E6C51D6D56165C477DCFC8E2C62D4 SWAP8 PUSH2 0x65F SWAP4 PUSH2 0x620 SWAP3 PUSH1 0x6 DUP8 ADD SWAP2 DUP3 SSTORE PUSH1 0x5 DUP8 ADD SWAP2 PUSH1 0x1 PUSH1 0x1 PUSH1 0x60 SHL SUB PUSH1 0xA0 SHL SWAP2 CALLER DUP4 DUP6 SLOAD AND OR DUP5 SSTORE DUP11 PUSH1 0x0 MSTORE PUSH1 0x0 DUP1 MLOAD PUSH1 0x20 PUSH2 0x1AA3 DUP4 CODECOPY DUP2 MLOAD SWAP2 MSTORE DUP13 MSTORE PUSH1 0x40 PUSH1 0x0 KECCAK256 CALLER DUP5 DUP3 SLOAD AND OR SWAP1 SSTORE DUP12 MSTORE PUSH1 0x40 PUSH1 0x0 KECCAK256 SWAP3 DUP9 DUP5 SUB PUSH2 0x675 JUMPI JUMPDEST POP POP POP POP PUSH2 0x1603 JUMP JUMPDEST SWAP1 SLOAD SWAP1 PUSH1 0x3 SHL SHR AND SWAP3 PUSH2 0x642 PUSH1 0x4 PUSH1 0xFF PUSH2 0x639 DUP8 PUSH2 0x1591 JUMP JUMPDEST SLOAD AND SWAP5 ADD PUSH2 0x18D8 JUMP JUMPDEST SWAP1 PUSH1 0x40 MLOAD SWAP7 DUP8 SWAP7 DUP8 MSTORE DUP7 ADD MSTORE PUSH1 0xC0 PUSH1 0x40 DUP7 ADD MSTORE PUSH1 0xC0 DUP6 ADD SWAP1 PUSH2 0x151C JUMP JUMPDEST SWAP2 CALLER PUSH1 0x60 DUP6 ADD MSTORE PUSH1 0x80 DUP5 ADD MSTORE PUSH1 0xA0 DUP4 ADD MSTORE SUB SWAP1 LOG1 STOP JUMPDEST PUSH1 0x6 SWAP3 DUP10 SLOAD DUP6 SSTORE PUSH1 0x1 DUP11 ADD SLOAD PUSH1 0x1 DUP7 ADD SSTORE PUSH1 0x2 DUP11 ADD SLOAD PUSH1 0x2 DUP7 ADD SSTORE PUSH1 0x3 DUP11 ADD SLOAD PUSH1 0x3 DUP7 ADD SSTORE PUSH2 0x6AA PUSH1 0x4 DUP12 ADD PUSH1 0x4 DUP8 ADD PUSH2 0x17FF JUMP JUMPDEST DUP8 PUSH1 0x5 DUP7 ADD SWAP3 SLOAD AND SWAP1 DUP3 SLOAD AND OR SWAP1 SSTORE SLOAD SWAP2 ADD SSTORE DUP10 DUP1 DUP1 DUP1 PUSH2 0x617 JUMP JUMPDEST PUSH1 0x40 MLOAD PUSH3 0x461BCD PUSH1 0xE5 SHL DUP2 MSTORE PUSH1 0x4 DUP2 ADD DUP7 SWAP1 MSTORE PUSH1 0x2F PUSH1 0x24 DUP3 ADD MSTORE PUSH32 0x546865206F776E65722063616E6E6F74206D6F766520686973206F776E206169 PUSH1 0x44 DUP3 ADD MSTORE PUSH15 0x6D6564205375737577617461726921 PUSH1 0x88 SHL PUSH1 0x64 DUP3 ADD MSTORE PUSH1 0x84 SWAP1 REVERT JUMPDEST PUSH1 0x40 MLOAD PUSH3 0x461BCD PUSH1 0xE5 SHL DUP2 MSTORE PUSH1 0x4 DUP2 ADD DUP6 SWAP1 MSTORE PUSH1 0x1E PUSH1 0x24 DUP3 ADD MSTORE PUSH32 0x5375737520697320616C7265616479206265696E672063617272696564210000 PUSH1 0x44 DUP3 ADD MSTORE PUSH1 0x64 SWAP1 REVERT JUMPDEST PUSH1 0x1 DUP1 DUP3 ADD DUP1 DUP4 GT PUSH2 0x3F4 JUMPI PUSH1 0x0 SWAP1 DUP2 MSTORE PUSH1 0x0 DUP1 MLOAD PUSH1 0x20 PUSH2 0x1A63 DUP4 CODECOPY DUP2 MLOAD SWAP2 MSTORE PUSH1 0x20 MSTORE PUSH1 0x40 SWAP1 KECCAK256 PUSH1 0x5 ADD SLOAD PUSH1 0x1 PUSH1 0x1 PUSH1 0xA0 SHL SUB AND CALLER EQ PUSH2 0x7B1 JUMPI POP PUSH2 0x7AC SWAP1 PUSH2 0x197E JUMP JUMPDEST PUSH2 0x4D9 JUMP JUMPDEST SWAP2 POP POP PUSH2 0x4EE SWAP2 SWAP3 POP DUP3 SWAP2 PUSH2 0x4E1 JUMP JUMPDEST POP PUSH1 0x0 DUP1 MLOAD PUSH1 0x20 PUSH2 0x1A83 DUP4 CODECOPY DUP2 MLOAD SWAP2 MSTORE SLOAD DUP3 GT ISZERO PUSH2 0x4BB JUMP JUMPDEST CALLVALUE PUSH2 0x493 JUMPI PUSH1 0x0 CALLDATASIZE PUSH1 0x3 NOT ADD SLT PUSH2 0x493 JUMPI PUSH1 0x0 DUP1 MLOAD PUSH1 0x20 PUSH2 0x1A83 DUP4 CODECOPY DUP2 MLOAD SWAP2 MSTORE SLOAD PUSH1 0x0 SWAP1 PUSH1 0x0 JUMPDEST DUP2 DUP2 LT PUSH2 0x948 JUMPI POP PUSH2 0x812 DUP3 PUSH2 0x1A36 JUMP JUMPDEST SWAP2 PUSH2 0x820 PUSH1 0x40 MLOAD SWAP4 DUP5 PUSH2 0x14FA JUMP JUMPDEST DUP1 DUP4 MSTORE PUSH2 0x82F PUSH1 0x1F NOT SWAP2 PUSH2 0x1A36 JUMP JUMPDEST ADD PUSH1 0x0 JUMPDEST DUP2 DUP2 LT PUSH2 0x923 JUMPI POP POP PUSH1 0x0 DUP1 JUMPDEST DUP3 DUP2 LT PUSH2 0x897 JUMPI PUSH1 0x40 DUP1 MLOAD PUSH1 0x20 DUP1 DUP3 MSTORE DUP7 MLOAD DUP2 DUP4 ADD DUP2 SWAP1 MSTORE DUP2 DUP9 ADD SWAP4 DUP4 ADD SWAP2 PUSH1 0x0 JUMPDEST DUP3 DUP2 LT PUSH2 0x86F JUMPI DUP5 DUP5 SUB DUP6 RETURN JUMPDEST DUP6 MLOAD DUP1 MLOAD DUP6 MSTORE DUP3 ADD MLOAD PUSH1 0x1 PUSH1 0x1 PUSH1 0xA0 SHL SUB AND DUP5 DUP4 ADD MSTORE SWAP5 DUP2 ADD SWAP5 PUSH1 0x40 SWAP1 SWAP4 ADD SWAP3 PUSH1 0x1 ADD PUSH2 0x862 JUMP JUMPDEST PUSH1 0x1 DUP2 ADD DUP1 DUP3 GT PUSH2 0x3F4 JUMPI PUSH1 0x0 DUP2 DUP2 MSTORE PUSH1 0x0 DUP1 MLOAD PUSH1 0x20 PUSH2 0x1AA3 DUP4 CODECOPY DUP2 MLOAD SWAP2 MSTORE PUSH1 0x20 SWAP1 DUP2 MSTORE PUSH1 0x40 SWAP1 SWAP2 KECCAK256 SLOAD PUSH1 0x1 PUSH1 0x1 PUSH1 0xA0 SHL SUB AND SWAP1 DUP2 PUSH2 0x8E2 JUMPI JUMPDEST POP POP POP PUSH2 0x8DD SWAP1 PUSH2 0x197E JUMP JUMPDEST PUSH2 0x840 JUMP JUMPDEST SWAP2 PUSH2 0x8DD SWAP4 SWAP5 SWAP2 PUSH2 0x91A SWAP4 PUSH1 0x40 MLOAD SWAP3 PUSH2 0x8FA DUP5 PUSH2 0x14C2 JUMP JUMPDEST DUP4 MSTORE DUP3 ADD MSTORE PUSH2 0x909 DUP3 DUP9 PUSH2 0x1A4E JUMP JUMPDEST MSTORE PUSH2 0x914 DUP2 DUP8 PUSH2 0x1A4E JUMP JUMPDEST POP PUSH2 0x197E JUMP JUMPDEST SWAP2 SWAP1 DUP6 DUP1 PUSH2 0x8D1 JUMP JUMPDEST PUSH1 0x20 SWAP1 PUSH1 0x40 MLOAD PUSH2 0x932 DUP2 PUSH2 0x14C2 JUMP JUMPDEST PUSH1 0x0 DUP2 MSTORE DUP3 PUSH1 0x0 DUP2 DUP4 ADD MSTORE DUP3 DUP8 ADD ADD MSTORE ADD PUSH2 0x833 JUMP JUMPDEST PUSH1 0x1 DUP2 ADD DUP1 DUP3 GT PUSH2 0x3F4 JUMPI PUSH1 0x0 SWAP1 DUP2 MSTORE PUSH1 0x0 DUP1 MLOAD PUSH1 0x20 PUSH2 0x1AA3 DUP4 CODECOPY DUP2 MLOAD SWAP2 MSTORE PUSH1 0x20 MSTORE PUSH1 0x40 SWAP1 KECCAK256 SLOAD PUSH1 0x1 PUSH1 0x1 PUSH1 0xA0 SHL SUB AND PUSH2 0x98B JUMPI JUMPDEST PUSH2 0x986 SWAP1 PUSH2 0x197E JUMP JUMPDEST PUSH2 0x801 JUMP JUMPDEST SWAP2 PUSH2 0x998 PUSH2 0x986 SWAP2 PUSH2 0x197E JUMP JUMPDEST SWAP3 SWAP1 POP PUSH2 0x97D JUMP JUMPDEST CALLVALUE PUSH2 0x493 JUMPI PUSH1 0x20 DUP1 PUSH1 0x3 NOT CALLDATASIZE ADD SLT PUSH2 0x493 JUMPI PUSH1 0x4 CALLDATALOAD PUSH1 0xFF DUP2 AND DUP1 DUP3 SUB PUSH2 0x493 JUMPI PUSH2 0x9C9 CALLER PUSH2 0x15CA JUMP JUMPDEST SLOAD PUSH2 0xC00 JUMPI PUSH1 0x0 DUP1 MLOAD PUSH1 0x20 PUSH2 0x1A83 DUP4 CODECOPY DUP2 MLOAD SWAP2 MSTORE SLOAD SWAP2 PUSH1 0x1 DUP4 ADD DUP1 SWAP4 GT PUSH2 0x3F4 JUMPI PUSH1 0x40 MLOAD SWAP3 PUSH2 0x9F7 DUP5 PUSH2 0x14A6 JUMP JUMPDEST DUP4 MSTORE DUP4 DUP4 ADD SWAP2 PUSH1 0x0 DUP4 MSTORE PUSH1 0x40 DUP5 ADD SWAP4 PUSH1 0x0 DUP6 MSTORE PUSH1 0x60 DUP2 ADD SWAP4 PUSH1 0x0 DUP6 MSTORE PUSH1 0x40 MLOAD SWAP5 PUSH2 0xA20 DUP7 PUSH2 0x14DE JUMP JUMPDEST PUSH1 0x0 DUP7 MSTORE PUSH1 0x80 DUP4 ADD SWAP6 DUP7 MSTORE PUSH1 0xA0 DUP4 ADD SWAP7 CALLER DUP9 MSTORE PUSH1 0xC0 DUP5 ADD SWAP5 PUSH1 0x0 DUP7 MSTORE PUSH1 0x1 PUSH2 0xA47 CALLER PUSH2 0x15CA JUMP JUMPDEST SSTORE PUSH2 0xA51 CALLER PUSH2 0x1591 JUMP JUMPDEST SWAP1 PUSH1 0xFF NOT DUP3 SLOAD AND OR SWAP1 SSTORE PUSH2 0xA64 CALLER PUSH2 0x165C JUMP JUMPDEST DUP4 MLOAD PUSH1 0x0 MSTORE PUSH1 0x0 DUP1 MLOAD PUSH1 0x20 PUSH2 0x1A63 DUP4 CODECOPY DUP2 MLOAD SWAP2 MSTORE DUP10 MSTORE PUSH1 0x40 PUSH1 0x0 KECCAK256 SWAP3 DUP5 MLOAD DUP5 SSTORE MLOAD PUSH1 0x1 DUP5 ADD SSTORE MLOAD PUSH1 0x2 DUP4 ADD SSTORE MLOAD PUSH1 0x3 DUP3 ADD SSTORE PUSH1 0x4 DUP2 ADD DUP6 MLOAD DUP1 MLOAD SWAP1 PUSH8 0xFFFFFFFFFFFFFFFF DUP3 GT PUSH2 0x3DE JUMPI PUSH2 0xAC2 DUP3 PUSH2 0xABC DUP6 SLOAD PUSH2 0x16AB JUMP JUMPDEST DUP6 PUSH2 0x16E5 JUMP JUMPDEST DUP10 SWAP1 PUSH1 0x1F DUP4 GT PUSH1 0x1 EQ PUSH2 0xB73 JUMPI SWAP3 DUP3 PUSH1 0x0 DUP1 MLOAD PUSH1 0x20 PUSH2 0x1AA3 DUP4 CODECOPY DUP2 MLOAD SWAP2 MSTORE SWAP4 PUSH1 0x0 DUP1 MLOAD PUSH1 0x20 PUSH2 0x1AC3 DUP4 CODECOPY DUP2 MLOAD SWAP2 MSTORE SWAP13 SWAP4 PUSH2 0x2E1 SWAP11 SWAP10 SWAP9 SWAP8 SWAP7 PUSH1 0x0 SWAP3 PUSH2 0xB68 JUMPI JUMPDEST POP POP DUP2 PUSH1 0x1 SHL SWAP2 PUSH1 0x0 NOT SWAP1 PUSH1 0x3 SHL SHR NOT AND OR SWAP1 SSTORE JUMPDEST PUSH1 0x5 DUP4 ADD SWAP3 PUSH1 0x6 PUSH1 0x1 DUP1 PUSH1 0xA0 SHL SUB SWAP7 DUP8 DUP13 MLOAD AND SWAP6 PUSH1 0x1 PUSH1 0x1 PUSH1 0x60 SHL SUB PUSH1 0xA0 SHL SWAP7 DUP8 DUP3 SLOAD AND OR SWAP1 SSTORE MLOAD SWAP2 ADD SSTORE DUP4 MLOAD PUSH1 0x0 MSTORE MSTORE PUSH1 0x40 PUSH1 0x0 KECCAK256 SWAP1 CALLER SWAP1 DUP3 SLOAD AND OR SWAP1 SSTORE MLOAD SWAP4 MLOAD SWAP5 MLOAD AND PUSH1 0x40 MLOAD SWAP5 DUP6 SWAP5 DUP6 PUSH2 0x155C JUMP JUMPDEST ADD MLOAD SWAP1 POP DUP14 DUP1 PUSH2 0xB02 JUMP JUMPDEST SWAP1 PUSH1 0x1F NOT DUP4 AND SWAP2 DUP5 PUSH1 0x0 MSTORE DUP12 PUSH1 0x0 KECCAK256 SWAP3 PUSH1 0x0 JUMPDEST DUP2 DUP2 LT PUSH2 0xBE9 JUMPI POP SWAP4 PUSH1 0x0 DUP1 MLOAD PUSH1 0x20 PUSH2 0x1AC3 DUP4 CODECOPY DUP2 MLOAD SWAP2 MSTORE SWAP13 SWAP4 PUSH2 0x2E1 SWAP11 SWAP10 SWAP9 SWAP8 SWAP7 SWAP4 PUSH1 0x1 SWAP4 DUP4 PUSH1 0x0 DUP1 MLOAD PUSH1 0x20 PUSH2 0x1AA3 DUP4 CODECOPY DUP2 MLOAD SWAP2 MSTORE SWAP9 LT PUSH2 0xBD0 JUMPI JUMPDEST POP POP POP DUP2 SHL ADD SWAP1 SSTORE PUSH2 0xB17 JUMP JUMPDEST ADD MLOAD PUSH1 0x0 NOT PUSH1 0xF8 DUP5 PUSH1 0x3 SHL AND SHR NOT AND SWAP1 SSTORE DUP14 DUP1 DUP1 PUSH2 0xBC3 JUMP JUMPDEST SWAP3 SWAP4 DUP14 PUSH1 0x1 DUP2 SWAP3 DUP8 DUP7 ADD MLOAD DUP2 SSTORE ADD SWAP6 ADD SWAP4 ADD PUSH2 0xB86 JUMP JUMPDEST PUSH1 0x40 MLOAD PUSH3 0x461BCD PUSH1 0xE5 SHL DUP2 MSTORE PUSH1 0x4 DUP2 ADD DUP5 SWAP1 MSTORE PUSH1 0x17 PUSH1 0x24 DUP3 ADD MSTORE PUSH32 0x5573657220616C72656164792072656769737465726564000000000000000000 PUSH1 0x44 DUP3 ADD MSTORE PUSH1 0x64 SWAP1 REVERT JUMPDEST CALLVALUE PUSH2 0x493 JUMPI PUSH2 0xC53 CALLDATASIZE PUSH2 0x1474 JUMP JUMPDEST PUSH2 0xC5F PUSH2 0xFB CALLER PUSH2 0x15CA JUMP JUMPDEST DUP2 ISZERO ISZERO DUP1 PUSH2 0xE06 JUMPI JUMPDEST PUSH2 0xC71 SWAP1 PUSH2 0x17B3 JUMP JUMPDEST DUP2 PUSH1 0x0 MSTORE PUSH1 0x0 DUP1 MLOAD PUSH1 0x20 PUSH2 0x1A63 DUP4 CODECOPY DUP2 MLOAD SWAP2 MSTORE SWAP1 DUP2 PUSH1 0x20 MSTORE PUSH1 0x1 DUP1 PUSH1 0xA0 SHL SUB SWAP2 CALLER DUP4 PUSH1 0x5 PUSH1 0x40 PUSH1 0x0 KECCAK256 ADD SLOAD AND SUB PUSH2 0xDB0 JUMPI DUP4 PUSH2 0x2E1 SWAP2 PUSH32 0xD144AD124F19F42D8E72C22759FFA0941569C00E89E82A60E302397E7F2C44B4 SWAP6 PUSH1 0x0 MSTORE DUP1 PUSH1 0x20 MSTORE PUSH1 0x40 PUSH1 0x0 KECCAK256 SWAP5 PUSH1 0x6 DUP7 ADD PUSH1 0x0 DUP2 SSTORE PUSH1 0x2 DUP8 ADD SWAP6 DUP7 SSTORE PUSH1 0x5 DUP8 ADD PUSH1 0x1 PUSH1 0x1 PUSH1 0x60 SHL SUB PUSH1 0xA0 SHL SWAP4 DUP5 DUP3 SLOAD AND DUP3 SSTORE PUSH1 0x0 DUP1 MLOAD PUSH1 0x20 PUSH2 0x1AA3 DUP4 CODECOPY DUP2 MLOAD SWAP2 MSTORE PUSH1 0x20 MSTORE PUSH1 0x40 PUSH1 0x0 KECCAK256 DUP6 DUP2 SLOAD AND SWAP1 SSTORE PUSH1 0x20 MSTORE PUSH1 0x40 PUSH1 0x0 KECCAK256 SWAP4 DUP9 DUP6 SUB PUSH2 0xD62 JUMPI JUMPDEST POP POP POP POP POP PUSH1 0x1 DUP5 ADD SLOAD SWAP3 SLOAD SWAP4 PUSH1 0x3 DUP2 ADD SLOAD SWAP2 PUSH2 0xD55 PUSH1 0x4 PUSH1 0xFF PUSH2 0xD4C CALLER PUSH2 0x1591 JUMP JUMPDEST SLOAD AND SWAP4 ADD PUSH2 0x18D8 JUMP JUMPDEST SWAP3 PUSH1 0x40 MLOAD SWAP7 DUP8 SWAP7 DUP8 PUSH2 0x1739 JUMP JUMPDEST PUSH1 0x6 SWAP4 DUP10 SLOAD DUP7 SSTORE PUSH1 0x1 DUP11 ADD SLOAD PUSH1 0x1 DUP8 ADD SSTORE DUP9 SLOAD PUSH1 0x2 DUP8 ADD SSTORE PUSH1 0x3 DUP11 ADD SLOAD PUSH1 0x3 DUP8 ADD SSTORE PUSH2 0xD94 PUSH1 0x4 DUP12 ADD PUSH1 0x4 DUP9 ADD PUSH2 0x17FF JUMP JUMPDEST PUSH1 0x5 DUP7 ADD SWAP3 SLOAD AND SWAP1 DUP3 SLOAD AND OR SWAP1 SSTORE SLOAD SWAP2 ADD SSTORE DUP6 DUP1 DUP1 DUP1 DUP1 PUSH2 0xD29 JUMP JUMPDEST PUSH1 0x40 MLOAD PUSH3 0x461BCD PUSH1 0xE5 SHL DUP2 MSTORE PUSH1 0x20 PUSH1 0x4 DUP3 ADD MSTORE PUSH1 0x28 PUSH1 0x24 DUP3 ADD MSTORE PUSH32 0x43616C6C657220646F65736E2774206361727279206120537573757761746172 PUSH1 0x44 DUP3 ADD MSTORE PUSH8 0x6920546F6B656E21 PUSH1 0xC0 SHL PUSH1 0x64 DUP3 ADD MSTORE PUSH1 0x84 SWAP1 REVERT JUMPDEST POP PUSH1 0x0 DUP1 MLOAD PUSH1 0x20 PUSH2 0x1A83 DUP4 CODECOPY DUP2 MLOAD SWAP2 MSTORE SLOAD DUP3 GT ISZERO PUSH2 0xC68 JUMP JUMPDEST CALLVALUE PUSH2 0x493 JUMPI PUSH1 0x0 CALLDATASIZE PUSH1 0x3 NOT ADD SLT PUSH2 0x493 JUMPI PUSH2 0xE3C PUSH2 0xFB CALLER PUSH2 0x15CA JUMP JUMPDEST PUSH1 0x0 DUP1 MLOAD PUSH1 0x20 PUSH2 0x1A83 DUP4 CODECOPY DUP2 MLOAD SWAP2 MSTORE SLOAD PUSH1 0x0 DUP1 JUMPDEST DUP3 DUP2 LT PUSH2 0x106F JUMPI JUMPDEST POP PUSH2 0xE63 SWAP1 ISZERO PUSH2 0x198D JUMP JUMPDEST PUSH1 0x1 DUP1 DUP3 ADD DUP1 SWAP3 GT PUSH2 0x3F4 JUMPI PUSH1 0x40 MLOAD SWAP2 PUSH2 0xE7C DUP4 PUSH2 0x14A6 JUMP JUMPDEST DUP3 MSTORE PUSH1 0x20 SWAP2 DUP3 DUP2 ADD PUSH1 0x0 DUP2 MSTORE PUSH1 0x40 DUP3 ADD SWAP1 PUSH1 0x0 DUP3 MSTORE PUSH1 0x60 DUP4 ADD SWAP2 PUSH1 0x0 DUP4 MSTORE PUSH1 0x40 MLOAD SWAP5 PUSH2 0xEA7 DUP7 PUSH2 0x14DE JUMP JUMPDEST PUSH1 0x0 DUP7 MSTORE PUSH1 0x80 DUP6 ADD SWAP6 DUP7 MSTORE PUSH1 0xA0 DUP6 ADD SWAP4 CALLER DUP6 MSTORE PUSH1 0xC0 DUP7 ADD SWAP3 PUSH1 0x0 DUP5 MSTORE PUSH2 0xECC CALLER PUSH2 0x165C JUMP JUMPDEST DUP7 MLOAD PUSH1 0x0 MSTORE PUSH1 0x0 DUP1 MLOAD PUSH1 0x20 PUSH2 0x1A63 DUP4 CODECOPY DUP2 MLOAD SWAP2 MSTORE DUP10 MSTORE PUSH1 0x40 PUSH1 0x0 KECCAK256 SWAP5 DUP8 MLOAD DUP7 SSTORE MLOAD DUP4 DUP7 ADD SSTORE MLOAD PUSH1 0x2 DUP6 ADD SSTORE MLOAD PUSH1 0x3 DUP5 ADD SSTORE PUSH1 0x4 DUP4 ADD SWAP1 DUP7 MLOAD SWAP1 DUP2 MLOAD SWAP2 PUSH8 0xFFFFFFFFFFFFFFFF DUP4 GT PUSH2 0x3DE JUMPI PUSH2 0xF2B DUP4 PUSH2 0xF25 DUP7 SLOAD PUSH2 0x16AB JUMP JUMPDEST DUP7 PUSH2 0x16E5 JUMP JUMPDEST DUP10 SWAP1 PUSH1 0x1F DUP5 GT PUSH1 0x1 EQ PUSH2 0xFE5 JUMPI SWAP3 DUP1 DUP1 PUSH1 0x0 DUP1 MLOAD PUSH1 0x20 PUSH2 0x1AC3 DUP4 CODECOPY DUP2 MLOAD SWAP2 MSTORE SWAP13 SWAP8 SWAP5 PUSH1 0x0 DUP1 MLOAD PUSH1 0x20 PUSH2 0x1AA3 DUP4 CODECOPY DUP2 MLOAD SWAP2 MSTORE SWAP10 SWAP8 SWAP5 PUSH1 0x6 SWAP8 PUSH1 0x0 SWAP5 PUSH2 0xFDA JUMPI JUMPDEST POP POP SHL SWAP2 PUSH1 0x0 NOT SWAP1 PUSH1 0x3 SHL SHR NOT AND OR SWAP1 SSTORE JUMPDEST PUSH1 0x5 DUP4 ADD SWAP6 PUSH1 0x1 DUP1 PUSH1 0xA0 SHL SUB SWAP1 MLOAD AND SWAP6 PUSH1 0x1 PUSH1 0x1 PUSH1 0x60 SHL SUB PUSH1 0xA0 SHL SWAP7 DUP8 DUP3 SLOAD AND OR SWAP1 SSTORE MLOAD SWAP2 ADD SSTORE DUP4 MLOAD PUSH1 0x0 MSTORE MSTORE PUSH1 0x40 PUSH1 0x0 KECCAK256 SWAP1 CALLER SWAP1 DUP3 SLOAD AND OR SWAP1 SSTORE PUSH2 0x2E1 PUSH1 0xFF PUSH2 0xFC5 CALLER PUSH2 0x1591 JUMP JUMPDEST SLOAD AND SWAP2 MLOAD SWAP3 MLOAD SWAP2 PUSH1 0x40 MLOAD SWAP4 DUP5 SWAP4 CALLER SWAP2 DUP6 PUSH2 0x155C JUMP JUMPDEST ADD MLOAD SWAP3 POP DUP15 DUP1 PUSH2 0xF6A JUMP JUMPDEST SWAP1 PUSH1 0x1F SWAP4 SWAP3 SWAP4 NOT DUP4 AND SWAP2 DUP6 PUSH1 0x0 MSTORE DUP12 PUSH1 0x0 KECCAK256 SWAP3 PUSH1 0x0 JUMPDEST DUP2 DUP2 LT PUSH2 0x105A JUMPI POP SWAP3 PUSH1 0x6 SWAP6 SWAP3 DUP6 SWAP3 PUSH1 0x0 DUP1 MLOAD PUSH1 0x20 PUSH2 0x1AC3 DUP4 CODECOPY DUP2 MLOAD SWAP2 MSTORE SWAP15 SWAP10 SWAP7 PUSH1 0x0 DUP1 MLOAD PUSH1 0x20 PUSH2 0x1AA3 DUP4 CODECOPY DUP2 MLOAD SWAP2 MSTORE SWAP12 SWAP10 SWAP7 LT PUSH2 0x1041 JUMPI JUMPDEST POP POP POP DUP2 SHL ADD SWAP1 SSTORE PUSH2 0xF7C JUMP JUMPDEST ADD MLOAD PUSH1 0x0 NOT PUSH1 0xF8 DUP5 PUSH1 0x3 SHL AND SHR NOT AND SWAP1 SSTORE DUP13 DUP1 DUP1 PUSH2 0x1034 JUMP JUMPDEST DUP3 DUP5 ADD MLOAD DUP6 SSTORE SWAP4 DUP7 ADD SWAP4 SWAP3 DUP14 ADD SWAP3 DUP14 ADD PUSH2 0xFFB JUMP JUMPDEST PUSH1 0x1 DUP1 DUP3 ADD DUP1 DUP4 GT PUSH2 0x3F4 JUMPI PUSH1 0x0 SWAP1 DUP2 MSTORE PUSH1 0x0 DUP1 MLOAD PUSH1 0x20 PUSH2 0x1A63 DUP4 CODECOPY DUP2 MLOAD SWAP2 MSTORE PUSH1 0x20 MSTORE PUSH1 0x40 SWAP1 KECCAK256 PUSH1 0x5 ADD SLOAD PUSH1 0x1 PUSH1 0x1 PUSH1 0xA0 SHL SUB AND CALLER EQ PUSH2 0x10B8 JUMPI POP PUSH2 0x10B3 SWAP1 PUSH2 0x197E JUMP JUMPDEST PUSH2 0xE50 JUMP JUMPDEST SWAP2 POP PUSH2 0xE63 SWAP1 POP PUSH2 0xE58 JUMP JUMPDEST CALLVALUE PUSH2 0x493 JUMPI PUSH1 0x0 CALLDATASIZE PUSH1 0x3 NOT ADD SLT PUSH2 0x493 JUMPI PUSH2 0x10DD PUSH2 0x1A0F JUMP JUMPDEST POP PUSH2 0x10E6 PUSH2 0x1A0F JUMP JUMPDEST POP PUSH1 0x0 DUP1 PUSH1 0x0 DUP1 MLOAD PUSH1 0x20 PUSH2 0x1A83 DUP4 CODECOPY DUP2 MLOAD SWAP2 MSTORE SLOAD SWAP1 JUMPDEST DUP2 DUP2 LT PUSH2 0x12E0 JUMPI POP PUSH2 0x110D DUP3 PUSH2 0x1A36 JUMP JUMPDEST SWAP2 PUSH2 0x111B PUSH1 0x40 MLOAD SWAP4 DUP5 PUSH2 0x14FA JUMP JUMPDEST DUP1 DUP4 MSTORE PUSH2 0x112A PUSH1 0x1F NOT SWAP2 PUSH2 0x1A36 JUMP JUMPDEST ADD SWAP2 PUSH1 0x20 SWAP3 CALLDATASIZE DUP5 DUP4 ADD CALLDATACOPY PUSH1 0x0 DUP1 JUMPDEST DUP4 DUP2 LT PUSH2 0x1284 JUMPI POP POP PUSH2 0x1149 PUSH2 0x19F0 JUMP JUMPDEST SWAP2 PUSH1 0x0 SWAP1 JUMPDEST DUP1 DUP3 LT PUSH2 0x11F7 JUMPI JUMPDEST POP POP PUSH1 0xFF PUSH2 0x1163 CALLER PUSH2 0x1591 JUMP JUMPDEST SLOAD AND PUSH1 0x40 MLOAD SWAP2 PUSH2 0x1172 DUP4 PUSH2 0x148A JUMP JUMPDEST DUP3 MSTORE DUP4 DUP3 ADD SWAP3 DUP4 MSTORE PUSH1 0x40 DUP3 ADD SWAP1 DUP2 MSTORE PUSH1 0x40 MLOAD SWAP3 DUP5 DUP5 MSTORE PUSH1 0xC0 DUP5 ADD SWAP3 MLOAD SWAP3 PUSH1 0xA0 DUP7 DUP7 ADD MSTORE DUP4 MLOAD DUP1 SWAP2 MSTORE DUP6 PUSH1 0xE0 DUP7 ADD SWAP5 ADD SWAP1 PUSH1 0x0 JUMPDEST DUP2 DUP2 LT PUSH2 0x11E3 JUMPI POP POP POP SWAP1 DUP4 SWAP5 PUSH1 0xFF SWAP3 MLOAD SWAP1 DUP2 MLOAD PUSH1 0x40 DUP8 ADD MSTORE DUP2 ADD MLOAD PUSH1 0x60 DUP7 ADD MSTORE PUSH1 0x40 PUSH1 0x1 DUP1 PUSH1 0xA0 SHL SUB SWAP2 ADD MLOAD AND PUSH1 0x80 DUP6 ADD MSTORE MLOAD AND PUSH1 0xA0 DUP4 ADD MSTORE SUB SWAP1 RETURN JUMPDEST DUP3 MLOAD DUP7 MSTORE SWAP5 DUP8 ADD SWAP5 SWAP2 DUP8 ADD SWAP2 PUSH1 0x1 ADD PUSH2 0x11A5 JUMP JUMPDEST PUSH1 0x1 DUP3 ADD SWAP2 DUP3 DUP2 GT PUSH2 0x3F4 JUMPI PUSH1 0x0 DUP4 DUP2 MSTORE PUSH1 0x0 DUP1 MLOAD PUSH1 0x20 PUSH2 0x1AA3 DUP4 CODECOPY DUP2 MLOAD SWAP2 MSTORE DUP8 MSTORE PUSH1 0x40 SWAP1 KECCAK256 SLOAD PUSH1 0x1 PUSH1 0x1 PUSH1 0xA0 SHL SUB SWAP4 SWAP1 DUP5 AND CALLER EQ PUSH2 0x1242 JUMPI POP PUSH2 0x123C SWAP2 SWAP3 POP PUSH2 0x197E JUMP JUMPDEST SWAP1 PUSH2 0x114E JUMP JUMPDEST PUSH2 0x1270 SWAP3 POP DUP1 DUP7 MSTORE PUSH1 0x0 MSTORE PUSH1 0x0 DUP1 MLOAD PUSH1 0x20 PUSH2 0x1A63 DUP4 CODECOPY DUP2 MLOAD SWAP2 MSTORE DUP7 MSTORE PUSH1 0x6 PUSH1 0x40 PUSH1 0x0 KECCAK256 ADD SLOAD DUP7 DUP7 ADD MSTORE PUSH2 0x1603 JUMP JUMPDEST SWAP1 SLOAD SWAP1 PUSH1 0x3 SHL SHR AND PUSH1 0x40 DUP4 ADD MSTORE DUP4 DUP1 PUSH2 0x1156 JUMP JUMPDEST PUSH2 0x128D DUP2 PUSH2 0x1603 JUMP JUMPDEST SWAP1 SLOAD CALLER PUSH1 0x3 SWAP3 SWAP1 SWAP3 SHL SHR PUSH1 0x1 PUSH1 0x1 PUSH1 0xA0 SHL SUB AND EQ PUSH2 0x12B4 JUMPI JUMPDEST PUSH2 0x12AF SWAP1 PUSH2 0x197E JUMP JUMPDEST PUSH2 0x1138 JUMP JUMPDEST SWAP1 PUSH1 0x1 DUP3 ADD DUP1 DUP4 GT PUSH2 0x3F4 JUMPI DUP2 PUSH2 0x12D8 SWAP2 PUSH2 0x12D2 PUSH2 0x12AF SWAP5 DUP8 PUSH2 0x1A4E JUMP JUMPDEST MSTORE PUSH2 0x197E JUMP JUMPDEST SWAP2 SWAP1 POP PUSH2 0x12A6 JUMP JUMPDEST PUSH2 0x12E9 DUP2 PUSH2 0x1603 JUMP JUMPDEST SWAP1 SLOAD CALLER PUSH1 0x3 SWAP3 SWAP1 SWAP3 SHL SHR PUSH1 0x1 PUSH1 0x1 PUSH1 0xA0 SHL SUB AND EQ PUSH2 0x1310 JUMPI JUMPDEST PUSH2 0x130B SWAP1 PUSH2 0x197E JUMP JUMPDEST PUSH2 0x10FC JUMP JUMPDEST SWAP2 PUSH2 0x131D PUSH2 0x130B SWAP2 PUSH2 0x197E JUMP JUMPDEST SWAP3 SWAP1 POP PUSH2 0x1302 JUMP JUMPDEST CALLVALUE PUSH2 0x493 JUMPI PUSH1 0x0 CALLDATASIZE PUSH1 0x3 NOT ADD SLT PUSH2 0x493 JUMPI PUSH1 0x0 DUP1 MLOAD PUSH1 0x20 PUSH2 0x1A83 DUP4 CODECOPY DUP2 MLOAD SWAP2 MSTORE SLOAD PUSH2 0x134F DUP2 PUSH2 0x1A36 JUMP JUMPDEST SWAP1 PUSH2 0x135D PUSH1 0x40 MLOAD SWAP3 DUP4 PUSH2 0x14FA JUMP JUMPDEST DUP1 DUP3 MSTORE PUSH1 0x1F NOT PUSH2 0x136C DUP3 PUSH2 0x1A36 JUMP JUMPDEST ADD PUSH1 0x0 JUMPDEST DUP2 DUP2 LT PUSH2 0x145D JUMPI POP POP PUSH1 0x0 JUMPDEST DUP2 DUP2 LT PUSH2 0x13E0 JUMPI PUSH1 0x40 DUP1 MLOAD PUSH1 0x20 DUP1 DUP3 MSTORE DUP6 MLOAD DUP2 DUP4 ADD DUP2 SWAP1 MSTORE DUP2 DUP8 ADD SWAP4 DUP4 ADD SWAP2 PUSH1 0x0 JUMPDEST DUP3 DUP2 LT PUSH2 0x13AB JUMPI DUP5 DUP5 SUB DUP6 RETURN JUMPDEST DUP6 MLOAD DUP1 MLOAD DUP6 MSTORE DUP1 DUP4 ADD MLOAD PUSH1 0x1 PUSH1 0x1 PUSH1 0xA0 SHL SUB AND DUP6 DUP5 ADD MSTORE PUSH1 0x40 SWAP1 DUP2 ADD MLOAD ISZERO ISZERO SWAP1 DUP6 ADD MSTORE SWAP5 DUP2 ADD SWAP5 PUSH1 0x60 SWAP1 SWAP4 ADD SWAP3 PUSH1 0x1 ADD PUSH2 0x139E JUMP JUMPDEST PUSH1 0x1 DUP2 ADD SWAP1 DUP2 DUP2 GT PUSH2 0x3F4 JUMPI DUP2 PUSH2 0x1458 SWAP3 PUSH1 0x0 MSTORE PUSH1 0x20 PUSH1 0x0 DUP1 MLOAD PUSH1 0x20 PUSH2 0x1AA3 DUP4 CODECOPY DUP2 MLOAD SWAP2 MSTORE DUP2 MSTORE PUSH1 0x1 DUP1 PUSH1 0xA0 SHL SUB SWAP1 DUP2 PUSH1 0x40 PUSH1 0x0 KECCAK256 SLOAD AND ISZERO ISZERO SWAP2 PUSH2 0x1423 DUP6 PUSH2 0x1603 JUMP JUMPDEST SWAP1 SLOAD SWAP1 PUSH1 0x40 MLOAD SWAP6 PUSH2 0x1433 DUP8 PUSH2 0x148A JUMP JUMPDEST DUP7 MSTORE PUSH1 0x3 SHL SHR AND SWAP1 DUP4 ADD MSTORE PUSH1 0x40 DUP3 ADD MSTORE PUSH2 0x144D DUP3 DUP7 PUSH2 0x1A4E JUMP JUMPDEST MSTORE PUSH2 0x914 DUP2 DUP6 PUSH2 0x1A4E JUMP JUMPDEST PUSH2 0x137C JUMP JUMPDEST PUSH1 0x20 SWAP1 PUSH2 0x1468 PUSH2 0x19F0 JUMP JUMPDEST DUP3 DUP3 DUP8 ADD ADD MSTORE ADD PUSH2 0x1370 JUMP JUMPDEST PUSH1 0x40 SWAP1 PUSH1 0x3 NOT ADD SLT PUSH2 0x493 JUMPI PUSH1 0x4 CALLDATALOAD SWAP1 PUSH1 0x24 CALLDATALOAD SWAP1 JUMP JUMPDEST PUSH1 0x60 DUP2 ADD SWAP1 DUP2 LT PUSH8 0xFFFFFFFFFFFFFFFF DUP3 GT OR PUSH2 0x3DE JUMPI PUSH1 0x40 MSTORE JUMP JUMPDEST PUSH1 0xE0 DUP2 ADD SWAP1 DUP2 LT PUSH8 0xFFFFFFFFFFFFFFFF DUP3 GT OR PUSH2 0x3DE JUMPI PUSH1 0x40 MSTORE JUMP JUMPDEST PUSH1 0x40 DUP2 ADD SWAP1 DUP2 LT PUSH8 0xFFFFFFFFFFFFFFFF DUP3 GT OR PUSH2 0x3DE JUMPI PUSH1 0x40 MSTORE JUMP JUMPDEST PUSH1 0x20 DUP2 ADD SWAP1 DUP2 LT PUSH8 0xFFFFFFFFFFFFFFFF DUP3 GT OR PUSH2 0x3DE JUMPI PUSH1 0x40 MSTORE JUMP JUMPDEST SWAP1 PUSH1 0x1F DUP1 NOT SWAP2 ADD AND DUP2 ADD SWAP1 DUP2 LT PUSH8 0xFFFFFFFFFFFFFFFF DUP3 GT OR PUSH2 0x3DE JUMPI PUSH1 0x40 MSTORE JUMP JUMPDEST SWAP2 SWAP1 DUP3 MLOAD SWAP3 DUP4 DUP3 MSTORE PUSH1 0x0 JUMPDEST DUP5 DUP2 LT PUSH2 0x1548 JUMPI POP POP DUP3 PUSH1 0x0 PUSH1 0x20 DUP1 SWAP5 SWAP6 DUP5 ADD ADD MSTORE PUSH1 0x1F DUP1 NOT SWAP2 ADD AND ADD ADD SWAP1 JUMP JUMPDEST PUSH1 0x20 DUP2 DUP4 ADD DUP2 ADD MLOAD DUP5 DUP4 ADD DUP3 ADD MSTORE ADD PUSH2 0x1527 JUMP JUMPDEST SWAP3 SWAP5 SWAP4 PUSH2 0x157B PUSH1 0x60 SWAP4 PUSH1 0xFF SWAP4 DUP7 MSTORE PUSH1 0x80 PUSH1 0x20 DUP8 ADD MSTORE PUSH1 0x80 DUP7 ADD SWAP1 PUSH2 0x151C JUMP JUMPDEST PUSH1 0x1 PUSH1 0x1 PUSH1 0xA0 SHL SUB SWAP1 SWAP7 AND PUSH1 0x40 DUP6 ADD MSTORE AND SWAP2 ADD MSTORE JUMP JUMPDEST PUSH1 0x1 PUSH1 0x1 PUSH1 0xA0 SHL SUB AND PUSH1 0x0 SWAP1 DUP2 MSTORE PUSH32 0x202E1867CADE063E32A2EB339A246F853A1A233314949BA8D9E2AC766F6ED849 PUSH1 0x20 MSTORE PUSH1 0x40 SWAP1 KECCAK256 SWAP1 JUMP JUMPDEST PUSH1 0x1 PUSH1 0x1 PUSH1 0xA0 SHL SUB AND PUSH1 0x0 SWAP1 DUP2 MSTORE PUSH32 0x202E1867CADE063E32A2EB339A246F853A1A233314949BA8D9E2AC766F6ED846 PUSH1 0x20 MSTORE PUSH1 0x40 SWAP1 KECCAK256 SWAP1 JUMP JUMPDEST PUSH1 0x0 DUP1 MLOAD PUSH1 0x20 PUSH2 0x1A83 DUP4 CODECOPY DUP2 MLOAD SWAP2 MSTORE DUP1 SLOAD DUP3 LT ISZERO PUSH2 0x1646 JUMPI PUSH1 0x0 MSTORE PUSH32 0x5B627E705E277F4CD69351CFCF0179F3685951408382038C266C60748DB0394A ADD SWAP1 PUSH1 0x0 SWAP1 JUMP JUMPDEST PUSH4 0x4E487B71 PUSH1 0xE0 SHL PUSH1 0x0 MSTORE PUSH1 0x32 PUSH1 0x4 MSTORE PUSH1 0x24 PUSH1 0x0 REVERT JUMPDEST PUSH1 0x0 DUP1 MLOAD PUSH1 0x20 PUSH2 0x1A83 DUP4 CODECOPY DUP2 MLOAD SWAP2 MSTORE DUP1 SLOAD PUSH9 0x10000000000000000 DUP2 LT ISZERO PUSH2 0x3DE JUMPI PUSH2 0x168D SWAP2 PUSH1 0x1 DUP3 ADD SWAP1 SSTORE PUSH2 0x1603 JUMP JUMPDEST DUP2 SWAP3 SWAP2 SLOAD SWAP1 PUSH1 0x3 SHL SWAP2 PUSH1 0x1 DUP1 PUSH1 0xA0 SHL SUB DUP1 SWAP2 AND DUP4 SHL SWAP3 SHL NOT AND OR SWAP1 SSTORE JUMP JUMPDEST SWAP1 PUSH1 0x1 DUP3 DUP2 SHR SWAP3 AND DUP1 ISZERO PUSH2 0x16DB JUMPI JUMPDEST PUSH1 0x20 DUP4 LT EQ PUSH2 0x16C5 JUMPI JUMP JUMPDEST PUSH4 0x4E487B71 PUSH1 0xE0 SHL PUSH1 0x0 MSTORE PUSH1 0x22 PUSH1 0x4 MSTORE PUSH1 0x24 PUSH1 0x0 REVERT JUMPDEST SWAP2 PUSH1 0x7F AND SWAP2 PUSH2 0x16BA JUMP JUMPDEST SWAP1 PUSH1 0x1F DUP2 GT PUSH2 0x16F3 JUMPI POP POP POP JUMP JUMPDEST PUSH1 0x0 SWAP2 DUP3 MSTORE PUSH1 0x20 DUP3 KECCAK256 SWAP1 PUSH1 0x20 PUSH1 0x1F DUP6 ADD PUSH1 0x5 SHR DUP4 ADD SWAP5 LT PUSH2 0x172F JUMPI JUMPDEST PUSH1 0x1F ADD PUSH1 0x5 SHR ADD SWAP2 JUMPDEST DUP3 DUP2 LT PUSH2 0x1724 JUMPI POP POP POP JUMP JUMPDEST DUP2 DUP2 SSTORE PUSH1 0x1 ADD PUSH2 0x1718 JUMP JUMPDEST SWAP1 SWAP3 POP DUP3 SWAP1 PUSH2 0x170F JUMP JUMPDEST SWAP3 SWAP4 PUSH1 0xC0 SWAP5 PUSH1 0xFF SWAP4 PUSH2 0x176B SWAP9 SWAP8 SWAP4 DUP7 MSTORE PUSH1 0x20 DUP7 ADD MSTORE PUSH1 0x40 DUP6 ADD MSTORE PUSH1 0x60 DUP5 ADD MSTORE AND PUSH1 0x80 DUP3 ADD MSTORE DUP2 PUSH1 0xA0 DUP3 ADD MSTORE ADD SWAP1 PUSH2 0x151C JUMP JUMPDEST SWAP1 JUMP JUMPDEST ISZERO PUSH2 0x1775 JUMPI JUMP JUMPDEST PUSH1 0x40 MLOAD PUSH3 0x461BCD PUSH1 0xE5 SHL DUP2 MSTORE PUSH1 0x20 PUSH1 0x4 DUP3 ADD MSTORE PUSH1 0x16 PUSH1 0x24 DUP3 ADD MSTORE PUSH22 0x155CD95C881A5CC81B9BDD081C9959DA5CDD195C9959 PUSH1 0x52 SHL PUSH1 0x44 DUP3 ADD MSTORE PUSH1 0x64 SWAP1 REVERT JUMPDEST ISZERO PUSH2 0x17BA JUMPI JUMP JUMPDEST PUSH1 0x40 MLOAD PUSH3 0x461BCD PUSH1 0xE5 SHL DUP2 MSTORE PUSH1 0x20 PUSH1 0x4 DUP3 ADD MSTORE PUSH1 0x1D PUSH1 0x24 DUP3 ADD MSTORE PUSH32 0x546865205375737577617461726920646F6573206E6F74206578697374000000 PUSH1 0x44 DUP3 ADD MSTORE PUSH1 0x64 SWAP1 REVERT JUMPDEST SWAP1 DUP1 DUP3 EQ PUSH2 0x18D4 JUMPI PUSH2 0x1811 DUP2 SLOAD PUSH2 0x16AB JUMP JUMPDEST SWAP1 PUSH8 0xFFFFFFFFFFFFFFFF DUP3 GT PUSH2 0x3DE JUMPI DUP2 SWAP1 PUSH2 0x1831 DUP3 PUSH2 0xF25 DUP7 SLOAD PUSH2 0x16AB JUMP JUMPDEST PUSH1 0x0 SWAP1 PUSH1 0x1F DUP4 GT PUSH1 0x1 EQ PUSH2 0x1868 JUMPI PUSH1 0x0 SWAP3 PUSH2 0x185D JUMPI JUMPDEST POP POP DUP2 PUSH1 0x1 SHL SWAP2 PUSH1 0x0 NOT SWAP1 PUSH1 0x3 SHL SHR NOT AND OR SWAP1 SSTORE JUMP JUMPDEST ADD SLOAD SWAP1 POP CODESIZE DUP1 PUSH2 0x1847 JUMP JUMPDEST DUP2 MSTORE PUSH1 0x20 DUP1 DUP3 KECCAK256 DUP6 DUP4 MSTORE DUP2 DUP4 KECCAK256 SWAP4 POP SWAP1 PUSH1 0x1F NOT DUP6 AND SWAP1 DUP4 SWAP1 JUMPDEST DUP3 DUP3 LT PUSH2 0x18BB JUMPI POP POP SWAP1 DUP5 PUSH1 0x1 SWAP6 SWAP5 SWAP4 SWAP3 LT PUSH2 0x18A2 JUMPI JUMPDEST POP POP POP DUP2 SHL ADD SWAP1 SSTORE JUMP JUMPDEST ADD SLOAD PUSH1 0x0 NOT PUSH1 0xF8 DUP5 PUSH1 0x3 SHL AND SHR NOT AND SWAP1 SSTORE CODESIZE DUP1 DUP1 PUSH2 0x1898 JUMP JUMPDEST DUP5 SWAP6 DUP2 SWAP3 SWAP6 DUP6 ADD SLOAD DUP2 SSTORE PUSH1 0x1 DUP1 SWAP2 ADD SWAP7 ADD SWAP5 ADD SWAP1 PUSH2 0x1881 JUMP JUMPDEST POP POP JUMP JUMPDEST SWAP1 PUSH1 0x40 MLOAD SWAP2 DUP3 PUSH1 0x0 DUP3 SLOAD SWAP3 PUSH2 0x18EC DUP5 PUSH2 0x16AB JUMP JUMPDEST SWAP1 DUP2 DUP5 MSTORE PUSH1 0x1 SWAP5 DUP6 DUP2 AND SWAP1 DUP2 PUSH1 0x0 EQ PUSH2 0x195B JUMPI POP PUSH1 0x1 EQ PUSH2 0x1918 JUMPI JUMPDEST POP POP PUSH2 0x1916 SWAP3 POP SUB DUP4 PUSH2 0x14FA JUMP JUMPDEST JUMP JUMPDEST SWAP1 SWAP4 SWAP2 POP PUSH1 0x0 MSTORE PUSH1 0x20 SWAP1 DUP2 PUSH1 0x0 KECCAK256 SWAP4 PUSH1 0x0 SWAP2 JUMPDEST DUP2 DUP4 LT PUSH2 0x1943 JUMPI POP POP PUSH2 0x1916 SWAP4 POP DUP3 ADD ADD CODESIZE DUP1 PUSH2 0x1908 JUMP JUMPDEST DUP6 SLOAD DUP9 DUP5 ADD DUP6 ADD MSTORE SWAP5 DUP6 ADD SWAP5 DUP8 SWAP5 POP SWAP2 DUP4 ADD SWAP2 PUSH2 0x192B JUMP JUMPDEST SWAP2 POP POP PUSH2 0x1916 SWAP5 POP PUSH1 0x20 SWAP3 POP PUSH1 0xFF NOT AND DUP3 DUP5 ADD MSTORE ISZERO ISZERO PUSH1 0x5 SHL DUP3 ADD ADD CODESIZE DUP1 PUSH2 0x1908 JUMP JUMPDEST PUSH1 0x0 NOT DUP2 EQ PUSH2 0x3F4 JUMPI PUSH1 0x1 ADD SWAP1 JUMP JUMPDEST ISZERO PUSH2 0x1994 JUMPI JUMP JUMPDEST PUSH1 0x40 MLOAD PUSH3 0x461BCD PUSH1 0xE5 SHL DUP2 MSTORE PUSH1 0x20 PUSH1 0x4 DUP3 ADD MSTORE PUSH1 0x2E PUSH1 0x24 DUP3 ADD MSTORE PUSH32 0x43616C6C657220697320616C7265616479206361727279696E67206120537573 PUSH1 0x44 DUP3 ADD MSTORE PUSH14 0x7577617461726920546F6B656E21 PUSH1 0x90 SHL PUSH1 0x64 DUP3 ADD MSTORE PUSH1 0x84 SWAP1 REVERT JUMPDEST PUSH1 0x40 MLOAD SWAP1 PUSH2 0x19FD DUP3 PUSH2 0x148A JUMP JUMPDEST PUSH1 0x0 PUSH1 0x40 DUP4 DUP3 DUP2 MSTORE DUP3 PUSH1 0x20 DUP3 ADD MSTORE ADD MSTORE JUMP JUMPDEST PUSH1 0x40 MLOAD SWAP1 PUSH2 0x1A1C DUP3 PUSH2 0x148A JUMP JUMPDEST PUSH1 0x0 PUSH1 0x40 DUP4 PUSH1 0x60 DUP2 MSTORE PUSH2 0x1A2D PUSH2 0x19F0 JUMP JUMPDEST PUSH1 0x20 DUP3 ADD MSTORE ADD MSTORE JUMP JUMPDEST PUSH8 0xFFFFFFFFFFFFFFFF DUP2 GT PUSH2 0x3DE JUMPI PUSH1 0x5 SHL PUSH1 0x20 ADD SWAP1 JUMP JUMPDEST DUP1 MLOAD DUP3 LT ISZERO PUSH2 0x1646 JUMPI PUSH1 0x20 SWAP2 PUSH1 0x5 SHL ADD ADD SWAP1 JUMP INVALID KECCAK256 0x2E XOR PUSH8 0xCADE063E32A2EB33 SWAP11 0x24 PUSH16 0x853A1A233314949BA8D9E2AC766F6ED8 BASEFEE KECCAK256 0x2E XOR PUSH8 0xCADE063E32A2EB33 SWAP11 0x24 PUSH16 0x853A1A233314949BA8D9E2AC766F6ED8 SELFBALANCE KECCAK256 0x2E XOR PUSH8 0xCADE063E32A2EB33 SWAP11 0x24 PUSH16 0x853A1A233314949BA8D9E2AC766F6ED8 0x4B 0x2C LOG4 0x1E 0xDD BASEFEE DUP15 SWAP2 PUSH3 0xCA27CF SELFDESTRUCT PUSH4 0x9CBE72D7 0xB2 CALLDATACOPY 0xE9 PUSH17 0x90033EBB9212A7EC2DE82DA26469706673 PC 0x22 SLT KECCAK256 0xEC 0x28 0xBB 0xC5 SHR 0xCB ORIGIN 0x29 0xC5 0x26 0x25 MLOAD DUP14 0x2D 0x23 0xB5 DUP6 0xC5 MSIZE 0xF PUSH9 0xB69D337BAB9BC7E466 DUP9 0xC9 PUSH5 0x736F6C6343 STOP ADDMOD SLT STOP CALLER "},"gasEstimates":{"creation":{"codeDepositCost":"1387200","executionCost":"1454","totalCost":"1388654"},"external":{"aimInitialSusu(uint256,uint256,uint256,string)":"infinite","dropSusu(uint256,uint256)":"infinite","getAllSusuwataris()":"infinite","getBaggedSusus()":"infinite","getCurrentState()":"infinite","giveSusuwatari()":"infinite","registerMe(uint8)":"infinite","tryPickupSusu(uint256,uint256)":"infinite"}},"methodIdentifiers":{"aimInitialSusu(uint256,uint256,uint256,string)":"ef410cf9","dropSusu(uint256,uint256)":"a6cd6523","getAllSusuwataris()":"2a9664c7","getBaggedSusus()":"c5b9c141","getCurrentState()":"378aa701","giveSusuwatari()":"7298c3c3","registerMe(uint8)":"adc65c38","tryPickupSusu(uint256,uint256)":"cda94eb4"}},"storageLayout":{"storage":[],"types":null},"userdoc":{"kind":"user","methods":{},"version":1}}}}