{"contracts/SusuwatariFacet.sol":{"SusuwatariFacet":{"abi":[{"inputs":[{"internalType":"uint256","name":"tokenId","type":"uint256"},{"internalType":"string","name":"location","type":"string"},{"internalType":"string","name":"destination","type":"string"},{"internalType":"string","name":"message","type":"string"}],"name":"aimInitialSusu","outputs":[{"internalType":"uint256","name":"","type":"uint256"},{"internalType":"string","name":"","type":"string"},{"internalType":"string","name":"","type":"string"},{"internalType":"string","name":"","type":"string"}],"stateMutability":"nonpayable","type":"function"},{"inputs":[{"internalType":"uint256","name":"tokenId","type":"uint256"},{"internalType":"string","name":"location","type":"string"},{"internalType":"string","name":"destination","type":"string"},{"internalType":"string","name":"message","type":"string"}],"name":"dropSusu","outputs":[{"internalType":"uint256","name":"","type":"uint256"},{"internalType":"string","name":"","type":"string"},{"internalType":"string","name":"","type":"string"},{"internalType":"string","name":"","type":"string"}],"stateMutability":"nonpayable","type":"function"},{"inputs":[],"name":"getCurrentState","outputs":[{"components":[{"internalType":"uint256[]","name":"ownedTokens","type":"uint256[]"},{"components":[{"internalType":"uint256","name":"susuTokenId","type":"uint256"},{"internalType":"uint256","name":"dropCooldownTime","type":"uint256"},{"internalType":"address","name":"ownerAddress","type":"address"}],"internalType":"struct BaggageSlot","name":"slot","type":"tuple"}],"internalType":"struct UserState","name":"","type":"tuple"}],"stateMutability":"view","type":"function"},{"inputs":[],"name":"registerMe","outputs":[],"stateMutability":"nonpayable","type":"function"},{"inputs":[{"internalType":"uint256","name":"tokenId","type":"uint256"},{"internalType":"string","name":"location","type":"string"},{"internalType":"string","name":"destination","type":"string"},{"internalType":"string","name":"message","type":"string"}],"name":"tryPickupSusu","outputs":[{"internalType":"uint256","name":"","type":"uint256"},{"internalType":"string","name":"","type":"string"},{"internalType":"string","name":"","type":"string"},{"internalType":"string","name":"","type":"string"}],"stateMutability":"nonpayable","type":"function"}],"devdoc":{"details":"Implementation of https://eips.ethereum.org/EIPS/eip-721[ERC721] Non-Fungible Token Standard, including the Metadata extension, but not including the Enumerable extension, which is available separately as {ERC721Enumerable}.","kind":"dev","methods":{},"version":1},"evm":{"bytecode":{"linkReferences":{},"object":"60808060405234610016576118e8908161001c8239f35b600080fdfe6080604052600436101561001257600080fd5b60003560e01c8063378aa701146113015780635fd9a90d14610fac57806378630748146109b357806383d4fdce1461071557639a198d611461005357600080fd5b34610710576000366003190112610710573360009081527f202e1867cade063e32a2eb339a246f853a1a233314949ba8d9e2ac766f6ed84660205260409020546106cb576000805160206118938339815191528054600181018091116106b5576040519060e082018281106001600160401b0382111761045f576040528152604051916100df83611570565b60008352602082019283526040516100f681611570565b60008152604083015260405161010b81611570565b60008152606083015260405161012081611570565b6000815260808301523360a0830152600060c083015260016101733360018060a01b03166000527f202e1867cade063e32a2eb339a246f853a1a233314949ba8d9e2ac766f6ed846602052604060002090565b5580546801000000000000000081101561045f57610196916001820190556116e9565b81549060031b9033821b9160018060a01b03901b1916179055805160005260008051602061185383398151915260205260406000209181518355519182516001600160401b03811161045f576101ef6001830154611742565b601f811161066e575b506020601f821160011461060057819293946000926105f5575b50508160011b916000199060031b1c19161760018201555b60408201519182516001600160401b03811161045f5761024d6002840154611742565b601f81116105ae575b506020601f82116001146105405781929394600092610535575b50508160011b916000199060031b1c19161760028301555b60608101519182516001600160401b03811161045f576102ab6003830154611742565b601f81116104ee575b506020601f82116001146104805781929394600092610475575b50508160011b916000199060031b1c19161760038201555b60808201519182516001600160401b03811161045f576103096004840154611742565b601f8111610414575b506020601f82116001146103a8578192939460009261039d575b50508160011b916000199060031b1c19161760048301555b600582019160018060a01b0360a083015116926001600160601b0360a01b9384825416179055600660c0830151910155516000526000805160206118738339815191526020526040600020903390825416179055600080f35b01519050388061032c565b601f198216906004850160005260206000209160005b8181106103fc575095836001959697106103e3575b505050811b016004830155610344565b015160001960f88460031b161c191690553880806103d3565b9192602060018192868b0151815501940192016103be565b600484016000526020600020601f830160051c81019160208410610455575b601f0160051c01905b8181106104495750610312565b6000815560010161043c565b9091508190610433565b634e487b7160e01b600052604160045260246000fd5b0151905038806102ce565b6003830160005260206000209060005b601f19841681106104d65750600193949583601f198116106104bd575b505050811b0160038201556102e6565b015160001960f88460031b161c191690553880806104ad565b9091602060018192858a015181550193019101610490565b600383016000526020600020601f830160051c81016020841061052e575b601f830160051c820181106105225750506102b4565b6000815560010161050c565b508061050c565b015190503880610270565b6002840160005260206000209060005b601f19841681106105965750600193949583601f1981161061057d575b505050811b016002830155610288565b015160001960f88460031b161c1916905538808061056d565b9091602060018192858a015181550193019101610550565b600284016000526020600020601f830160051c8101602084106105ee575b601f830160051c820181106105e2575050610256565b600081556001016105cc565b50806105cc565b015190503880610212565b6001830160005260206000209060005b601f19841681106106565750600193949583601f1981161061063d575b505050811b01600182015561022a565b015160001960f88460031b161c1916905538808061062d565b9091602060018192858a015181550193019101610610565b600183016000526020600020601f830160051c8101602084106106ae575b601f830160051c820181106106a25750506101f8565b6000815560010161068c565b508061068c565b634e487b7160e01b600052601160045260246000fd5b60405162461bcd60e51b815260206004820152601760248201527f5573657220616c726561647920726567697374657265640000000000000000006044820152606490fd5b600080fd5b346107105761072336611602565b9083929315158061099a575b6107389061177c565b600083815260008051602061185383398151915260208181526040909220600501546001600160a01b0316330361094457846000528152604060002060405161012d838201826107a889334285916054939183526001600160601b03199060601b16602083015260348201520190565b03926107bc601f199485810183528261158b565b5190200661012c9081018091116106b5576006830155865160028301916001600160401b03821161045f576107f18354611742565b601f81116108fe575b508490601f8311600114610883575092600080516020611873833981519152928260059361087499989796600091610878575b508160011b916000199060031b1c19161790555b01916001600160601b0360a01b9283815416905586600052526040600020903390825416179055604051948594856116ad565b0390f35b90508b01518c61082d565b82169083600052856000209160005b8b8282106108e75750508361087499989796936000805160206118738339815191529693600596600194106108ce575b5050811b019055610841565b8d015160001960f88460031b161c191690558c806108c2565b600184958a93958493015181550194019201610892565b8360005285600020601f840160051c81019187851061093a575b601f0160051c01905b81811061092e57506107fa565b60008155600101610921565b9091508190610918565b60405162461bcd60e51b815260048101839052602860248201527f43616c6c657220646f65736e27742063617272792061205375737577617461726044820152676920546f6b656e2160c01b6064820152608490fd5b506000805160206118938339815191525483111561072f565b34610710576109c136611602565b90839293151580610f93575b6109d69061177c565b60001983018381116106b5576109eb906116e9565b905460039190911b1c6001600160a01b0390811633149081610f68575b5015610f2d5782600052600080516020611853833981519152602052604060002061012d6040516020810190610a7081610a6289334287916054939183526001600160601b03199060601b16602083015260348201520190565b03601f19810183528261158b565b5190200661012c9081018091116106b557600682015584516001600160401b03811161045f57610aa36001830154611742565b601f8111610ee6575b50806020601f8211600114610e7957600091610e6e575b508160011b916000199060031b1c19161760018201555b84516001600160401b03811161045f57610af76002830154611742565b601f8111610e27575b50806020601f8211600114610dba57600091610daf575b508160011b916000199060031b1c19161760028201555b81516001600160401b03811161045f57610b4b6003830154611742565b601f8111610d68575b50806020601f8211600114610cfb57600091610cf0575b508160011b916000199060031b1c19161760038201555b82516001600160401b03811161045f57610b9f6004830154611742565b601f8111610ca5575b506020601f8211600114610c30579181600592610874969594600091610c25575b508160011b916000199060031b1c19161760048201555b016001600160601b0360a01b903382825416179055846000526000805160206118738339815191526020526040600020903390825416179055604051948594856116ad565b905085015189610bc9565b6004830160005260206000209060005b601f1984168110610c8d57508261087496959492600192600595601f19811610610c74575b5050811b016004820155610be0565b87015160001960f88460031b161c191690558980610c65565b9091602060018192858a015181550193019101610c40565b600483016000526020600020601f830160051c81019160208410610ce6575b601f0160051c01905b818110610cda5750610ba8565b60008155600101610ccd565b9091508190610cc4565b905083015187610b6b565b91506003830160005260206000206000925b601f1983168410610d50576001935082601f19811610610d37575b5050811b016003820155610b82565b85015160001960f88460031b161c191690558780610d28565b85810151825560209384019360019092019101610d0d565b600383016000526020600020601f830160051c810160208410610da8575b601f830160051c82018110610d9c575050610b54565b60008155600101610d86565b5080610d86565b905086015187610b17565b91506002830160005260206000206000925b601f1983168410610e0f576001935082601f19811610610df6575b5050811b016002820155610b2e565b88015160001960f88460031b161c191690558780610de7565b88810151825560209384019360019092019101610dcc565b600283016000526020600020601f830160051c810160208410610e67575b601f830160051c82018110610e5b575050610b00565b60008155600101610e45565b5080610e45565b905086015187610ac3565b91506001830160005260206000206000925b601f1983168410610ece576001935082601f19811610610eb5575b5050811b016001820155610ada565b88015160001960f88460031b161c191690558780610ea6565b88810151825560209384019360019092019101610e8b565b600183016000526020600020601f830160051c810160208410610f26575b601f830160051c82018110610f1a575050610aac565b60008155600101610f04565b5080610f04565b60405162461bcd60e51b815260206004820152601360248201527221b0b63632b91034b9903737ba1037bbb732b960691b6044820152606490fd5b9050836000526000805160206118538339815191526020523390600560406000200154161485610a08565b50600080516020611893833981519152548311156109cd565b3461071057610fba36611602565b8392931515806112e8575b610fce9061177c565b60008060008051602061189383398151915254905b8181106112a0575b505061124757600083815260008051602061185383398151915260208181526040909220600501549193916001600160a01b03166112025784600052835260406000209260028401604051908183810191600090805461104a81611742565b916001918883821691826000146111e75750506001146111ab575b505050039161107c601f199384810183528261158b565b519020876040516110a985828161109c8183019687815193849201611665565b810103808452018261158b565b5190200361115857604051428382019081523360601b6bffffffffffffffffffffffff191660208201526034810188905261012d929091906110f69082605485010390810183528261158b565b519020069361012c9485018095116106b55760058161087496600660008051602061187383398151915294015501916001600160601b0360a01b92338482541617905586600052526040600020903390825416179055604051948594856116ad565b60405162461bcd60e51b815260048101839052602560248201527f43616c6c6572206973206e6f7420696e2074686520636f7272656374206c6f6360448201526430ba34b7b760d91b6064820152608490fd5b87935060005282600020906000915b8383106111cf575050508201018a8080611065565b805483890186015287955088949092019181016111ba565b93509450505060ff19168452801515028201018a8080611065565b60405162461bcd60e51b815260048101859052601e60248201527f5375737520697320616c7265616479206265696e6720636172726965642100006044820152606490fd5b60405162461bcd60e51b815260206004820152602b60248201527f43616c6c657220697320616c726561647920636172727920612053757375776160448201526a7461726920546f6b656e2160a81b6064820152608490fd5b600081815260008051602061185383398151915260205260409020600501546001600160a01b031633146112dc576112d7906117c8565b610fe3565b50505060018580610feb565b5060008051602061189383398151915254831115610fc5565b346107105760003660031901126107105761131a611806565b50611323611806565b5060008060008051602061189383398151915254905b818110611510575061134a82611827565b91611358604051938461158b565b808352611367601f1991611827565b0190602091368385013760009060005b8181106114b4575050506113896117d7565b6000915b83518310156114ad576113a0838561183e565b5160008181526000805160206118538339815191528084526040909120600501549094916001600160a01b0391821633146113ea5750506113e3919293506117c8565b919061138d565b80855260008181529584526040909520600601548385015291936000198101915081116106b55761141a906116e9565b90549060031b1c1660408201525b6040519261143584611555565b83528183019081526040519180835260a0830193519160808285015282518095528160c0850193016000955b80871061149657505051805160408086019190915291810151606085015201516001600160a01b031660808301528190039150f35b909383806001928751815201950196019590611461565b9150611428565b6114bd816116e9565b90543360039290921b1c6001600160a01b0316146114e4575b6114df906117c8565b611377565b91600183018084116106b55781611508916115026114df948961183e565b526117c8565b9290506114d6565b611519816116e9565b90543360039290921b1c6001600160a01b031614611540575b61153b906117c8565b611339565b9161154d61153b916117c8565b929050611532565b604081019081106001600160401b0382111761045f57604052565b602081019081106001600160401b0382111761045f57604052565b90601f801991011681019081106001600160401b0382111761045f57604052565b81601f82011215610710578035906001600160401b03821161045f57604051926115e0601f8401601f19166020018561158b565b8284526020838301011161071057816000926020809301838601378301015290565b90608060031983011261071057600435916001600160401b03916024358381116107105782611633916004016115ac565b92604435818111610710578361164b916004016115ac565b9260643591821161071057611662916004016115ac565b90565b60005b8381106116785750506000910152565b8181015183820152602001611668565b906020916116a181518092818552858086019101611665565b601f01601f1916010190565b926116cd61166295936116db938652608060208701526080860190611688565b908482036040860152611688565b916060818403910152611688565b600080516020611893833981519152805482101561172c576000527f5b627e705e277f4cd69351cfcf0179f3685951408382038c266c60748db0394a0190600090565b634e487b7160e01b600052603260045260246000fd5b90600182811c92168015611772575b602083101461175c57565b634e487b7160e01b600052602260045260246000fd5b91607f1691611751565b1561178357565b60405162461bcd60e51b815260206004820152601d60248201527f546865205375737577617461726920646f6573206e6f742065786973740000006044820152606490fd5b60001981146106b55760010190565b60405190606082018281106001600160401b0382111761045f5760405260006040838281528260208201520152565b6040519061181382611555565b816060815260206118226117d7565b910152565b6001600160401b03811161045f5760051b60200190565b805182101561172c5760209160051b01019056fe202e1867cade063e32a2eb339a246f853a1a233314949ba8d9e2ac766f6ed848202e1867cade063e32a2eb339a246f853a1a233314949ba8d9e2ac766f6ed84a202e1867cade063e32a2eb339a246f853a1a233314949ba8d9e2ac766f6ed847a26469706673582212207dcecfe8440c1811f8620681965962171415f9a0345d5273aa86d596d646bd9164736f6c63430008120033","opcodes":"PUSH1 0x80 DUP1 PUSH1 0x40 MSTORE CALLVALUE PUSH2 0x16 JUMPI PUSH2 0x18E8 SWAP1 DUP2 PUSH2 0x1C DUP3 CODECOPY RETURN JUMPDEST PUSH1 0x0 DUP1 REVERT INVALID PUSH1 0x80 PUSH1 0x40 MSTORE PUSH1 0x4 CALLDATASIZE LT ISZERO PUSH2 0x12 JUMPI PUSH1 0x0 DUP1 REVERT JUMPDEST PUSH1 0x0 CALLDATALOAD PUSH1 0xE0 SHR DUP1 PUSH4 0x378AA701 EQ PUSH2 0x1301 JUMPI DUP1 PUSH4 0x5FD9A90D EQ PUSH2 0xFAC JUMPI DUP1 PUSH4 0x78630748 EQ PUSH2 0x9B3 JUMPI DUP1 PUSH4 0x83D4FDCE EQ PUSH2 0x715 JUMPI PUSH4 0x9A198D61 EQ PUSH2 0x53 JUMPI PUSH1 0x0 DUP1 REVERT JUMPDEST CALLVALUE PUSH2 0x710 JUMPI PUSH1 0x0 CALLDATASIZE PUSH1 0x3 NOT ADD SLT PUSH2 0x710 JUMPI CALLER PUSH1 0x0 SWAP1 DUP2 MSTORE PUSH32 0x202E1867CADE063E32A2EB339A246F853A1A233314949BA8D9E2AC766F6ED846 PUSH1 0x20 MSTORE PUSH1 0x40 SWAP1 KECCAK256 SLOAD PUSH2 0x6CB JUMPI PUSH1 0x0 DUP1 MLOAD PUSH1 0x20 PUSH2 0x1893 DUP4 CODECOPY DUP2 MLOAD SWAP2 MSTORE DUP1 SLOAD PUSH1 0x1 DUP2 ADD DUP1 SWAP2 GT PUSH2 0x6B5 JUMPI PUSH1 0x40 MLOAD SWAP1 PUSH1 0xE0 DUP3 ADD DUP3 DUP2 LT PUSH1 0x1 PUSH1 0x1 PUSH1 0x40 SHL SUB DUP3 GT OR PUSH2 0x45F JUMPI PUSH1 0x40 MSTORE DUP2 MSTORE PUSH1 0x40 MLOAD SWAP2 PUSH2 0xDF DUP4 PUSH2 0x1570 JUMP JUMPDEST PUSH1 0x0 DUP4 MSTORE PUSH1 0x20 DUP3 ADD SWAP3 DUP4 MSTORE PUSH1 0x40 MLOAD PUSH2 0xF6 DUP2 PUSH2 0x1570 JUMP JUMPDEST PUSH1 0x0 DUP2 MSTORE PUSH1 0x40 DUP4 ADD MSTORE PUSH1 0x40 MLOAD PUSH2 0x10B DUP2 PUSH2 0x1570 JUMP JUMPDEST PUSH1 0x0 DUP2 MSTORE PUSH1 0x60 DUP4 ADD MSTORE PUSH1 0x40 MLOAD PUSH2 0x120 DUP2 PUSH2 0x1570 JUMP JUMPDEST PUSH1 0x0 DUP2 MSTORE PUSH1 0x80 DUP4 ADD MSTORE CALLER PUSH1 0xA0 DUP4 ADD MSTORE PUSH1 0x0 PUSH1 0xC0 DUP4 ADD MSTORE PUSH1 0x1 PUSH2 0x173 CALLER PUSH1 0x1 DUP1 PUSH1 0xA0 SHL SUB AND PUSH1 0x0 MSTORE PUSH32 0x202E1867CADE063E32A2EB339A246F853A1A233314949BA8D9E2AC766F6ED846 PUSH1 0x20 MSTORE PUSH1 0x40 PUSH1 0x0 KECCAK256 SWAP1 JUMP JUMPDEST SSTORE DUP1 SLOAD PUSH9 0x10000000000000000 DUP2 LT ISZERO PUSH2 0x45F JUMPI PUSH2 0x196 SWAP2 PUSH1 0x1 DUP3 ADD SWAP1 SSTORE PUSH2 0x16E9 JUMP JUMPDEST DUP2 SLOAD SWAP1 PUSH1 0x3 SHL SWAP1 CALLER DUP3 SHL SWAP2 PUSH1 0x1 DUP1 PUSH1 0xA0 SHL SUB SWAP1 SHL NOT AND OR SWAP1 SSTORE DUP1 MLOAD PUSH1 0x0 MSTORE PUSH1 0x0 DUP1 MLOAD PUSH1 0x20 PUSH2 0x1853 DUP4 CODECOPY DUP2 MLOAD SWAP2 MSTORE PUSH1 0x20 MSTORE PUSH1 0x40 PUSH1 0x0 KECCAK256 SWAP2 DUP2 MLOAD DUP4 SSTORE MLOAD SWAP2 DUP3 MLOAD PUSH1 0x1 PUSH1 0x1 PUSH1 0x40 SHL SUB DUP2 GT PUSH2 0x45F JUMPI PUSH2 0x1EF PUSH1 0x1 DUP4 ADD SLOAD PUSH2 0x1742 JUMP JUMPDEST PUSH1 0x1F DUP2 GT PUSH2 0x66E JUMPI JUMPDEST POP PUSH1 0x20 PUSH1 0x1F DUP3 GT PUSH1 0x1 EQ PUSH2 0x600 JUMPI DUP2 SWAP3 SWAP4 SWAP5 PUSH1 0x0 SWAP3 PUSH2 0x5F5 JUMPI JUMPDEST POP POP DUP2 PUSH1 0x1 SHL SWAP2 PUSH1 0x0 NOT SWAP1 PUSH1 0x3 SHL SHR NOT AND OR PUSH1 0x1 DUP3 ADD SSTORE JUMPDEST PUSH1 0x40 DUP3 ADD MLOAD SWAP2 DUP3 MLOAD PUSH1 0x1 PUSH1 0x1 PUSH1 0x40 SHL SUB DUP2 GT PUSH2 0x45F JUMPI PUSH2 0x24D PUSH1 0x2 DUP5 ADD SLOAD PUSH2 0x1742 JUMP JUMPDEST PUSH1 0x1F DUP2 GT PUSH2 0x5AE JUMPI JUMPDEST POP PUSH1 0x20 PUSH1 0x1F DUP3 GT PUSH1 0x1 EQ PUSH2 0x540 JUMPI DUP2 SWAP3 SWAP4 SWAP5 PUSH1 0x0 SWAP3 PUSH2 0x535 JUMPI JUMPDEST POP POP DUP2 PUSH1 0x1 SHL SWAP2 PUSH1 0x0 NOT SWAP1 PUSH1 0x3 SHL SHR NOT AND OR PUSH1 0x2 DUP4 ADD SSTORE JUMPDEST PUSH1 0x60 DUP2 ADD MLOAD SWAP2 DUP3 MLOAD PUSH1 0x1 PUSH1 0x1 PUSH1 0x40 SHL SUB DUP2 GT PUSH2 0x45F JUMPI PUSH2 0x2AB PUSH1 0x3 DUP4 ADD SLOAD PUSH2 0x1742 JUMP JUMPDEST PUSH1 0x1F DUP2 GT PUSH2 0x4EE JUMPI JUMPDEST POP PUSH1 0x20 PUSH1 0x1F DUP3 GT PUSH1 0x1 EQ PUSH2 0x480 JUMPI DUP2 SWAP3 SWAP4 SWAP5 PUSH1 0x0 SWAP3 PUSH2 0x475 JUMPI JUMPDEST POP POP DUP2 PUSH1 0x1 SHL SWAP2 PUSH1 0x0 NOT SWAP1 PUSH1 0x3 SHL SHR NOT AND OR PUSH1 0x3 DUP3 ADD SSTORE JUMPDEST PUSH1 0x80 DUP3 ADD MLOAD SWAP2 DUP3 MLOAD PUSH1 0x1 PUSH1 0x1 PUSH1 0x40 SHL SUB DUP2 GT PUSH2 0x45F JUMPI PUSH2 0x309 PUSH1 0x4 DUP5 ADD SLOAD PUSH2 0x1742 JUMP JUMPDEST PUSH1 0x1F DUP2 GT PUSH2 0x414 JUMPI JUMPDEST POP PUSH1 0x20 PUSH1 0x1F DUP3 GT PUSH1 0x1 EQ PUSH2 0x3A8 JUMPI DUP2 SWAP3 SWAP4 SWAP5 PUSH1 0x0 SWAP3 PUSH2 0x39D JUMPI JUMPDEST POP POP DUP2 PUSH1 0x1 SHL SWAP2 PUSH1 0x0 NOT SWAP1 PUSH1 0x3 SHL SHR NOT AND OR PUSH1 0x4 DUP4 ADD SSTORE JUMPDEST PUSH1 0x5 DUP3 ADD SWAP2 PUSH1 0x1 DUP1 PUSH1 0xA0 SHL SUB PUSH1 0xA0 DUP4 ADD MLOAD AND SWAP3 PUSH1 0x1 PUSH1 0x1 PUSH1 0x60 SHL SUB PUSH1 0xA0 SHL SWAP4 DUP5 DUP3 SLOAD AND OR SWAP1 SSTORE PUSH1 0x6 PUSH1 0xC0 DUP4 ADD MLOAD SWAP2 ADD SSTORE MLOAD PUSH1 0x0 MSTORE PUSH1 0x0 DUP1 MLOAD PUSH1 0x20 PUSH2 0x1873 DUP4 CODECOPY DUP2 MLOAD SWAP2 MSTORE PUSH1 0x20 MSTORE PUSH1 0x40 PUSH1 0x0 KECCAK256 SWAP1 CALLER SWAP1 DUP3 SLOAD AND OR SWAP1 SSTORE PUSH1 0x0 DUP1 RETURN JUMPDEST ADD MLOAD SWAP1 POP CODESIZE DUP1 PUSH2 0x32C JUMP JUMPDEST PUSH1 0x1F NOT DUP3 AND SWAP1 PUSH1 0x4 DUP6 ADD PUSH1 0x0 MSTORE PUSH1 0x20 PUSH1 0x0 KECCAK256 SWAP2 PUSH1 0x0 JUMPDEST DUP2 DUP2 LT PUSH2 0x3FC JUMPI POP SWAP6 DUP4 PUSH1 0x1 SWAP6 SWAP7 SWAP8 LT PUSH2 0x3E3 JUMPI JUMPDEST POP POP POP DUP2 SHL ADD PUSH1 0x4 DUP4 ADD SSTORE PUSH2 0x344 JUMP JUMPDEST ADD MLOAD PUSH1 0x0 NOT PUSH1 0xF8 DUP5 PUSH1 0x3 SHL AND SHR NOT AND SWAP1 SSTORE CODESIZE DUP1 DUP1 PUSH2 0x3D3 JUMP JUMPDEST SWAP2 SWAP3 PUSH1 0x20 PUSH1 0x1 DUP2 SWAP3 DUP7 DUP12 ADD MLOAD DUP2 SSTORE ADD SWAP5 ADD SWAP3 ADD PUSH2 0x3BE JUMP JUMPDEST PUSH1 0x4 DUP5 ADD PUSH1 0x0 MSTORE PUSH1 0x20 PUSH1 0x0 KECCAK256 PUSH1 0x1F DUP4 ADD PUSH1 0x5 SHR DUP2 ADD SWAP2 PUSH1 0x20 DUP5 LT PUSH2 0x455 JUMPI JUMPDEST PUSH1 0x1F ADD PUSH1 0x5 SHR ADD SWAP1 JUMPDEST DUP2 DUP2 LT PUSH2 0x449 JUMPI POP PUSH2 0x312 JUMP JUMPDEST PUSH1 0x0 DUP2 SSTORE PUSH1 0x1 ADD PUSH2 0x43C JUMP JUMPDEST SWAP1 SWAP2 POP DUP2 SWAP1 PUSH2 0x433 JUMP JUMPDEST PUSH4 0x4E487B71 PUSH1 0xE0 SHL PUSH1 0x0 MSTORE PUSH1 0x41 PUSH1 0x4 MSTORE PUSH1 0x24 PUSH1 0x0 REVERT JUMPDEST ADD MLOAD SWAP1 POP CODESIZE DUP1 PUSH2 0x2CE JUMP JUMPDEST PUSH1 0x3 DUP4 ADD PUSH1 0x0 MSTORE PUSH1 0x20 PUSH1 0x0 KECCAK256 SWAP1 PUSH1 0x0 JUMPDEST PUSH1 0x1F NOT DUP5 AND DUP2 LT PUSH2 0x4D6 JUMPI POP PUSH1 0x1 SWAP4 SWAP5 SWAP6 DUP4 PUSH1 0x1F NOT DUP2 AND LT PUSH2 0x4BD JUMPI JUMPDEST POP POP POP DUP2 SHL ADD PUSH1 0x3 DUP3 ADD SSTORE PUSH2 0x2E6 JUMP JUMPDEST ADD MLOAD PUSH1 0x0 NOT PUSH1 0xF8 DUP5 PUSH1 0x3 SHL AND SHR NOT AND SWAP1 SSTORE CODESIZE DUP1 DUP1 PUSH2 0x4AD JUMP JUMPDEST SWAP1 SWAP2 PUSH1 0x20 PUSH1 0x1 DUP2 SWAP3 DUP6 DUP11 ADD MLOAD DUP2 SSTORE ADD SWAP4 ADD SWAP2 ADD PUSH2 0x490 JUMP JUMPDEST PUSH1 0x3 DUP4 ADD PUSH1 0x0 MSTORE PUSH1 0x20 PUSH1 0x0 KECCAK256 PUSH1 0x1F DUP4 ADD PUSH1 0x5 SHR DUP2 ADD PUSH1 0x20 DUP5 LT PUSH2 0x52E JUMPI JUMPDEST PUSH1 0x1F DUP4 ADD PUSH1 0x5 SHR DUP3 ADD DUP2 LT PUSH2 0x522 JUMPI POP POP PUSH2 0x2B4 JUMP JUMPDEST PUSH1 0x0 DUP2 SSTORE PUSH1 0x1 ADD PUSH2 0x50C JUMP JUMPDEST POP DUP1 PUSH2 0x50C JUMP JUMPDEST ADD MLOAD SWAP1 POP CODESIZE DUP1 PUSH2 0x270 JUMP JUMPDEST PUSH1 0x2 DUP5 ADD PUSH1 0x0 MSTORE PUSH1 0x20 PUSH1 0x0 KECCAK256 SWAP1 PUSH1 0x0 JUMPDEST PUSH1 0x1F NOT DUP5 AND DUP2 LT PUSH2 0x596 JUMPI POP PUSH1 0x1 SWAP4 SWAP5 SWAP6 DUP4 PUSH1 0x1F NOT DUP2 AND LT PUSH2 0x57D JUMPI JUMPDEST POP POP POP DUP2 SHL ADD PUSH1 0x2 DUP4 ADD SSTORE PUSH2 0x288 JUMP JUMPDEST ADD MLOAD PUSH1 0x0 NOT PUSH1 0xF8 DUP5 PUSH1 0x3 SHL AND SHR NOT AND SWAP1 SSTORE CODESIZE DUP1 DUP1 PUSH2 0x56D JUMP JUMPDEST SWAP1 SWAP2 PUSH1 0x20 PUSH1 0x1 DUP2 SWAP3 DUP6 DUP11 ADD MLOAD DUP2 SSTORE ADD SWAP4 ADD SWAP2 ADD PUSH2 0x550 JUMP JUMPDEST PUSH1 0x2 DUP5 ADD PUSH1 0x0 MSTORE PUSH1 0x20 PUSH1 0x0 KECCAK256 PUSH1 0x1F DUP4 ADD PUSH1 0x5 SHR DUP2 ADD PUSH1 0x20 DUP5 LT PUSH2 0x5EE JUMPI JUMPDEST PUSH1 0x1F DUP4 ADD PUSH1 0x5 SHR DUP3 ADD DUP2 LT PUSH2 0x5E2 JUMPI POP POP PUSH2 0x256 JUMP JUMPDEST PUSH1 0x0 DUP2 SSTORE PUSH1 0x1 ADD PUSH2 0x5CC JUMP JUMPDEST POP DUP1 PUSH2 0x5CC JUMP JUMPDEST ADD MLOAD SWAP1 POP CODESIZE DUP1 PUSH2 0x212 JUMP JUMPDEST PUSH1 0x1 DUP4 ADD PUSH1 0x0 MSTORE PUSH1 0x20 PUSH1 0x0 KECCAK256 SWAP1 PUSH1 0x0 JUMPDEST PUSH1 0x1F NOT DUP5 AND DUP2 LT PUSH2 0x656 JUMPI POP PUSH1 0x1 SWAP4 SWAP5 SWAP6 DUP4 PUSH1 0x1F NOT DUP2 AND LT PUSH2 0x63D JUMPI JUMPDEST POP POP POP DUP2 SHL ADD PUSH1 0x1 DUP3 ADD SSTORE PUSH2 0x22A JUMP JUMPDEST ADD MLOAD PUSH1 0x0 NOT PUSH1 0xF8 DUP5 PUSH1 0x3 SHL AND SHR NOT AND SWAP1 SSTORE CODESIZE DUP1 DUP1 PUSH2 0x62D JUMP JUMPDEST SWAP1 SWAP2 PUSH1 0x20 PUSH1 0x1 DUP2 SWAP3 DUP6 DUP11 ADD MLOAD DUP2 SSTORE ADD SWAP4 ADD SWAP2 ADD PUSH2 0x610 JUMP JUMPDEST PUSH1 0x1 DUP4 ADD PUSH1 0x0 MSTORE PUSH1 0x20 PUSH1 0x0 KECCAK256 PUSH1 0x1F DUP4 ADD PUSH1 0x5 SHR DUP2 ADD PUSH1 0x20 DUP5 LT PUSH2 0x6AE JUMPI JUMPDEST PUSH1 0x1F DUP4 ADD PUSH1 0x5 SHR DUP3 ADD DUP2 LT PUSH2 0x6A2 JUMPI POP POP PUSH2 0x1F8 JUMP JUMPDEST PUSH1 0x0 DUP2 SSTORE PUSH1 0x1 ADD PUSH2 0x68C JUMP JUMPDEST POP DUP1 PUSH2 0x68C JUMP JUMPDEST PUSH4 0x4E487B71 PUSH1 0xE0 SHL PUSH1 0x0 MSTORE PUSH1 0x11 PUSH1 0x4 MSTORE PUSH1 0x24 PUSH1 0x0 REVERT JUMPDEST PUSH1 0x40 MLOAD PUSH3 0x461BCD PUSH1 0xE5 SHL DUP2 MSTORE PUSH1 0x20 PUSH1 0x4 DUP3 ADD MSTORE PUSH1 0x17 PUSH1 0x24 DUP3 ADD MSTORE PUSH32 0x5573657220616C72656164792072656769737465726564000000000000000000 PUSH1 0x44 DUP3 ADD MSTORE PUSH1 0x64 SWAP1 REVERT JUMPDEST PUSH1 0x0 DUP1 REVERT JUMPDEST CALLVALUE PUSH2 0x710 JUMPI PUSH2 0x723 CALLDATASIZE PUSH2 0x1602 JUMP JUMPDEST SWAP1 DUP4 SWAP3 SWAP4 ISZERO ISZERO DUP1 PUSH2 0x99A JUMPI JUMPDEST PUSH2 0x738 SWAP1 PUSH2 0x177C JUMP JUMPDEST PUSH1 0x0 DUP4 DUP2 MSTORE PUSH1 0x0 DUP1 MLOAD PUSH1 0x20 PUSH2 0x1853 DUP4 CODECOPY DUP2 MLOAD SWAP2 MSTORE PUSH1 0x20 DUP2 DUP2 MSTORE PUSH1 0x40 SWAP1 SWAP3 KECCAK256 PUSH1 0x5 ADD SLOAD PUSH1 0x1 PUSH1 0x1 PUSH1 0xA0 SHL SUB AND CALLER SUB PUSH2 0x944 JUMPI DUP5 PUSH1 0x0 MSTORE DUP2 MSTORE PUSH1 0x40 PUSH1 0x0 KECCAK256 PUSH1 0x40 MLOAD PUSH2 0x12D DUP4 DUP3 ADD DUP3 PUSH2 0x7A8 DUP10 CALLER TIMESTAMP DUP6 SWAP2 PUSH1 0x54 SWAP4 SWAP2 DUP4 MSTORE PUSH1 0x1 PUSH1 0x1 PUSH1 0x60 SHL SUB NOT SWAP1 PUSH1 0x60 SHL AND PUSH1 0x20 DUP4 ADD MSTORE PUSH1 0x34 DUP3 ADD MSTORE ADD SWAP1 JUMP JUMPDEST SUB SWAP3 PUSH2 0x7BC PUSH1 0x1F NOT SWAP5 DUP6 DUP2 ADD DUP4 MSTORE DUP3 PUSH2 0x158B JUMP JUMPDEST MLOAD SWAP1 KECCAK256 MOD PUSH2 0x12C SWAP1 DUP2 ADD DUP1 SWAP2 GT PUSH2 0x6B5 JUMPI PUSH1 0x6 DUP4 ADD SSTORE DUP7 MLOAD PUSH1 0x2 DUP4 ADD SWAP2 PUSH1 0x1 PUSH1 0x1 PUSH1 0x40 SHL SUB DUP3 GT PUSH2 0x45F JUMPI PUSH2 0x7F1 DUP4 SLOAD PUSH2 0x1742 JUMP JUMPDEST PUSH1 0x1F DUP2 GT PUSH2 0x8FE JUMPI JUMPDEST POP DUP5 SWAP1 PUSH1 0x1F DUP4 GT PUSH1 0x1 EQ PUSH2 0x883 JUMPI POP SWAP3 PUSH1 0x0 DUP1 MLOAD PUSH1 0x20 PUSH2 0x1873 DUP4 CODECOPY DUP2 MLOAD SWAP2 MSTORE SWAP3 DUP3 PUSH1 0x5 SWAP4 PUSH2 0x874 SWAP10 SWAP9 SWAP8 SWAP7 PUSH1 0x0 SWAP2 PUSH2 0x878 JUMPI JUMPDEST POP DUP2 PUSH1 0x1 SHL SWAP2 PUSH1 0x0 NOT SWAP1 PUSH1 0x3 SHL SHR NOT AND OR SWAP1 SSTORE JUMPDEST ADD SWAP2 PUSH1 0x1 PUSH1 0x1 PUSH1 0x60 SHL SUB PUSH1 0xA0 SHL SWAP3 DUP4 DUP2 SLOAD AND SWAP1 SSTORE DUP7 PUSH1 0x0 MSTORE MSTORE PUSH1 0x40 PUSH1 0x0 KECCAK256 SWAP1 CALLER SWAP1 DUP3 SLOAD AND OR SWAP1 SSTORE PUSH1 0x40 MLOAD SWAP5 DUP6 SWAP5 DUP6 PUSH2 0x16AD JUMP JUMPDEST SUB SWAP1 RETURN JUMPDEST SWAP1 POP DUP12 ADD MLOAD DUP13 PUSH2 0x82D JUMP JUMPDEST DUP3 AND SWAP1 DUP4 PUSH1 0x0 MSTORE DUP6 PUSH1 0x0 KECCAK256 SWAP2 PUSH1 0x0 JUMPDEST DUP12 DUP3 DUP3 LT PUSH2 0x8E7 JUMPI POP POP DUP4 PUSH2 0x874 SWAP10 SWAP9 SWAP8 SWAP7 SWAP4 PUSH1 0x0 DUP1 MLOAD PUSH1 0x20 PUSH2 0x1873 DUP4 CODECOPY DUP2 MLOAD SWAP2 MSTORE SWAP7 SWAP4 PUSH1 0x5 SWAP7 PUSH1 0x1 SWAP5 LT PUSH2 0x8CE JUMPI JUMPDEST POP POP DUP2 SHL ADD SWAP1 SSTORE PUSH2 0x841 JUMP JUMPDEST DUP14 ADD MLOAD PUSH1 0x0 NOT PUSH1 0xF8 DUP5 PUSH1 0x3 SHL AND SHR NOT AND SWAP1 SSTORE DUP13 DUP1 PUSH2 0x8C2 JUMP JUMPDEST PUSH1 0x1 DUP5 SWAP6 DUP11 SWAP4 SWAP6 DUP5 SWAP4 ADD MLOAD DUP2 SSTORE ADD SWAP5 ADD SWAP3 ADD PUSH2 0x892 JUMP JUMPDEST DUP4 PUSH1 0x0 MSTORE DUP6 PUSH1 0x0 KECCAK256 PUSH1 0x1F DUP5 ADD PUSH1 0x5 SHR DUP2 ADD SWAP2 DUP8 DUP6 LT PUSH2 0x93A JUMPI JUMPDEST PUSH1 0x1F ADD PUSH1 0x5 SHR ADD SWAP1 JUMPDEST DUP2 DUP2 LT PUSH2 0x92E JUMPI POP PUSH2 0x7FA JUMP JUMPDEST PUSH1 0x0 DUP2 SSTORE PUSH1 0x1 ADD PUSH2 0x921 JUMP JUMPDEST SWAP1 SWAP2 POP DUP2 SWAP1 PUSH2 0x918 JUMP JUMPDEST PUSH1 0x40 MLOAD PUSH3 0x461BCD PUSH1 0xE5 SHL DUP2 MSTORE PUSH1 0x4 DUP2 ADD DUP4 SWAP1 MSTORE PUSH1 0x28 PUSH1 0x24 DUP3 ADD MSTORE PUSH32 0x43616C6C657220646F65736E2774206361727279206120537573757761746172 PUSH1 0x44 DUP3 ADD MSTORE PUSH8 0x6920546F6B656E21 PUSH1 0xC0 SHL PUSH1 0x64 DUP3 ADD MSTORE PUSH1 0x84 SWAP1 REVERT JUMPDEST POP PUSH1 0x0 DUP1 MLOAD PUSH1 0x20 PUSH2 0x1893 DUP4 CODECOPY DUP2 MLOAD SWAP2 MSTORE SLOAD DUP4 GT ISZERO PUSH2 0x72F JUMP JUMPDEST CALLVALUE PUSH2 0x710 JUMPI PUSH2 0x9C1 CALLDATASIZE PUSH2 0x1602 JUMP JUMPDEST SWAP1 DUP4 SWAP3 SWAP4 ISZERO ISZERO DUP1 PUSH2 0xF93 JUMPI JUMPDEST PUSH2 0x9D6 SWAP1 PUSH2 0x177C JUMP JUMPDEST PUSH1 0x0 NOT DUP4 ADD DUP4 DUP2 GT PUSH2 0x6B5 JUMPI PUSH2 0x9EB SWAP1 PUSH2 0x16E9 JUMP JUMPDEST SWAP1 SLOAD PUSH1 0x3 SWAP2 SWAP1 SWAP2 SHL SHR PUSH1 0x1 PUSH1 0x1 PUSH1 0xA0 SHL SUB SWAP1 DUP2 AND CALLER EQ SWAP1 DUP2 PUSH2 0xF68 JUMPI JUMPDEST POP ISZERO PUSH2 0xF2D JUMPI DUP3 PUSH1 0x0 MSTORE PUSH1 0x0 DUP1 MLOAD PUSH1 0x20 PUSH2 0x1853 DUP4 CODECOPY DUP2 MLOAD SWAP2 MSTORE PUSH1 0x20 MSTORE PUSH1 0x40 PUSH1 0x0 KECCAK256 PUSH2 0x12D PUSH1 0x40 MLOAD PUSH1 0x20 DUP2 ADD SWAP1 PUSH2 0xA70 DUP2 PUSH2 0xA62 DUP10 CALLER TIMESTAMP DUP8 SWAP2 PUSH1 0x54 SWAP4 SWAP2 DUP4 MSTORE PUSH1 0x1 PUSH1 0x1 PUSH1 0x60 SHL SUB NOT SWAP1 PUSH1 0x60 SHL AND PUSH1 0x20 DUP4 ADD MSTORE PUSH1 0x34 DUP3 ADD MSTORE ADD SWAP1 JUMP JUMPDEST SUB PUSH1 0x1F NOT DUP2 ADD DUP4 MSTORE DUP3 PUSH2 0x158B JUMP JUMPDEST MLOAD SWAP1 KECCAK256 MOD PUSH2 0x12C SWAP1 DUP2 ADD DUP1 SWAP2 GT PUSH2 0x6B5 JUMPI PUSH1 0x6 DUP3 ADD SSTORE DUP5 MLOAD PUSH1 0x1 PUSH1 0x1 PUSH1 0x40 SHL SUB DUP2 GT PUSH2 0x45F JUMPI PUSH2 0xAA3 PUSH1 0x1 DUP4 ADD SLOAD PUSH2 0x1742 JUMP JUMPDEST PUSH1 0x1F DUP2 GT PUSH2 0xEE6 JUMPI JUMPDEST POP DUP1 PUSH1 0x20 PUSH1 0x1F DUP3 GT PUSH1 0x1 EQ PUSH2 0xE79 JUMPI PUSH1 0x0 SWAP2 PUSH2 0xE6E JUMPI JUMPDEST POP DUP2 PUSH1 0x1 SHL SWAP2 PUSH1 0x0 NOT SWAP1 PUSH1 0x3 SHL SHR NOT AND OR PUSH1 0x1 DUP3 ADD SSTORE JUMPDEST DUP5 MLOAD PUSH1 0x1 PUSH1 0x1 PUSH1 0x40 SHL SUB DUP2 GT PUSH2 0x45F JUMPI PUSH2 0xAF7 PUSH1 0x2 DUP4 ADD SLOAD PUSH2 0x1742 JUMP JUMPDEST PUSH1 0x1F DUP2 GT PUSH2 0xE27 JUMPI JUMPDEST POP DUP1 PUSH1 0x20 PUSH1 0x1F DUP3 GT PUSH1 0x1 EQ PUSH2 0xDBA JUMPI PUSH1 0x0 SWAP2 PUSH2 0xDAF JUMPI JUMPDEST POP DUP2 PUSH1 0x1 SHL SWAP2 PUSH1 0x0 NOT SWAP1 PUSH1 0x3 SHL SHR NOT AND OR PUSH1 0x2 DUP3 ADD SSTORE JUMPDEST DUP2 MLOAD PUSH1 0x1 PUSH1 0x1 PUSH1 0x40 SHL SUB DUP2 GT PUSH2 0x45F JUMPI PUSH2 0xB4B PUSH1 0x3 DUP4 ADD SLOAD PUSH2 0x1742 JUMP JUMPDEST PUSH1 0x1F DUP2 GT PUSH2 0xD68 JUMPI JUMPDEST POP DUP1 PUSH1 0x20 PUSH1 0x1F DUP3 GT PUSH1 0x1 EQ PUSH2 0xCFB JUMPI PUSH1 0x0 SWAP2 PUSH2 0xCF0 JUMPI JUMPDEST POP DUP2 PUSH1 0x1 SHL SWAP2 PUSH1 0x0 NOT SWAP1 PUSH1 0x3 SHL SHR NOT AND OR PUSH1 0x3 DUP3 ADD SSTORE JUMPDEST DUP3 MLOAD PUSH1 0x1 PUSH1 0x1 PUSH1 0x40 SHL SUB DUP2 GT PUSH2 0x45F JUMPI PUSH2 0xB9F PUSH1 0x4 DUP4 ADD SLOAD PUSH2 0x1742 JUMP JUMPDEST PUSH1 0x1F DUP2 GT PUSH2 0xCA5 JUMPI JUMPDEST POP PUSH1 0x20 PUSH1 0x1F DUP3 GT PUSH1 0x1 EQ PUSH2 0xC30 JUMPI SWAP2 DUP2 PUSH1 0x5 SWAP3 PUSH2 0x874 SWAP7 SWAP6 SWAP5 PUSH1 0x0 SWAP2 PUSH2 0xC25 JUMPI JUMPDEST POP DUP2 PUSH1 0x1 SHL SWAP2 PUSH1 0x0 NOT SWAP1 PUSH1 0x3 SHL SHR NOT AND OR PUSH1 0x4 DUP3 ADD SSTORE JUMPDEST ADD PUSH1 0x1 PUSH1 0x1 PUSH1 0x60 SHL SUB PUSH1 0xA0 SHL SWAP1 CALLER DUP3 DUP3 SLOAD AND OR SWAP1 SSTORE DUP5 PUSH1 0x0 MSTORE PUSH1 0x0 DUP1 MLOAD PUSH1 0x20 PUSH2 0x1873 DUP4 CODECOPY DUP2 MLOAD SWAP2 MSTORE PUSH1 0x20 MSTORE PUSH1 0x40 PUSH1 0x0 KECCAK256 SWAP1 CALLER SWAP1 DUP3 SLOAD AND OR SWAP1 SSTORE PUSH1 0x40 MLOAD SWAP5 DUP6 SWAP5 DUP6 PUSH2 0x16AD JUMP JUMPDEST SWAP1 POP DUP6 ADD MLOAD DUP10 PUSH2 0xBC9 JUMP JUMPDEST PUSH1 0x4 DUP4 ADD PUSH1 0x0 MSTORE PUSH1 0x20 PUSH1 0x0 KECCAK256 SWAP1 PUSH1 0x0 JUMPDEST PUSH1 0x1F NOT DUP5 AND DUP2 LT PUSH2 0xC8D JUMPI POP DUP3 PUSH2 0x874 SWAP7 SWAP6 SWAP5 SWAP3 PUSH1 0x1 SWAP3 PUSH1 0x5 SWAP6 PUSH1 0x1F NOT DUP2 AND LT PUSH2 0xC74 JUMPI JUMPDEST POP POP DUP2 SHL ADD PUSH1 0x4 DUP3 ADD SSTORE PUSH2 0xBE0 JUMP JUMPDEST DUP8 ADD MLOAD PUSH1 0x0 NOT PUSH1 0xF8 DUP5 PUSH1 0x3 SHL AND SHR NOT AND SWAP1 SSTORE DUP10 DUP1 PUSH2 0xC65 JUMP JUMPDEST SWAP1 SWAP2 PUSH1 0x20 PUSH1 0x1 DUP2 SWAP3 DUP6 DUP11 ADD MLOAD DUP2 SSTORE ADD SWAP4 ADD SWAP2 ADD PUSH2 0xC40 JUMP JUMPDEST PUSH1 0x4 DUP4 ADD PUSH1 0x0 MSTORE PUSH1 0x20 PUSH1 0x0 KECCAK256 PUSH1 0x1F DUP4 ADD PUSH1 0x5 SHR DUP2 ADD SWAP2 PUSH1 0x20 DUP5 LT PUSH2 0xCE6 JUMPI JUMPDEST PUSH1 0x1F ADD PUSH1 0x5 SHR ADD SWAP1 JUMPDEST DUP2 DUP2 LT PUSH2 0xCDA JUMPI POP PUSH2 0xBA8 JUMP JUMPDEST PUSH1 0x0 DUP2 SSTORE PUSH1 0x1 ADD PUSH2 0xCCD JUMP JUMPDEST SWAP1 SWAP2 POP DUP2 SWAP1 PUSH2 0xCC4 JUMP JUMPDEST SWAP1 POP DUP4 ADD MLOAD DUP8 PUSH2 0xB6B JUMP JUMPDEST SWAP2 POP PUSH1 0x3 DUP4 ADD PUSH1 0x0 MSTORE PUSH1 0x20 PUSH1 0x0 KECCAK256 PUSH1 0x0 SWAP3 JUMPDEST PUSH1 0x1F NOT DUP4 AND DUP5 LT PUSH2 0xD50 JUMPI PUSH1 0x1 SWAP4 POP DUP3 PUSH1 0x1F NOT DUP2 AND LT PUSH2 0xD37 JUMPI JUMPDEST POP POP DUP2 SHL ADD PUSH1 0x3 DUP3 ADD SSTORE PUSH2 0xB82 JUMP JUMPDEST DUP6 ADD MLOAD PUSH1 0x0 NOT PUSH1 0xF8 DUP5 PUSH1 0x3 SHL AND SHR NOT AND SWAP1 SSTORE DUP8 DUP1 PUSH2 0xD28 JUMP JUMPDEST DUP6 DUP2 ADD MLOAD DUP3 SSTORE PUSH1 0x20 SWAP4 DUP5 ADD SWAP4 PUSH1 0x1 SWAP1 SWAP3 ADD SWAP2 ADD PUSH2 0xD0D JUMP JUMPDEST PUSH1 0x3 DUP4 ADD PUSH1 0x0 MSTORE PUSH1 0x20 PUSH1 0x0 KECCAK256 PUSH1 0x1F DUP4 ADD PUSH1 0x5 SHR DUP2 ADD PUSH1 0x20 DUP5 LT PUSH2 0xDA8 JUMPI JUMPDEST PUSH1 0x1F DUP4 ADD PUSH1 0x5 SHR DUP3 ADD DUP2 LT PUSH2 0xD9C JUMPI POP POP PUSH2 0xB54 JUMP JUMPDEST PUSH1 0x0 DUP2 SSTORE PUSH1 0x1 ADD PUSH2 0xD86 JUMP JUMPDEST POP DUP1 PUSH2 0xD86 JUMP JUMPDEST SWAP1 POP DUP7 ADD MLOAD DUP8 PUSH2 0xB17 JUMP JUMPDEST SWAP2 POP PUSH1 0x2 DUP4 ADD PUSH1 0x0 MSTORE PUSH1 0x20 PUSH1 0x0 KECCAK256 PUSH1 0x0 SWAP3 JUMPDEST PUSH1 0x1F NOT DUP4 AND DUP5 LT PUSH2 0xE0F JUMPI PUSH1 0x1 SWAP4 POP DUP3 PUSH1 0x1F NOT DUP2 AND LT PUSH2 0xDF6 JUMPI JUMPDEST POP POP DUP2 SHL ADD PUSH1 0x2 DUP3 ADD SSTORE PUSH2 0xB2E JUMP JUMPDEST DUP9 ADD MLOAD PUSH1 0x0 NOT PUSH1 0xF8 DUP5 PUSH1 0x3 SHL AND SHR NOT AND SWAP1 SSTORE DUP8 DUP1 PUSH2 0xDE7 JUMP JUMPDEST DUP9 DUP2 ADD MLOAD DUP3 SSTORE PUSH1 0x20 SWAP4 DUP5 ADD SWAP4 PUSH1 0x1 SWAP1 SWAP3 ADD SWAP2 ADD PUSH2 0xDCC JUMP JUMPDEST PUSH1 0x2 DUP4 ADD PUSH1 0x0 MSTORE PUSH1 0x20 PUSH1 0x0 KECCAK256 PUSH1 0x1F DUP4 ADD PUSH1 0x5 SHR DUP2 ADD PUSH1 0x20 DUP5 LT PUSH2 0xE67 JUMPI JUMPDEST PUSH1 0x1F DUP4 ADD PUSH1 0x5 SHR DUP3 ADD DUP2 LT PUSH2 0xE5B JUMPI POP POP PUSH2 0xB00 JUMP JUMPDEST PUSH1 0x0 DUP2 SSTORE PUSH1 0x1 ADD PUSH2 0xE45 JUMP JUMPDEST POP DUP1 PUSH2 0xE45 JUMP JUMPDEST SWAP1 POP DUP7 ADD MLOAD DUP8 PUSH2 0xAC3 JUMP JUMPDEST SWAP2 POP PUSH1 0x1 DUP4 ADD PUSH1 0x0 MSTORE PUSH1 0x20 PUSH1 0x0 KECCAK256 PUSH1 0x0 SWAP3 JUMPDEST PUSH1 0x1F NOT DUP4 AND DUP5 LT PUSH2 0xECE JUMPI PUSH1 0x1 SWAP4 POP DUP3 PUSH1 0x1F NOT DUP2 AND LT PUSH2 0xEB5 JUMPI JUMPDEST POP POP DUP2 SHL ADD PUSH1 0x1 DUP3 ADD SSTORE PUSH2 0xADA JUMP JUMPDEST DUP9 ADD MLOAD PUSH1 0x0 NOT PUSH1 0xF8 DUP5 PUSH1 0x3 SHL AND SHR NOT AND SWAP1 SSTORE DUP8 DUP1 PUSH2 0xEA6 JUMP JUMPDEST DUP9 DUP2 ADD MLOAD DUP3 SSTORE PUSH1 0x20 SWAP4 DUP5 ADD SWAP4 PUSH1 0x1 SWAP1 SWAP3 ADD SWAP2 ADD PUSH2 0xE8B JUMP JUMPDEST PUSH1 0x1 DUP4 ADD PUSH1 0x0 MSTORE PUSH1 0x20 PUSH1 0x0 KECCAK256 PUSH1 0x1F DUP4 ADD PUSH1 0x5 SHR DUP2 ADD PUSH1 0x20 DUP5 LT PUSH2 0xF26 JUMPI JUMPDEST PUSH1 0x1F DUP4 ADD PUSH1 0x5 SHR DUP3 ADD DUP2 LT PUSH2 0xF1A JUMPI POP POP PUSH2 0xAAC JUMP JUMPDEST PUSH1 0x0 DUP2 SSTORE PUSH1 0x1 ADD PUSH2 0xF04 JUMP JUMPDEST POP DUP1 PUSH2 0xF04 JUMP JUMPDEST PUSH1 0x40 MLOAD PUSH3 0x461BCD PUSH1 0xE5 SHL DUP2 MSTORE PUSH1 0x20 PUSH1 0x4 DUP3 ADD MSTORE PUSH1 0x13 PUSH1 0x24 DUP3 ADD MSTORE PUSH19 0x21B0B63632B91034B9903737BA1037BBB732B9 PUSH1 0x69 SHL PUSH1 0x44 DUP3 ADD MSTORE PUSH1 0x64 SWAP1 REVERT JUMPDEST SWAP1 POP DUP4 PUSH1 0x0 MSTORE PUSH1 0x0 DUP1 MLOAD PUSH1 0x20 PUSH2 0x1853 DUP4 CODECOPY DUP2 MLOAD SWAP2 MSTORE PUSH1 0x20 MSTORE CALLER SWAP1 PUSH1 0x5 PUSH1 0x40 PUSH1 0x0 KECCAK256 ADD SLOAD AND EQ DUP6 PUSH2 0xA08 JUMP JUMPDEST POP PUSH1 0x0 DUP1 MLOAD PUSH1 0x20 PUSH2 0x1893 DUP4 CODECOPY DUP2 MLOAD SWAP2 MSTORE SLOAD DUP4 GT ISZERO PUSH2 0x9CD JUMP JUMPDEST CALLVALUE PUSH2 0x710 JUMPI PUSH2 0xFBA CALLDATASIZE PUSH2 0x1602 JUMP JUMPDEST DUP4 SWAP3 SWAP4 ISZERO ISZERO DUP1 PUSH2 0x12E8 JUMPI JUMPDEST PUSH2 0xFCE SWAP1 PUSH2 0x177C JUMP JUMPDEST PUSH1 0x0 DUP1 PUSH1 0x0 DUP1 MLOAD PUSH1 0x20 PUSH2 0x1893 DUP4 CODECOPY DUP2 MLOAD SWAP2 MSTORE SLOAD SWAP1 JUMPDEST DUP2 DUP2 LT PUSH2 0x12A0 JUMPI JUMPDEST POP POP PUSH2 0x1247 JUMPI PUSH1 0x0 DUP4 DUP2 MSTORE PUSH1 0x0 DUP1 MLOAD PUSH1 0x20 PUSH2 0x1853 DUP4 CODECOPY DUP2 MLOAD SWAP2 MSTORE PUSH1 0x20 DUP2 DUP2 MSTORE PUSH1 0x40 SWAP1 SWAP3 KECCAK256 PUSH1 0x5 ADD SLOAD SWAP2 SWAP4 SWAP2 PUSH1 0x1 PUSH1 0x1 PUSH1 0xA0 SHL SUB AND PUSH2 0x1202 JUMPI DUP5 PUSH1 0x0 MSTORE DUP4 MSTORE PUSH1 0x40 PUSH1 0x0 KECCAK256 SWAP3 PUSH1 0x2 DUP5 ADD PUSH1 0x40 MLOAD SWAP1 DUP2 DUP4 DUP2 ADD SWAP2 PUSH1 0x0 SWAP1 DUP1 SLOAD PUSH2 0x104A DUP2 PUSH2 0x1742 JUMP JUMPDEST SWAP2 PUSH1 0x1 SWAP2 DUP9 DUP4 DUP3 AND SWAP2 DUP3 PUSH1 0x0 EQ PUSH2 0x11E7 JUMPI POP POP PUSH1 0x1 EQ PUSH2 0x11AB JUMPI JUMPDEST POP POP POP SUB SWAP2 PUSH2 0x107C PUSH1 0x1F NOT SWAP4 DUP5 DUP2 ADD DUP4 MSTORE DUP3 PUSH2 0x158B JUMP JUMPDEST MLOAD SWAP1 KECCAK256 DUP8 PUSH1 0x40 MLOAD PUSH2 0x10A9 DUP6 DUP3 DUP2 PUSH2 0x109C DUP2 DUP4 ADD SWAP7 DUP8 DUP2 MLOAD SWAP4 DUP5 SWAP3 ADD PUSH2 0x1665 JUMP JUMPDEST DUP2 ADD SUB DUP1 DUP5 MSTORE ADD DUP3 PUSH2 0x158B JUMP JUMPDEST MLOAD SWAP1 KECCAK256 SUB PUSH2 0x1158 JUMPI PUSH1 0x40 MLOAD TIMESTAMP DUP4 DUP3 ADD SWAP1 DUP2 MSTORE CALLER PUSH1 0x60 SHL PUSH12 0xFFFFFFFFFFFFFFFFFFFFFFFF NOT AND PUSH1 0x20 DUP3 ADD MSTORE PUSH1 0x34 DUP2 ADD DUP9 SWAP1 MSTORE PUSH2 0x12D SWAP3 SWAP1 SWAP2 SWAP1 PUSH2 0x10F6 SWAP1 DUP3 PUSH1 0x54 DUP6 ADD SUB SWAP1 DUP2 ADD DUP4 MSTORE DUP3 PUSH2 0x158B JUMP JUMPDEST MLOAD SWAP1 KECCAK256 MOD SWAP4 PUSH2 0x12C SWAP5 DUP6 ADD DUP1 SWAP6 GT PUSH2 0x6B5 JUMPI PUSH1 0x5 DUP2 PUSH2 0x874 SWAP7 PUSH1 0x6 PUSH1 0x0 DUP1 MLOAD PUSH1 0x20 PUSH2 0x1873 DUP4 CODECOPY DUP2 MLOAD SWAP2 MSTORE SWAP5 ADD SSTORE ADD SWAP2 PUSH1 0x1 PUSH1 0x1 PUSH1 0x60 SHL SUB PUSH1 0xA0 SHL SWAP3 CALLER DUP5 DUP3 SLOAD AND OR SWAP1 SSTORE DUP7 PUSH1 0x0 MSTORE MSTORE PUSH1 0x40 PUSH1 0x0 KECCAK256 SWAP1 CALLER SWAP1 DUP3 SLOAD AND OR SWAP1 SSTORE PUSH1 0x40 MLOAD SWAP5 DUP6 SWAP5 DUP6 PUSH2 0x16AD JUMP JUMPDEST PUSH1 0x40 MLOAD PUSH3 0x461BCD PUSH1 0xE5 SHL DUP2 MSTORE PUSH1 0x4 DUP2 ADD DUP4 SWAP1 MSTORE PUSH1 0x25 PUSH1 0x24 DUP3 ADD MSTORE PUSH32 0x43616C6C6572206973206E6F7420696E2074686520636F7272656374206C6F63 PUSH1 0x44 DUP3 ADD MSTORE PUSH5 0x30BA34B7B7 PUSH1 0xD9 SHL PUSH1 0x64 DUP3 ADD MSTORE PUSH1 0x84 SWAP1 REVERT JUMPDEST DUP8 SWAP4 POP PUSH1 0x0 MSTORE DUP3 PUSH1 0x0 KECCAK256 SWAP1 PUSH1 0x0 SWAP2 JUMPDEST DUP4 DUP4 LT PUSH2 0x11CF JUMPI POP POP POP DUP3 ADD ADD DUP11 DUP1 DUP1 PUSH2 0x1065 JUMP JUMPDEST DUP1 SLOAD DUP4 DUP10 ADD DUP7 ADD MSTORE DUP8 SWAP6 POP DUP9 SWAP5 SWAP1 SWAP3 ADD SWAP2 DUP2 ADD PUSH2 0x11BA JUMP JUMPDEST SWAP4 POP SWAP5 POP POP POP PUSH1 0xFF NOT AND DUP5 MSTORE DUP1 ISZERO ISZERO MUL DUP3 ADD ADD DUP11 DUP1 DUP1 PUSH2 0x1065 JUMP JUMPDEST PUSH1 0x40 MLOAD PUSH3 0x461BCD PUSH1 0xE5 SHL DUP2 MSTORE PUSH1 0x4 DUP2 ADD DUP6 SWAP1 MSTORE PUSH1 0x1E PUSH1 0x24 DUP3 ADD MSTORE PUSH32 0x5375737520697320616C7265616479206265696E672063617272696564210000 PUSH1 0x44 DUP3 ADD MSTORE PUSH1 0x64 SWAP1 REVERT JUMPDEST PUSH1 0x40 MLOAD PUSH3 0x461BCD PUSH1 0xE5 SHL DUP2 MSTORE PUSH1 0x20 PUSH1 0x4 DUP3 ADD MSTORE PUSH1 0x2B PUSH1 0x24 DUP3 ADD MSTORE PUSH32 0x43616C6C657220697320616C7265616479206361727279206120537573757761 PUSH1 0x44 DUP3 ADD MSTORE PUSH11 0x7461726920546F6B656E21 PUSH1 0xA8 SHL PUSH1 0x64 DUP3 ADD MSTORE PUSH1 0x84 SWAP1 REVERT JUMPDEST PUSH1 0x0 DUP2 DUP2 MSTORE PUSH1 0x0 DUP1 MLOAD PUSH1 0x20 PUSH2 0x1853 DUP4 CODECOPY DUP2 MLOAD SWAP2 MSTORE PUSH1 0x20 MSTORE PUSH1 0x40 SWAP1 KECCAK256 PUSH1 0x5 ADD SLOAD PUSH1 0x1 PUSH1 0x1 PUSH1 0xA0 SHL SUB AND CALLER EQ PUSH2 0x12DC JUMPI PUSH2 0x12D7 SWAP1 PUSH2 0x17C8 JUMP JUMPDEST PUSH2 0xFE3 JUMP JUMPDEST POP POP POP PUSH1 0x1 DUP6 DUP1 PUSH2 0xFEB JUMP JUMPDEST POP PUSH1 0x0 DUP1 MLOAD PUSH1 0x20 PUSH2 0x1893 DUP4 CODECOPY DUP2 MLOAD SWAP2 MSTORE SLOAD DUP4 GT ISZERO PUSH2 0xFC5 JUMP JUMPDEST CALLVALUE PUSH2 0x710 JUMPI PUSH1 0x0 CALLDATASIZE PUSH1 0x3 NOT ADD SLT PUSH2 0x710 JUMPI PUSH2 0x131A PUSH2 0x1806 JUMP JUMPDEST POP PUSH2 0x1323 PUSH2 0x1806 JUMP JUMPDEST POP PUSH1 0x0 DUP1 PUSH1 0x0 DUP1 MLOAD PUSH1 0x20 PUSH2 0x1893 DUP4 CODECOPY DUP2 MLOAD SWAP2 MSTORE SLOAD SWAP1 JUMPDEST DUP2 DUP2 LT PUSH2 0x1510 JUMPI POP PUSH2 0x134A DUP3 PUSH2 0x1827 JUMP JUMPDEST SWAP2 PUSH2 0x1358 PUSH1 0x40 MLOAD SWAP4 DUP5 PUSH2 0x158B JUMP JUMPDEST DUP1 DUP4 MSTORE PUSH2 0x1367 PUSH1 0x1F NOT SWAP2 PUSH2 0x1827 JUMP JUMPDEST ADD SWAP1 PUSH1 0x20 SWAP2 CALLDATASIZE DUP4 DUP6 ADD CALLDATACOPY PUSH1 0x0 SWAP1 PUSH1 0x0 JUMPDEST DUP2 DUP2 LT PUSH2 0x14B4 JUMPI POP POP POP PUSH2 0x1389 PUSH2 0x17D7 JUMP JUMPDEST PUSH1 0x0 SWAP2 JUMPDEST DUP4 MLOAD DUP4 LT ISZERO PUSH2 0x14AD JUMPI PUSH2 0x13A0 DUP4 DUP6 PUSH2 0x183E JUMP JUMPDEST MLOAD PUSH1 0x0 DUP2 DUP2 MSTORE PUSH1 0x0 DUP1 MLOAD PUSH1 0x20 PUSH2 0x1853 DUP4 CODECOPY DUP2 MLOAD SWAP2 MSTORE DUP1 DUP5 MSTORE PUSH1 0x40 SWAP1 SWAP2 KECCAK256 PUSH1 0x5 ADD SLOAD SWAP1 SWAP5 SWAP2 PUSH1 0x1 PUSH1 0x1 PUSH1 0xA0 SHL SUB SWAP2 DUP3 AND CALLER EQ PUSH2 0x13EA JUMPI POP POP PUSH2 0x13E3 SWAP2 SWAP3 SWAP4 POP PUSH2 0x17C8 JUMP JUMPDEST SWAP2 SWAP1 PUSH2 0x138D JUMP JUMPDEST DUP1 DUP6 MSTORE PUSH1 0x0 DUP2 DUP2 MSTORE SWAP6 DUP5 MSTORE PUSH1 0x40 SWAP1 SWAP6 KECCAK256 PUSH1 0x6 ADD SLOAD DUP4 DUP6 ADD MSTORE SWAP2 SWAP4 PUSH1 0x0 NOT DUP2 ADD SWAP2 POP DUP2 GT PUSH2 0x6B5 JUMPI PUSH2 0x141A SWAP1 PUSH2 0x16E9 JUMP JUMPDEST SWAP1 SLOAD SWAP1 PUSH1 0x3 SHL SHR AND PUSH1 0x40 DUP3 ADD MSTORE JUMPDEST PUSH1 0x40 MLOAD SWAP3 PUSH2 0x1435 DUP5 PUSH2 0x1555 JUMP JUMPDEST DUP4 MSTORE DUP2 DUP4 ADD SWAP1 DUP2 MSTORE PUSH1 0x40 MLOAD SWAP2 DUP1 DUP4 MSTORE PUSH1 0xA0 DUP4 ADD SWAP4 MLOAD SWAP2 PUSH1 0x80 DUP3 DUP6 ADD MSTORE DUP3 MLOAD DUP1 SWAP6 MSTORE DUP2 PUSH1 0xC0 DUP6 ADD SWAP4 ADD PUSH1 0x0 SWAP6 JUMPDEST DUP1 DUP8 LT PUSH2 0x1496 JUMPI POP POP MLOAD DUP1 MLOAD PUSH1 0x40 DUP1 DUP7 ADD SWAP2 SWAP1 SWAP2 MSTORE SWAP2 DUP2 ADD MLOAD PUSH1 0x60 DUP6 ADD MSTORE ADD MLOAD PUSH1 0x1 PUSH1 0x1 PUSH1 0xA0 SHL SUB AND PUSH1 0x80 DUP4 ADD MSTORE DUP2 SWAP1 SUB SWAP2 POP RETURN JUMPDEST SWAP1 SWAP4 DUP4 DUP1 PUSH1 0x1 SWAP3 DUP8 MLOAD DUP2 MSTORE ADD SWAP6 ADD SWAP7 ADD SWAP6 SWAP1 PUSH2 0x1461 JUMP JUMPDEST SWAP2 POP PUSH2 0x1428 JUMP JUMPDEST PUSH2 0x14BD DUP2 PUSH2 0x16E9 JUMP JUMPDEST SWAP1 SLOAD CALLER PUSH1 0x3 SWAP3 SWAP1 SWAP3 SHL SHR PUSH1 0x1 PUSH1 0x1 PUSH1 0xA0 SHL SUB AND EQ PUSH2 0x14E4 JUMPI JUMPDEST PUSH2 0x14DF SWAP1 PUSH2 0x17C8 JUMP JUMPDEST PUSH2 0x1377 JUMP JUMPDEST SWAP2 PUSH1 0x1 DUP4 ADD DUP1 DUP5 GT PUSH2 0x6B5 JUMPI DUP2 PUSH2 0x1508 SWAP2 PUSH2 0x1502 PUSH2 0x14DF SWAP5 DUP10 PUSH2 0x183E JUMP JUMPDEST MSTORE PUSH2 0x17C8 JUMP JUMPDEST SWAP3 SWAP1 POP PUSH2 0x14D6 JUMP JUMPDEST PUSH2 0x1519 DUP2 PUSH2 0x16E9 JUMP JUMPDEST SWAP1 SLOAD CALLER PUSH1 0x3 SWAP3 SWAP1 SWAP3 SHL SHR PUSH1 0x1 PUSH1 0x1 PUSH1 0xA0 SHL SUB AND EQ PUSH2 0x1540 JUMPI JUMPDEST PUSH2 0x153B SWAP1 PUSH2 0x17C8 JUMP JUMPDEST PUSH2 0x1339 JUMP JUMPDEST SWAP2 PUSH2 0x154D PUSH2 0x153B SWAP2 PUSH2 0x17C8 JUMP JUMPDEST SWAP3 SWAP1 POP PUSH2 0x1532 JUMP JUMPDEST PUSH1 0x40 DUP2 ADD SWAP1 DUP2 LT PUSH1 0x1 PUSH1 0x1 PUSH1 0x40 SHL SUB DUP3 GT OR PUSH2 0x45F JUMPI PUSH1 0x40 MSTORE JUMP JUMPDEST PUSH1 0x20 DUP2 ADD SWAP1 DUP2 LT PUSH1 0x1 PUSH1 0x1 PUSH1 0x40 SHL SUB DUP3 GT OR PUSH2 0x45F JUMPI PUSH1 0x40 MSTORE JUMP JUMPDEST SWAP1 PUSH1 0x1F DUP1 NOT SWAP2 ADD AND DUP2 ADD SWAP1 DUP2 LT PUSH1 0x1 PUSH1 0x1 PUSH1 0x40 SHL SUB DUP3 GT OR PUSH2 0x45F JUMPI PUSH1 0x40 MSTORE JUMP JUMPDEST DUP2 PUSH1 0x1F DUP3 ADD SLT ISZERO PUSH2 0x710 JUMPI DUP1 CALLDATALOAD SWAP1 PUSH1 0x1 PUSH1 0x1 PUSH1 0x40 SHL SUB DUP3 GT PUSH2 0x45F JUMPI PUSH1 0x40 MLOAD SWAP3 PUSH2 0x15E0 PUSH1 0x1F DUP5 ADD PUSH1 0x1F NOT AND PUSH1 0x20 ADD DUP6 PUSH2 0x158B JUMP JUMPDEST DUP3 DUP5 MSTORE PUSH1 0x20 DUP4 DUP4 ADD ADD GT PUSH2 0x710 JUMPI DUP2 PUSH1 0x0 SWAP3 PUSH1 0x20 DUP1 SWAP4 ADD DUP4 DUP7 ADD CALLDATACOPY DUP4 ADD ADD MSTORE SWAP1 JUMP JUMPDEST SWAP1 PUSH1 0x80 PUSH1 0x3 NOT DUP4 ADD SLT PUSH2 0x710 JUMPI PUSH1 0x4 CALLDATALOAD SWAP2 PUSH1 0x1 PUSH1 0x1 PUSH1 0x40 SHL SUB SWAP2 PUSH1 0x24 CALLDATALOAD DUP4 DUP2 GT PUSH2 0x710 JUMPI DUP3 PUSH2 0x1633 SWAP2 PUSH1 0x4 ADD PUSH2 0x15AC JUMP JUMPDEST SWAP3 PUSH1 0x44 CALLDATALOAD DUP2 DUP2 GT PUSH2 0x710 JUMPI DUP4 PUSH2 0x164B SWAP2 PUSH1 0x4 ADD PUSH2 0x15AC JUMP JUMPDEST SWAP3 PUSH1 0x64 CALLDATALOAD SWAP2 DUP3 GT PUSH2 0x710 JUMPI PUSH2 0x1662 SWAP2 PUSH1 0x4 ADD PUSH2 0x15AC JUMP JUMPDEST SWAP1 JUMP JUMPDEST PUSH1 0x0 JUMPDEST DUP4 DUP2 LT PUSH2 0x1678 JUMPI POP POP PUSH1 0x0 SWAP2 ADD MSTORE JUMP JUMPDEST DUP2 DUP2 ADD MLOAD DUP4 DUP3 ADD MSTORE PUSH1 0x20 ADD PUSH2 0x1668 JUMP JUMPDEST SWAP1 PUSH1 0x20 SWAP2 PUSH2 0x16A1 DUP2 MLOAD DUP1 SWAP3 DUP2 DUP6 MSTORE DUP6 DUP1 DUP7 ADD SWAP2 ADD PUSH2 0x1665 JUMP JUMPDEST PUSH1 0x1F ADD PUSH1 0x1F NOT AND ADD ADD SWAP1 JUMP JUMPDEST SWAP3 PUSH2 0x16CD PUSH2 0x1662 SWAP6 SWAP4 PUSH2 0x16DB SWAP4 DUP7 MSTORE PUSH1 0x80 PUSH1 0x20 DUP8 ADD MSTORE PUSH1 0x80 DUP7 ADD SWAP1 PUSH2 0x1688 JUMP JUMPDEST SWAP1 DUP5 DUP3 SUB PUSH1 0x40 DUP7 ADD MSTORE PUSH2 0x1688 JUMP JUMPDEST SWAP2 PUSH1 0x60 DUP2 DUP5 SUB SWAP2 ADD MSTORE PUSH2 0x1688 JUMP JUMPDEST PUSH1 0x0 DUP1 MLOAD PUSH1 0x20 PUSH2 0x1893 DUP4 CODECOPY DUP2 MLOAD SWAP2 MSTORE DUP1 SLOAD DUP3 LT ISZERO PUSH2 0x172C JUMPI PUSH1 0x0 MSTORE PUSH32 0x5B627E705E277F4CD69351CFCF0179F3685951408382038C266C60748DB0394A ADD SWAP1 PUSH1 0x0 SWAP1 JUMP JUMPDEST PUSH4 0x4E487B71 PUSH1 0xE0 SHL PUSH1 0x0 MSTORE PUSH1 0x32 PUSH1 0x4 MSTORE PUSH1 0x24 PUSH1 0x0 REVERT JUMPDEST SWAP1 PUSH1 0x1 DUP3 DUP2 SHR SWAP3 AND DUP1 ISZERO PUSH2 0x1772 JUMPI JUMPDEST PUSH1 0x20 DUP4 LT EQ PUSH2 0x175C JUMPI JUMP JUMPDEST PUSH4 0x4E487B71 PUSH1 0xE0 SHL PUSH1 0x0 MSTORE PUSH1 0x22 PUSH1 0x4 MSTORE PUSH1 0x24 PUSH1 0x0 REVERT JUMPDEST SWAP2 PUSH1 0x7F AND SWAP2 PUSH2 0x1751 JUMP JUMPDEST ISZERO PUSH2 0x1783 JUMPI JUMP JUMPDEST PUSH1 0x40 MLOAD PUSH3 0x461BCD PUSH1 0xE5 SHL DUP2 MSTORE PUSH1 0x20 PUSH1 0x4 DUP3 ADD MSTORE PUSH1 0x1D PUSH1 0x24 DUP3 ADD MSTORE PUSH32 0x546865205375737577617461726920646F6573206E6F74206578697374000000 PUSH1 0x44 DUP3 ADD MSTORE PUSH1 0x64 SWAP1 REVERT JUMPDEST PUSH1 0x0 NOT DUP2 EQ PUSH2 0x6B5 JUMPI PUSH1 0x1 ADD SWAP1 JUMP JUMPDEST PUSH1 0x40 MLOAD SWAP1 PUSH1 0x60 DUP3 ADD DUP3 DUP2 LT PUSH1 0x1 PUSH1 0x1 PUSH1 0x40 SHL SUB DUP3 GT OR PUSH2 0x45F JUMPI PUSH1 0x40 MSTORE PUSH1 0x0 PUSH1 0x40 DUP4 DUP3 DUP2 MSTORE DUP3 PUSH1 0x20 DUP3 ADD MSTORE ADD MSTORE JUMP JUMPDEST PUSH1 0x40 MLOAD SWAP1 PUSH2 0x1813 DUP3 PUSH2 0x1555 JUMP JUMPDEST DUP2 PUSH1 0x60 DUP2 MSTORE PUSH1 0x20 PUSH2 0x1822 PUSH2 0x17D7 JUMP JUMPDEST SWAP2 ADD MSTORE JUMP JUMPDEST PUSH1 0x1 PUSH1 0x1 PUSH1 0x40 SHL SUB DUP2 GT PUSH2 0x45F JUMPI PUSH1 0x5 SHL PUSH1 0x20 ADD SWAP1 JUMP JUMPDEST DUP1 MLOAD DUP3 LT ISZERO PUSH2 0x172C JUMPI PUSH1 0x20 SWAP2 PUSH1 0x5 SHL ADD ADD SWAP1 JUMP INVALID KECCAK256 0x2E XOR PUSH8 0xCADE063E32A2EB33 SWAP11 0x24 PUSH16 0x853A1A233314949BA8D9E2AC766F6ED8 BASEFEE KECCAK256 0x2E XOR PUSH8 0xCADE063E32A2EB33 SWAP11 0x24 PUSH16 0x853A1A233314949BA8D9E2AC766F6ED8 0x4A KECCAK256 0x2E XOR PUSH8 0xCADE063E32A2EB33 SWAP11 0x24 PUSH16 0x853A1A233314949BA8D9E2AC766F6ED8 SELFBALANCE LOG2 PUSH5 0x6970667358 0x22 SLT KECCAK256 PUSH30 0xCECFE8440C1811F8620681965962171415F9A0345D5273AA86D596D646BD SWAP2 PUSH5 0x736F6C6343 STOP ADDMOD SLT STOP CALLER "},"gasEstimates":{"creation":{"codeDepositCost":"1275200","executionCost":"1338","totalCost":"1276538"},"external":{"aimInitialSusu(uint256,string,string,string)":"infinite","dropSusu(uint256,string,string,string)":"infinite","getCurrentState()":"infinite","registerMe()":"infinite","tryPickupSusu(uint256,string,string,string)":"infinite"}},"methodIdentifiers":{"aimInitialSusu(uint256,string,string,string)":"78630748","dropSusu(uint256,string,string,string)":"83d4fdce","getCurrentState()":"378aa701","registerMe()":"9a198d61","tryPickupSusu(uint256,string,string,string)":"5fd9a90d"}},"storageLayout":{"storage":[],"types":null},"userdoc":{"kind":"user","methods":{},"version":1}}}}