{"contracts/SusuwatariFacet.sol":{"SusuwatariFacet":{"abi":[{"anonymous":false,"inputs":[{"indexed":false,"internalType":"uint256","name":"originLocation","type":"uint256"},{"indexed":false,"internalType":"uint256","name":"currentLocation","type":"uint256"},{"indexed":false,"internalType":"uint256","name":"destination","type":"uint256"},{"indexed":false,"internalType":"uint256","name":"tokenId","type":"uint256"},{"indexed":false,"internalType":"uint256","name":"team","type":"uint256"}],"name":"DroppedSusu","type":"event"},{"anonymous":false,"inputs":[{"indexed":false,"internalType":"uint256","name":"tokenId","type":"uint256"},{"indexed":false,"internalType":"string","name":"message","type":"string"},{"indexed":false,"internalType":"address","name":"owner","type":"address"},{"indexed":false,"internalType":"uint8","name":"team","type":"uint8"}],"name":"MintedSusu","type":"event"},{"anonymous":false,"inputs":[{"indexed":false,"internalType":"uint256","name":"tokenId","type":"uint256"},{"indexed":false,"internalType":"uint256","name":"location","type":"uint256"},{"indexed":false,"internalType":"string","name":"message","type":"string"},{"indexed":false,"internalType":"address","name":"sender","type":"address"},{"indexed":false,"internalType":"address","name":"owner","type":"address"},{"indexed":false,"internalType":"uint8","name":"team","type":"uint8"}],"name":"PickedUpSusu","type":"event"},{"inputs":[{"internalType":"uint256","name":"tokenId","type":"uint256"},{"internalType":"uint256","name":"location","type":"uint256"},{"internalType":"uint256","name":"destination","type":"uint256"},{"internalType":"string","name":"message","type":"string"}],"name":"aimInitialSusu","outputs":[{"internalType":"uint256","name":"","type":"uint256"},{"internalType":"uint256","name":"","type":"uint256"},{"internalType":"uint256","name":"","type":"uint256"},{"internalType":"string","name":"","type":"string"}],"stateMutability":"nonpayable","type":"function"},{"inputs":[{"internalType":"uint256","name":"tokenId","type":"uint256"},{"internalType":"uint256","name":"location","type":"uint256"}],"name":"dropSusu","outputs":[],"stateMutability":"nonpayable","type":"function"},{"inputs":[],"name":"getAllSusuwataris","outputs":[{"components":[{"internalType":"uint256","name":"tokenId","type":"uint256"},{"internalType":"address","name":"owner","type":"address"}],"internalType":"struct LibSusuwatari.SusuwatariInfo[]","name":"","type":"tuple[]"}],"stateMutability":"view","type":"function"},{"inputs":[],"name":"getBaggedSusus","outputs":[{"components":[{"internalType":"uint256","name":"tokenId","type":"uint256"},{"internalType":"address","name":"carrier","type":"address"}],"internalType":"struct LibSusuwatari.BaggedSusuInfo[]","name":"","type":"tuple[]"}],"stateMutability":"view","type":"function"},{"inputs":[],"name":"getCurrentState","outputs":[{"components":[{"internalType":"uint256[]","name":"ownedTokens","type":"uint256[]"},{"components":[{"internalType":"uint256","name":"susuTokenId","type":"uint256"},{"internalType":"uint256","name":"dropCooldownTime","type":"uint256"},{"internalType":"address","name":"ownerAddress","type":"address"}],"internalType":"struct BaggageSlot","name":"slot","type":"tuple"},{"internalType":"uint8","name":"team","type":"uint8"}],"internalType":"struct UserState","name":"","type":"tuple"}],"stateMutability":"view","type":"function"},{"inputs":[],"name":"giveSusuwatari","outputs":[],"stateMutability":"nonpayable","type":"function"},{"inputs":[{"internalType":"uint8","name":"team","type":"uint8"}],"name":"registerMe","outputs":[],"stateMutability":"nonpayable","type":"function"},{"inputs":[{"internalType":"uint256","name":"tokenId","type":"uint256"},{"internalType":"uint256","name":"location","type":"uint256"}],"name":"tryPickupSusu","outputs":[],"stateMutability":"nonpayable","type":"function"}],"devdoc":{"details":"Implementation of https://eips.ethereum.org/EIPS/eip-721[ERC721] Non-Fungible Token Standard, including the Metadata extension, but not including the Enumerable extension, which is available separately as {ERC721Enumerable}.","kind":"dev","methods":{},"version":1},"evm":{"bytecode":{"linkReferences":{},"object":"6080806040523461001657611bec908161001c8239f35b600080fdfe6080604052600436101561001257600080fd5b60003560e01c80632a9664c7146114f4578063378aa701146112935780637298c3c314610fee578063a6cd652314610dff578063adc65c3814610b55578063c5b9c1411461098c578063cda94eb41461053c5763ef410cf91461007457600080fd5b346105215760803660031901126105215767ffffffffffffffff606435818111610521573660238201121561052157806004013582811161052657604051906100c7601f8201601f1916602001836116a9565b808252602492368483830101116105215781600092856020930183860137830101526100fd6100f533611779565b5415156118e8565b600435151580610506575b6101119061192d565b60043560001981019081116104f157610129906117b2565b905460039190911b1c6001600160a01b03163314806104be575b1561048457600435600052600080516020611b3783398151915260205260406000209061012d60405160208101906101af816101a1600435334287916054939183526001600160601b03199060601b16602083015260348201520190565b03601f1981018352826116a9565b5190200661012c90810180911161046f57600683015582356001830155823560028301556044356003830155805193841161045a576101fe846101f5600485015461185a565b60048501611894565b602090601f85116001146103c9577f94d33e4a65e403dbe9fd19f704cb2578317b9895de0bfb552dde663632257d4c9491600091836103be575b50508160011b916000199060031b1c19161760048201555b600581016001600160601b0360a01b808254168255600435600052600080516020611b778339815191526020526040600020818154169055600080516020611b3783398151915260205260406000209280840361035f575b5050505060ff6102d36102bc6004356117b2565b905460039190911b1c6001600160a01b0316611740565b5460408051933580855260208501526044359084015260043560608401521660ff16608082015260a090a1604051600081526000602082015260006040820152608060608201526060518060808301528160005b828110610348575081600060a0809484010152601f80199101168101030190f35b608081015184820160a00152839150602001610327565b6006928392825486556001830154600187015560028301546002870155600383015460038701556103966004840160048801611979565b90546005860180549092166001600160a01b03919091161790550154910155388080806102a8565b015190503880610238565b906004830160005260206000209160005b601f198716811061044257509185916001937f94d33e4a65e403dbe9fd19f704cb2578317b9895de0bfb552dde663632257d4c97601f19811610610429575b505050811b016004820155610250565b015160001960f88460031b161c19169055388080610419565b919260206001819286850151815501940192016103da565b82634e487b7160e01b60005260416004526000fd5b83634e487b7160e01b60005260116004526000fd5b60405162461bcd60e51b8152602060048201526013818401527221b0b63632b91034b9903737ba1037bbb732b960691b6044820152606490fd5b506004356000908152600080516020611b3783398151915260205260409020600501546001600160a01b03163314610143565b82634e487b7160e01b60005260116004526000fd5b50600080516020611b57833981519152546004351115610108565b600080fd5b634e487b7160e01b600052604160045260246000fd5b346105215761054a36611623565b6105566100f533611779565b81151580610973575b6105689061192d565b600080516020611b5783398151915254906000805b83811061091a575b5061059291925015611a61565b81600052600080516020611b378339815191529160209183835260018060a01b0380600560406000200154166108d557600019830183811161080f576105d882916117b2565b919054339260031b1c16146108785782600052848452604060002094600286018381540361082557604051428782019081523360601b6bffffffffffffffffffffffff191660208201526034810187905261012d9161063a81605484016101a1565b5190200661012c90810180911161080f5760068801908155600588016001600160601b0360a01b93338583541617825587600052600080516020611b7783398151915289526040600020338682541617905588526040600020938985036107c1575b5050505050600460ff6106bf836106b2876117b2565b90549060031b1c16611740565b54169501906106cd846117b2565b90549060031b1c16916040519160009080546106e88161185a565b808652916001918083169081156107a1575060011461076a575b5050509161075491610738827f5a050f3c76b2e5b15146cf18e5d9e162fb4e6c51d6d56165c477dcfc8e2c62d4999503836116a9565b604051968796875286015260c0604086015260c08501906116cb565b91336060850152608084015260a08301520390a1005b60009081528881209093505b82841061078e57505050820185018161073884610702565b80548685018a0152928801928101610776565b60ff19168a880152505050151560051b8301860190508161073884610702565b6006938a54865560018b0154600187015554600286015560038a015460038601556107f260048b0160048701611979565b85600586019254169082541617905554910155858080808061069c565b634e487b7160e01b600052601160045260246000fd5b60405162461bcd60e51b815260048101879052602560248201527f43616c6c6572206973206e6f7420696e2074686520636f7272656374206c6f6360448201526430ba34b7b760d91b6064820152608490fd5b60405162461bcd60e51b815260048101859052602f60248201527f546865206f776e65722063616e6e6f74206d6f766520686973206f776e20616960448201526e6d656420537573757761746172692160881b6064820152608490fd5b60405162461bcd60e51b815260048101859052601e60248201527f5375737520697320616c7265616479206265696e6720636172726965642100006044820152606490fd5b600180820180831161080f576000908152600080516020611b3783398151915260205260409020600501546001600160a01b03163314610963575061095e90611a52565b61057d565b9150506105929192508291610585565b50600080516020611b578339815191525482111561055f565b3461052157600036600319011261052157600080516020611b578339815191525460009060005b818110610afd57506109c482611b0a565b916109d260405193846116a9565b8083526109e1601f1991611b0a565b0160005b818110610ad85750506000805b828110610a4c5760408051602080825286518183018190528188019383019160005b828110610a215784840385f35b8551805185526020908101516001600160a01b03169085015294810194604090930192600101610a14565b6001810180821161080f576000818152600080516020611b7783398151915260209081526040909120546001600160a01b03169081610a97575b505050610a9290611a52565b6109f2565b91610a92939491610acf9360405192610aaf84611639565b8352820152610abe8288611b22565b52610ac98187611b22565b50611a52565b91908580610a86565b602090604051610ae781611639565b60008152826000818301528287010152016109e5565b6001810180821161080f576000908152600080516020611b7783398151915260205260409020546001600160a01b0316610b40575b610b3b90611a52565b6109b3565b91610b4d610b3b91611a52565b929050610b32565b34610521576020806003193601126105215760043560ff811680820361052157610b7e33611779565b54610dba57600080516020611b5783398151915254916001830180931161080f5760405192610bac84611671565b8352838301916000835260408401936000855260608101936000855260405194610bd58661168d565b600086526080830195865260a083019633885260c0840194600086526001610bfc33611779565b55610c0633611740565b9060ff19825416179055610c193361180b565b8351600052600080516020611b3783398151915289526040600020928451845551600184015551600283015551600382015560048101855180519067ffffffffffffffff821161052657610c7782610c71855461185a565b85611894565b8990601f8311600114610d2d579282600080516020611b7783398151915293600080516020611b978339815191529c93610d1d9a99989796600092610d22575b50508160011b916000199060031b1c19161790555b6005830192600660018060a01b0396878c5116956001600160601b0360a01b96878254161790555191015583516000525260406000209033908254161790555193519451166040519485948561170b565b0390a1005b015190508d80610cb7565b90601f19831691846000528b6000209260005b818110610da3575093600080516020611b978339815191529c93610d1d9a999897969360019383600080516020611b778339815191529810610d8a575b505050811b019055610ccc565b015160001960f88460031b161c191690558d8080610d7d565b92938d600181928786015181550195019301610d40565b60405162461bcd60e51b815260048101849052601760248201527f5573657220616c726561647920726567697374657265640000000000000000006044820152606490fd5b3461052157610e0d36611623565b610e196100f533611779565b81151580610fd5575b610e2b9061192d565b81600052600080516020611b37833981519152908160205260018060a01b039133836005604060002001541603610f7f5783610d1d917f94d33e4a65e403dbe9fd19f704cb2578317b9895de0bfb552dde663632257d4c9560005280602052604060002094600686016000815560028701958655600587016001600160601b0360a01b93848254168255600080516020611b778339815191526020526040600020858154169055602052604060002093888503610f31575b50505050506003600185015493549401549060ff610f0033611740565b541691604051958695869360809360ff939796929760a0870198875260208701526040860152606085015216910152565b6006938954865560018a015460018701558854600287015560038a01546003870155610f6360048b0160048801611979565b6005860192541690825416179055549101558580808080610ee3565b60405162461bcd60e51b815260206004820152602860248201527f43616c6c657220646f65736e27742063617272792061205375737577617461726044820152676920546f6b656e2160c01b6064820152608490fd5b50600080516020611b5783398151915254821115610e22565b346105215760003660031901126105215761100b6100f533611779565b600080516020611b57833981519152546000805b82811061123e575b506110329015611a61565b600180820180921161080f576040519161104b83611671565b825260209182810160008152604082019060008252606083019160008352604051946110768661168d565b600086526080850195865260a085019333855260c08601926000845261109b3361180b565b8651600052600080516020611b378339815191528952604060002094875186555183860155516002850155516003840155600483019086519081519167ffffffffffffffff8311610526576110fa836110f4865461185a565b86611894565b8990601f84116001146111b457928080600080516020611b978339815191529c9794600080516020611b778339815191529997946006976000946111a9575b50501b916000199060031b1c19161790555b600583019560018060a01b03905116956001600160601b0360a01b9687825416179055519101558351600052526040600020903390825416179055610d1d60ff61119433611740565b5416915192519160405193849333918561170b565b015192508e80611139565b90601f93929319831691856000528b6000209260005b818110611229575092600695928592600080516020611b978339815191529e9996600080516020611b778339815191529b999610611210575b505050811b01905561114b565b015160001960f88460031b161c191690558c8080611203565b82840151855593860193928d01928d016111ca565b600180820180831161080f576000908152600080516020611b3783398151915260205260409020600501546001600160a01b03163314611287575061128290611a52565b61101f565b91506110329050611027565b34610521576000366003190112610521576112ac611ae3565b506112b5611ae3565b50600080600080516020611b5783398151915254905b8181106114af57506112dc82611b0a565b916112ea60405193846116a9565b8083526112f9601f1991611b0a565b019160209236848301376000805b838110611453575050611318611ac4565b916000905b8082106113c6575b505060ff61133233611740565b54166040519161134183611655565b8252838201928352604082019081526040519284845260c0840192519260a08686015283518091528560e0860194019060005b8181106113b25750505090839460ff925190815160408701528101516060860152604060018060a01b03910151166080850152511660a08301520390f35b825186529487019491870191600101611374565b600182019182811161080f576000838152600080516020611b77833981519152875260409020546001600160a01b03939084163314611411575061140b919250611a52565b9061131d565b61143f9250808652600052600080516020611b378339815191528652600660406000200154868601526117b2565b90549060031b1c1660408301528380611325565b61145c816117b2565b90543360039290921b1c6001600160a01b031614611483575b61147e90611a52565b611307565b906001820180831161080f57816114a7916114a161147e9487611b22565b52611a52565b919050611475565b6114b8816117b2565b90543360039290921b1c6001600160a01b0316146114df575b6114da90611a52565b6112cb565b916114ec6114da91611a52565b9290506114d1565b3461052157600036600319011261052157600080516020611b578339815191525461151e81611b0a565b9061152c60405192836116a9565b808252601f1961153b82611b0a565b0160005b8181106115fe57505060005b8181106115a55760408051602080825285518183018190528187019383019160005b82811061157a5784840385f35b8551805185526020908101516001600160a01b0316908501529481019460409093019260010161156d565b600181019081811161080f576115f9916115be826117b2565b9054604051926115cd84611639565b835260039190911b1c6001600160a01b031660208201526115ee8286611b22565b52610ac98185611b22565b61154b565b60209060405161160d81611639565b600081528260008183015282870101520161153f565b6040906003190112610521576004359060243590565b6040810190811067ffffffffffffffff82111761052657604052565b6060810190811067ffffffffffffffff82111761052657604052565b60e0810190811067ffffffffffffffff82111761052657604052565b6020810190811067ffffffffffffffff82111761052657604052565b90601f8019910116810190811067ffffffffffffffff82111761052657604052565b919082519283825260005b8481106116f7575050826000602080949584010152601f8019910116010190565b6020818301810151848301820152016116d6565b92949361172a60609360ff9386526080602087015260808601906116cb565b6001600160a01b03909616604085015216910152565b6001600160a01b031660009081527f202e1867cade063e32a2eb339a246f853a1a233314949ba8d9e2ac766f6ed8496020526040902090565b6001600160a01b031660009081527f202e1867cade063e32a2eb339a246f853a1a233314949ba8d9e2ac766f6ed8466020526040902090565b600080516020611b5783398151915280548210156117f5576000527f5b627e705e277f4cd69351cfcf0179f3685951408382038c266c60748db0394a0190600090565b634e487b7160e01b600052603260045260246000fd5b600080516020611b578339815191528054680100000000000000008110156105265761183c916001820190556117b2565b819291549060031b9160018060a01b03809116831b921b1916179055565b90600182811c9216801561188a575b602083101461187457565b634e487b7160e01b600052602260045260246000fd5b91607f1691611869565b90601f81116118a257505050565b600091825260208220906020601f850160051c830194106118de575b601f0160051c01915b8281106118d357505050565b8181556001016118c7565b90925082906118be565b156118ef57565b60405162461bcd60e51b8152602060048201526016602482015275155cd95c881a5cc81b9bdd081c9959da5cdd195c995960521b6044820152606490fd5b1561193457565b60405162461bcd60e51b815260206004820152601d60248201527f546865205375737577617461726920646f6573206e6f742065786973740000006044820152606490fd5b90808214611a4e5761198b815461185a565b9067ffffffffffffffff82116105265781906119ab826110f4865461185a565b600090601f83116001146119e2576000926119d7575b50508160011b916000199060031b1c1916179055565b0154905038806119c1565b81526020808220858352818320935090601f1985169083905b828210611a35575050908460019594939210611a1c575b505050811b019055565b015460001960f88460031b161c19169055388080611a12565b84958192958501548155600180910196019401906119fb565b5050565b600019811461080f5760010190565b15611a6857565b60405162461bcd60e51b815260206004820152602e60248201527f43616c6c657220697320616c7265616479206361727279696e6720612053757360448201526d7577617461726920546f6b656e2160901b6064820152608490fd5b60405190611ad182611655565b60006040838281528260208201520152565b60405190611af082611655565b600060408360608152611b01611ac4565b60208201520152565b67ffffffffffffffff81116105265760051b60200190565b80518210156117f55760209160051b01019056fe202e1867cade063e32a2eb339a246f853a1a233314949ba8d9e2ac766f6ed848202e1867cade063e32a2eb339a246f853a1a233314949ba8d9e2ac766f6ed847202e1867cade063e32a2eb339a246f853a1a233314949ba8d9e2ac766f6ed84b2ca41edd488e9162ca27cfff639cbe72d7b237e97090033ebb9212a7ec2de82da2646970667358221220adea4feccb7fac6129c290b716612f85afea94b739d64c9f9adc7f1b4f201cf564736f6c63430008120033","opcodes":"PUSH1 0x80 DUP1 PUSH1 0x40 MSTORE CALLVALUE PUSH2 0x16 JUMPI PUSH2 0x1BEC SWAP1 DUP2 PUSH2 0x1C DUP3 CODECOPY RETURN JUMPDEST PUSH1 0x0 DUP1 REVERT INVALID PUSH1 0x80 PUSH1 0x40 MSTORE PUSH1 0x4 CALLDATASIZE LT ISZERO PUSH2 0x12 JUMPI PUSH1 0x0 DUP1 REVERT JUMPDEST PUSH1 0x0 CALLDATALOAD PUSH1 0xE0 SHR DUP1 PUSH4 0x2A9664C7 EQ PUSH2 0x14F4 JUMPI DUP1 PUSH4 0x378AA701 EQ PUSH2 0x1293 JUMPI DUP1 PUSH4 0x7298C3C3 EQ PUSH2 0xFEE JUMPI DUP1 PUSH4 0xA6CD6523 EQ PUSH2 0xDFF JUMPI DUP1 PUSH4 0xADC65C38 EQ PUSH2 0xB55 JUMPI DUP1 PUSH4 0xC5B9C141 EQ PUSH2 0x98C JUMPI DUP1 PUSH4 0xCDA94EB4 EQ PUSH2 0x53C JUMPI PUSH4 0xEF410CF9 EQ PUSH2 0x74 JUMPI PUSH1 0x0 DUP1 REVERT JUMPDEST CALLVALUE PUSH2 0x521 JUMPI PUSH1 0x80 CALLDATASIZE PUSH1 0x3 NOT ADD SLT PUSH2 0x521 JUMPI PUSH8 0xFFFFFFFFFFFFFFFF PUSH1 0x64 CALLDATALOAD DUP2 DUP2 GT PUSH2 0x521 JUMPI CALLDATASIZE PUSH1 0x23 DUP3 ADD SLT ISZERO PUSH2 0x521 JUMPI DUP1 PUSH1 0x4 ADD CALLDATALOAD DUP3 DUP2 GT PUSH2 0x526 JUMPI PUSH1 0x40 MLOAD SWAP1 PUSH2 0xC7 PUSH1 0x1F DUP3 ADD PUSH1 0x1F NOT AND PUSH1 0x20 ADD DUP4 PUSH2 0x16A9 JUMP JUMPDEST DUP1 DUP3 MSTORE PUSH1 0x24 SWAP3 CALLDATASIZE DUP5 DUP4 DUP4 ADD ADD GT PUSH2 0x521 JUMPI DUP2 PUSH1 0x0 SWAP3 DUP6 PUSH1 0x20 SWAP4 ADD DUP4 DUP7 ADD CALLDATACOPY DUP4 ADD ADD MSTORE PUSH2 0xFD PUSH2 0xF5 CALLER PUSH2 0x1779 JUMP JUMPDEST SLOAD ISZERO ISZERO PUSH2 0x18E8 JUMP JUMPDEST PUSH1 0x4 CALLDATALOAD ISZERO ISZERO DUP1 PUSH2 0x506 JUMPI JUMPDEST PUSH2 0x111 SWAP1 PUSH2 0x192D JUMP JUMPDEST PUSH1 0x4 CALLDATALOAD PUSH1 0x0 NOT DUP2 ADD SWAP1 DUP2 GT PUSH2 0x4F1 JUMPI PUSH2 0x129 SWAP1 PUSH2 0x17B2 JUMP JUMPDEST SWAP1 SLOAD PUSH1 0x3 SWAP2 SWAP1 SWAP2 SHL SHR PUSH1 0x1 PUSH1 0x1 PUSH1 0xA0 SHL SUB AND CALLER EQ DUP1 PUSH2 0x4BE JUMPI JUMPDEST ISZERO PUSH2 0x484 JUMPI PUSH1 0x4 CALLDATALOAD PUSH1 0x0 MSTORE PUSH1 0x0 DUP1 MLOAD PUSH1 0x20 PUSH2 0x1B37 DUP4 CODECOPY DUP2 MLOAD SWAP2 MSTORE PUSH1 0x20 MSTORE PUSH1 0x40 PUSH1 0x0 KECCAK256 SWAP1 PUSH2 0x12D PUSH1 0x40 MLOAD PUSH1 0x20 DUP2 ADD SWAP1 PUSH2 0x1AF DUP2 PUSH2 0x1A1 PUSH1 0x4 CALLDATALOAD CALLER TIMESTAMP DUP8 SWAP2 PUSH1 0x54 SWAP4 SWAP2 DUP4 MSTORE PUSH1 0x1 PUSH1 0x1 PUSH1 0x60 SHL SUB NOT SWAP1 PUSH1 0x60 SHL AND PUSH1 0x20 DUP4 ADD MSTORE PUSH1 0x34 DUP3 ADD MSTORE ADD SWAP1 JUMP JUMPDEST SUB PUSH1 0x1F NOT DUP2 ADD DUP4 MSTORE DUP3 PUSH2 0x16A9 JUMP JUMPDEST MLOAD SWAP1 KECCAK256 MOD PUSH2 0x12C SWAP1 DUP2 ADD DUP1 SWAP2 GT PUSH2 0x46F JUMPI PUSH1 0x6 DUP4 ADD SSTORE DUP3 CALLDATALOAD PUSH1 0x1 DUP4 ADD SSTORE DUP3 CALLDATALOAD PUSH1 0x2 DUP4 ADD SSTORE PUSH1 0x44 CALLDATALOAD PUSH1 0x3 DUP4 ADD SSTORE DUP1 MLOAD SWAP4 DUP5 GT PUSH2 0x45A JUMPI PUSH2 0x1FE DUP5 PUSH2 0x1F5 PUSH1 0x4 DUP6 ADD SLOAD PUSH2 0x185A JUMP JUMPDEST PUSH1 0x4 DUP6 ADD PUSH2 0x1894 JUMP JUMPDEST PUSH1 0x20 SWAP1 PUSH1 0x1F DUP6 GT PUSH1 0x1 EQ PUSH2 0x3C9 JUMPI PUSH32 0x94D33E4A65E403DBE9FD19F704CB2578317B9895DE0BFB552DDE663632257D4C SWAP5 SWAP2 PUSH1 0x0 SWAP2 DUP4 PUSH2 0x3BE JUMPI JUMPDEST POP POP DUP2 PUSH1 0x1 SHL SWAP2 PUSH1 0x0 NOT SWAP1 PUSH1 0x3 SHL SHR NOT AND OR PUSH1 0x4 DUP3 ADD SSTORE JUMPDEST PUSH1 0x5 DUP2 ADD PUSH1 0x1 PUSH1 0x1 PUSH1 0x60 SHL SUB PUSH1 0xA0 SHL DUP1 DUP3 SLOAD AND DUP3 SSTORE PUSH1 0x4 CALLDATALOAD PUSH1 0x0 MSTORE PUSH1 0x0 DUP1 MLOAD PUSH1 0x20 PUSH2 0x1B77 DUP4 CODECOPY DUP2 MLOAD SWAP2 MSTORE PUSH1 0x20 MSTORE PUSH1 0x40 PUSH1 0x0 KECCAK256 DUP2 DUP2 SLOAD AND SWAP1 SSTORE PUSH1 0x0 DUP1 MLOAD PUSH1 0x20 PUSH2 0x1B37 DUP4 CODECOPY DUP2 MLOAD SWAP2 MSTORE PUSH1 0x20 MSTORE PUSH1 0x40 PUSH1 0x0 KECCAK256 SWAP3 DUP1 DUP5 SUB PUSH2 0x35F JUMPI JUMPDEST POP POP POP POP PUSH1 0xFF PUSH2 0x2D3 PUSH2 0x2BC PUSH1 0x4 CALLDATALOAD PUSH2 0x17B2 JUMP JUMPDEST SWAP1 SLOAD PUSH1 0x3 SWAP2 SWAP1 SWAP2 SHL SHR PUSH1 0x1 PUSH1 0x1 PUSH1 0xA0 SHL SUB AND PUSH2 0x1740 JUMP JUMPDEST SLOAD PUSH1 0x40 DUP1 MLOAD SWAP4 CALLDATALOAD DUP1 DUP6 MSTORE PUSH1 0x20 DUP6 ADD MSTORE PUSH1 0x44 CALLDATALOAD SWAP1 DUP5 ADD MSTORE PUSH1 0x4 CALLDATALOAD PUSH1 0x60 DUP5 ADD MSTORE AND PUSH1 0xFF AND PUSH1 0x80 DUP3 ADD MSTORE PUSH1 0xA0 SWAP1 LOG1 PUSH1 0x40 MLOAD PUSH1 0x0 DUP2 MSTORE PUSH1 0x0 PUSH1 0x20 DUP3 ADD MSTORE PUSH1 0x0 PUSH1 0x40 DUP3 ADD MSTORE PUSH1 0x80 PUSH1 0x60 DUP3 ADD MSTORE PUSH1 0x60 MLOAD DUP1 PUSH1 0x80 DUP4 ADD MSTORE DUP2 PUSH1 0x0 JUMPDEST DUP3 DUP2 LT PUSH2 0x348 JUMPI POP DUP2 PUSH1 0x0 PUSH1 0xA0 DUP1 SWAP5 DUP5 ADD ADD MSTORE PUSH1 0x1F DUP1 NOT SWAP2 ADD AND DUP2 ADD SUB ADD SWAP1 RETURN JUMPDEST PUSH1 0x80 DUP2 ADD MLOAD DUP5 DUP3 ADD PUSH1 0xA0 ADD MSTORE DUP4 SWAP2 POP PUSH1 0x20 ADD PUSH2 0x327 JUMP JUMPDEST PUSH1 0x6 SWAP3 DUP4 SWAP3 DUP3 SLOAD DUP7 SSTORE PUSH1 0x1 DUP4 ADD SLOAD PUSH1 0x1 DUP8 ADD SSTORE PUSH1 0x2 DUP4 ADD SLOAD PUSH1 0x2 DUP8 ADD SSTORE PUSH1 0x3 DUP4 ADD SLOAD PUSH1 0x3 DUP8 ADD SSTORE PUSH2 0x396 PUSH1 0x4 DUP5 ADD PUSH1 0x4 DUP9 ADD PUSH2 0x1979 JUMP JUMPDEST SWAP1 SLOAD PUSH1 0x5 DUP7 ADD DUP1 SLOAD SWAP1 SWAP3 AND PUSH1 0x1 PUSH1 0x1 PUSH1 0xA0 SHL SUB SWAP2 SWAP1 SWAP2 AND OR SWAP1 SSTORE ADD SLOAD SWAP2 ADD SSTORE CODESIZE DUP1 DUP1 DUP1 PUSH2 0x2A8 JUMP JUMPDEST ADD MLOAD SWAP1 POP CODESIZE DUP1 PUSH2 0x238 JUMP JUMPDEST SWAP1 PUSH1 0x4 DUP4 ADD PUSH1 0x0 MSTORE PUSH1 0x20 PUSH1 0x0 KECCAK256 SWAP2 PUSH1 0x0 JUMPDEST PUSH1 0x1F NOT DUP8 AND DUP2 LT PUSH2 0x442 JUMPI POP SWAP2 DUP6 SWAP2 PUSH1 0x1 SWAP4 PUSH32 0x94D33E4A65E403DBE9FD19F704CB2578317B9895DE0BFB552DDE663632257D4C SWAP8 PUSH1 0x1F NOT DUP2 AND LT PUSH2 0x429 JUMPI JUMPDEST POP POP POP DUP2 SHL ADD PUSH1 0x4 DUP3 ADD SSTORE PUSH2 0x250 JUMP JUMPDEST ADD MLOAD PUSH1 0x0 NOT PUSH1 0xF8 DUP5 PUSH1 0x3 SHL AND SHR NOT AND SWAP1 SSTORE CODESIZE DUP1 DUP1 PUSH2 0x419 JUMP JUMPDEST SWAP2 SWAP3 PUSH1 0x20 PUSH1 0x1 DUP2 SWAP3 DUP7 DUP6 ADD MLOAD DUP2 SSTORE ADD SWAP5 ADD SWAP3 ADD PUSH2 0x3DA JUMP JUMPDEST DUP3 PUSH4 0x4E487B71 PUSH1 0xE0 SHL PUSH1 0x0 MSTORE PUSH1 0x41 PUSH1 0x4 MSTORE PUSH1 0x0 REVERT JUMPDEST DUP4 PUSH4 0x4E487B71 PUSH1 0xE0 SHL PUSH1 0x0 MSTORE PUSH1 0x11 PUSH1 0x4 MSTORE PUSH1 0x0 REVERT JUMPDEST PUSH1 0x40 MLOAD PUSH3 0x461BCD PUSH1 0xE5 SHL DUP2 MSTORE PUSH1 0x20 PUSH1 0x4 DUP3 ADD MSTORE PUSH1 0x13 DUP2 DUP5 ADD MSTORE PUSH19 0x21B0B63632B91034B9903737BA1037BBB732B9 PUSH1 0x69 SHL PUSH1 0x44 DUP3 ADD MSTORE PUSH1 0x64 SWAP1 REVERT JUMPDEST POP PUSH1 0x4 CALLDATALOAD PUSH1 0x0 SWAP1 DUP2 MSTORE PUSH1 0x0 DUP1 MLOAD PUSH1 0x20 PUSH2 0x1B37 DUP4 CODECOPY DUP2 MLOAD SWAP2 MSTORE PUSH1 0x20 MSTORE PUSH1 0x40 SWAP1 KECCAK256 PUSH1 0x5 ADD SLOAD PUSH1 0x1 PUSH1 0x1 PUSH1 0xA0 SHL SUB AND CALLER EQ PUSH2 0x143 JUMP JUMPDEST DUP3 PUSH4 0x4E487B71 PUSH1 0xE0 SHL PUSH1 0x0 MSTORE PUSH1 0x11 PUSH1 0x4 MSTORE PUSH1 0x0 REVERT JUMPDEST POP PUSH1 0x0 DUP1 MLOAD PUSH1 0x20 PUSH2 0x1B57 DUP4 CODECOPY DUP2 MLOAD SWAP2 MSTORE SLOAD PUSH1 0x4 CALLDATALOAD GT ISZERO PUSH2 0x108 JUMP JUMPDEST PUSH1 0x0 DUP1 REVERT JUMPDEST PUSH4 0x4E487B71 PUSH1 0xE0 SHL PUSH1 0x0 MSTORE PUSH1 0x41 PUSH1 0x4 MSTORE PUSH1 0x24 PUSH1 0x0 REVERT JUMPDEST CALLVALUE PUSH2 0x521 JUMPI PUSH2 0x54A CALLDATASIZE PUSH2 0x1623 JUMP JUMPDEST PUSH2 0x556 PUSH2 0xF5 CALLER PUSH2 0x1779 JUMP JUMPDEST DUP2 ISZERO ISZERO DUP1 PUSH2 0x973 JUMPI JUMPDEST PUSH2 0x568 SWAP1 PUSH2 0x192D JUMP JUMPDEST PUSH1 0x0 DUP1 MLOAD PUSH1 0x20 PUSH2 0x1B57 DUP4 CODECOPY DUP2 MLOAD SWAP2 MSTORE SLOAD SWAP1 PUSH1 0x0 DUP1 JUMPDEST DUP4 DUP2 LT PUSH2 0x91A JUMPI JUMPDEST POP PUSH2 0x592 SWAP2 SWAP3 POP ISZERO PUSH2 0x1A61 JUMP JUMPDEST DUP2 PUSH1 0x0 MSTORE PUSH1 0x0 DUP1 MLOAD PUSH1 0x20 PUSH2 0x1B37 DUP4 CODECOPY DUP2 MLOAD SWAP2 MSTORE SWAP2 PUSH1 0x20 SWAP2 DUP4 DUP4 MSTORE PUSH1 0x1 DUP1 PUSH1 0xA0 SHL SUB DUP1 PUSH1 0x5 PUSH1 0x40 PUSH1 0x0 KECCAK256 ADD SLOAD AND PUSH2 0x8D5 JUMPI PUSH1 0x0 NOT DUP4 ADD DUP4 DUP2 GT PUSH2 0x80F JUMPI PUSH2 0x5D8 DUP3 SWAP2 PUSH2 0x17B2 JUMP JUMPDEST SWAP2 SWAP1 SLOAD CALLER SWAP3 PUSH1 0x3 SHL SHR AND EQ PUSH2 0x878 JUMPI DUP3 PUSH1 0x0 MSTORE DUP5 DUP5 MSTORE PUSH1 0x40 PUSH1 0x0 KECCAK256 SWAP5 PUSH1 0x2 DUP7 ADD DUP4 DUP2 SLOAD SUB PUSH2 0x825 JUMPI PUSH1 0x40 MLOAD TIMESTAMP DUP8 DUP3 ADD SWAP1 DUP2 MSTORE CALLER PUSH1 0x60 SHL PUSH12 0xFFFFFFFFFFFFFFFFFFFFFFFF NOT AND PUSH1 0x20 DUP3 ADD MSTORE PUSH1 0x34 DUP2 ADD DUP8 SWAP1 MSTORE PUSH2 0x12D SWAP2 PUSH2 0x63A DUP2 PUSH1 0x54 DUP5 ADD PUSH2 0x1A1 JUMP JUMPDEST MLOAD SWAP1 KECCAK256 MOD PUSH2 0x12C SWAP1 DUP2 ADD DUP1 SWAP2 GT PUSH2 0x80F JUMPI PUSH1 0x6 DUP9 ADD SWAP1 DUP2 SSTORE PUSH1 0x5 DUP9 ADD PUSH1 0x1 PUSH1 0x1 PUSH1 0x60 SHL SUB PUSH1 0xA0 SHL SWAP4 CALLER DUP6 DUP4 SLOAD AND OR DUP3 SSTORE DUP8 PUSH1 0x0 MSTORE PUSH1 0x0 DUP1 MLOAD PUSH1 0x20 PUSH2 0x1B77 DUP4 CODECOPY DUP2 MLOAD SWAP2 MSTORE DUP10 MSTORE PUSH1 0x40 PUSH1 0x0 KECCAK256 CALLER DUP7 DUP3 SLOAD AND OR SWAP1 SSTORE DUP9 MSTORE PUSH1 0x40 PUSH1 0x0 KECCAK256 SWAP4 DUP10 DUP6 SUB PUSH2 0x7C1 JUMPI JUMPDEST POP POP POP POP POP PUSH1 0x4 PUSH1 0xFF PUSH2 0x6BF DUP4 PUSH2 0x6B2 DUP8 PUSH2 0x17B2 JUMP JUMPDEST SWAP1 SLOAD SWAP1 PUSH1 0x3 SHL SHR AND PUSH2 0x1740 JUMP JUMPDEST SLOAD AND SWAP6 ADD SWAP1 PUSH2 0x6CD DUP5 PUSH2 0x17B2 JUMP JUMPDEST SWAP1 SLOAD SWAP1 PUSH1 0x3 SHL SHR AND SWAP2 PUSH1 0x40 MLOAD SWAP2 PUSH1 0x0 SWAP1 DUP1 SLOAD PUSH2 0x6E8 DUP2 PUSH2 0x185A JUMP JUMPDEST DUP1 DUP7 MSTORE SWAP2 PUSH1 0x1 SWAP2 DUP1 DUP4 AND SWAP1 DUP2 ISZERO PUSH2 0x7A1 JUMPI POP PUSH1 0x1 EQ PUSH2 0x76A JUMPI JUMPDEST POP POP POP SWAP2 PUSH2 0x754 SWAP2 PUSH2 0x738 DUP3 PUSH32 0x5A050F3C76B2E5B15146CF18E5D9E162FB4E6C51D6D56165C477DCFC8E2C62D4 SWAP10 SWAP6 SUB DUP4 PUSH2 0x16A9 JUMP JUMPDEST PUSH1 0x40 MLOAD SWAP7 DUP8 SWAP7 DUP8 MSTORE DUP7 ADD MSTORE PUSH1 0xC0 PUSH1 0x40 DUP7 ADD MSTORE PUSH1 0xC0 DUP6 ADD SWAP1 PUSH2 0x16CB JUMP JUMPDEST SWAP2 CALLER PUSH1 0x60 DUP6 ADD MSTORE PUSH1 0x80 DUP5 ADD MSTORE PUSH1 0xA0 DUP4 ADD MSTORE SUB SWAP1 LOG1 STOP JUMPDEST PUSH1 0x0 SWAP1 DUP2 MSTORE DUP9 DUP2 KECCAK256 SWAP1 SWAP4 POP JUMPDEST DUP3 DUP5 LT PUSH2 0x78E JUMPI POP POP POP DUP3 ADD DUP6 ADD DUP2 PUSH2 0x738 DUP5 PUSH2 0x702 JUMP JUMPDEST DUP1 SLOAD DUP7 DUP6 ADD DUP11 ADD MSTORE SWAP3 DUP9 ADD SWAP3 DUP2 ADD PUSH2 0x776 JUMP JUMPDEST PUSH1 0xFF NOT AND DUP11 DUP9 ADD MSTORE POP POP POP ISZERO ISZERO PUSH1 0x5 SHL DUP4 ADD DUP7 ADD SWAP1 POP DUP2 PUSH2 0x738 DUP5 PUSH2 0x702 JUMP JUMPDEST PUSH1 0x6 SWAP4 DUP11 SLOAD DUP7 SSTORE PUSH1 0x1 DUP12 ADD SLOAD PUSH1 0x1 DUP8 ADD SSTORE SLOAD PUSH1 0x2 DUP7 ADD SSTORE PUSH1 0x3 DUP11 ADD SLOAD PUSH1 0x3 DUP7 ADD SSTORE PUSH2 0x7F2 PUSH1 0x4 DUP12 ADD PUSH1 0x4 DUP8 ADD PUSH2 0x1979 JUMP JUMPDEST DUP6 PUSH1 0x5 DUP7 ADD SWAP3 SLOAD AND SWAP1 DUP3 SLOAD AND OR SWAP1 SSTORE SLOAD SWAP2 ADD SSTORE DUP6 DUP1 DUP1 DUP1 DUP1 PUSH2 0x69C JUMP JUMPDEST PUSH4 0x4E487B71 PUSH1 0xE0 SHL PUSH1 0x0 MSTORE PUSH1 0x11 PUSH1 0x4 MSTORE PUSH1 0x24 PUSH1 0x0 REVERT JUMPDEST PUSH1 0x40 MLOAD PUSH3 0x461BCD PUSH1 0xE5 SHL DUP2 MSTORE PUSH1 0x4 DUP2 ADD DUP8 SWAP1 MSTORE PUSH1 0x25 PUSH1 0x24 DUP3 ADD MSTORE PUSH32 0x43616C6C6572206973206E6F7420696E2074686520636F7272656374206C6F63 PUSH1 0x44 DUP3 ADD MSTORE PUSH5 0x30BA34B7B7 PUSH1 0xD9 SHL PUSH1 0x64 DUP3 ADD MSTORE PUSH1 0x84 SWAP1 REVERT JUMPDEST PUSH1 0x40 MLOAD PUSH3 0x461BCD PUSH1 0xE5 SHL DUP2 MSTORE PUSH1 0x4 DUP2 ADD DUP6 SWAP1 MSTORE PUSH1 0x2F PUSH1 0x24 DUP3 ADD MSTORE PUSH32 0x546865206F776E65722063616E6E6F74206D6F766520686973206F776E206169 PUSH1 0x44 DUP3 ADD MSTORE PUSH15 0x6D6564205375737577617461726921 PUSH1 0x88 SHL PUSH1 0x64 DUP3 ADD MSTORE PUSH1 0x84 SWAP1 REVERT JUMPDEST PUSH1 0x40 MLOAD PUSH3 0x461BCD PUSH1 0xE5 SHL DUP2 MSTORE PUSH1 0x4 DUP2 ADD DUP6 SWAP1 MSTORE PUSH1 0x1E PUSH1 0x24 DUP3 ADD MSTORE PUSH32 0x5375737520697320616C7265616479206265696E672063617272696564210000 PUSH1 0x44 DUP3 ADD MSTORE PUSH1 0x64 SWAP1 REVERT JUMPDEST PUSH1 0x1 DUP1 DUP3 ADD DUP1 DUP4 GT PUSH2 0x80F JUMPI PUSH1 0x0 SWAP1 DUP2 MSTORE PUSH1 0x0 DUP1 MLOAD PUSH1 0x20 PUSH2 0x1B37 DUP4 CODECOPY DUP2 MLOAD SWAP2 MSTORE PUSH1 0x20 MSTORE PUSH1 0x40 SWAP1 KECCAK256 PUSH1 0x5 ADD SLOAD PUSH1 0x1 PUSH1 0x1 PUSH1 0xA0 SHL SUB AND CALLER EQ PUSH2 0x963 JUMPI POP PUSH2 0x95E SWAP1 PUSH2 0x1A52 JUMP JUMPDEST PUSH2 0x57D JUMP JUMPDEST SWAP2 POP POP PUSH2 0x592 SWAP2 SWAP3 POP DUP3 SWAP2 PUSH2 0x585 JUMP JUMPDEST POP PUSH1 0x0 DUP1 MLOAD PUSH1 0x20 PUSH2 0x1B57 DUP4 CODECOPY DUP2 MLOAD SWAP2 MSTORE SLOAD DUP3 GT ISZERO PUSH2 0x55F JUMP JUMPDEST CALLVALUE PUSH2 0x521 JUMPI PUSH1 0x0 CALLDATASIZE PUSH1 0x3 NOT ADD SLT PUSH2 0x521 JUMPI PUSH1 0x0 DUP1 MLOAD PUSH1 0x20 PUSH2 0x1B57 DUP4 CODECOPY DUP2 MLOAD SWAP2 MSTORE SLOAD PUSH1 0x0 SWAP1 PUSH1 0x0 JUMPDEST DUP2 DUP2 LT PUSH2 0xAFD JUMPI POP PUSH2 0x9C4 DUP3 PUSH2 0x1B0A JUMP JUMPDEST SWAP2 PUSH2 0x9D2 PUSH1 0x40 MLOAD SWAP4 DUP5 PUSH2 0x16A9 JUMP JUMPDEST DUP1 DUP4 MSTORE PUSH2 0x9E1 PUSH1 0x1F NOT SWAP2 PUSH2 0x1B0A JUMP JUMPDEST ADD PUSH1 0x0 JUMPDEST DUP2 DUP2 LT PUSH2 0xAD8 JUMPI POP POP PUSH1 0x0 DUP1 JUMPDEST DUP3 DUP2 LT PUSH2 0xA4C JUMPI PUSH1 0x40 DUP1 MLOAD PUSH1 0x20 DUP1 DUP3 MSTORE DUP7 MLOAD DUP2 DUP4 ADD DUP2 SWAP1 MSTORE DUP2 DUP9 ADD SWAP4 DUP4 ADD SWAP2 PUSH1 0x0 JUMPDEST DUP3 DUP2 LT PUSH2 0xA21 JUMPI DUP5 DUP5 SUB DUP6 RETURN JUMPDEST DUP6 MLOAD DUP1 MLOAD DUP6 MSTORE PUSH1 0x20 SWAP1 DUP2 ADD MLOAD PUSH1 0x1 PUSH1 0x1 PUSH1 0xA0 SHL SUB AND SWAP1 DUP6 ADD MSTORE SWAP5 DUP2 ADD SWAP5 PUSH1 0x40 SWAP1 SWAP4 ADD SWAP3 PUSH1 0x1 ADD PUSH2 0xA14 JUMP JUMPDEST PUSH1 0x1 DUP2 ADD DUP1 DUP3 GT PUSH2 0x80F JUMPI PUSH1 0x0 DUP2 DUP2 MSTORE PUSH1 0x0 DUP1 MLOAD PUSH1 0x20 PUSH2 0x1B77 DUP4 CODECOPY DUP2 MLOAD SWAP2 MSTORE PUSH1 0x20 SWAP1 DUP2 MSTORE PUSH1 0x40 SWAP1 SWAP2 KECCAK256 SLOAD PUSH1 0x1 PUSH1 0x1 PUSH1 0xA0 SHL SUB AND SWAP1 DUP2 PUSH2 0xA97 JUMPI JUMPDEST POP POP POP PUSH2 0xA92 SWAP1 PUSH2 0x1A52 JUMP JUMPDEST PUSH2 0x9F2 JUMP JUMPDEST SWAP2 PUSH2 0xA92 SWAP4 SWAP5 SWAP2 PUSH2 0xACF SWAP4 PUSH1 0x40 MLOAD SWAP3 PUSH2 0xAAF DUP5 PUSH2 0x1639 JUMP JUMPDEST DUP4 MSTORE DUP3 ADD MSTORE PUSH2 0xABE DUP3 DUP9 PUSH2 0x1B22 JUMP JUMPDEST MSTORE PUSH2 0xAC9 DUP2 DUP8 PUSH2 0x1B22 JUMP JUMPDEST POP PUSH2 0x1A52 JUMP JUMPDEST SWAP2 SWAP1 DUP6 DUP1 PUSH2 0xA86 JUMP JUMPDEST PUSH1 0x20 SWAP1 PUSH1 0x40 MLOAD PUSH2 0xAE7 DUP2 PUSH2 0x1639 JUMP JUMPDEST PUSH1 0x0 DUP2 MSTORE DUP3 PUSH1 0x0 DUP2 DUP4 ADD MSTORE DUP3 DUP8 ADD ADD MSTORE ADD PUSH2 0x9E5 JUMP JUMPDEST PUSH1 0x1 DUP2 ADD DUP1 DUP3 GT PUSH2 0x80F JUMPI PUSH1 0x0 SWAP1 DUP2 MSTORE PUSH1 0x0 DUP1 MLOAD PUSH1 0x20 PUSH2 0x1B77 DUP4 CODECOPY DUP2 MLOAD SWAP2 MSTORE PUSH1 0x20 MSTORE PUSH1 0x40 SWAP1 KECCAK256 SLOAD PUSH1 0x1 PUSH1 0x1 PUSH1 0xA0 SHL SUB AND PUSH2 0xB40 JUMPI JUMPDEST PUSH2 0xB3B SWAP1 PUSH2 0x1A52 JUMP JUMPDEST PUSH2 0x9B3 JUMP JUMPDEST SWAP2 PUSH2 0xB4D PUSH2 0xB3B SWAP2 PUSH2 0x1A52 JUMP JUMPDEST SWAP3 SWAP1 POP PUSH2 0xB32 JUMP JUMPDEST CALLVALUE PUSH2 0x521 JUMPI PUSH1 0x20 DUP1 PUSH1 0x3 NOT CALLDATASIZE ADD SLT PUSH2 0x521 JUMPI PUSH1 0x4 CALLDATALOAD PUSH1 0xFF DUP2 AND DUP1 DUP3 SUB PUSH2 0x521 JUMPI PUSH2 0xB7E CALLER PUSH2 0x1779 JUMP JUMPDEST SLOAD PUSH2 0xDBA JUMPI PUSH1 0x0 DUP1 MLOAD PUSH1 0x20 PUSH2 0x1B57 DUP4 CODECOPY DUP2 MLOAD SWAP2 MSTORE SLOAD SWAP2 PUSH1 0x1 DUP4 ADD DUP1 SWAP4 GT PUSH2 0x80F JUMPI PUSH1 0x40 MLOAD SWAP3 PUSH2 0xBAC DUP5 PUSH2 0x1671 JUMP JUMPDEST DUP4 MSTORE DUP4 DUP4 ADD SWAP2 PUSH1 0x0 DUP4 MSTORE PUSH1 0x40 DUP5 ADD SWAP4 PUSH1 0x0 DUP6 MSTORE PUSH1 0x60 DUP2 ADD SWAP4 PUSH1 0x0 DUP6 MSTORE PUSH1 0x40 MLOAD SWAP5 PUSH2 0xBD5 DUP7 PUSH2 0x168D JUMP JUMPDEST PUSH1 0x0 DUP7 MSTORE PUSH1 0x80 DUP4 ADD SWAP6 DUP7 MSTORE PUSH1 0xA0 DUP4 ADD SWAP7 CALLER DUP9 MSTORE PUSH1 0xC0 DUP5 ADD SWAP5 PUSH1 0x0 DUP7 MSTORE PUSH1 0x1 PUSH2 0xBFC CALLER PUSH2 0x1779 JUMP JUMPDEST SSTORE PUSH2 0xC06 CALLER PUSH2 0x1740 JUMP JUMPDEST SWAP1 PUSH1 0xFF NOT DUP3 SLOAD AND OR SWAP1 SSTORE PUSH2 0xC19 CALLER PUSH2 0x180B JUMP JUMPDEST DUP4 MLOAD PUSH1 0x0 MSTORE PUSH1 0x0 DUP1 MLOAD PUSH1 0x20 PUSH2 0x1B37 DUP4 CODECOPY DUP2 MLOAD SWAP2 MSTORE DUP10 MSTORE PUSH1 0x40 PUSH1 0x0 KECCAK256 SWAP3 DUP5 MLOAD DUP5 SSTORE MLOAD PUSH1 0x1 DUP5 ADD SSTORE MLOAD PUSH1 0x2 DUP4 ADD SSTORE MLOAD PUSH1 0x3 DUP3 ADD SSTORE PUSH1 0x4 DUP2 ADD DUP6 MLOAD DUP1 MLOAD SWAP1 PUSH8 0xFFFFFFFFFFFFFFFF DUP3 GT PUSH2 0x526 JUMPI PUSH2 0xC77 DUP3 PUSH2 0xC71 DUP6 SLOAD PUSH2 0x185A JUMP JUMPDEST DUP6 PUSH2 0x1894 JUMP JUMPDEST DUP10 SWAP1 PUSH1 0x1F DUP4 GT PUSH1 0x1 EQ PUSH2 0xD2D JUMPI SWAP3 DUP3 PUSH1 0x0 DUP1 MLOAD PUSH1 0x20 PUSH2 0x1B77 DUP4 CODECOPY DUP2 MLOAD SWAP2 MSTORE SWAP4 PUSH1 0x0 DUP1 MLOAD PUSH1 0x20 PUSH2 0x1B97 DUP4 CODECOPY DUP2 MLOAD SWAP2 MSTORE SWAP13 SWAP4 PUSH2 0xD1D SWAP11 SWAP10 SWAP9 SWAP8 SWAP7 PUSH1 0x0 SWAP3 PUSH2 0xD22 JUMPI JUMPDEST POP POP DUP2 PUSH1 0x1 SHL SWAP2 PUSH1 0x0 NOT SWAP1 PUSH1 0x3 SHL SHR NOT AND OR SWAP1 SSTORE JUMPDEST PUSH1 0x5 DUP4 ADD SWAP3 PUSH1 0x6 PUSH1 0x1 DUP1 PUSH1 0xA0 SHL SUB SWAP7 DUP8 DUP13 MLOAD AND SWAP6 PUSH1 0x1 PUSH1 0x1 PUSH1 0x60 SHL SUB PUSH1 0xA0 SHL SWAP7 DUP8 DUP3 SLOAD AND OR SWAP1 SSTORE MLOAD SWAP2 ADD SSTORE DUP4 MLOAD PUSH1 0x0 MSTORE MSTORE PUSH1 0x40 PUSH1 0x0 KECCAK256 SWAP1 CALLER SWAP1 DUP3 SLOAD AND OR SWAP1 SSTORE MLOAD SWAP4 MLOAD SWAP5 MLOAD AND PUSH1 0x40 MLOAD SWAP5 DUP6 SWAP5 DUP6 PUSH2 0x170B JUMP JUMPDEST SUB SWAP1 LOG1 STOP JUMPDEST ADD MLOAD SWAP1 POP DUP14 DUP1 PUSH2 0xCB7 JUMP JUMPDEST SWAP1 PUSH1 0x1F NOT DUP4 AND SWAP2 DUP5 PUSH1 0x0 MSTORE DUP12 PUSH1 0x0 KECCAK256 SWAP3 PUSH1 0x0 JUMPDEST DUP2 DUP2 LT PUSH2 0xDA3 JUMPI POP SWAP4 PUSH1 0x0 DUP1 MLOAD PUSH1 0x20 PUSH2 0x1B97 DUP4 CODECOPY DUP2 MLOAD SWAP2 MSTORE SWAP13 SWAP4 PUSH2 0xD1D SWAP11 SWAP10 SWAP9 SWAP8 SWAP7 SWAP4 PUSH1 0x1 SWAP4 DUP4 PUSH1 0x0 DUP1 MLOAD PUSH1 0x20 PUSH2 0x1B77 DUP4 CODECOPY DUP2 MLOAD SWAP2 MSTORE SWAP9 LT PUSH2 0xD8A JUMPI JUMPDEST POP POP POP DUP2 SHL ADD SWAP1 SSTORE PUSH2 0xCCC JUMP JUMPDEST ADD MLOAD PUSH1 0x0 NOT PUSH1 0xF8 DUP5 PUSH1 0x3 SHL AND SHR NOT AND SWAP1 SSTORE DUP14 DUP1 DUP1 PUSH2 0xD7D JUMP JUMPDEST SWAP3 SWAP4 DUP14 PUSH1 0x1 DUP2 SWAP3 DUP8 DUP7 ADD MLOAD DUP2 SSTORE ADD SWAP6 ADD SWAP4 ADD PUSH2 0xD40 JUMP JUMPDEST PUSH1 0x40 MLOAD PUSH3 0x461BCD PUSH1 0xE5 SHL DUP2 MSTORE PUSH1 0x4 DUP2 ADD DUP5 SWAP1 MSTORE PUSH1 0x17 PUSH1 0x24 DUP3 ADD MSTORE PUSH32 0x5573657220616C72656164792072656769737465726564000000000000000000 PUSH1 0x44 DUP3 ADD MSTORE PUSH1 0x64 SWAP1 REVERT JUMPDEST CALLVALUE PUSH2 0x521 JUMPI PUSH2 0xE0D CALLDATASIZE PUSH2 0x1623 JUMP JUMPDEST PUSH2 0xE19 PUSH2 0xF5 CALLER PUSH2 0x1779 JUMP JUMPDEST DUP2 ISZERO ISZERO DUP1 PUSH2 0xFD5 JUMPI JUMPDEST PUSH2 0xE2B SWAP1 PUSH2 0x192D JUMP JUMPDEST DUP2 PUSH1 0x0 MSTORE PUSH1 0x0 DUP1 MLOAD PUSH1 0x20 PUSH2 0x1B37 DUP4 CODECOPY DUP2 MLOAD SWAP2 MSTORE SWAP1 DUP2 PUSH1 0x20 MSTORE PUSH1 0x1 DUP1 PUSH1 0xA0 SHL SUB SWAP2 CALLER DUP4 PUSH1 0x5 PUSH1 0x40 PUSH1 0x0 KECCAK256 ADD SLOAD AND SUB PUSH2 0xF7F JUMPI DUP4 PUSH2 0xD1D SWAP2 PUSH32 0x94D33E4A65E403DBE9FD19F704CB2578317B9895DE0BFB552DDE663632257D4C SWAP6 PUSH1 0x0 MSTORE DUP1 PUSH1 0x20 MSTORE PUSH1 0x40 PUSH1 0x0 KECCAK256 SWAP5 PUSH1 0x6 DUP7 ADD PUSH1 0x0 DUP2 SSTORE PUSH1 0x2 DUP8 ADD SWAP6 DUP7 SSTORE PUSH1 0x5 DUP8 ADD PUSH1 0x1 PUSH1 0x1 PUSH1 0x60 SHL SUB PUSH1 0xA0 SHL SWAP4 DUP5 DUP3 SLOAD AND DUP3 SSTORE PUSH1 0x0 DUP1 MLOAD PUSH1 0x20 PUSH2 0x1B77 DUP4 CODECOPY DUP2 MLOAD SWAP2 MSTORE PUSH1 0x20 MSTORE PUSH1 0x40 PUSH1 0x0 KECCAK256 DUP6 DUP2 SLOAD AND SWAP1 SSTORE PUSH1 0x20 MSTORE PUSH1 0x40 PUSH1 0x0 KECCAK256 SWAP4 DUP9 DUP6 SUB PUSH2 0xF31 JUMPI JUMPDEST POP POP POP POP POP PUSH1 0x3 PUSH1 0x1 DUP6 ADD SLOAD SWAP4 SLOAD SWAP5 ADD SLOAD SWAP1 PUSH1 0xFF PUSH2 0xF00 CALLER PUSH2 0x1740 JUMP JUMPDEST SLOAD AND SWAP2 PUSH1 0x40 MLOAD SWAP6 DUP7 SWAP6 DUP7 SWAP4 PUSH1 0x80 SWAP4 PUSH1 0xFF SWAP4 SWAP8 SWAP7 SWAP3 SWAP8 PUSH1 0xA0 DUP8 ADD SWAP9 DUP8 MSTORE PUSH1 0x20 DUP8 ADD MSTORE PUSH1 0x40 DUP7 ADD MSTORE PUSH1 0x60 DUP6 ADD MSTORE AND SWAP2 ADD MSTORE JUMP JUMPDEST PUSH1 0x6 SWAP4 DUP10 SLOAD DUP7 SSTORE PUSH1 0x1 DUP11 ADD SLOAD PUSH1 0x1 DUP8 ADD SSTORE DUP9 SLOAD PUSH1 0x2 DUP8 ADD SSTORE PUSH1 0x3 DUP11 ADD SLOAD PUSH1 0x3 DUP8 ADD SSTORE PUSH2 0xF63 PUSH1 0x4 DUP12 ADD PUSH1 0x4 DUP9 ADD PUSH2 0x1979 JUMP JUMPDEST PUSH1 0x5 DUP7 ADD SWAP3 SLOAD AND SWAP1 DUP3 SLOAD AND OR SWAP1 SSTORE SLOAD SWAP2 ADD SSTORE DUP6 DUP1 DUP1 DUP1 DUP1 PUSH2 0xEE3 JUMP JUMPDEST PUSH1 0x40 MLOAD PUSH3 0x461BCD PUSH1 0xE5 SHL DUP2 MSTORE PUSH1 0x20 PUSH1 0x4 DUP3 ADD MSTORE PUSH1 0x28 PUSH1 0x24 DUP3 ADD MSTORE PUSH32 0x43616C6C657220646F65736E2774206361727279206120537573757761746172 PUSH1 0x44 DUP3 ADD MSTORE PUSH8 0x6920546F6B656E21 PUSH1 0xC0 SHL PUSH1 0x64 DUP3 ADD MSTORE PUSH1 0x84 SWAP1 REVERT JUMPDEST POP PUSH1 0x0 DUP1 MLOAD PUSH1 0x20 PUSH2 0x1B57 DUP4 CODECOPY DUP2 MLOAD SWAP2 MSTORE SLOAD DUP3 GT ISZERO PUSH2 0xE22 JUMP JUMPDEST CALLVALUE PUSH2 0x521 JUMPI PUSH1 0x0 CALLDATASIZE PUSH1 0x3 NOT ADD SLT PUSH2 0x521 JUMPI PUSH2 0x100B PUSH2 0xF5 CALLER PUSH2 0x1779 JUMP JUMPDEST PUSH1 0x0 DUP1 MLOAD PUSH1 0x20 PUSH2 0x1B57 DUP4 CODECOPY DUP2 MLOAD SWAP2 MSTORE SLOAD PUSH1 0x0 DUP1 JUMPDEST DUP3 DUP2 LT PUSH2 0x123E JUMPI JUMPDEST POP PUSH2 0x1032 SWAP1 ISZERO PUSH2 0x1A61 JUMP JUMPDEST PUSH1 0x1 DUP1 DUP3 ADD DUP1 SWAP3 GT PUSH2 0x80F JUMPI PUSH1 0x40 MLOAD SWAP2 PUSH2 0x104B DUP4 PUSH2 0x1671 JUMP JUMPDEST DUP3 MSTORE PUSH1 0x20 SWAP2 DUP3 DUP2 ADD PUSH1 0x0 DUP2 MSTORE PUSH1 0x40 DUP3 ADD SWAP1 PUSH1 0x0 DUP3 MSTORE PUSH1 0x60 DUP4 ADD SWAP2 PUSH1 0x0 DUP4 MSTORE PUSH1 0x40 MLOAD SWAP5 PUSH2 0x1076 DUP7 PUSH2 0x168D JUMP JUMPDEST PUSH1 0x0 DUP7 MSTORE PUSH1 0x80 DUP6 ADD SWAP6 DUP7 MSTORE PUSH1 0xA0 DUP6 ADD SWAP4 CALLER DUP6 MSTORE PUSH1 0xC0 DUP7 ADD SWAP3 PUSH1 0x0 DUP5 MSTORE PUSH2 0x109B CALLER PUSH2 0x180B JUMP JUMPDEST DUP7 MLOAD PUSH1 0x0 MSTORE PUSH1 0x0 DUP1 MLOAD PUSH1 0x20 PUSH2 0x1B37 DUP4 CODECOPY DUP2 MLOAD SWAP2 MSTORE DUP10 MSTORE PUSH1 0x40 PUSH1 0x0 KECCAK256 SWAP5 DUP8 MLOAD DUP7 SSTORE MLOAD DUP4 DUP7 ADD SSTORE MLOAD PUSH1 0x2 DUP6 ADD SSTORE MLOAD PUSH1 0x3 DUP5 ADD SSTORE PUSH1 0x4 DUP4 ADD SWAP1 DUP7 MLOAD SWAP1 DUP2 MLOAD SWAP2 PUSH8 0xFFFFFFFFFFFFFFFF DUP4 GT PUSH2 0x526 JUMPI PUSH2 0x10FA DUP4 PUSH2 0x10F4 DUP7 SLOAD PUSH2 0x185A JUMP JUMPDEST DUP7 PUSH2 0x1894 JUMP JUMPDEST DUP10 SWAP1 PUSH1 0x1F DUP5 GT PUSH1 0x1 EQ PUSH2 0x11B4 JUMPI SWAP3 DUP1 DUP1 PUSH1 0x0 DUP1 MLOAD PUSH1 0x20 PUSH2 0x1B97 DUP4 CODECOPY DUP2 MLOAD SWAP2 MSTORE SWAP13 SWAP8 SWAP5 PUSH1 0x0 DUP1 MLOAD PUSH1 0x20 PUSH2 0x1B77 DUP4 CODECOPY DUP2 MLOAD SWAP2 MSTORE SWAP10 SWAP8 SWAP5 PUSH1 0x6 SWAP8 PUSH1 0x0 SWAP5 PUSH2 0x11A9 JUMPI JUMPDEST POP POP SHL SWAP2 PUSH1 0x0 NOT SWAP1 PUSH1 0x3 SHL SHR NOT AND OR SWAP1 SSTORE JUMPDEST PUSH1 0x5 DUP4 ADD SWAP6 PUSH1 0x1 DUP1 PUSH1 0xA0 SHL SUB SWAP1 MLOAD AND SWAP6 PUSH1 0x1 PUSH1 0x1 PUSH1 0x60 SHL SUB PUSH1 0xA0 SHL SWAP7 DUP8 DUP3 SLOAD AND OR SWAP1 SSTORE MLOAD SWAP2 ADD SSTORE DUP4 MLOAD PUSH1 0x0 MSTORE MSTORE PUSH1 0x40 PUSH1 0x0 KECCAK256 SWAP1 CALLER SWAP1 DUP3 SLOAD AND OR SWAP1 SSTORE PUSH2 0xD1D PUSH1 0xFF PUSH2 0x1194 CALLER PUSH2 0x1740 JUMP JUMPDEST SLOAD AND SWAP2 MLOAD SWAP3 MLOAD SWAP2 PUSH1 0x40 MLOAD SWAP4 DUP5 SWAP4 CALLER SWAP2 DUP6 PUSH2 0x170B JUMP JUMPDEST ADD MLOAD SWAP3 POP DUP15 DUP1 PUSH2 0x1139 JUMP JUMPDEST SWAP1 PUSH1 0x1F SWAP4 SWAP3 SWAP4 NOT DUP4 AND SWAP2 DUP6 PUSH1 0x0 MSTORE DUP12 PUSH1 0x0 KECCAK256 SWAP3 PUSH1 0x0 JUMPDEST DUP2 DUP2 LT PUSH2 0x1229 JUMPI POP SWAP3 PUSH1 0x6 SWAP6 SWAP3 DUP6 SWAP3 PUSH1 0x0 DUP1 MLOAD PUSH1 0x20 PUSH2 0x1B97 DUP4 CODECOPY DUP2 MLOAD SWAP2 MSTORE SWAP15 SWAP10 SWAP7 PUSH1 0x0 DUP1 MLOAD PUSH1 0x20 PUSH2 0x1B77 DUP4 CODECOPY DUP2 MLOAD SWAP2 MSTORE SWAP12 SWAP10 SWAP7 LT PUSH2 0x1210 JUMPI JUMPDEST POP POP POP DUP2 SHL ADD SWAP1 SSTORE PUSH2 0x114B JUMP JUMPDEST ADD MLOAD PUSH1 0x0 NOT PUSH1 0xF8 DUP5 PUSH1 0x3 SHL AND SHR NOT AND SWAP1 SSTORE DUP13 DUP1 DUP1 PUSH2 0x1203 JUMP JUMPDEST DUP3 DUP5 ADD MLOAD DUP6 SSTORE SWAP4 DUP7 ADD SWAP4 SWAP3 DUP14 ADD SWAP3 DUP14 ADD PUSH2 0x11CA JUMP JUMPDEST PUSH1 0x1 DUP1 DUP3 ADD DUP1 DUP4 GT PUSH2 0x80F JUMPI PUSH1 0x0 SWAP1 DUP2 MSTORE PUSH1 0x0 DUP1 MLOAD PUSH1 0x20 PUSH2 0x1B37 DUP4 CODECOPY DUP2 MLOAD SWAP2 MSTORE PUSH1 0x20 MSTORE PUSH1 0x40 SWAP1 KECCAK256 PUSH1 0x5 ADD SLOAD PUSH1 0x1 PUSH1 0x1 PUSH1 0xA0 SHL SUB AND CALLER EQ PUSH2 0x1287 JUMPI POP PUSH2 0x1282 SWAP1 PUSH2 0x1A52 JUMP JUMPDEST PUSH2 0x101F JUMP JUMPDEST SWAP2 POP PUSH2 0x1032 SWAP1 POP PUSH2 0x1027 JUMP JUMPDEST CALLVALUE PUSH2 0x521 JUMPI PUSH1 0x0 CALLDATASIZE PUSH1 0x3 NOT ADD SLT PUSH2 0x521 JUMPI PUSH2 0x12AC PUSH2 0x1AE3 JUMP JUMPDEST POP PUSH2 0x12B5 PUSH2 0x1AE3 JUMP JUMPDEST POP PUSH1 0x0 DUP1 PUSH1 0x0 DUP1 MLOAD PUSH1 0x20 PUSH2 0x1B57 DUP4 CODECOPY DUP2 MLOAD SWAP2 MSTORE SLOAD SWAP1 JUMPDEST DUP2 DUP2 LT PUSH2 0x14AF JUMPI POP PUSH2 0x12DC DUP3 PUSH2 0x1B0A JUMP JUMPDEST SWAP2 PUSH2 0x12EA PUSH1 0x40 MLOAD SWAP4 DUP5 PUSH2 0x16A9 JUMP JUMPDEST DUP1 DUP4 MSTORE PUSH2 0x12F9 PUSH1 0x1F NOT SWAP2 PUSH2 0x1B0A JUMP JUMPDEST ADD SWAP2 PUSH1 0x20 SWAP3 CALLDATASIZE DUP5 DUP4 ADD CALLDATACOPY PUSH1 0x0 DUP1 JUMPDEST DUP4 DUP2 LT PUSH2 0x1453 JUMPI POP POP PUSH2 0x1318 PUSH2 0x1AC4 JUMP JUMPDEST SWAP2 PUSH1 0x0 SWAP1 JUMPDEST DUP1 DUP3 LT PUSH2 0x13C6 JUMPI JUMPDEST POP POP PUSH1 0xFF PUSH2 0x1332 CALLER PUSH2 0x1740 JUMP JUMPDEST SLOAD AND PUSH1 0x40 MLOAD SWAP2 PUSH2 0x1341 DUP4 PUSH2 0x1655 JUMP JUMPDEST DUP3 MSTORE DUP4 DUP3 ADD SWAP3 DUP4 MSTORE PUSH1 0x40 DUP3 ADD SWAP1 DUP2 MSTORE PUSH1 0x40 MLOAD SWAP3 DUP5 DUP5 MSTORE PUSH1 0xC0 DUP5 ADD SWAP3 MLOAD SWAP3 PUSH1 0xA0 DUP7 DUP7 ADD MSTORE DUP4 MLOAD DUP1 SWAP2 MSTORE DUP6 PUSH1 0xE0 DUP7 ADD SWAP5 ADD SWAP1 PUSH1 0x0 JUMPDEST DUP2 DUP2 LT PUSH2 0x13B2 JUMPI POP POP POP SWAP1 DUP4 SWAP5 PUSH1 0xFF SWAP3 MLOAD SWAP1 DUP2 MLOAD PUSH1 0x40 DUP8 ADD MSTORE DUP2 ADD MLOAD PUSH1 0x60 DUP7 ADD MSTORE PUSH1 0x40 PUSH1 0x1 DUP1 PUSH1 0xA0 SHL SUB SWAP2 ADD MLOAD AND PUSH1 0x80 DUP6 ADD MSTORE MLOAD AND PUSH1 0xA0 DUP4 ADD MSTORE SUB SWAP1 RETURN JUMPDEST DUP3 MLOAD DUP7 MSTORE SWAP5 DUP8 ADD SWAP5 SWAP2 DUP8 ADD SWAP2 PUSH1 0x1 ADD PUSH2 0x1374 JUMP JUMPDEST PUSH1 0x1 DUP3 ADD SWAP2 DUP3 DUP2 GT PUSH2 0x80F JUMPI PUSH1 0x0 DUP4 DUP2 MSTORE PUSH1 0x0 DUP1 MLOAD PUSH1 0x20 PUSH2 0x1B77 DUP4 CODECOPY DUP2 MLOAD SWAP2 MSTORE DUP8 MSTORE PUSH1 0x40 SWAP1 KECCAK256 SLOAD PUSH1 0x1 PUSH1 0x1 PUSH1 0xA0 SHL SUB SWAP4 SWAP1 DUP5 AND CALLER EQ PUSH2 0x1411 JUMPI POP PUSH2 0x140B SWAP2 SWAP3 POP PUSH2 0x1A52 JUMP JUMPDEST SWAP1 PUSH2 0x131D JUMP JUMPDEST PUSH2 0x143F SWAP3 POP DUP1 DUP7 MSTORE PUSH1 0x0 MSTORE PUSH1 0x0 DUP1 MLOAD PUSH1 0x20 PUSH2 0x1B37 DUP4 CODECOPY DUP2 MLOAD SWAP2 MSTORE DUP7 MSTORE PUSH1 0x6 PUSH1 0x40 PUSH1 0x0 KECCAK256 ADD SLOAD DUP7 DUP7 ADD MSTORE PUSH2 0x17B2 JUMP JUMPDEST SWAP1 SLOAD SWAP1 PUSH1 0x3 SHL SHR AND PUSH1 0x40 DUP4 ADD MSTORE DUP4 DUP1 PUSH2 0x1325 JUMP JUMPDEST PUSH2 0x145C DUP2 PUSH2 0x17B2 JUMP JUMPDEST SWAP1 SLOAD CALLER PUSH1 0x3 SWAP3 SWAP1 SWAP3 SHL SHR PUSH1 0x1 PUSH1 0x1 PUSH1 0xA0 SHL SUB AND EQ PUSH2 0x1483 JUMPI JUMPDEST PUSH2 0x147E SWAP1 PUSH2 0x1A52 JUMP JUMPDEST PUSH2 0x1307 JUMP JUMPDEST SWAP1 PUSH1 0x1 DUP3 ADD DUP1 DUP4 GT PUSH2 0x80F JUMPI DUP2 PUSH2 0x14A7 SWAP2 PUSH2 0x14A1 PUSH2 0x147E SWAP5 DUP8 PUSH2 0x1B22 JUMP JUMPDEST MSTORE PUSH2 0x1A52 JUMP JUMPDEST SWAP2 SWAP1 POP PUSH2 0x1475 JUMP JUMPDEST PUSH2 0x14B8 DUP2 PUSH2 0x17B2 JUMP JUMPDEST SWAP1 SLOAD CALLER PUSH1 0x3 SWAP3 SWAP1 SWAP3 SHL SHR PUSH1 0x1 PUSH1 0x1 PUSH1 0xA0 SHL SUB AND EQ PUSH2 0x14DF JUMPI JUMPDEST PUSH2 0x14DA SWAP1 PUSH2 0x1A52 JUMP JUMPDEST PUSH2 0x12CB JUMP JUMPDEST SWAP2 PUSH2 0x14EC PUSH2 0x14DA SWAP2 PUSH2 0x1A52 JUMP JUMPDEST SWAP3 SWAP1 POP PUSH2 0x14D1 JUMP JUMPDEST CALLVALUE PUSH2 0x521 JUMPI PUSH1 0x0 CALLDATASIZE PUSH1 0x3 NOT ADD SLT PUSH2 0x521 JUMPI PUSH1 0x0 DUP1 MLOAD PUSH1 0x20 PUSH2 0x1B57 DUP4 CODECOPY DUP2 MLOAD SWAP2 MSTORE SLOAD PUSH2 0x151E DUP2 PUSH2 0x1B0A JUMP JUMPDEST SWAP1 PUSH2 0x152C PUSH1 0x40 MLOAD SWAP3 DUP4 PUSH2 0x16A9 JUMP JUMPDEST DUP1 DUP3 MSTORE PUSH1 0x1F NOT PUSH2 0x153B DUP3 PUSH2 0x1B0A JUMP JUMPDEST ADD PUSH1 0x0 JUMPDEST DUP2 DUP2 LT PUSH2 0x15FE JUMPI POP POP PUSH1 0x0 JUMPDEST DUP2 DUP2 LT PUSH2 0x15A5 JUMPI PUSH1 0x40 DUP1 MLOAD PUSH1 0x20 DUP1 DUP3 MSTORE DUP6 MLOAD DUP2 DUP4 ADD DUP2 SWAP1 MSTORE DUP2 DUP8 ADD SWAP4 DUP4 ADD SWAP2 PUSH1 0x0 JUMPDEST DUP3 DUP2 LT PUSH2 0x157A JUMPI DUP5 DUP5 SUB DUP6 RETURN JUMPDEST DUP6 MLOAD DUP1 MLOAD DUP6 MSTORE PUSH1 0x20 SWAP1 DUP2 ADD MLOAD PUSH1 0x1 PUSH1 0x1 PUSH1 0xA0 SHL SUB AND SWAP1 DUP6 ADD MSTORE SWAP5 DUP2 ADD SWAP5 PUSH1 0x40 SWAP1 SWAP4 ADD SWAP3 PUSH1 0x1 ADD PUSH2 0x156D JUMP JUMPDEST PUSH1 0x1 DUP2 ADD SWAP1 DUP2 DUP2 GT PUSH2 0x80F JUMPI PUSH2 0x15F9 SWAP2 PUSH2 0x15BE DUP3 PUSH2 0x17B2 JUMP JUMPDEST SWAP1 SLOAD PUSH1 0x40 MLOAD SWAP3 PUSH2 0x15CD DUP5 PUSH2 0x1639 JUMP JUMPDEST DUP4 MSTORE PUSH1 0x3 SWAP2 SWAP1 SWAP2 SHL SHR PUSH1 0x1 PUSH1 0x1 PUSH1 0xA0 SHL SUB AND PUSH1 0x20 DUP3 ADD MSTORE PUSH2 0x15EE DUP3 DUP7 PUSH2 0x1B22 JUMP JUMPDEST MSTORE PUSH2 0xAC9 DUP2 DUP6 PUSH2 0x1B22 JUMP JUMPDEST PUSH2 0x154B JUMP JUMPDEST PUSH1 0x20 SWAP1 PUSH1 0x40 MLOAD PUSH2 0x160D DUP2 PUSH2 0x1639 JUMP JUMPDEST PUSH1 0x0 DUP2 MSTORE DUP3 PUSH1 0x0 DUP2 DUP4 ADD MSTORE DUP3 DUP8 ADD ADD MSTORE ADD PUSH2 0x153F JUMP JUMPDEST PUSH1 0x40 SWAP1 PUSH1 0x3 NOT ADD SLT PUSH2 0x521 JUMPI PUSH1 0x4 CALLDATALOAD SWAP1 PUSH1 0x24 CALLDATALOAD SWAP1 JUMP JUMPDEST PUSH1 0x40 DUP2 ADD SWAP1 DUP2 LT PUSH8 0xFFFFFFFFFFFFFFFF DUP3 GT OR PUSH2 0x526 JUMPI PUSH1 0x40 MSTORE JUMP JUMPDEST PUSH1 0x60 DUP2 ADD SWAP1 DUP2 LT PUSH8 0xFFFFFFFFFFFFFFFF DUP3 GT OR PUSH2 0x526 JUMPI PUSH1 0x40 MSTORE JUMP JUMPDEST PUSH1 0xE0 DUP2 ADD SWAP1 DUP2 LT PUSH8 0xFFFFFFFFFFFFFFFF DUP3 GT OR PUSH2 0x526 JUMPI PUSH1 0x40 MSTORE JUMP JUMPDEST PUSH1 0x20 DUP2 ADD SWAP1 DUP2 LT PUSH8 0xFFFFFFFFFFFFFFFF DUP3 GT OR PUSH2 0x526 JUMPI PUSH1 0x40 MSTORE JUMP JUMPDEST SWAP1 PUSH1 0x1F DUP1 NOT SWAP2 ADD AND DUP2 ADD SWAP1 DUP2 LT PUSH8 0xFFFFFFFFFFFFFFFF DUP3 GT OR PUSH2 0x526 JUMPI PUSH1 0x40 MSTORE JUMP JUMPDEST SWAP2 SWAP1 DUP3 MLOAD SWAP3 DUP4 DUP3 MSTORE PUSH1 0x0 JUMPDEST DUP5 DUP2 LT PUSH2 0x16F7 JUMPI POP POP DUP3 PUSH1 0x0 PUSH1 0x20 DUP1 SWAP5 SWAP6 DUP5 ADD ADD MSTORE PUSH1 0x1F DUP1 NOT SWAP2 ADD AND ADD ADD SWAP1 JUMP JUMPDEST PUSH1 0x20 DUP2 DUP4 ADD DUP2 ADD MLOAD DUP5 DUP4 ADD DUP3 ADD MSTORE ADD PUSH2 0x16D6 JUMP JUMPDEST SWAP3 SWAP5 SWAP4 PUSH2 0x172A PUSH1 0x60 SWAP4 PUSH1 0xFF SWAP4 DUP7 MSTORE PUSH1 0x80 PUSH1 0x20 DUP8 ADD MSTORE PUSH1 0x80 DUP7 ADD SWAP1 PUSH2 0x16CB JUMP JUMPDEST PUSH1 0x1 PUSH1 0x1 PUSH1 0xA0 SHL SUB SWAP1 SWAP7 AND PUSH1 0x40 DUP6 ADD MSTORE AND SWAP2 ADD MSTORE JUMP JUMPDEST PUSH1 0x1 PUSH1 0x1 PUSH1 0xA0 SHL SUB AND PUSH1 0x0 SWAP1 DUP2 MSTORE PUSH32 0x202E1867CADE063E32A2EB339A246F853A1A233314949BA8D9E2AC766F6ED849 PUSH1 0x20 MSTORE PUSH1 0x40 SWAP1 KECCAK256 SWAP1 JUMP JUMPDEST PUSH1 0x1 PUSH1 0x1 PUSH1 0xA0 SHL SUB AND PUSH1 0x0 SWAP1 DUP2 MSTORE PUSH32 0x202E1867CADE063E32A2EB339A246F853A1A233314949BA8D9E2AC766F6ED846 PUSH1 0x20 MSTORE PUSH1 0x40 SWAP1 KECCAK256 SWAP1 JUMP JUMPDEST PUSH1 0x0 DUP1 MLOAD PUSH1 0x20 PUSH2 0x1B57 DUP4 CODECOPY DUP2 MLOAD SWAP2 MSTORE DUP1 SLOAD DUP3 LT ISZERO PUSH2 0x17F5 JUMPI PUSH1 0x0 MSTORE PUSH32 0x5B627E705E277F4CD69351CFCF0179F3685951408382038C266C60748DB0394A ADD SWAP1 PUSH1 0x0 SWAP1 JUMP JUMPDEST PUSH4 0x4E487B71 PUSH1 0xE0 SHL PUSH1 0x0 MSTORE PUSH1 0x32 PUSH1 0x4 MSTORE PUSH1 0x24 PUSH1 0x0 REVERT JUMPDEST PUSH1 0x0 DUP1 MLOAD PUSH1 0x20 PUSH2 0x1B57 DUP4 CODECOPY DUP2 MLOAD SWAP2 MSTORE DUP1 SLOAD PUSH9 0x10000000000000000 DUP2 LT ISZERO PUSH2 0x526 JUMPI PUSH2 0x183C SWAP2 PUSH1 0x1 DUP3 ADD SWAP1 SSTORE PUSH2 0x17B2 JUMP JUMPDEST DUP2 SWAP3 SWAP2 SLOAD SWAP1 PUSH1 0x3 SHL SWAP2 PUSH1 0x1 DUP1 PUSH1 0xA0 SHL SUB DUP1 SWAP2 AND DUP4 SHL SWAP3 SHL NOT AND OR SWAP1 SSTORE JUMP JUMPDEST SWAP1 PUSH1 0x1 DUP3 DUP2 SHR SWAP3 AND DUP1 ISZERO PUSH2 0x188A JUMPI JUMPDEST PUSH1 0x20 DUP4 LT EQ PUSH2 0x1874 JUMPI JUMP JUMPDEST PUSH4 0x4E487B71 PUSH1 0xE0 SHL PUSH1 0x0 MSTORE PUSH1 0x22 PUSH1 0x4 MSTORE PUSH1 0x24 PUSH1 0x0 REVERT JUMPDEST SWAP2 PUSH1 0x7F AND SWAP2 PUSH2 0x1869 JUMP JUMPDEST SWAP1 PUSH1 0x1F DUP2 GT PUSH2 0x18A2 JUMPI POP POP POP JUMP JUMPDEST PUSH1 0x0 SWAP2 DUP3 MSTORE PUSH1 0x20 DUP3 KECCAK256 SWAP1 PUSH1 0x20 PUSH1 0x1F DUP6 ADD PUSH1 0x5 SHR DUP4 ADD SWAP5 LT PUSH2 0x18DE JUMPI JUMPDEST PUSH1 0x1F ADD PUSH1 0x5 SHR ADD SWAP2 JUMPDEST DUP3 DUP2 LT PUSH2 0x18D3 JUMPI POP POP POP JUMP JUMPDEST DUP2 DUP2 SSTORE PUSH1 0x1 ADD PUSH2 0x18C7 JUMP JUMPDEST SWAP1 SWAP3 POP DUP3 SWAP1 PUSH2 0x18BE JUMP JUMPDEST ISZERO PUSH2 0x18EF JUMPI JUMP JUMPDEST PUSH1 0x40 MLOAD PUSH3 0x461BCD PUSH1 0xE5 SHL DUP2 MSTORE PUSH1 0x20 PUSH1 0x4 DUP3 ADD MSTORE PUSH1 0x16 PUSH1 0x24 DUP3 ADD MSTORE PUSH22 0x155CD95C881A5CC81B9BDD081C9959DA5CDD195C9959 PUSH1 0x52 SHL PUSH1 0x44 DUP3 ADD MSTORE PUSH1 0x64 SWAP1 REVERT JUMPDEST ISZERO PUSH2 0x1934 JUMPI JUMP JUMPDEST PUSH1 0x40 MLOAD PUSH3 0x461BCD PUSH1 0xE5 SHL DUP2 MSTORE PUSH1 0x20 PUSH1 0x4 DUP3 ADD MSTORE PUSH1 0x1D PUSH1 0x24 DUP3 ADD MSTORE PUSH32 0x546865205375737577617461726920646F6573206E6F74206578697374000000 PUSH1 0x44 DUP3 ADD MSTORE PUSH1 0x64 SWAP1 REVERT JUMPDEST SWAP1 DUP1 DUP3 EQ PUSH2 0x1A4E JUMPI PUSH2 0x198B DUP2 SLOAD PUSH2 0x185A JUMP JUMPDEST SWAP1 PUSH8 0xFFFFFFFFFFFFFFFF DUP3 GT PUSH2 0x526 JUMPI DUP2 SWAP1 PUSH2 0x19AB DUP3 PUSH2 0x10F4 DUP7 SLOAD PUSH2 0x185A JUMP JUMPDEST PUSH1 0x0 SWAP1 PUSH1 0x1F DUP4 GT PUSH1 0x1 EQ PUSH2 0x19E2 JUMPI PUSH1 0x0 SWAP3 PUSH2 0x19D7 JUMPI JUMPDEST POP POP DUP2 PUSH1 0x1 SHL SWAP2 PUSH1 0x0 NOT SWAP1 PUSH1 0x3 SHL SHR NOT AND OR SWAP1 SSTORE JUMP JUMPDEST ADD SLOAD SWAP1 POP CODESIZE DUP1 PUSH2 0x19C1 JUMP JUMPDEST DUP2 MSTORE PUSH1 0x20 DUP1 DUP3 KECCAK256 DUP6 DUP4 MSTORE DUP2 DUP4 KECCAK256 SWAP4 POP SWAP1 PUSH1 0x1F NOT DUP6 AND SWAP1 DUP4 SWAP1 JUMPDEST DUP3 DUP3 LT PUSH2 0x1A35 JUMPI POP POP SWAP1 DUP5 PUSH1 0x1 SWAP6 SWAP5 SWAP4 SWAP3 LT PUSH2 0x1A1C JUMPI JUMPDEST POP POP POP DUP2 SHL ADD SWAP1 SSTORE JUMP JUMPDEST ADD SLOAD PUSH1 0x0 NOT PUSH1 0xF8 DUP5 PUSH1 0x3 SHL AND SHR NOT AND SWAP1 SSTORE CODESIZE DUP1 DUP1 PUSH2 0x1A12 JUMP JUMPDEST DUP5 SWAP6 DUP2 SWAP3 SWAP6 DUP6 ADD SLOAD DUP2 SSTORE PUSH1 0x1 DUP1 SWAP2 ADD SWAP7 ADD SWAP5 ADD SWAP1 PUSH2 0x19FB JUMP JUMPDEST POP POP JUMP JUMPDEST PUSH1 0x0 NOT DUP2 EQ PUSH2 0x80F JUMPI PUSH1 0x1 ADD SWAP1 JUMP JUMPDEST ISZERO PUSH2 0x1A68 JUMPI JUMP JUMPDEST PUSH1 0x40 MLOAD PUSH3 0x461BCD PUSH1 0xE5 SHL DUP2 MSTORE PUSH1 0x20 PUSH1 0x4 DUP3 ADD MSTORE PUSH1 0x2E PUSH1 0x24 DUP3 ADD MSTORE PUSH32 0x43616C6C657220697320616C7265616479206361727279696E67206120537573 PUSH1 0x44 DUP3 ADD MSTORE PUSH14 0x7577617461726920546F6B656E21 PUSH1 0x90 SHL PUSH1 0x64 DUP3 ADD MSTORE PUSH1 0x84 SWAP1 REVERT JUMPDEST PUSH1 0x40 MLOAD SWAP1 PUSH2 0x1AD1 DUP3 PUSH2 0x1655 JUMP JUMPDEST PUSH1 0x0 PUSH1 0x40 DUP4 DUP3 DUP2 MSTORE DUP3 PUSH1 0x20 DUP3 ADD MSTORE ADD MSTORE JUMP JUMPDEST PUSH1 0x40 MLOAD SWAP1 PUSH2 0x1AF0 DUP3 PUSH2 0x1655 JUMP JUMPDEST PUSH1 0x0 PUSH1 0x40 DUP4 PUSH1 0x60 DUP2 MSTORE PUSH2 0x1B01 PUSH2 0x1AC4 JUMP JUMPDEST PUSH1 0x20 DUP3 ADD MSTORE ADD MSTORE JUMP JUMPDEST PUSH8 0xFFFFFFFFFFFFFFFF DUP2 GT PUSH2 0x526 JUMPI PUSH1 0x5 SHL PUSH1 0x20 ADD SWAP1 JUMP JUMPDEST DUP1 MLOAD DUP3 LT ISZERO PUSH2 0x17F5 JUMPI PUSH1 0x20 SWAP2 PUSH1 0x5 SHL ADD ADD SWAP1 JUMP INVALID KECCAK256 0x2E XOR PUSH8 0xCADE063E32A2EB33 SWAP11 0x24 PUSH16 0x853A1A233314949BA8D9E2AC766F6ED8 BASEFEE KECCAK256 0x2E XOR PUSH8 0xCADE063E32A2EB33 SWAP11 0x24 PUSH16 0x853A1A233314949BA8D9E2AC766F6ED8 SELFBALANCE KECCAK256 0x2E XOR PUSH8 0xCADE063E32A2EB33 SWAP11 0x24 PUSH16 0x853A1A233314949BA8D9E2AC766F6ED8 0x4B 0x2C LOG4 0x1E 0xDD BASEFEE DUP15 SWAP2 PUSH3 0xCA27CF SELFDESTRUCT PUSH4 0x9CBE72D7 0xB2 CALLDATACOPY 0xE9 PUSH17 0x90033EBB9212A7EC2DE82DA26469706673 PC 0x22 SLT KECCAK256 0xAD 0xEA 0x4F 0xEC 0xCB PUSH32 0xAC6129C290B716612F85AFEA94B739D64C9F9ADC7F1B4F201CF564736F6C6343 STOP ADDMOD SLT STOP CALLER "},"gasEstimates":{"creation":{"codeDepositCost":"1429600","executionCost":"1502","totalCost":"1431102"},"external":{"aimInitialSusu(uint256,uint256,uint256,string)":"infinite","dropSusu(uint256,uint256)":"infinite","getAllSusuwataris()":"infinite","getBaggedSusus()":"infinite","getCurrentState()":"infinite","giveSusuwatari()":"infinite","registerMe(uint8)":"infinite","tryPickupSusu(uint256,uint256)":"infinite"}},"methodIdentifiers":{"aimInitialSusu(uint256,uint256,uint256,string)":"ef410cf9","dropSusu(uint256,uint256)":"a6cd6523","getAllSusuwataris()":"2a9664c7","getBaggedSusus()":"c5b9c141","getCurrentState()":"378aa701","giveSusuwatari()":"7298c3c3","registerMe(uint8)":"adc65c38","tryPickupSusu(uint256,uint256)":"cda94eb4"}},"storageLayout":{"storage":[],"types":null},"userdoc":{"kind":"user","methods":{},"version":1}}}}