{"contracts/SusuwatariLeafWalletFacet.sol":{"SusuwatariLeafWalletFacet":{"abi":[{"anonymous":false,"inputs":[{"indexed":false,"internalType":"uint256","name":"","type":"uint256"}],"name":"AssignActivatableAddressToSenderReturn","type":"event"},{"inputs":[{"internalType":"address","name":"assignee","type":"address"}],"name":"assignActivatableAddressToSender","outputs":[],"stateMutability":"nonpayable","type":"function"},{"inputs":[],"name":"getActivationCodeOfSender","outputs":[{"internalType":"uint256","name":"","type":"uint256"}],"stateMutability":"view","type":"function"},{"inputs":[],"name":"getDeviceOwner","outputs":[{"internalType":"address","name":"","type":"address"}],"stateMutability":"view","type":"function"},{"inputs":[],"name":"getRelatedDevices","outputs":[{"internalType":"address[]","name":"","type":"address[]"}],"stateMutability":"view","type":"function"},{"inputs":[],"name":"isSenderRegistered","outputs":[{"internalType":"bool","name":"","type":"bool"}],"stateMutability":"view","type":"function"}],"devdoc":{"kind":"dev","methods":{},"version":1},"evm":{"bytecode":{"linkReferences":{},"object":"6080806040523461001657610534908161001c8239f35b600080fdfe60806040908082526004918236101561001757600080fd5b600091823560e01c9081633aafa388146104a25750806358944eb8146103ea5780639b8ae375146103ac578063e0f64efc146102ae5763ec9492971461005c57600080fd5b346102aa57602090816003193601126102a65783356001600160a01b03808216908183036102a2578186526000805160206104df833981519152908186528085882054168015908115610298575b5015610255578287528186528487205416156101ae575b505081518381019042825244848201523360601b6060820152605481526080810181811067ffffffffffffffff82111761019b5784525190206064900694600a8610610172575b5090846101697f4194273a0171865880e1d7a0089dcb6cfe51ce239b09acde0bf6cc5e071210b095969360018060a01b03166000527f83ed3ba29c1d52058c877df3ebd264cf957c42ef7764387349be0ccf6df0b63d602052604060002090565b5551908152a180f35b94600a8101809111610188579450610169610108565b634e487b7160e01b855260118652602485fd5b634e487b7160e01b875260418852602487fd5b3360009081527f83ed3ba29c1d52058c877df3ebd264cf957c42ef7764387349be0ccf6df0b63c6020526040902080549068010000000000000000821015610242576001820180825582101561022f5787528587200180546001600160a01b03199081168417909155918652845282852080549091163317905538806100c1565b634e487b7160e01b885260328952602488fd5b634e487b7160e01b885260418952602488fd5b845162461bcd60e51b8152808901879052601960248201527f44657669636520616c72656164792072656769737465726564000000000000006044820152606490fd5b90503314386100aa565b8580fd5b8280fd5b5080fd5b50346102aa57816003193601126102aa573360009081527f83ed3ba29c1d52058c877df3ebd264cf957c42ef7764387349be0ccf6df0b63c6020526040902091815190819284548084526020809401908196845284842090845b8682821061038f5750505050849003601f01601f191684019567ffffffffffffffff87118588101761037c575085815282865292518583018190528594938501939290915b82811061035c57505050500390f35b83516001600160a01b03168552869550938101939281019260010161034d565b634e487b7160e01b835260419052602482fd5b83546001600160a01b031685529093019260019283019201610308565b50346102aa57816003193601126102aa573382526000805160206104df8339815191526020908152918190205490516001600160a01b039091168152f35b5091903461049f578060031936011261049f573381526000805160206104df833981519152602052829020546001600160a01b03161561045d573360009081527f83ed3ba29c1d52058c877df3ebd264cf957c42ef7764387349be0ccf6df0b63d60209081526040909120548351908152f35b6020606492519162461bcd60e51b8352820152601960248201527f446576696365206e6f74207965742072656769737465726564000000000000006044820152fd5b80fd5b919050346102a657826003193601126102a6573383526000805160206104df83398151915260209081529220546001600160a01b031615158152f3fe83ed3ba29c1d52058c877df3ebd264cf957c42ef7764387349be0ccf6df0b63ba2646970667358221220773595bd5f4c2b42434d944ca70014b6da66c3780340c4b8d60b3d118dd8a0af64736f6c63430008120033","opcodes":"PUSH1 0x80 DUP1 PUSH1 0x40 MSTORE CALLVALUE PUSH2 0x16 JUMPI PUSH2 0x534 SWAP1 DUP2 PUSH2 0x1C DUP3 CODECOPY RETURN JUMPDEST PUSH1 0x0 DUP1 REVERT INVALID PUSH1 0x80 PUSH1 0x40 SWAP1 DUP1 DUP3 MSTORE PUSH1 0x4 SWAP2 DUP3 CALLDATASIZE LT ISZERO PUSH2 0x17 JUMPI PUSH1 0x0 DUP1 REVERT JUMPDEST PUSH1 0x0 SWAP2 DUP3 CALLDATALOAD PUSH1 0xE0 SHR SWAP1 DUP2 PUSH4 0x3AAFA388 EQ PUSH2 0x4A2 JUMPI POP DUP1 PUSH4 0x58944EB8 EQ PUSH2 0x3EA JUMPI DUP1 PUSH4 0x9B8AE375 EQ PUSH2 0x3AC JUMPI DUP1 PUSH4 0xE0F64EFC EQ PUSH2 0x2AE JUMPI PUSH4 0xEC949297 EQ PUSH2 0x5C JUMPI PUSH1 0x0 DUP1 REVERT JUMPDEST CALLVALUE PUSH2 0x2AA JUMPI PUSH1 0x20 SWAP1 DUP2 PUSH1 0x3 NOT CALLDATASIZE ADD SLT PUSH2 0x2A6 JUMPI DUP4 CALLDATALOAD PUSH1 0x1 PUSH1 0x1 PUSH1 0xA0 SHL SUB DUP1 DUP3 AND SWAP1 DUP2 DUP4 SUB PUSH2 0x2A2 JUMPI DUP2 DUP7 MSTORE PUSH1 0x0 DUP1 MLOAD PUSH1 0x20 PUSH2 0x4DF DUP4 CODECOPY DUP2 MLOAD SWAP2 MSTORE SWAP1 DUP2 DUP7 MSTORE DUP1 DUP6 DUP9 KECCAK256 SLOAD AND DUP1 ISZERO SWAP1 DUP2 ISZERO PUSH2 0x298 JUMPI JUMPDEST POP ISZERO PUSH2 0x255 JUMPI DUP3 DUP8 MSTORE DUP2 DUP7 MSTORE DUP5 DUP8 KECCAK256 SLOAD AND ISZERO PUSH2 0x1AE JUMPI JUMPDEST POP POP DUP2 MLOAD DUP4 DUP2 ADD SWAP1 TIMESTAMP DUP3 MSTORE PREVRANDAO DUP5 DUP3 ADD MSTORE CALLER PUSH1 0x60 SHL PUSH1 0x60 DUP3 ADD MSTORE PUSH1 0x54 DUP2 MSTORE PUSH1 0x80 DUP2 ADD DUP2 DUP2 LT PUSH8 0xFFFFFFFFFFFFFFFF DUP3 GT OR PUSH2 0x19B JUMPI DUP5 MSTORE MLOAD SWAP1 KECCAK256 PUSH1 0x64 SWAP1 MOD SWAP5 PUSH1 0xA DUP7 LT PUSH2 0x172 JUMPI JUMPDEST POP SWAP1 DUP5 PUSH2 0x169 PUSH32 0x4194273A0171865880E1D7A0089DCB6CFE51CE239B09ACDE0BF6CC5E071210B0 SWAP6 SWAP7 SWAP4 PUSH1 0x1 DUP1 PUSH1 0xA0 SHL SUB AND PUSH1 0x0 MSTORE PUSH32 0x83ED3BA29C1D52058C877DF3EBD264CF957C42EF7764387349BE0CCF6DF0B63D PUSH1 0x20 MSTORE PUSH1 0x40 PUSH1 0x0 KECCAK256 SWAP1 JUMP JUMPDEST SSTORE MLOAD SWAP1 DUP2 MSTORE LOG1 DUP1 RETURN JUMPDEST SWAP5 PUSH1 0xA DUP2 ADD DUP1 SWAP2 GT PUSH2 0x188 JUMPI SWAP5 POP PUSH2 0x169 PUSH2 0x108 JUMP JUMPDEST PUSH4 0x4E487B71 PUSH1 0xE0 SHL DUP6 MSTORE PUSH1 0x11 DUP7 MSTORE PUSH1 0x24 DUP6 REVERT JUMPDEST PUSH4 0x4E487B71 PUSH1 0xE0 SHL DUP8 MSTORE PUSH1 0x41 DUP9 MSTORE PUSH1 0x24 DUP8 REVERT JUMPDEST CALLER PUSH1 0x0 SWAP1 DUP2 MSTORE PUSH32 0x83ED3BA29C1D52058C877DF3EBD264CF957C42EF7764387349BE0CCF6DF0B63C PUSH1 0x20 MSTORE PUSH1 0x40 SWAP1 KECCAK256 DUP1 SLOAD SWAP1 PUSH9 0x10000000000000000 DUP3 LT ISZERO PUSH2 0x242 JUMPI PUSH1 0x1 DUP3 ADD DUP1 DUP3 SSTORE DUP3 LT ISZERO PUSH2 0x22F JUMPI DUP8 MSTORE DUP6 DUP8 KECCAK256 ADD DUP1 SLOAD PUSH1 0x1 PUSH1 0x1 PUSH1 0xA0 SHL SUB NOT SWAP1 DUP2 AND DUP5 OR SWAP1 SWAP2 SSTORE SWAP2 DUP7 MSTORE DUP5 MSTORE DUP3 DUP6 KECCAK256 DUP1 SLOAD SWAP1 SWAP2 AND CALLER OR SWAP1 SSTORE CODESIZE DUP1 PUSH2 0xC1 JUMP JUMPDEST PUSH4 0x4E487B71 PUSH1 0xE0 SHL DUP9 MSTORE PUSH1 0x32 DUP10 MSTORE PUSH1 0x24 DUP9 REVERT JUMPDEST PUSH4 0x4E487B71 PUSH1 0xE0 SHL DUP9 MSTORE PUSH1 0x41 DUP10 MSTORE PUSH1 0x24 DUP9 REVERT JUMPDEST DUP5 MLOAD PUSH3 0x461BCD PUSH1 0xE5 SHL DUP2 MSTORE DUP1 DUP10 ADD DUP8 SWAP1 MSTORE PUSH1 0x19 PUSH1 0x24 DUP3 ADD MSTORE PUSH32 0x44657669636520616C7265616479207265676973746572656400000000000000 PUSH1 0x44 DUP3 ADD MSTORE PUSH1 0x64 SWAP1 REVERT JUMPDEST SWAP1 POP CALLER EQ CODESIZE PUSH2 0xAA JUMP JUMPDEST DUP6 DUP1 REVERT JUMPDEST DUP3 DUP1 REVERT JUMPDEST POP DUP1 REVERT JUMPDEST POP CALLVALUE PUSH2 0x2AA JUMPI DUP2 PUSH1 0x3 NOT CALLDATASIZE ADD SLT PUSH2 0x2AA JUMPI CALLER PUSH1 0x0 SWAP1 DUP2 MSTORE PUSH32 0x83ED3BA29C1D52058C877DF3EBD264CF957C42EF7764387349BE0CCF6DF0B63C PUSH1 0x20 MSTORE PUSH1 0x40 SWAP1 KECCAK256 SWAP2 DUP2 MLOAD SWAP1 DUP2 SWAP3 DUP5 SLOAD DUP1 DUP5 MSTORE PUSH1 0x20 DUP1 SWAP5 ADD SWAP1 DUP2 SWAP7 DUP5 MSTORE DUP5 DUP5 KECCAK256 SWAP1 DUP5 JUMPDEST DUP7 DUP3 DUP3 LT PUSH2 0x38F JUMPI POP POP POP POP DUP5 SWAP1 SUB PUSH1 0x1F ADD PUSH1 0x1F NOT AND DUP5 ADD SWAP6 PUSH8 0xFFFFFFFFFFFFFFFF DUP8 GT DUP6 DUP9 LT OR PUSH2 0x37C JUMPI POP DUP6 DUP2 MSTORE DUP3 DUP7 MSTORE SWAP3 MLOAD DUP6 DUP4 ADD DUP2 SWAP1 MSTORE DUP6 SWAP5 SWAP4 DUP6 ADD SWAP4 SWAP3 SWAP1 SWAP2 JUMPDEST DUP3 DUP2 LT PUSH2 0x35C JUMPI POP POP POP POP SUB SWAP1 RETURN JUMPDEST DUP4 MLOAD PUSH1 0x1 PUSH1 0x1 PUSH1 0xA0 SHL SUB AND DUP6 MSTORE DUP7 SWAP6 POP SWAP4 DUP2 ADD SWAP4 SWAP3 DUP2 ADD SWAP3 PUSH1 0x1 ADD PUSH2 0x34D JUMP JUMPDEST PUSH4 0x4E487B71 PUSH1 0xE0 SHL DUP4 MSTORE PUSH1 0x41 SWAP1 MSTORE PUSH1 0x24 DUP3 REVERT JUMPDEST DUP4 SLOAD PUSH1 0x1 PUSH1 0x1 PUSH1 0xA0 SHL SUB AND DUP6 MSTORE SWAP1 SWAP4 ADD SWAP3 PUSH1 0x1 SWAP3 DUP4 ADD SWAP3 ADD PUSH2 0x308 JUMP JUMPDEST POP CALLVALUE PUSH2 0x2AA JUMPI DUP2 PUSH1 0x3 NOT CALLDATASIZE ADD SLT PUSH2 0x2AA JUMPI CALLER DUP3 MSTORE PUSH1 0x0 DUP1 MLOAD PUSH1 0x20 PUSH2 0x4DF DUP4 CODECOPY DUP2 MLOAD SWAP2 MSTORE PUSH1 0x20 SWAP1 DUP2 MSTORE SWAP2 DUP2 SWAP1 KECCAK256 SLOAD SWAP1 MLOAD PUSH1 0x1 PUSH1 0x1 PUSH1 0xA0 SHL SUB SWAP1 SWAP2 AND DUP2 MSTORE RETURN JUMPDEST POP SWAP2 SWAP1 CALLVALUE PUSH2 0x49F JUMPI DUP1 PUSH1 0x3 NOT CALLDATASIZE ADD SLT PUSH2 0x49F JUMPI CALLER DUP2 MSTORE PUSH1 0x0 DUP1 MLOAD PUSH1 0x20 PUSH2 0x4DF DUP4 CODECOPY DUP2 MLOAD SWAP2 MSTORE PUSH1 0x20 MSTORE DUP3 SWAP1 KECCAK256 SLOAD PUSH1 0x1 PUSH1 0x1 PUSH1 0xA0 SHL SUB AND ISZERO PUSH2 0x45D JUMPI CALLER PUSH1 0x0 SWAP1 DUP2 MSTORE PUSH32 0x83ED3BA29C1D52058C877DF3EBD264CF957C42EF7764387349BE0CCF6DF0B63D PUSH1 0x20 SWAP1 DUP2 MSTORE PUSH1 0x40 SWAP1 SWAP2 KECCAK256 SLOAD DUP4 MLOAD SWAP1 DUP2 MSTORE RETURN JUMPDEST PUSH1 0x20 PUSH1 0x64 SWAP3 MLOAD SWAP2 PUSH3 0x461BCD PUSH1 0xE5 SHL DUP4 MSTORE DUP3 ADD MSTORE PUSH1 0x19 PUSH1 0x24 DUP3 ADD MSTORE PUSH32 0x446576696365206E6F7420796574207265676973746572656400000000000000 PUSH1 0x44 DUP3 ADD MSTORE REVERT JUMPDEST DUP1 REVERT JUMPDEST SWAP2 SWAP1 POP CALLVALUE PUSH2 0x2A6 JUMPI DUP3 PUSH1 0x3 NOT CALLDATASIZE ADD SLT PUSH2 0x2A6 JUMPI CALLER DUP4 MSTORE PUSH1 0x0 DUP1 MLOAD PUSH1 0x20 PUSH2 0x4DF DUP4 CODECOPY DUP2 MLOAD SWAP2 MSTORE PUSH1 0x20 SWAP1 DUP2 MSTORE SWAP3 KECCAK256 SLOAD PUSH1 0x1 PUSH1 0x1 PUSH1 0xA0 SHL SUB AND ISZERO ISZERO DUP2 MSTORE RETURN INVALID DUP4 0xED EXTCODESIZE LOG2 SWAP13 SAR MSTORE SDIV DUP13 DUP8 PUSH30 0xF3EBD264CF957C42EF7764387349BE0CCF6DF0B63BA26469706673582212 KECCAK256 PUSH24 0x3595BD5F4C2B42434D944CA70014B6DA66C3780340C4B8D6 SIGNEXTEND RETURNDATASIZE GT DUP14 0xD8 LOG0 0xAF PUSH5 0x736F6C6343 STOP ADDMOD SLT STOP CALLER "},"gasEstimates":{"creation":{"codeDepositCost":"266400","executionCost":"313","totalCost":"266713"},"external":{"assignActivatableAddressToSender(address)":"infinite","getActivationCodeOfSender()":"infinite","getDeviceOwner()":"infinite","getRelatedDevices()":"infinite","isSenderRegistered()":"2392"}},"methodIdentifiers":{"assignActivatableAddressToSender(address)":"ec949297","getActivationCodeOfSender()":"58944eb8","getDeviceOwner()":"9b8ae375","getRelatedDevices()":"e0f64efc","isSenderRegistered()":"3aafa388"}},"storageLayout":{"storage":[],"types":null},"userdoc":{"kind":"user","methods":{},"version":1}}}}