{"contracts/SusuwatariFacet.sol":{"SusuwatariFacet":{"abi":[{"inputs":[{"internalType":"uint256","name":"tokenId","type":"uint256"},{"internalType":"string","name":"location","type":"string"},{"internalType":"string","name":"destination","type":"string"},{"internalType":"string","name":"message","type":"string"}],"name":"aimInitialSusu","outputs":[{"internalType":"uint256","name":"","type":"uint256"},{"internalType":"string","name":"","type":"string"},{"internalType":"string","name":"","type":"string"},{"internalType":"string","name":"","type":"string"}],"stateMutability":"nonpayable","type":"function"},{"inputs":[{"internalType":"uint256","name":"tokenId","type":"uint256"},{"internalType":"string","name":"location","type":"string"}],"name":"dropSusu","outputs":[{"internalType":"uint256","name":"","type":"uint256"},{"internalType":"string","name":"","type":"string"}],"stateMutability":"nonpayable","type":"function"},{"inputs":[],"name":"getCurrentState","outputs":[{"components":[{"internalType":"uint256[]","name":"ownedTokens","type":"uint256[]"},{"components":[{"internalType":"uint256","name":"susuTokenId","type":"uint256"},{"internalType":"uint256","name":"dropCooldownTime","type":"uint256"},{"internalType":"address","name":"ownerAddress","type":"address"}],"internalType":"struct BaggageSlot","name":"slot","type":"tuple"}],"internalType":"struct UserState","name":"","type":"tuple"}],"stateMutability":"view","type":"function"},{"inputs":[],"name":"giveSusuwatari","outputs":[],"stateMutability":"nonpayable","type":"function"},{"inputs":[],"name":"registerMe","outputs":[],"stateMutability":"nonpayable","type":"function"},{"inputs":[{"internalType":"uint256","name":"tokenId","type":"uint256"},{"internalType":"string","name":"location","type":"string"}],"name":"tryPickupSusu","outputs":[{"internalType":"uint256","name":"","type":"uint256"},{"internalType":"string","name":"","type":"string"}],"stateMutability":"nonpayable","type":"function"}],"devdoc":{"details":"Implementation of https://eips.ethereum.org/EIPS/eip-721[ERC721] Non-Fungible Token Standard, including the Metadata extension, but not including the Enumerable extension, which is available separately as {ERC721Enumerable}.","kind":"dev","methods":{},"version":1},"evm":{"bytecode":{"linkReferences":{},"object":"6080806040523461001657611e72908161001c8239f35b600080fdfe6080604052600436101561001257600080fd5b60003560e01c8063378aa7011461169b5780633e14c7da146114535780637298c3c314610f93578063786307481461096c5780639a198d611461049c5763b95d0b041461005e57600080fd5b346104975761006c366119c7565b9061008161007933611a41565b541515611b9a565b8015158061047e575b61009390611bdf565b600080516020611e1d83398151915254906000805b838110610425575b506100bd91925015611d12565b80600052600080516020611ddd83398151915260209281845260018060a01b039182600560406000200154166103e05760001984018481116102c8576101038491611a7a565b919054339260031b1c161461038357836000528085526040600020600281019160405187810190600091818654938b61013b86611b0c565b60019680881690811561036c5750600114610331575b50500391610167601f1993848101835282611950565b5190206040518a8101906101948c82816101878d878151938492016119f9565b8101038084520182611950565b519020036102de57604051428a82019081523360601b6bffffffffffffffffffffffff19166020820152603481018a905261012d929091906101e190826054850103908101835282611950565b519020069161012c9283018093116102c857610263966006850193845560058501926001600160601b0360a01b9233848654161785558a600052600080516020611dfd8339815191528c52604060002033858254161790558b52604060002096868803610267575b8b8b8b8b6040805194859485528401526040830190611a1c565b0390f35b8661028f6004926102866102a99560069b548d55808501908d01611c2b565b60028b01611c2b565b61029f6003820160038b01611c2b565b0160048801611c2b565b6005860192541690825416179055549101553880808080808080610249565b634e487b7160e01b600052601160045260246000fd5b60405162461bcd60e51b8152600481018a9052602560248201527f43616c6c6572206973206e6f7420696e2074686520636f7272656374206c6f6360448201526430ba34b7b760d91b6064820152608490fd5b9091508860005281600020866000915b838310610355575050508201018b38610151565b805488840186015287955091840191889101610341565b60ff19168652508015150283010190508b38610151565b60405162461bcd60e51b815260048101869052602f60248201527f546865206f776e65722063616e6e6f74206d6f766520686973206f776e20616960448201526e6d656420537573757761746172692160881b6064820152608490fd5b60405162461bcd60e51b815260048101869052601e60248201527f5375737520697320616c7265616479206265696e6720636172726965642100006044820152606490fd5b60018082018083116102c8576000908152600080516020611ddd83398151915260205260409020600501546001600160a01b0316331461046e575061046990611d03565b6100a8565b9150506100bd91925082916100b0565b50600080516020611e1d8339815191525481111561008a565b600080fd5b34610497576000366003190112610497576104b633611a41565b5461092757600080516020611e1d83398151915254600181018091116102c857604051906104e38261191a565b8152604051906104f282611935565b60008252602081019182526040519161050a83611935565b60008352604082019283526040519261052284611935565b600084526060830193845260405161053981611935565b600081526080840190815260a084019433865260c085019260008452600161056033611a41565b5561056a33611abd565b8551600052600080516020611ddd83398151915260205260406000209486518655518051906001600160401b0382116107b25781906105b9826105b060018b0154611b0c565b60018b01611b46565b602090601f83116001146108b5576000926108aa575b50508160011b916000199060031b1c19161760018601555b51805160028601916001600160401b0382116107b25781906106138261060d8654611b0c565b86611b46565b602090601f831160011461084457600092610839575b50508160011b916000199060031b1c19161790555b51805160038501916001600160401b0382116107b25781906106648261060d8654611b0c565b602090601f83116001146107d3576000926107c8575b50508160011b916000199060031b1c19161790555b51805160048401916001600160401b0382116107b2576106b9826106b38554611b0c565b85611b46565b602090601f8311600114610746576006949392916000918361073b575b50508160011b916000199060031b1c19161790555b93516005830180546001600160a01b039092166001600160a01b03199283161790559351910155516000908152600080516020611dfd833981519152602052604090208054339216919091179055005b0151905088806106d6565b90601f198316918460005260206000209260005b81811061079a575091600193918560069897969410610781575b505050811b0190556106eb565b015160001960f88460031b161c19169055888080610774565b9293602060018192878601518155019501930161075a565b634e487b7160e01b600052604160045260246000fd5b01519050888061067a565b6000858152602081209350601f198516905b8181106108215750908460019594939210610808575b505050811b01905561068f565b015160001960f88460031b161c191690558880806107fb565b929360206001819287860151815501950193016107e5565b015190508980610629565b6000858152602081209350601f198516905b8181106108925750908460019594939210610879575b505050811b01905561063e565b015160001960f88460031b161c1916905589808061086c565b92936020600181928786015181550195019301610856565b0151905089806105cf565b9250600188016000526020600020906000935b601f198416851061090c576001945083601f198116106108f3575b505050811b0160018601556105e7565b015160001960f88460031b161c191690558980806108e3565b818101518355602094850194600190930192909101906108c8565b60405162461bcd60e51b815260206004820152601760248201527f5573657220616c726561647920726567697374657265640000000000000000006044820152606490fd5b34610497576080366003190112610497576024356001600160401b0381116104975761099c903690600401611971565b6044356001600160401b038111610497576109bb903690600401611971565b906064356001600160401b038111610497576109db903690600401611971565b916109e861007933611a41565b600435151580610f78575b6109fc90611bdf565b60043560001981019081116102c857610a1490611a7a565b905460039190911b1c6001600160a01b0316331480610f45575b15610f0a57600435600052600080516020611ddd833981519152602052604060002061012d6040516020810190610a9981610a8b600435334287916054939183526001600160601b03199060601b16602083015260348201520190565b03601f198101835282611950565b5190200661012c9081018091116102c857600682015582516001600160401b0381116107b257610ad981610ad06001850154611b0c565b60018501611b46565b806020601f8211600114610e9d57600091610e92575b508160011b916000199060031b1c19161760018201555b82516001600160401b0381116107b257610b3081610b276002850154611b0c565b60028501611b46565b806020601f8211600114610e2557600091610e1a575b508160011b916000199060031b1c19161760028201555b81516001600160401b0381116107b257610b8781610b7e6003850154611b0c565b60038501611b46565b806020601f8211600114610dad57600091610da2575b508160011b916000199060031b1c19161760038201555b83516001600160401b0381116107b257610bde81610bd56004850154611b0c565b60048501611b46565b6020601f8211600114610d295792610c91959282610c9f9361026396600091610d1e575b508160011b916000199060031b1c19161760048201555b600581016001600160601b0360a01b808254168255600435600052600080516020611dfd8339815191526020526040600020818154169055600080516020611ddd833981519152602052604060002092808403610cad575b505050506040519586956004358752608060208801526080870190611a1c565b908582036040870152611a1c565b908382036060850152611a1c565b600692839282548655610cc66001840160018801611c2b565b610cd66002840160028801611c2b565b610ce66003840160038801611c2b565b610cf66004840160048801611c2b565b90546005860180549092166001600160a01b0391909116179055015491015586808080610c71565b905085015189610c02565b6004830160005260206000209060005b601f1984168110610d8a5750926001836102639693610c919996610c9f96601f19811610610d71575b5050811b016004820155610c19565b87015160001960f88460031b161c191690558980610d62565b9091602060018192858b015181550193019101610d39565b905083015186610b9d565b91506003830160005260206000206000925b601f1983168410610e02576001935082601f19811610610de9575b5050811b016003820155610bb4565b85015160001960f88460031b161c191690558680610dda565b85810151825560209384019360019092019101610dbf565b905084015186610b46565b91506002830160005260206000206000925b601f1983168410610e7a576001935082601f19811610610e61575b5050811b016002820155610b5d565b86015160001960f88460031b161c191690558680610e52565b86810151825560209384019360019092019101610e37565b905084015186610aef565b91506001830160005260206000206000925b601f1983168410610ef2576001935082601f19811610610ed9575b5050811b016001820155610b06565b86015160001960f88460031b161c191690558680610eca565b86810151825560209384019360019092019101610eaf565b60405162461bcd60e51b815260206004820152601360248201527221b0b63632b91034b9903737ba1037bbb732b960691b6044820152606490fd5b506004356000908152600080516020611ddd83398151915260205260409020600501546001600160a01b03163314610a2e565b50600080516020611e1d8339815191525460043511156109f3565b3461049757600036600319011261049757610fb061007933611a41565b600080516020611e1d833981519152546000805b8281106113fe575b50610fd79015611d12565b600181018091116102c85760405190610fef8261191a565b815260405190610ffe82611935565b60008252602081019182526040519161101683611935565b600083526040820192835260405161102d81611935565b60008152606083019081526040519061104582611935565b600082526080840191825260a0840194338652600060c086015261106833611abd565b8451600052600080516020611ddd83398151915260205260406000209385518555518051906001600160401b0382116107b25781906110b7826110ae60018a0154611b0c565b60018a01611b46565b602090601f831160011461138c57600092611381575b50508160011b916000199060031b1c19161760018501555b51805160028501916001600160401b0382116107b257819061110b8261060d8654611b0c565b602090601f831160011461131b57600092611310575b50508160011b916000199060031b1c19161790555b51805160038401916001600160401b0382116107b257819061115c8261060d8654611b0c565b602090601f83116001146112aa5760009261129f575b50508160011b916000199060031b1c19161790555b51805160048301916001600160401b0382116107b25781906111ad8261060d8654611b0c565b602090601f83116001146112395760009261122e575b50508160011b916000199060031b1c19161790555b600581019260018060a01b03905116926001600160601b0360a01b9384825416179055600660c083015191015551600052600080516020611dfd8339815191526020526040600020903390825416179055600080f35b0151905086806111c3565b6000858152602081209350601f198516905b818110611287575090846001959493921061126e575b505050811b0190556111d8565b015160001960f88460031b161c19169055868080611261565b9293602060018192878601518155019501930161124b565b015190508780611172565b6000858152602081209350601f198516905b8181106112f857509084600195949392106112df575b505050811b019055611187565b015160001960f88460031b161c191690558780806112d2565b929360206001819287860151815501950193016112bc565b015190508880611121565b6000858152602081209350601f198516905b8181106113695750908460019594939210611350575b505050811b019055611136565b015160001960f88460031b161c19169055888080611343565b9293602060018192878601518155019501930161132d565b0151905088806110cd565b9250600187016000526020600020906000935b601f19841685106113e3576001945083601f198116106113ca575b505050811b0160018501556110e5565b015160001960f88460031b161c191690558880806113ba565b8181015183556020948501946001909301929091019061139f565b60018082018083116102c8576000908152600080516020611ddd83398151915260205260409020600501546001600160a01b03163314611447575061144290611d03565b610fc4565b9150610fd79050610fcc565b3461049757611461366119c7565b9061146e61007933611a41565b80151580611682575b61148090611bdf565b80600052600080516020611ddd8339815191529060209282845260018060a01b033381600560406000200154160361162c5782600052838552604060002090600682016000815560028301918451966001600160401b0388116107b2576114eb8861060d8654611b0c565b88601f89116001146115c457978061026398996000916115b9575b508160011b916000199060031b1c19161784555b60058501916001600160601b0360a01b9182845416845589600052600080516020611dfd8339815191528b5260406000208381541690558a5260406000209580870361157b575b8a8a8a8a6040805194859485528401526040830190611a1c565b60048161028f60069861159b94548b556102866001840160018d01611c2b565b60058601925416908254161790555491015584808080808080611561565b90508701518b611506565b601f19891690856000528a6000209160005b8c828210611616575050918a916102639a9b600194106115fd575b5050811b01845561151a565b89015160001960f88460031b161c191690558b806115f1565b600184958293958d0151815501940192016115d6565b60405162461bcd60e51b815260048101869052602860248201527f43616c6c657220646f65736e27742063617272792061205375737577617461726044820152676920546f6b656e2160c01b6064820152608490fd5b50600080516020611e1d83398151915254811115611477565b34610497576000366003190112610497576116b4611da4565b506116bd611da4565b50600080600080516020611e1d83398151915254905b8181106118ba57506116e482611dc5565b916116f26040519384611950565b808352611701601f1991611dc5565b019060209136838501376000805b828110611841575050611720611d75565b906000905b8082106117b4575b50506040519261173c846118ff565b83528183019081526040519180835260a0830193519160808285015282518095528160c0850193016000955b80871061179d57505051805160408086019190915291810151606085015201516001600160a01b031660808301528190039150f35b909383806001928751815201950196019590611768565b60018201918281116102c8576000838152600080516020611dfd833981519152865260409020546001600160a01b039390841633146117ff57506117f9919250611d03565b90611725565b61182d9250808552600052600080516020611ddd833981519152855260066040600020015485850152611a7a565b90549060031b1c166040820152838061172d565b61184a81611a7a565b90543360039290921b1c6001600160a01b031614611871575b61186c90611d03565b61170f565b90600182018083116102c85785518210156118a4578161189c918661186c9460051b89010152611d03565b919050611863565b634e487b7160e01b600052603260045260246000fd5b6118c381611a7a565b90543360039290921b1c6001600160a01b0316146118ea575b6118e590611d03565b6116d3565b916118f76118e591611d03565b9290506118dc565b604081019081106001600160401b038211176107b257604052565b60e081019081106001600160401b038211176107b257604052565b602081019081106001600160401b038211176107b257604052565b90601f801991011681019081106001600160401b038211176107b257604052565b81601f82011215610497578035906001600160401b0382116107b257604051926119a5601f8401601f191660200185611950565b8284526020838301011161049757816000926020809301838601378301015290565b9060406003198301126104975760043591602435906001600160401b038211610497576119f691600401611971565b90565b60005b838110611a0c5750506000910152565b81810151838201526020016119fc565b90602091611a35815180928185528580860191016119f9565b601f01601f1916010190565b6001600160a01b031660009081527f202e1867cade063e32a2eb339a246f853a1a233314949ba8d9e2ac766f6ed8466020526040902090565b600080516020611e1d83398151915280548210156118a4576000527f5b627e705e277f4cd69351cfcf0179f3685951408382038c266c60748db0394a0190600090565b600080516020611e1d8339815191528054680100000000000000008110156107b257611aee91600182019055611a7a565b819291549060031b9160018060a01b03809116831b921b1916179055565b90600182811c92168015611b3c575b6020831014611b2657565b634e487b7160e01b600052602260045260246000fd5b91607f1691611b1b565b90601f8111611b5457505050565b600091825260208220906020601f850160051c83019410611b90575b601f0160051c01915b828110611b8557505050565b818155600101611b79565b9092508290611b70565b15611ba157565b60405162461bcd60e51b8152602060048201526016602482015275155cd95c881a5cc81b9bdd081c9959da5cdd195c995960521b6044820152606490fd5b15611be657565b60405162461bcd60e51b815260206004820152601d60248201527f546865205375737577617461726920646f6573206e6f742065786973740000006044820152606490fd5b90808214611cff57611c3d8154611b0c565b906001600160401b0382116107b2578190611c5c8261060d8654611b0c565b600090601f8311600114611c9357600092611c88575b50508160011b916000199060031b1c1916179055565b015490503880611c72565b81526020808220858352818320935090601f1985169083905b828210611ce6575050908460019594939210611ccd575b505050811b019055565b015460001960f88460031b161c19169055388080611cc3565b8495819295850154815560018091019601940190611cac565b5050565b60001981146102c85760010190565b15611d1957565b60405162461bcd60e51b815260206004820152602e60248201527f43616c6c657220697320616c7265616479206361727279696e6720612053757360448201526d7577617461726920546f6b656e2160901b6064820152608490fd5b60405190606082018281106001600160401b038211176107b25760405260006040838281528260208201520152565b60405190611db1826118ff565b81606081526020611dc0611d75565b910152565b6001600160401b0381116107b25760051b6020019056fe202e1867cade063e32a2eb339a246f853a1a233314949ba8d9e2ac766f6ed848202e1867cade063e32a2eb339a246f853a1a233314949ba8d9e2ac766f6ed84a202e1867cade063e32a2eb339a246f853a1a233314949ba8d9e2ac766f6ed847a2646970667358221220f5f2ad0af7981e26a48e9dd367c0911b9ff5e9a0bec166a8fba80d173b05d01364736f6c63430008120033","opcodes":"PUSH1 0x80 DUP1 PUSH1 0x40 MSTORE CALLVALUE PUSH2 0x16 JUMPI PUSH2 0x1E72 SWAP1 DUP2 PUSH2 0x1C DUP3 CODECOPY RETURN JUMPDEST PUSH1 0x0 DUP1 REVERT INVALID PUSH1 0x80 PUSH1 0x40 MSTORE PUSH1 0x4 CALLDATASIZE LT ISZERO PUSH2 0x12 JUMPI PUSH1 0x0 DUP1 REVERT JUMPDEST PUSH1 0x0 CALLDATALOAD PUSH1 0xE0 SHR DUP1 PUSH4 0x378AA701 EQ PUSH2 0x169B JUMPI DUP1 PUSH4 0x3E14C7DA EQ PUSH2 0x1453 JUMPI DUP1 PUSH4 0x7298C3C3 EQ PUSH2 0xF93 JUMPI DUP1 PUSH4 0x78630748 EQ PUSH2 0x96C JUMPI DUP1 PUSH4 0x9A198D61 EQ PUSH2 0x49C JUMPI PUSH4 0xB95D0B04 EQ PUSH2 0x5E JUMPI PUSH1 0x0 DUP1 REVERT JUMPDEST CALLVALUE PUSH2 0x497 JUMPI PUSH2 0x6C CALLDATASIZE PUSH2 0x19C7 JUMP JUMPDEST SWAP1 PUSH2 0x81 PUSH2 0x79 CALLER PUSH2 0x1A41 JUMP JUMPDEST SLOAD ISZERO ISZERO PUSH2 0x1B9A JUMP JUMPDEST DUP1 ISZERO ISZERO DUP1 PUSH2 0x47E JUMPI JUMPDEST PUSH2 0x93 SWAP1 PUSH2 0x1BDF JUMP JUMPDEST PUSH1 0x0 DUP1 MLOAD PUSH1 0x20 PUSH2 0x1E1D DUP4 CODECOPY DUP2 MLOAD SWAP2 MSTORE SLOAD SWAP1 PUSH1 0x0 DUP1 JUMPDEST DUP4 DUP2 LT PUSH2 0x425 JUMPI JUMPDEST POP PUSH2 0xBD SWAP2 SWAP3 POP ISZERO PUSH2 0x1D12 JUMP JUMPDEST DUP1 PUSH1 0x0 MSTORE PUSH1 0x0 DUP1 MLOAD PUSH1 0x20 PUSH2 0x1DDD DUP4 CODECOPY DUP2 MLOAD SWAP2 MSTORE PUSH1 0x20 SWAP3 DUP2 DUP5 MSTORE PUSH1 0x1 DUP1 PUSH1 0xA0 SHL SUB SWAP2 DUP3 PUSH1 0x5 PUSH1 0x40 PUSH1 0x0 KECCAK256 ADD SLOAD AND PUSH2 0x3E0 JUMPI PUSH1 0x0 NOT DUP5 ADD DUP5 DUP2 GT PUSH2 0x2C8 JUMPI PUSH2 0x103 DUP5 SWAP2 PUSH2 0x1A7A JUMP JUMPDEST SWAP2 SWAP1 SLOAD CALLER SWAP3 PUSH1 0x3 SHL SHR AND EQ PUSH2 0x383 JUMPI DUP4 PUSH1 0x0 MSTORE DUP1 DUP6 MSTORE PUSH1 0x40 PUSH1 0x0 KECCAK256 PUSH1 0x2 DUP2 ADD SWAP2 PUSH1 0x40 MLOAD DUP8 DUP2 ADD SWAP1 PUSH1 0x0 SWAP2 DUP2 DUP7 SLOAD SWAP4 DUP12 PUSH2 0x13B DUP7 PUSH2 0x1B0C JUMP JUMPDEST PUSH1 0x1 SWAP7 DUP1 DUP9 AND SWAP1 DUP2 ISZERO PUSH2 0x36C JUMPI POP PUSH1 0x1 EQ PUSH2 0x331 JUMPI JUMPDEST POP POP SUB SWAP2 PUSH2 0x167 PUSH1 0x1F NOT SWAP4 DUP5 DUP2 ADD DUP4 MSTORE DUP3 PUSH2 0x1950 JUMP JUMPDEST MLOAD SWAP1 KECCAK256 PUSH1 0x40 MLOAD DUP11 DUP2 ADD SWAP1 PUSH2 0x194 DUP13 DUP3 DUP2 PUSH2 0x187 DUP14 DUP8 DUP2 MLOAD SWAP4 DUP5 SWAP3 ADD PUSH2 0x19F9 JUMP JUMPDEST DUP2 ADD SUB DUP1 DUP5 MSTORE ADD DUP3 PUSH2 0x1950 JUMP JUMPDEST MLOAD SWAP1 KECCAK256 SUB PUSH2 0x2DE JUMPI PUSH1 0x40 MLOAD TIMESTAMP DUP11 DUP3 ADD SWAP1 DUP2 MSTORE CALLER PUSH1 0x60 SHL PUSH12 0xFFFFFFFFFFFFFFFFFFFFFFFF NOT AND PUSH1 0x20 DUP3 ADD MSTORE PUSH1 0x34 DUP2 ADD DUP11 SWAP1 MSTORE PUSH2 0x12D SWAP3 SWAP1 SWAP2 SWAP1 PUSH2 0x1E1 SWAP1 DUP3 PUSH1 0x54 DUP6 ADD SUB SWAP1 DUP2 ADD DUP4 MSTORE DUP3 PUSH2 0x1950 JUMP JUMPDEST MLOAD SWAP1 KECCAK256 MOD SWAP2 PUSH2 0x12C SWAP3 DUP4 ADD DUP1 SWAP4 GT PUSH2 0x2C8 JUMPI PUSH2 0x263 SWAP7 PUSH1 0x6 DUP6 ADD SWAP4 DUP5 SSTORE PUSH1 0x5 DUP6 ADD SWAP3 PUSH1 0x1 PUSH1 0x1 PUSH1 0x60 SHL SUB PUSH1 0xA0 SHL SWAP3 CALLER DUP5 DUP7 SLOAD AND OR DUP6 SSTORE DUP11 PUSH1 0x0 MSTORE PUSH1 0x0 DUP1 MLOAD PUSH1 0x20 PUSH2 0x1DFD DUP4 CODECOPY DUP2 MLOAD SWAP2 MSTORE DUP13 MSTORE PUSH1 0x40 PUSH1 0x0 KECCAK256 CALLER DUP6 DUP3 SLOAD AND OR SWAP1 SSTORE DUP12 MSTORE PUSH1 0x40 PUSH1 0x0 KECCAK256 SWAP7 DUP7 DUP9 SUB PUSH2 0x267 JUMPI JUMPDEST DUP12 DUP12 DUP12 DUP12 PUSH1 0x40 DUP1 MLOAD SWAP5 DUP6 SWAP5 DUP6 MSTORE DUP5 ADD MSTORE PUSH1 0x40 DUP4 ADD SWAP1 PUSH2 0x1A1C JUMP JUMPDEST SUB SWAP1 RETURN JUMPDEST DUP7 PUSH2 0x28F PUSH1 0x4 SWAP3 PUSH2 0x286 PUSH2 0x2A9 SWAP6 PUSH1 0x6 SWAP12 SLOAD DUP14 SSTORE DUP1 DUP6 ADD SWAP1 DUP14 ADD PUSH2 0x1C2B JUMP JUMPDEST PUSH1 0x2 DUP12 ADD PUSH2 0x1C2B JUMP JUMPDEST PUSH2 0x29F PUSH1 0x3 DUP3 ADD PUSH1 0x3 DUP12 ADD PUSH2 0x1C2B JUMP JUMPDEST ADD PUSH1 0x4 DUP9 ADD PUSH2 0x1C2B JUMP JUMPDEST PUSH1 0x5 DUP7 ADD SWAP3 SLOAD AND SWAP1 DUP3 SLOAD AND OR SWAP1 SSTORE SLOAD SWAP2 ADD SSTORE CODESIZE DUP1 DUP1 DUP1 DUP1 DUP1 DUP1 DUP1 PUSH2 0x249 JUMP JUMPDEST PUSH4 0x4E487B71 PUSH1 0xE0 SHL PUSH1 0x0 MSTORE PUSH1 0x11 PUSH1 0x4 MSTORE PUSH1 0x24 PUSH1 0x0 REVERT JUMPDEST PUSH1 0x40 MLOAD PUSH3 0x461BCD PUSH1 0xE5 SHL DUP2 MSTORE PUSH1 0x4 DUP2 ADD DUP11 SWAP1 MSTORE PUSH1 0x25 PUSH1 0x24 DUP3 ADD MSTORE PUSH32 0x43616C6C6572206973206E6F7420696E2074686520636F7272656374206C6F63 PUSH1 0x44 DUP3 ADD MSTORE PUSH5 0x30BA34B7B7 PUSH1 0xD9 SHL PUSH1 0x64 DUP3 ADD MSTORE PUSH1 0x84 SWAP1 REVERT JUMPDEST SWAP1 SWAP2 POP DUP9 PUSH1 0x0 MSTORE DUP2 PUSH1 0x0 KECCAK256 DUP7 PUSH1 0x0 SWAP2 JUMPDEST DUP4 DUP4 LT PUSH2 0x355 JUMPI POP POP POP DUP3 ADD ADD DUP12 CODESIZE PUSH2 0x151 JUMP JUMPDEST DUP1 SLOAD DUP9 DUP5 ADD DUP7 ADD MSTORE DUP8 SWAP6 POP SWAP2 DUP5 ADD SWAP2 DUP9 SWAP2 ADD PUSH2 0x341 JUMP JUMPDEST PUSH1 0xFF NOT AND DUP7 MSTORE POP DUP1 ISZERO ISZERO MUL DUP4 ADD ADD SWAP1 POP DUP12 CODESIZE PUSH2 0x151 JUMP JUMPDEST PUSH1 0x40 MLOAD PUSH3 0x461BCD PUSH1 0xE5 SHL DUP2 MSTORE PUSH1 0x4 DUP2 ADD DUP7 SWAP1 MSTORE PUSH1 0x2F PUSH1 0x24 DUP3 ADD MSTORE PUSH32 0x546865206F776E65722063616E6E6F74206D6F766520686973206F776E206169 PUSH1 0x44 DUP3 ADD MSTORE PUSH15 0x6D6564205375737577617461726921 PUSH1 0x88 SHL PUSH1 0x64 DUP3 ADD MSTORE PUSH1 0x84 SWAP1 REVERT JUMPDEST PUSH1 0x40 MLOAD PUSH3 0x461BCD PUSH1 0xE5 SHL DUP2 MSTORE PUSH1 0x4 DUP2 ADD DUP7 SWAP1 MSTORE PUSH1 0x1E PUSH1 0x24 DUP3 ADD MSTORE PUSH32 0x5375737520697320616C7265616479206265696E672063617272696564210000 PUSH1 0x44 DUP3 ADD MSTORE PUSH1 0x64 SWAP1 REVERT JUMPDEST PUSH1 0x1 DUP1 DUP3 ADD DUP1 DUP4 GT PUSH2 0x2C8 JUMPI PUSH1 0x0 SWAP1 DUP2 MSTORE PUSH1 0x0 DUP1 MLOAD PUSH1 0x20 PUSH2 0x1DDD DUP4 CODECOPY DUP2 MLOAD SWAP2 MSTORE PUSH1 0x20 MSTORE PUSH1 0x40 SWAP1 KECCAK256 PUSH1 0x5 ADD SLOAD PUSH1 0x1 PUSH1 0x1 PUSH1 0xA0 SHL SUB AND CALLER EQ PUSH2 0x46E JUMPI POP PUSH2 0x469 SWAP1 PUSH2 0x1D03 JUMP JUMPDEST PUSH2 0xA8 JUMP JUMPDEST SWAP2 POP POP PUSH2 0xBD SWAP2 SWAP3 POP DUP3 SWAP2 PUSH2 0xB0 JUMP JUMPDEST POP PUSH1 0x0 DUP1 MLOAD PUSH1 0x20 PUSH2 0x1E1D DUP4 CODECOPY DUP2 MLOAD SWAP2 MSTORE SLOAD DUP2 GT ISZERO PUSH2 0x8A JUMP JUMPDEST PUSH1 0x0 DUP1 REVERT JUMPDEST CALLVALUE PUSH2 0x497 JUMPI PUSH1 0x0 CALLDATASIZE PUSH1 0x3 NOT ADD SLT PUSH2 0x497 JUMPI PUSH2 0x4B6 CALLER PUSH2 0x1A41 JUMP JUMPDEST SLOAD PUSH2 0x927 JUMPI PUSH1 0x0 DUP1 MLOAD PUSH1 0x20 PUSH2 0x1E1D DUP4 CODECOPY DUP2 MLOAD SWAP2 MSTORE SLOAD PUSH1 0x1 DUP2 ADD DUP1 SWAP2 GT PUSH2 0x2C8 JUMPI PUSH1 0x40 MLOAD SWAP1 PUSH2 0x4E3 DUP3 PUSH2 0x191A JUMP JUMPDEST DUP2 MSTORE PUSH1 0x40 MLOAD SWAP1 PUSH2 0x4F2 DUP3 PUSH2 0x1935 JUMP JUMPDEST PUSH1 0x0 DUP3 MSTORE PUSH1 0x20 DUP2 ADD SWAP2 DUP3 MSTORE PUSH1 0x40 MLOAD SWAP2 PUSH2 0x50A DUP4 PUSH2 0x1935 JUMP JUMPDEST PUSH1 0x0 DUP4 MSTORE PUSH1 0x40 DUP3 ADD SWAP3 DUP4 MSTORE PUSH1 0x40 MLOAD SWAP3 PUSH2 0x522 DUP5 PUSH2 0x1935 JUMP JUMPDEST PUSH1 0x0 DUP5 MSTORE PUSH1 0x60 DUP4 ADD SWAP4 DUP5 MSTORE PUSH1 0x40 MLOAD PUSH2 0x539 DUP2 PUSH2 0x1935 JUMP JUMPDEST PUSH1 0x0 DUP2 MSTORE PUSH1 0x80 DUP5 ADD SWAP1 DUP2 MSTORE PUSH1 0xA0 DUP5 ADD SWAP5 CALLER DUP7 MSTORE PUSH1 0xC0 DUP6 ADD SWAP3 PUSH1 0x0 DUP5 MSTORE PUSH1 0x1 PUSH2 0x560 CALLER PUSH2 0x1A41 JUMP JUMPDEST SSTORE PUSH2 0x56A CALLER PUSH2 0x1ABD JUMP JUMPDEST DUP6 MLOAD PUSH1 0x0 MSTORE PUSH1 0x0 DUP1 MLOAD PUSH1 0x20 PUSH2 0x1DDD DUP4 CODECOPY DUP2 MLOAD SWAP2 MSTORE PUSH1 0x20 MSTORE PUSH1 0x40 PUSH1 0x0 KECCAK256 SWAP5 DUP7 MLOAD DUP7 SSTORE MLOAD DUP1 MLOAD SWAP1 PUSH1 0x1 PUSH1 0x1 PUSH1 0x40 SHL SUB DUP3 GT PUSH2 0x7B2 JUMPI DUP2 SWAP1 PUSH2 0x5B9 DUP3 PUSH2 0x5B0 PUSH1 0x1 DUP12 ADD SLOAD PUSH2 0x1B0C JUMP JUMPDEST PUSH1 0x1 DUP12 ADD PUSH2 0x1B46 JUMP JUMPDEST PUSH1 0x20 SWAP1 PUSH1 0x1F DUP4 GT PUSH1 0x1 EQ PUSH2 0x8B5 JUMPI PUSH1 0x0 SWAP3 PUSH2 0x8AA JUMPI JUMPDEST POP POP DUP2 PUSH1 0x1 SHL SWAP2 PUSH1 0x0 NOT SWAP1 PUSH1 0x3 SHL SHR NOT AND OR PUSH1 0x1 DUP7 ADD SSTORE JUMPDEST MLOAD DUP1 MLOAD PUSH1 0x2 DUP7 ADD SWAP2 PUSH1 0x1 PUSH1 0x1 PUSH1 0x40 SHL SUB DUP3 GT PUSH2 0x7B2 JUMPI DUP2 SWAP1 PUSH2 0x613 DUP3 PUSH2 0x60D DUP7 SLOAD PUSH2 0x1B0C JUMP JUMPDEST DUP7 PUSH2 0x1B46 JUMP JUMPDEST PUSH1 0x20 SWAP1 PUSH1 0x1F DUP4 GT PUSH1 0x1 EQ PUSH2 0x844 JUMPI PUSH1 0x0 SWAP3 PUSH2 0x839 JUMPI JUMPDEST POP POP DUP2 PUSH1 0x1 SHL SWAP2 PUSH1 0x0 NOT SWAP1 PUSH1 0x3 SHL SHR NOT AND OR SWAP1 SSTORE JUMPDEST MLOAD DUP1 MLOAD PUSH1 0x3 DUP6 ADD SWAP2 PUSH1 0x1 PUSH1 0x1 PUSH1 0x40 SHL SUB DUP3 GT PUSH2 0x7B2 JUMPI DUP2 SWAP1 PUSH2 0x664 DUP3 PUSH2 0x60D DUP7 SLOAD PUSH2 0x1B0C JUMP JUMPDEST PUSH1 0x20 SWAP1 PUSH1 0x1F DUP4 GT PUSH1 0x1 EQ PUSH2 0x7D3 JUMPI PUSH1 0x0 SWAP3 PUSH2 0x7C8 JUMPI JUMPDEST POP POP DUP2 PUSH1 0x1 SHL SWAP2 PUSH1 0x0 NOT SWAP1 PUSH1 0x3 SHL SHR NOT AND OR SWAP1 SSTORE JUMPDEST MLOAD DUP1 MLOAD PUSH1 0x4 DUP5 ADD SWAP2 PUSH1 0x1 PUSH1 0x1 PUSH1 0x40 SHL SUB DUP3 GT PUSH2 0x7B2 JUMPI PUSH2 0x6B9 DUP3 PUSH2 0x6B3 DUP6 SLOAD PUSH2 0x1B0C JUMP JUMPDEST DUP6 PUSH2 0x1B46 JUMP JUMPDEST PUSH1 0x20 SWAP1 PUSH1 0x1F DUP4 GT PUSH1 0x1 EQ PUSH2 0x746 JUMPI PUSH1 0x6 SWAP5 SWAP4 SWAP3 SWAP2 PUSH1 0x0 SWAP2 DUP4 PUSH2 0x73B JUMPI JUMPDEST POP POP DUP2 PUSH1 0x1 SHL SWAP2 PUSH1 0x0 NOT SWAP1 PUSH1 0x3 SHL SHR NOT AND OR SWAP1 SSTORE JUMPDEST SWAP4 MLOAD PUSH1 0x5 DUP4 ADD DUP1 SLOAD PUSH1 0x1 PUSH1 0x1 PUSH1 0xA0 SHL SUB SWAP1 SWAP3 AND PUSH1 0x1 PUSH1 0x1 PUSH1 0xA0 SHL SUB NOT SWAP3 DUP4 AND OR SWAP1 SSTORE SWAP4 MLOAD SWAP2 ADD SSTORE MLOAD PUSH1 0x0 SWAP1 DUP2 MSTORE PUSH1 0x0 DUP1 MLOAD PUSH1 0x20 PUSH2 0x1DFD DUP4 CODECOPY DUP2 MLOAD SWAP2 MSTORE PUSH1 0x20 MSTORE PUSH1 0x40 SWAP1 KECCAK256 DUP1 SLOAD CALLER SWAP3 AND SWAP2 SWAP1 SWAP2 OR SWAP1 SSTORE STOP JUMPDEST ADD MLOAD SWAP1 POP DUP9 DUP1 PUSH2 0x6D6 JUMP JUMPDEST SWAP1 PUSH1 0x1F NOT DUP4 AND SWAP2 DUP5 PUSH1 0x0 MSTORE PUSH1 0x20 PUSH1 0x0 KECCAK256 SWAP3 PUSH1 0x0 JUMPDEST DUP2 DUP2 LT PUSH2 0x79A JUMPI POP SWAP2 PUSH1 0x1 SWAP4 SWAP2 DUP6 PUSH1 0x6 SWAP9 SWAP8 SWAP7 SWAP5 LT PUSH2 0x781 JUMPI JUMPDEST POP POP POP DUP2 SHL ADD SWAP1 SSTORE PUSH2 0x6EB JUMP JUMPDEST ADD MLOAD PUSH1 0x0 NOT PUSH1 0xF8 DUP5 PUSH1 0x3 SHL AND SHR NOT AND SWAP1 SSTORE DUP9 DUP1 DUP1 PUSH2 0x774 JUMP JUMPDEST SWAP3 SWAP4 PUSH1 0x20 PUSH1 0x1 DUP2 SWAP3 DUP8 DUP7 ADD MLOAD DUP2 SSTORE ADD SWAP6 ADD SWAP4 ADD PUSH2 0x75A JUMP JUMPDEST PUSH4 0x4E487B71 PUSH1 0xE0 SHL PUSH1 0x0 MSTORE PUSH1 0x41 PUSH1 0x4 MSTORE PUSH1 0x24 PUSH1 0x0 REVERT JUMPDEST ADD MLOAD SWAP1 POP DUP9 DUP1 PUSH2 0x67A JUMP JUMPDEST PUSH1 0x0 DUP6 DUP2 MSTORE PUSH1 0x20 DUP2 KECCAK256 SWAP4 POP PUSH1 0x1F NOT DUP6 AND SWAP1 JUMPDEST DUP2 DUP2 LT PUSH2 0x821 JUMPI POP SWAP1 DUP5 PUSH1 0x1 SWAP6 SWAP5 SWAP4 SWAP3 LT PUSH2 0x808 JUMPI JUMPDEST POP POP POP DUP2 SHL ADD SWAP1 SSTORE PUSH2 0x68F JUMP JUMPDEST ADD MLOAD PUSH1 0x0 NOT PUSH1 0xF8 DUP5 PUSH1 0x3 SHL AND SHR NOT AND SWAP1 SSTORE DUP9 DUP1 DUP1 PUSH2 0x7FB JUMP JUMPDEST SWAP3 SWAP4 PUSH1 0x20 PUSH1 0x1 DUP2 SWAP3 DUP8 DUP7 ADD MLOAD DUP2 SSTORE ADD SWAP6 ADD SWAP4 ADD PUSH2 0x7E5 JUMP JUMPDEST ADD MLOAD SWAP1 POP DUP10 DUP1 PUSH2 0x629 JUMP JUMPDEST PUSH1 0x0 DUP6 DUP2 MSTORE PUSH1 0x20 DUP2 KECCAK256 SWAP4 POP PUSH1 0x1F NOT DUP6 AND SWAP1 JUMPDEST DUP2 DUP2 LT PUSH2 0x892 JUMPI POP SWAP1 DUP5 PUSH1 0x1 SWAP6 SWAP5 SWAP4 SWAP3 LT PUSH2 0x879 JUMPI JUMPDEST POP POP POP DUP2 SHL ADD SWAP1 SSTORE PUSH2 0x63E JUMP JUMPDEST ADD MLOAD PUSH1 0x0 NOT PUSH1 0xF8 DUP5 PUSH1 0x3 SHL AND SHR NOT AND SWAP1 SSTORE DUP10 DUP1 DUP1 PUSH2 0x86C JUMP JUMPDEST SWAP3 SWAP4 PUSH1 0x20 PUSH1 0x1 DUP2 SWAP3 DUP8 DUP7 ADD MLOAD DUP2 SSTORE ADD SWAP6 ADD SWAP4 ADD PUSH2 0x856 JUMP JUMPDEST ADD MLOAD SWAP1 POP DUP10 DUP1 PUSH2 0x5CF JUMP JUMPDEST SWAP3 POP PUSH1 0x1 DUP9 ADD PUSH1 0x0 MSTORE PUSH1 0x20 PUSH1 0x0 KECCAK256 SWAP1 PUSH1 0x0 SWAP4 JUMPDEST PUSH1 0x1F NOT DUP5 AND DUP6 LT PUSH2 0x90C JUMPI PUSH1 0x1 SWAP5 POP DUP4 PUSH1 0x1F NOT DUP2 AND LT PUSH2 0x8F3 JUMPI JUMPDEST POP POP POP DUP2 SHL ADD PUSH1 0x1 DUP7 ADD SSTORE PUSH2 0x5E7 JUMP JUMPDEST ADD MLOAD PUSH1 0x0 NOT PUSH1 0xF8 DUP5 PUSH1 0x3 SHL AND SHR NOT AND SWAP1 SSTORE DUP10 DUP1 DUP1 PUSH2 0x8E3 JUMP JUMPDEST DUP2 DUP2 ADD MLOAD DUP4 SSTORE PUSH1 0x20 SWAP5 DUP6 ADD SWAP5 PUSH1 0x1 SWAP1 SWAP4 ADD SWAP3 SWAP1 SWAP2 ADD SWAP1 PUSH2 0x8C8 JUMP JUMPDEST PUSH1 0x40 MLOAD PUSH3 0x461BCD PUSH1 0xE5 SHL DUP2 MSTORE PUSH1 0x20 PUSH1 0x4 DUP3 ADD MSTORE PUSH1 0x17 PUSH1 0x24 DUP3 ADD MSTORE PUSH32 0x5573657220616C72656164792072656769737465726564000000000000000000 PUSH1 0x44 DUP3 ADD MSTORE PUSH1 0x64 SWAP1 REVERT JUMPDEST CALLVALUE PUSH2 0x497 JUMPI PUSH1 0x80 CALLDATASIZE PUSH1 0x3 NOT ADD SLT PUSH2 0x497 JUMPI PUSH1 0x24 CALLDATALOAD PUSH1 0x1 PUSH1 0x1 PUSH1 0x40 SHL SUB DUP2 GT PUSH2 0x497 JUMPI PUSH2 0x99C SWAP1 CALLDATASIZE SWAP1 PUSH1 0x4 ADD PUSH2 0x1971 JUMP JUMPDEST PUSH1 0x44 CALLDATALOAD PUSH1 0x1 PUSH1 0x1 PUSH1 0x40 SHL SUB DUP2 GT PUSH2 0x497 JUMPI PUSH2 0x9BB SWAP1 CALLDATASIZE SWAP1 PUSH1 0x4 ADD PUSH2 0x1971 JUMP JUMPDEST SWAP1 PUSH1 0x64 CALLDATALOAD PUSH1 0x1 PUSH1 0x1 PUSH1 0x40 SHL SUB DUP2 GT PUSH2 0x497 JUMPI PUSH2 0x9DB SWAP1 CALLDATASIZE SWAP1 PUSH1 0x4 ADD PUSH2 0x1971 JUMP JUMPDEST SWAP2 PUSH2 0x9E8 PUSH2 0x79 CALLER PUSH2 0x1A41 JUMP JUMPDEST PUSH1 0x4 CALLDATALOAD ISZERO ISZERO DUP1 PUSH2 0xF78 JUMPI JUMPDEST PUSH2 0x9FC SWAP1 PUSH2 0x1BDF JUMP JUMPDEST PUSH1 0x4 CALLDATALOAD PUSH1 0x0 NOT DUP2 ADD SWAP1 DUP2 GT PUSH2 0x2C8 JUMPI PUSH2 0xA14 SWAP1 PUSH2 0x1A7A JUMP JUMPDEST SWAP1 SLOAD PUSH1 0x3 SWAP2 SWAP1 SWAP2 SHL SHR PUSH1 0x1 PUSH1 0x1 PUSH1 0xA0 SHL SUB AND CALLER EQ DUP1 PUSH2 0xF45 JUMPI JUMPDEST ISZERO PUSH2 0xF0A JUMPI PUSH1 0x4 CALLDATALOAD PUSH1 0x0 MSTORE PUSH1 0x0 DUP1 MLOAD PUSH1 0x20 PUSH2 0x1DDD DUP4 CODECOPY DUP2 MLOAD SWAP2 MSTORE PUSH1 0x20 MSTORE PUSH1 0x40 PUSH1 0x0 KECCAK256 PUSH2 0x12D PUSH1 0x40 MLOAD PUSH1 0x20 DUP2 ADD SWAP1 PUSH2 0xA99 DUP2 PUSH2 0xA8B PUSH1 0x4 CALLDATALOAD CALLER TIMESTAMP DUP8 SWAP2 PUSH1 0x54 SWAP4 SWAP2 DUP4 MSTORE PUSH1 0x1 PUSH1 0x1 PUSH1 0x60 SHL SUB NOT SWAP1 PUSH1 0x60 SHL AND PUSH1 0x20 DUP4 ADD MSTORE PUSH1 0x34 DUP3 ADD MSTORE ADD SWAP1 JUMP JUMPDEST SUB PUSH1 0x1F NOT DUP2 ADD DUP4 MSTORE DUP3 PUSH2 0x1950 JUMP JUMPDEST MLOAD SWAP1 KECCAK256 MOD PUSH2 0x12C SWAP1 DUP2 ADD DUP1 SWAP2 GT PUSH2 0x2C8 JUMPI PUSH1 0x6 DUP3 ADD SSTORE DUP3 MLOAD PUSH1 0x1 PUSH1 0x1 PUSH1 0x40 SHL SUB DUP2 GT PUSH2 0x7B2 JUMPI PUSH2 0xAD9 DUP2 PUSH2 0xAD0 PUSH1 0x1 DUP6 ADD SLOAD PUSH2 0x1B0C JUMP JUMPDEST PUSH1 0x1 DUP6 ADD PUSH2 0x1B46 JUMP JUMPDEST DUP1 PUSH1 0x20 PUSH1 0x1F DUP3 GT PUSH1 0x1 EQ PUSH2 0xE9D JUMPI PUSH1 0x0 SWAP2 PUSH2 0xE92 JUMPI JUMPDEST POP DUP2 PUSH1 0x1 SHL SWAP2 PUSH1 0x0 NOT SWAP1 PUSH1 0x3 SHL SHR NOT AND OR PUSH1 0x1 DUP3 ADD SSTORE JUMPDEST DUP3 MLOAD PUSH1 0x1 PUSH1 0x1 PUSH1 0x40 SHL SUB DUP2 GT PUSH2 0x7B2 JUMPI PUSH2 0xB30 DUP2 PUSH2 0xB27 PUSH1 0x2 DUP6 ADD SLOAD PUSH2 0x1B0C JUMP JUMPDEST PUSH1 0x2 DUP6 ADD PUSH2 0x1B46 JUMP JUMPDEST DUP1 PUSH1 0x20 PUSH1 0x1F DUP3 GT PUSH1 0x1 EQ PUSH2 0xE25 JUMPI PUSH1 0x0 SWAP2 PUSH2 0xE1A JUMPI JUMPDEST POP DUP2 PUSH1 0x1 SHL SWAP2 PUSH1 0x0 NOT SWAP1 PUSH1 0x3 SHL SHR NOT AND OR PUSH1 0x2 DUP3 ADD SSTORE JUMPDEST DUP2 MLOAD PUSH1 0x1 PUSH1 0x1 PUSH1 0x40 SHL SUB DUP2 GT PUSH2 0x7B2 JUMPI PUSH2 0xB87 DUP2 PUSH2 0xB7E PUSH1 0x3 DUP6 ADD SLOAD PUSH2 0x1B0C JUMP JUMPDEST PUSH1 0x3 DUP6 ADD PUSH2 0x1B46 JUMP JUMPDEST DUP1 PUSH1 0x20 PUSH1 0x1F DUP3 GT PUSH1 0x1 EQ PUSH2 0xDAD JUMPI PUSH1 0x0 SWAP2 PUSH2 0xDA2 JUMPI JUMPDEST POP DUP2 PUSH1 0x1 SHL SWAP2 PUSH1 0x0 NOT SWAP1 PUSH1 0x3 SHL SHR NOT AND OR PUSH1 0x3 DUP3 ADD SSTORE JUMPDEST DUP4 MLOAD PUSH1 0x1 PUSH1 0x1 PUSH1 0x40 SHL SUB DUP2 GT PUSH2 0x7B2 JUMPI PUSH2 0xBDE DUP2 PUSH2 0xBD5 PUSH1 0x4 DUP6 ADD SLOAD PUSH2 0x1B0C JUMP JUMPDEST PUSH1 0x4 DUP6 ADD PUSH2 0x1B46 JUMP JUMPDEST PUSH1 0x20 PUSH1 0x1F DUP3 GT PUSH1 0x1 EQ PUSH2 0xD29 JUMPI SWAP3 PUSH2 0xC91 SWAP6 SWAP3 DUP3 PUSH2 0xC9F SWAP4 PUSH2 0x263 SWAP7 PUSH1 0x0 SWAP2 PUSH2 0xD1E JUMPI JUMPDEST POP DUP2 PUSH1 0x1 SHL SWAP2 PUSH1 0x0 NOT SWAP1 PUSH1 0x3 SHL SHR NOT AND OR PUSH1 0x4 DUP3 ADD SSTORE JUMPDEST PUSH1 0x5 DUP2 ADD PUSH1 0x1 PUSH1 0x1 PUSH1 0x60 SHL SUB PUSH1 0xA0 SHL DUP1 DUP3 SLOAD AND DUP3 SSTORE PUSH1 0x4 CALLDATALOAD PUSH1 0x0 MSTORE PUSH1 0x0 DUP1 MLOAD PUSH1 0x20 PUSH2 0x1DFD DUP4 CODECOPY DUP2 MLOAD SWAP2 MSTORE PUSH1 0x20 MSTORE PUSH1 0x40 PUSH1 0x0 KECCAK256 DUP2 DUP2 SLOAD AND SWAP1 SSTORE PUSH1 0x0 DUP1 MLOAD PUSH1 0x20 PUSH2 0x1DDD DUP4 CODECOPY DUP2 MLOAD SWAP2 MSTORE PUSH1 0x20 MSTORE PUSH1 0x40 PUSH1 0x0 KECCAK256 SWAP3 DUP1 DUP5 SUB PUSH2 0xCAD JUMPI JUMPDEST POP POP POP POP PUSH1 0x40 MLOAD SWAP6 DUP7 SWAP6 PUSH1 0x4 CALLDATALOAD DUP8 MSTORE PUSH1 0x80 PUSH1 0x20 DUP9 ADD MSTORE PUSH1 0x80 DUP8 ADD SWAP1 PUSH2 0x1A1C JUMP JUMPDEST SWAP1 DUP6 DUP3 SUB PUSH1 0x40 DUP8 ADD MSTORE PUSH2 0x1A1C JUMP JUMPDEST SWAP1 DUP4 DUP3 SUB PUSH1 0x60 DUP6 ADD MSTORE PUSH2 0x1A1C JUMP JUMPDEST PUSH1 0x6 SWAP3 DUP4 SWAP3 DUP3 SLOAD DUP7 SSTORE PUSH2 0xCC6 PUSH1 0x1 DUP5 ADD PUSH1 0x1 DUP9 ADD PUSH2 0x1C2B JUMP JUMPDEST PUSH2 0xCD6 PUSH1 0x2 DUP5 ADD PUSH1 0x2 DUP9 ADD PUSH2 0x1C2B JUMP JUMPDEST PUSH2 0xCE6 PUSH1 0x3 DUP5 ADD PUSH1 0x3 DUP9 ADD PUSH2 0x1C2B JUMP JUMPDEST PUSH2 0xCF6 PUSH1 0x4 DUP5 ADD PUSH1 0x4 DUP9 ADD PUSH2 0x1C2B JUMP JUMPDEST SWAP1 SLOAD PUSH1 0x5 DUP7 ADD DUP1 SLOAD SWAP1 SWAP3 AND PUSH1 0x1 PUSH1 0x1 PUSH1 0xA0 SHL SUB SWAP2 SWAP1 SWAP2 AND OR SWAP1 SSTORE ADD SLOAD SWAP2 ADD SSTORE DUP7 DUP1 DUP1 DUP1 PUSH2 0xC71 JUMP JUMPDEST SWAP1 POP DUP6 ADD MLOAD DUP10 PUSH2 0xC02 JUMP JUMPDEST PUSH1 0x4 DUP4 ADD PUSH1 0x0 MSTORE PUSH1 0x20 PUSH1 0x0 KECCAK256 SWAP1 PUSH1 0x0 JUMPDEST PUSH1 0x1F NOT DUP5 AND DUP2 LT PUSH2 0xD8A JUMPI POP SWAP3 PUSH1 0x1 DUP4 PUSH2 0x263 SWAP7 SWAP4 PUSH2 0xC91 SWAP10 SWAP7 PUSH2 0xC9F SWAP7 PUSH1 0x1F NOT DUP2 AND LT PUSH2 0xD71 JUMPI JUMPDEST POP POP DUP2 SHL ADD PUSH1 0x4 DUP3 ADD SSTORE PUSH2 0xC19 JUMP JUMPDEST DUP8 ADD MLOAD PUSH1 0x0 NOT PUSH1 0xF8 DUP5 PUSH1 0x3 SHL AND SHR NOT AND SWAP1 SSTORE DUP10 DUP1 PUSH2 0xD62 JUMP JUMPDEST SWAP1 SWAP2 PUSH1 0x20 PUSH1 0x1 DUP2 SWAP3 DUP6 DUP12 ADD MLOAD DUP2 SSTORE ADD SWAP4 ADD SWAP2 ADD PUSH2 0xD39 JUMP JUMPDEST SWAP1 POP DUP4 ADD MLOAD DUP7 PUSH2 0xB9D JUMP JUMPDEST SWAP2 POP PUSH1 0x3 DUP4 ADD PUSH1 0x0 MSTORE PUSH1 0x20 PUSH1 0x0 KECCAK256 PUSH1 0x0 SWAP3 JUMPDEST PUSH1 0x1F NOT DUP4 AND DUP5 LT PUSH2 0xE02 JUMPI PUSH1 0x1 SWAP4 POP DUP3 PUSH1 0x1F NOT DUP2 AND LT PUSH2 0xDE9 JUMPI JUMPDEST POP POP DUP2 SHL ADD PUSH1 0x3 DUP3 ADD SSTORE PUSH2 0xBB4 JUMP JUMPDEST DUP6 ADD MLOAD PUSH1 0x0 NOT PUSH1 0xF8 DUP5 PUSH1 0x3 SHL AND SHR NOT AND SWAP1 SSTORE DUP7 DUP1 PUSH2 0xDDA JUMP JUMPDEST DUP6 DUP2 ADD MLOAD DUP3 SSTORE PUSH1 0x20 SWAP4 DUP5 ADD SWAP4 PUSH1 0x1 SWAP1 SWAP3 ADD SWAP2 ADD PUSH2 0xDBF JUMP JUMPDEST SWAP1 POP DUP5 ADD MLOAD DUP7 PUSH2 0xB46 JUMP JUMPDEST SWAP2 POP PUSH1 0x2 DUP4 ADD PUSH1 0x0 MSTORE PUSH1 0x20 PUSH1 0x0 KECCAK256 PUSH1 0x0 SWAP3 JUMPDEST PUSH1 0x1F NOT DUP4 AND DUP5 LT PUSH2 0xE7A JUMPI PUSH1 0x1 SWAP4 POP DUP3 PUSH1 0x1F NOT DUP2 AND LT PUSH2 0xE61 JUMPI JUMPDEST POP POP DUP2 SHL ADD PUSH1 0x2 DUP3 ADD SSTORE PUSH2 0xB5D JUMP JUMPDEST DUP7 ADD MLOAD PUSH1 0x0 NOT PUSH1 0xF8 DUP5 PUSH1 0x3 SHL AND SHR NOT AND SWAP1 SSTORE DUP7 DUP1 PUSH2 0xE52 JUMP JUMPDEST DUP7 DUP2 ADD MLOAD DUP3 SSTORE PUSH1 0x20 SWAP4 DUP5 ADD SWAP4 PUSH1 0x1 SWAP1 SWAP3 ADD SWAP2 ADD PUSH2 0xE37 JUMP JUMPDEST SWAP1 POP DUP5 ADD MLOAD DUP7 PUSH2 0xAEF JUMP JUMPDEST SWAP2 POP PUSH1 0x1 DUP4 ADD PUSH1 0x0 MSTORE PUSH1 0x20 PUSH1 0x0 KECCAK256 PUSH1 0x0 SWAP3 JUMPDEST PUSH1 0x1F NOT DUP4 AND DUP5 LT PUSH2 0xEF2 JUMPI PUSH1 0x1 SWAP4 POP DUP3 PUSH1 0x1F NOT DUP2 AND LT PUSH2 0xED9 JUMPI JUMPDEST POP POP DUP2 SHL ADD PUSH1 0x1 DUP3 ADD SSTORE PUSH2 0xB06 JUMP JUMPDEST DUP7 ADD MLOAD PUSH1 0x0 NOT PUSH1 0xF8 DUP5 PUSH1 0x3 SHL AND SHR NOT AND SWAP1 SSTORE DUP7 DUP1 PUSH2 0xECA JUMP JUMPDEST DUP7 DUP2 ADD MLOAD DUP3 SSTORE PUSH1 0x20 SWAP4 DUP5 ADD SWAP4 PUSH1 0x1 SWAP1 SWAP3 ADD SWAP2 ADD PUSH2 0xEAF JUMP JUMPDEST PUSH1 0x40 MLOAD PUSH3 0x461BCD PUSH1 0xE5 SHL DUP2 MSTORE PUSH1 0x20 PUSH1 0x4 DUP3 ADD MSTORE PUSH1 0x13 PUSH1 0x24 DUP3 ADD MSTORE PUSH19 0x21B0B63632B91034B9903737BA1037BBB732B9 PUSH1 0x69 SHL PUSH1 0x44 DUP3 ADD MSTORE PUSH1 0x64 SWAP1 REVERT JUMPDEST POP PUSH1 0x4 CALLDATALOAD PUSH1 0x0 SWAP1 DUP2 MSTORE PUSH1 0x0 DUP1 MLOAD PUSH1 0x20 PUSH2 0x1DDD DUP4 CODECOPY DUP2 MLOAD SWAP2 MSTORE PUSH1 0x20 MSTORE PUSH1 0x40 SWAP1 KECCAK256 PUSH1 0x5 ADD SLOAD PUSH1 0x1 PUSH1 0x1 PUSH1 0xA0 SHL SUB AND CALLER EQ PUSH2 0xA2E JUMP JUMPDEST POP PUSH1 0x0 DUP1 MLOAD PUSH1 0x20 PUSH2 0x1E1D DUP4 CODECOPY DUP2 MLOAD SWAP2 MSTORE SLOAD PUSH1 0x4 CALLDATALOAD GT ISZERO PUSH2 0x9F3 JUMP JUMPDEST CALLVALUE PUSH2 0x497 JUMPI PUSH1 0x0 CALLDATASIZE PUSH1 0x3 NOT ADD SLT PUSH2 0x497 JUMPI PUSH2 0xFB0 PUSH2 0x79 CALLER PUSH2 0x1A41 JUMP JUMPDEST PUSH1 0x0 DUP1 MLOAD PUSH1 0x20 PUSH2 0x1E1D DUP4 CODECOPY DUP2 MLOAD SWAP2 MSTORE SLOAD PUSH1 0x0 DUP1 JUMPDEST DUP3 DUP2 LT PUSH2 0x13FE JUMPI JUMPDEST POP PUSH2 0xFD7 SWAP1 ISZERO PUSH2 0x1D12 JUMP JUMPDEST PUSH1 0x1 DUP2 ADD DUP1 SWAP2 GT PUSH2 0x2C8 JUMPI PUSH1 0x40 MLOAD SWAP1 PUSH2 0xFEF DUP3 PUSH2 0x191A JUMP JUMPDEST DUP2 MSTORE PUSH1 0x40 MLOAD SWAP1 PUSH2 0xFFE DUP3 PUSH2 0x1935 JUMP JUMPDEST PUSH1 0x0 DUP3 MSTORE PUSH1 0x20 DUP2 ADD SWAP2 DUP3 MSTORE PUSH1 0x40 MLOAD SWAP2 PUSH2 0x1016 DUP4 PUSH2 0x1935 JUMP JUMPDEST PUSH1 0x0 DUP4 MSTORE PUSH1 0x40 DUP3 ADD SWAP3 DUP4 MSTORE PUSH1 0x40 MLOAD PUSH2 0x102D DUP2 PUSH2 0x1935 JUMP JUMPDEST PUSH1 0x0 DUP2 MSTORE PUSH1 0x60 DUP4 ADD SWAP1 DUP2 MSTORE PUSH1 0x40 MLOAD SWAP1 PUSH2 0x1045 DUP3 PUSH2 0x1935 JUMP JUMPDEST PUSH1 0x0 DUP3 MSTORE PUSH1 0x80 DUP5 ADD SWAP2 DUP3 MSTORE PUSH1 0xA0 DUP5 ADD SWAP5 CALLER DUP7 MSTORE PUSH1 0x0 PUSH1 0xC0 DUP7 ADD MSTORE PUSH2 0x1068 CALLER PUSH2 0x1ABD JUMP JUMPDEST DUP5 MLOAD PUSH1 0x0 MSTORE PUSH1 0x0 DUP1 MLOAD PUSH1 0x20 PUSH2 0x1DDD DUP4 CODECOPY DUP2 MLOAD SWAP2 MSTORE PUSH1 0x20 MSTORE PUSH1 0x40 PUSH1 0x0 KECCAK256 SWAP4 DUP6 MLOAD DUP6 SSTORE MLOAD DUP1 MLOAD SWAP1 PUSH1 0x1 PUSH1 0x1 PUSH1 0x40 SHL SUB DUP3 GT PUSH2 0x7B2 JUMPI DUP2 SWAP1 PUSH2 0x10B7 DUP3 PUSH2 0x10AE PUSH1 0x1 DUP11 ADD SLOAD PUSH2 0x1B0C JUMP JUMPDEST PUSH1 0x1 DUP11 ADD PUSH2 0x1B46 JUMP JUMPDEST PUSH1 0x20 SWAP1 PUSH1 0x1F DUP4 GT PUSH1 0x1 EQ PUSH2 0x138C JUMPI PUSH1 0x0 SWAP3 PUSH2 0x1381 JUMPI JUMPDEST POP POP DUP2 PUSH1 0x1 SHL SWAP2 PUSH1 0x0 NOT SWAP1 PUSH1 0x3 SHL SHR NOT AND OR PUSH1 0x1 DUP6 ADD SSTORE JUMPDEST MLOAD DUP1 MLOAD PUSH1 0x2 DUP6 ADD SWAP2 PUSH1 0x1 PUSH1 0x1 PUSH1 0x40 SHL SUB DUP3 GT PUSH2 0x7B2 JUMPI DUP2 SWAP1 PUSH2 0x110B DUP3 PUSH2 0x60D DUP7 SLOAD PUSH2 0x1B0C JUMP JUMPDEST PUSH1 0x20 SWAP1 PUSH1 0x1F DUP4 GT PUSH1 0x1 EQ PUSH2 0x131B JUMPI PUSH1 0x0 SWAP3 PUSH2 0x1310 JUMPI JUMPDEST POP POP DUP2 PUSH1 0x1 SHL SWAP2 PUSH1 0x0 NOT SWAP1 PUSH1 0x3 SHL SHR NOT AND OR SWAP1 SSTORE JUMPDEST MLOAD DUP1 MLOAD PUSH1 0x3 DUP5 ADD SWAP2 PUSH1 0x1 PUSH1 0x1 PUSH1 0x40 SHL SUB DUP3 GT PUSH2 0x7B2 JUMPI DUP2 SWAP1 PUSH2 0x115C DUP3 PUSH2 0x60D DUP7 SLOAD PUSH2 0x1B0C JUMP JUMPDEST PUSH1 0x20 SWAP1 PUSH1 0x1F DUP4 GT PUSH1 0x1 EQ PUSH2 0x12AA JUMPI PUSH1 0x0 SWAP3 PUSH2 0x129F JUMPI JUMPDEST POP POP DUP2 PUSH1 0x1 SHL SWAP2 PUSH1 0x0 NOT SWAP1 PUSH1 0x3 SHL SHR NOT AND OR SWAP1 SSTORE JUMPDEST MLOAD DUP1 MLOAD PUSH1 0x4 DUP4 ADD SWAP2 PUSH1 0x1 PUSH1 0x1 PUSH1 0x40 SHL SUB DUP3 GT PUSH2 0x7B2 JUMPI DUP2 SWAP1 PUSH2 0x11AD DUP3 PUSH2 0x60D DUP7 SLOAD PUSH2 0x1B0C JUMP JUMPDEST PUSH1 0x20 SWAP1 PUSH1 0x1F DUP4 GT PUSH1 0x1 EQ PUSH2 0x1239 JUMPI PUSH1 0x0 SWAP3 PUSH2 0x122E JUMPI JUMPDEST POP POP DUP2 PUSH1 0x1 SHL SWAP2 PUSH1 0x0 NOT SWAP1 PUSH1 0x3 SHL SHR NOT AND OR SWAP1 SSTORE JUMPDEST PUSH1 0x5 DUP2 ADD SWAP3 PUSH1 0x1 DUP1 PUSH1 0xA0 SHL SUB SWAP1 MLOAD AND SWAP3 PUSH1 0x1 PUSH1 0x1 PUSH1 0x60 SHL SUB PUSH1 0xA0 SHL SWAP4 DUP5 DUP3 SLOAD AND OR SWAP1 SSTORE PUSH1 0x6 PUSH1 0xC0 DUP4 ADD MLOAD SWAP2 ADD SSTORE MLOAD PUSH1 0x0 MSTORE PUSH1 0x0 DUP1 MLOAD PUSH1 0x20 PUSH2 0x1DFD DUP4 CODECOPY DUP2 MLOAD SWAP2 MSTORE PUSH1 0x20 MSTORE PUSH1 0x40 PUSH1 0x0 KECCAK256 SWAP1 CALLER SWAP1 DUP3 SLOAD AND OR SWAP1 SSTORE PUSH1 0x0 DUP1 RETURN JUMPDEST ADD MLOAD SWAP1 POP DUP7 DUP1 PUSH2 0x11C3 JUMP JUMPDEST PUSH1 0x0 DUP6 DUP2 MSTORE PUSH1 0x20 DUP2 KECCAK256 SWAP4 POP PUSH1 0x1F NOT DUP6 AND SWAP1 JUMPDEST DUP2 DUP2 LT PUSH2 0x1287 JUMPI POP SWAP1 DUP5 PUSH1 0x1 SWAP6 SWAP5 SWAP4 SWAP3 LT PUSH2 0x126E JUMPI JUMPDEST POP POP POP DUP2 SHL ADD SWAP1 SSTORE PUSH2 0x11D8 JUMP JUMPDEST ADD MLOAD PUSH1 0x0 NOT PUSH1 0xF8 DUP5 PUSH1 0x3 SHL AND SHR NOT AND SWAP1 SSTORE DUP7 DUP1 DUP1 PUSH2 0x1261 JUMP JUMPDEST SWAP3 SWAP4 PUSH1 0x20 PUSH1 0x1 DUP2 SWAP3 DUP8 DUP7 ADD MLOAD DUP2 SSTORE ADD SWAP6 ADD SWAP4 ADD PUSH2 0x124B JUMP JUMPDEST ADD MLOAD SWAP1 POP DUP8 DUP1 PUSH2 0x1172 JUMP JUMPDEST PUSH1 0x0 DUP6 DUP2 MSTORE PUSH1 0x20 DUP2 KECCAK256 SWAP4 POP PUSH1 0x1F NOT DUP6 AND SWAP1 JUMPDEST DUP2 DUP2 LT PUSH2 0x12F8 JUMPI POP SWAP1 DUP5 PUSH1 0x1 SWAP6 SWAP5 SWAP4 SWAP3 LT PUSH2 0x12DF JUMPI JUMPDEST POP POP POP DUP2 SHL ADD SWAP1 SSTORE PUSH2 0x1187 JUMP JUMPDEST ADD MLOAD PUSH1 0x0 NOT PUSH1 0xF8 DUP5 PUSH1 0x3 SHL AND SHR NOT AND SWAP1 SSTORE DUP8 DUP1 DUP1 PUSH2 0x12D2 JUMP JUMPDEST SWAP3 SWAP4 PUSH1 0x20 PUSH1 0x1 DUP2 SWAP3 DUP8 DUP7 ADD MLOAD DUP2 SSTORE ADD SWAP6 ADD SWAP4 ADD PUSH2 0x12BC JUMP JUMPDEST ADD MLOAD SWAP1 POP DUP9 DUP1 PUSH2 0x1121 JUMP JUMPDEST PUSH1 0x0 DUP6 DUP2 MSTORE PUSH1 0x20 DUP2 KECCAK256 SWAP4 POP PUSH1 0x1F NOT DUP6 AND SWAP1 JUMPDEST DUP2 DUP2 LT PUSH2 0x1369 JUMPI POP SWAP1 DUP5 PUSH1 0x1 SWAP6 SWAP5 SWAP4 SWAP3 LT PUSH2 0x1350 JUMPI JUMPDEST POP POP POP DUP2 SHL ADD SWAP1 SSTORE PUSH2 0x1136 JUMP JUMPDEST ADD MLOAD PUSH1 0x0 NOT PUSH1 0xF8 DUP5 PUSH1 0x3 SHL AND SHR NOT AND SWAP1 SSTORE DUP9 DUP1 DUP1 PUSH2 0x1343 JUMP JUMPDEST SWAP3 SWAP4 PUSH1 0x20 PUSH1 0x1 DUP2 SWAP3 DUP8 DUP7 ADD MLOAD DUP2 SSTORE ADD SWAP6 ADD SWAP4 ADD PUSH2 0x132D JUMP JUMPDEST ADD MLOAD SWAP1 POP DUP9 DUP1 PUSH2 0x10CD JUMP JUMPDEST SWAP3 POP PUSH1 0x1 DUP8 ADD PUSH1 0x0 MSTORE PUSH1 0x20 PUSH1 0x0 KECCAK256 SWAP1 PUSH1 0x0 SWAP4 JUMPDEST PUSH1 0x1F NOT DUP5 AND DUP6 LT PUSH2 0x13E3 JUMPI PUSH1 0x1 SWAP5 POP DUP4 PUSH1 0x1F NOT DUP2 AND LT PUSH2 0x13CA JUMPI JUMPDEST POP POP POP DUP2 SHL ADD PUSH1 0x1 DUP6 ADD SSTORE PUSH2 0x10E5 JUMP JUMPDEST ADD MLOAD PUSH1 0x0 NOT PUSH1 0xF8 DUP5 PUSH1 0x3 SHL AND SHR NOT AND SWAP1 SSTORE DUP9 DUP1 DUP1 PUSH2 0x13BA JUMP JUMPDEST DUP2 DUP2 ADD MLOAD DUP4 SSTORE PUSH1 0x20 SWAP5 DUP6 ADD SWAP5 PUSH1 0x1 SWAP1 SWAP4 ADD SWAP3 SWAP1 SWAP2 ADD SWAP1 PUSH2 0x139F JUMP JUMPDEST PUSH1 0x1 DUP1 DUP3 ADD DUP1 DUP4 GT PUSH2 0x2C8 JUMPI PUSH1 0x0 SWAP1 DUP2 MSTORE PUSH1 0x0 DUP1 MLOAD PUSH1 0x20 PUSH2 0x1DDD DUP4 CODECOPY DUP2 MLOAD SWAP2 MSTORE PUSH1 0x20 MSTORE PUSH1 0x40 SWAP1 KECCAK256 PUSH1 0x5 ADD SLOAD PUSH1 0x1 PUSH1 0x1 PUSH1 0xA0 SHL SUB AND CALLER EQ PUSH2 0x1447 JUMPI POP PUSH2 0x1442 SWAP1 PUSH2 0x1D03 JUMP JUMPDEST PUSH2 0xFC4 JUMP JUMPDEST SWAP2 POP PUSH2 0xFD7 SWAP1 POP PUSH2 0xFCC JUMP JUMPDEST CALLVALUE PUSH2 0x497 JUMPI PUSH2 0x1461 CALLDATASIZE PUSH2 0x19C7 JUMP JUMPDEST SWAP1 PUSH2 0x146E PUSH2 0x79 CALLER PUSH2 0x1A41 JUMP JUMPDEST DUP1 ISZERO ISZERO DUP1 PUSH2 0x1682 JUMPI JUMPDEST PUSH2 0x1480 SWAP1 PUSH2 0x1BDF JUMP JUMPDEST DUP1 PUSH1 0x0 MSTORE PUSH1 0x0 DUP1 MLOAD PUSH1 0x20 PUSH2 0x1DDD DUP4 CODECOPY DUP2 MLOAD SWAP2 MSTORE SWAP1 PUSH1 0x20 SWAP3 DUP3 DUP5 MSTORE PUSH1 0x1 DUP1 PUSH1 0xA0 SHL SUB CALLER DUP2 PUSH1 0x5 PUSH1 0x40 PUSH1 0x0 KECCAK256 ADD SLOAD AND SUB PUSH2 0x162C JUMPI DUP3 PUSH1 0x0 MSTORE DUP4 DUP6 MSTORE PUSH1 0x40 PUSH1 0x0 KECCAK256 SWAP1 PUSH1 0x6 DUP3 ADD PUSH1 0x0 DUP2 SSTORE PUSH1 0x2 DUP4 ADD SWAP2 DUP5 MLOAD SWAP7 PUSH1 0x1 PUSH1 0x1 PUSH1 0x40 SHL SUB DUP9 GT PUSH2 0x7B2 JUMPI PUSH2 0x14EB DUP9 PUSH2 0x60D DUP7 SLOAD PUSH2 0x1B0C JUMP JUMPDEST DUP9 PUSH1 0x1F DUP10 GT PUSH1 0x1 EQ PUSH2 0x15C4 JUMPI SWAP8 DUP1 PUSH2 0x263 SWAP9 SWAP10 PUSH1 0x0 SWAP2 PUSH2 0x15B9 JUMPI JUMPDEST POP DUP2 PUSH1 0x1 SHL SWAP2 PUSH1 0x0 NOT SWAP1 PUSH1 0x3 SHL SHR NOT AND OR DUP5 SSTORE JUMPDEST PUSH1 0x5 DUP6 ADD SWAP2 PUSH1 0x1 PUSH1 0x1 PUSH1 0x60 SHL SUB PUSH1 0xA0 SHL SWAP2 DUP3 DUP5 SLOAD AND DUP5 SSTORE DUP10 PUSH1 0x0 MSTORE PUSH1 0x0 DUP1 MLOAD PUSH1 0x20 PUSH2 0x1DFD DUP4 CODECOPY DUP2 MLOAD SWAP2 MSTORE DUP12 MSTORE PUSH1 0x40 PUSH1 0x0 KECCAK256 DUP4 DUP2 SLOAD AND SWAP1 SSTORE DUP11 MSTORE PUSH1 0x40 PUSH1 0x0 KECCAK256 SWAP6 DUP1 DUP8 SUB PUSH2 0x157B JUMPI JUMPDEST DUP11 DUP11 DUP11 DUP11 PUSH1 0x40 DUP1 MLOAD SWAP5 DUP6 SWAP5 DUP6 MSTORE DUP5 ADD MSTORE PUSH1 0x40 DUP4 ADD SWAP1 PUSH2 0x1A1C JUMP JUMPDEST PUSH1 0x4 DUP2 PUSH2 0x28F PUSH1 0x6 SWAP9 PUSH2 0x159B SWAP5 SLOAD DUP12 SSTORE PUSH2 0x286 PUSH1 0x1 DUP5 ADD PUSH1 0x1 DUP14 ADD PUSH2 0x1C2B JUMP JUMPDEST PUSH1 0x5 DUP7 ADD SWAP3 SLOAD AND SWAP1 DUP3 SLOAD AND OR SWAP1 SSTORE SLOAD SWAP2 ADD SSTORE DUP5 DUP1 DUP1 DUP1 DUP1 DUP1 DUP1 PUSH2 0x1561 JUMP JUMPDEST SWAP1 POP DUP8 ADD MLOAD DUP12 PUSH2 0x1506 JUMP JUMPDEST PUSH1 0x1F NOT DUP10 AND SWAP1 DUP6 PUSH1 0x0 MSTORE DUP11 PUSH1 0x0 KECCAK256 SWAP2 PUSH1 0x0 JUMPDEST DUP13 DUP3 DUP3 LT PUSH2 0x1616 JUMPI POP POP SWAP2 DUP11 SWAP2 PUSH2 0x263 SWAP11 SWAP12 PUSH1 0x1 SWAP5 LT PUSH2 0x15FD JUMPI JUMPDEST POP POP DUP2 SHL ADD DUP5 SSTORE PUSH2 0x151A JUMP JUMPDEST DUP10 ADD MLOAD PUSH1 0x0 NOT PUSH1 0xF8 DUP5 PUSH1 0x3 SHL AND SHR NOT AND SWAP1 SSTORE DUP12 DUP1 PUSH2 0x15F1 JUMP JUMPDEST PUSH1 0x1 DUP5 SWAP6 DUP3 SWAP4 SWAP6 DUP14 ADD MLOAD DUP2 SSTORE ADD SWAP5 ADD SWAP3 ADD PUSH2 0x15D6 JUMP JUMPDEST PUSH1 0x40 MLOAD PUSH3 0x461BCD PUSH1 0xE5 SHL DUP2 MSTORE PUSH1 0x4 DUP2 ADD DUP7 SWAP1 MSTORE PUSH1 0x28 PUSH1 0x24 DUP3 ADD MSTORE PUSH32 0x43616C6C657220646F65736E2774206361727279206120537573757761746172 PUSH1 0x44 DUP3 ADD MSTORE PUSH8 0x6920546F6B656E21 PUSH1 0xC0 SHL PUSH1 0x64 DUP3 ADD MSTORE PUSH1 0x84 SWAP1 REVERT JUMPDEST POP PUSH1 0x0 DUP1 MLOAD PUSH1 0x20 PUSH2 0x1E1D DUP4 CODECOPY DUP2 MLOAD SWAP2 MSTORE SLOAD DUP2 GT ISZERO PUSH2 0x1477 JUMP JUMPDEST CALLVALUE PUSH2 0x497 JUMPI PUSH1 0x0 CALLDATASIZE PUSH1 0x3 NOT ADD SLT PUSH2 0x497 JUMPI PUSH2 0x16B4 PUSH2 0x1DA4 JUMP JUMPDEST POP PUSH2 0x16BD PUSH2 0x1DA4 JUMP JUMPDEST POP PUSH1 0x0 DUP1 PUSH1 0x0 DUP1 MLOAD PUSH1 0x20 PUSH2 0x1E1D DUP4 CODECOPY DUP2 MLOAD SWAP2 MSTORE SLOAD SWAP1 JUMPDEST DUP2 DUP2 LT PUSH2 0x18BA JUMPI POP PUSH2 0x16E4 DUP3 PUSH2 0x1DC5 JUMP JUMPDEST SWAP2 PUSH2 0x16F2 PUSH1 0x40 MLOAD SWAP4 DUP5 PUSH2 0x1950 JUMP JUMPDEST DUP1 DUP4 MSTORE PUSH2 0x1701 PUSH1 0x1F NOT SWAP2 PUSH2 0x1DC5 JUMP JUMPDEST ADD SWAP1 PUSH1 0x20 SWAP2 CALLDATASIZE DUP4 DUP6 ADD CALLDATACOPY PUSH1 0x0 DUP1 JUMPDEST DUP3 DUP2 LT PUSH2 0x1841 JUMPI POP POP PUSH2 0x1720 PUSH2 0x1D75 JUMP JUMPDEST SWAP1 PUSH1 0x0 SWAP1 JUMPDEST DUP1 DUP3 LT PUSH2 0x17B4 JUMPI JUMPDEST POP POP PUSH1 0x40 MLOAD SWAP3 PUSH2 0x173C DUP5 PUSH2 0x18FF JUMP JUMPDEST DUP4 MSTORE DUP2 DUP4 ADD SWAP1 DUP2 MSTORE PUSH1 0x40 MLOAD SWAP2 DUP1 DUP4 MSTORE PUSH1 0xA0 DUP4 ADD SWAP4 MLOAD SWAP2 PUSH1 0x80 DUP3 DUP6 ADD MSTORE DUP3 MLOAD DUP1 SWAP6 MSTORE DUP2 PUSH1 0xC0 DUP6 ADD SWAP4 ADD PUSH1 0x0 SWAP6 JUMPDEST DUP1 DUP8 LT PUSH2 0x179D JUMPI POP POP MLOAD DUP1 MLOAD PUSH1 0x40 DUP1 DUP7 ADD SWAP2 SWAP1 SWAP2 MSTORE SWAP2 DUP2 ADD MLOAD PUSH1 0x60 DUP6 ADD MSTORE ADD MLOAD PUSH1 0x1 PUSH1 0x1 PUSH1 0xA0 SHL SUB AND PUSH1 0x80 DUP4 ADD MSTORE DUP2 SWAP1 SUB SWAP2 POP RETURN JUMPDEST SWAP1 SWAP4 DUP4 DUP1 PUSH1 0x1 SWAP3 DUP8 MLOAD DUP2 MSTORE ADD SWAP6 ADD SWAP7 ADD SWAP6 SWAP1 PUSH2 0x1768 JUMP JUMPDEST PUSH1 0x1 DUP3 ADD SWAP2 DUP3 DUP2 GT PUSH2 0x2C8 JUMPI PUSH1 0x0 DUP4 DUP2 MSTORE PUSH1 0x0 DUP1 MLOAD PUSH1 0x20 PUSH2 0x1DFD DUP4 CODECOPY DUP2 MLOAD SWAP2 MSTORE DUP7 MSTORE PUSH1 0x40 SWAP1 KECCAK256 SLOAD PUSH1 0x1 PUSH1 0x1 PUSH1 0xA0 SHL SUB SWAP4 SWAP1 DUP5 AND CALLER EQ PUSH2 0x17FF JUMPI POP PUSH2 0x17F9 SWAP2 SWAP3 POP PUSH2 0x1D03 JUMP JUMPDEST SWAP1 PUSH2 0x1725 JUMP JUMPDEST PUSH2 0x182D SWAP3 POP DUP1 DUP6 MSTORE PUSH1 0x0 MSTORE PUSH1 0x0 DUP1 MLOAD PUSH1 0x20 PUSH2 0x1DDD DUP4 CODECOPY DUP2 MLOAD SWAP2 MSTORE DUP6 MSTORE PUSH1 0x6 PUSH1 0x40 PUSH1 0x0 KECCAK256 ADD SLOAD DUP6 DUP6 ADD MSTORE PUSH2 0x1A7A JUMP JUMPDEST SWAP1 SLOAD SWAP1 PUSH1 0x3 SHL SHR AND PUSH1 0x40 DUP3 ADD MSTORE DUP4 DUP1 PUSH2 0x172D JUMP JUMPDEST PUSH2 0x184A DUP2 PUSH2 0x1A7A JUMP JUMPDEST SWAP1 SLOAD CALLER PUSH1 0x3 SWAP3 SWAP1 SWAP3 SHL SHR PUSH1 0x1 PUSH1 0x1 PUSH1 0xA0 SHL SUB AND EQ PUSH2 0x1871 JUMPI JUMPDEST PUSH2 0x186C SWAP1 PUSH2 0x1D03 JUMP JUMPDEST PUSH2 0x170F JUMP JUMPDEST SWAP1 PUSH1 0x1 DUP3 ADD DUP1 DUP4 GT PUSH2 0x2C8 JUMPI DUP6 MLOAD DUP3 LT ISZERO PUSH2 0x18A4 JUMPI DUP2 PUSH2 0x189C SWAP2 DUP7 PUSH2 0x186C SWAP5 PUSH1 0x5 SHL DUP10 ADD ADD MSTORE PUSH2 0x1D03 JUMP JUMPDEST SWAP2 SWAP1 POP PUSH2 0x1863 JUMP JUMPDEST PUSH4 0x4E487B71 PUSH1 0xE0 SHL PUSH1 0x0 MSTORE PUSH1 0x32 PUSH1 0x4 MSTORE PUSH1 0x24 PUSH1 0x0 REVERT JUMPDEST PUSH2 0x18C3 DUP2 PUSH2 0x1A7A JUMP JUMPDEST SWAP1 SLOAD CALLER PUSH1 0x3 SWAP3 SWAP1 SWAP3 SHL SHR PUSH1 0x1 PUSH1 0x1 PUSH1 0xA0 SHL SUB AND EQ PUSH2 0x18EA JUMPI JUMPDEST PUSH2 0x18E5 SWAP1 PUSH2 0x1D03 JUMP JUMPDEST PUSH2 0x16D3 JUMP JUMPDEST SWAP2 PUSH2 0x18F7 PUSH2 0x18E5 SWAP2 PUSH2 0x1D03 JUMP JUMPDEST SWAP3 SWAP1 POP PUSH2 0x18DC JUMP JUMPDEST PUSH1 0x40 DUP2 ADD SWAP1 DUP2 LT PUSH1 0x1 PUSH1 0x1 PUSH1 0x40 SHL SUB DUP3 GT OR PUSH2 0x7B2 JUMPI PUSH1 0x40 MSTORE JUMP JUMPDEST PUSH1 0xE0 DUP2 ADD SWAP1 DUP2 LT PUSH1 0x1 PUSH1 0x1 PUSH1 0x40 SHL SUB DUP3 GT OR PUSH2 0x7B2 JUMPI PUSH1 0x40 MSTORE JUMP JUMPDEST PUSH1 0x20 DUP2 ADD SWAP1 DUP2 LT PUSH1 0x1 PUSH1 0x1 PUSH1 0x40 SHL SUB DUP3 GT OR PUSH2 0x7B2 JUMPI PUSH1 0x40 MSTORE JUMP JUMPDEST SWAP1 PUSH1 0x1F DUP1 NOT SWAP2 ADD AND DUP2 ADD SWAP1 DUP2 LT PUSH1 0x1 PUSH1 0x1 PUSH1 0x40 SHL SUB DUP3 GT OR PUSH2 0x7B2 JUMPI PUSH1 0x40 MSTORE JUMP JUMPDEST DUP2 PUSH1 0x1F DUP3 ADD SLT ISZERO PUSH2 0x497 JUMPI DUP1 CALLDATALOAD SWAP1 PUSH1 0x1 PUSH1 0x1 PUSH1 0x40 SHL SUB DUP3 GT PUSH2 0x7B2 JUMPI PUSH1 0x40 MLOAD SWAP3 PUSH2 0x19A5 PUSH1 0x1F DUP5 ADD PUSH1 0x1F NOT AND PUSH1 0x20 ADD DUP6 PUSH2 0x1950 JUMP JUMPDEST DUP3 DUP5 MSTORE PUSH1 0x20 DUP4 DUP4 ADD ADD GT PUSH2 0x497 JUMPI DUP2 PUSH1 0x0 SWAP3 PUSH1 0x20 DUP1 SWAP4 ADD DUP4 DUP7 ADD CALLDATACOPY DUP4 ADD ADD MSTORE SWAP1 JUMP JUMPDEST SWAP1 PUSH1 0x40 PUSH1 0x3 NOT DUP4 ADD SLT PUSH2 0x497 JUMPI PUSH1 0x4 CALLDATALOAD SWAP2 PUSH1 0x24 CALLDATALOAD SWAP1 PUSH1 0x1 PUSH1 0x1 PUSH1 0x40 SHL SUB DUP3 GT PUSH2 0x497 JUMPI PUSH2 0x19F6 SWAP2 PUSH1 0x4 ADD PUSH2 0x1971 JUMP JUMPDEST SWAP1 JUMP JUMPDEST PUSH1 0x0 JUMPDEST DUP4 DUP2 LT PUSH2 0x1A0C JUMPI POP POP PUSH1 0x0 SWAP2 ADD MSTORE JUMP JUMPDEST DUP2 DUP2 ADD MLOAD DUP4 DUP3 ADD MSTORE PUSH1 0x20 ADD PUSH2 0x19FC JUMP JUMPDEST SWAP1 PUSH1 0x20 SWAP2 PUSH2 0x1A35 DUP2 MLOAD DUP1 SWAP3 DUP2 DUP6 MSTORE DUP6 DUP1 DUP7 ADD SWAP2 ADD PUSH2 0x19F9 JUMP JUMPDEST PUSH1 0x1F ADD PUSH1 0x1F NOT AND ADD ADD SWAP1 JUMP JUMPDEST PUSH1 0x1 PUSH1 0x1 PUSH1 0xA0 SHL SUB AND PUSH1 0x0 SWAP1 DUP2 MSTORE PUSH32 0x202E1867CADE063E32A2EB339A246F853A1A233314949BA8D9E2AC766F6ED846 PUSH1 0x20 MSTORE PUSH1 0x40 SWAP1 KECCAK256 SWAP1 JUMP JUMPDEST PUSH1 0x0 DUP1 MLOAD PUSH1 0x20 PUSH2 0x1E1D DUP4 CODECOPY DUP2 MLOAD SWAP2 MSTORE DUP1 SLOAD DUP3 LT ISZERO PUSH2 0x18A4 JUMPI PUSH1 0x0 MSTORE PUSH32 0x5B627E705E277F4CD69351CFCF0179F3685951408382038C266C60748DB0394A ADD SWAP1 PUSH1 0x0 SWAP1 JUMP JUMPDEST PUSH1 0x0 DUP1 MLOAD PUSH1 0x20 PUSH2 0x1E1D DUP4 CODECOPY DUP2 MLOAD SWAP2 MSTORE DUP1 SLOAD PUSH9 0x10000000000000000 DUP2 LT ISZERO PUSH2 0x7B2 JUMPI PUSH2 0x1AEE SWAP2 PUSH1 0x1 DUP3 ADD SWAP1 SSTORE PUSH2 0x1A7A JUMP JUMPDEST DUP2 SWAP3 SWAP2 SLOAD SWAP1 PUSH1 0x3 SHL SWAP2 PUSH1 0x1 DUP1 PUSH1 0xA0 SHL SUB DUP1 SWAP2 AND DUP4 SHL SWAP3 SHL NOT AND OR SWAP1 SSTORE JUMP JUMPDEST SWAP1 PUSH1 0x1 DUP3 DUP2 SHR SWAP3 AND DUP1 ISZERO PUSH2 0x1B3C JUMPI JUMPDEST PUSH1 0x20 DUP4 LT EQ PUSH2 0x1B26 JUMPI JUMP JUMPDEST PUSH4 0x4E487B71 PUSH1 0xE0 SHL PUSH1 0x0 MSTORE PUSH1 0x22 PUSH1 0x4 MSTORE PUSH1 0x24 PUSH1 0x0 REVERT JUMPDEST SWAP2 PUSH1 0x7F AND SWAP2 PUSH2 0x1B1B JUMP JUMPDEST SWAP1 PUSH1 0x1F DUP2 GT PUSH2 0x1B54 JUMPI POP POP POP JUMP JUMPDEST PUSH1 0x0 SWAP2 DUP3 MSTORE PUSH1 0x20 DUP3 KECCAK256 SWAP1 PUSH1 0x20 PUSH1 0x1F DUP6 ADD PUSH1 0x5 SHR DUP4 ADD SWAP5 LT PUSH2 0x1B90 JUMPI JUMPDEST PUSH1 0x1F ADD PUSH1 0x5 SHR ADD SWAP2 JUMPDEST DUP3 DUP2 LT PUSH2 0x1B85 JUMPI POP POP POP JUMP JUMPDEST DUP2 DUP2 SSTORE PUSH1 0x1 ADD PUSH2 0x1B79 JUMP JUMPDEST SWAP1 SWAP3 POP DUP3 SWAP1 PUSH2 0x1B70 JUMP JUMPDEST ISZERO PUSH2 0x1BA1 JUMPI JUMP JUMPDEST PUSH1 0x40 MLOAD PUSH3 0x461BCD PUSH1 0xE5 SHL DUP2 MSTORE PUSH1 0x20 PUSH1 0x4 DUP3 ADD MSTORE PUSH1 0x16 PUSH1 0x24 DUP3 ADD MSTORE PUSH22 0x155CD95C881A5CC81B9BDD081C9959DA5CDD195C9959 PUSH1 0x52 SHL PUSH1 0x44 DUP3 ADD MSTORE PUSH1 0x64 SWAP1 REVERT JUMPDEST ISZERO PUSH2 0x1BE6 JUMPI JUMP JUMPDEST PUSH1 0x40 MLOAD PUSH3 0x461BCD PUSH1 0xE5 SHL DUP2 MSTORE PUSH1 0x20 PUSH1 0x4 DUP3 ADD MSTORE PUSH1 0x1D PUSH1 0x24 DUP3 ADD MSTORE PUSH32 0x546865205375737577617461726920646F6573206E6F74206578697374000000 PUSH1 0x44 DUP3 ADD MSTORE PUSH1 0x64 SWAP1 REVERT JUMPDEST SWAP1 DUP1 DUP3 EQ PUSH2 0x1CFF JUMPI PUSH2 0x1C3D DUP2 SLOAD PUSH2 0x1B0C JUMP JUMPDEST SWAP1 PUSH1 0x1 PUSH1 0x1 PUSH1 0x40 SHL SUB DUP3 GT PUSH2 0x7B2 JUMPI DUP2 SWAP1 PUSH2 0x1C5C DUP3 PUSH2 0x60D DUP7 SLOAD PUSH2 0x1B0C JUMP JUMPDEST PUSH1 0x0 SWAP1 PUSH1 0x1F DUP4 GT PUSH1 0x1 EQ PUSH2 0x1C93 JUMPI PUSH1 0x0 SWAP3 PUSH2 0x1C88 JUMPI JUMPDEST POP POP DUP2 PUSH1 0x1 SHL SWAP2 PUSH1 0x0 NOT SWAP1 PUSH1 0x3 SHL SHR NOT AND OR SWAP1 SSTORE JUMP JUMPDEST ADD SLOAD SWAP1 POP CODESIZE DUP1 PUSH2 0x1C72 JUMP JUMPDEST DUP2 MSTORE PUSH1 0x20 DUP1 DUP3 KECCAK256 DUP6 DUP4 MSTORE DUP2 DUP4 KECCAK256 SWAP4 POP SWAP1 PUSH1 0x1F NOT DUP6 AND SWAP1 DUP4 SWAP1 JUMPDEST DUP3 DUP3 LT PUSH2 0x1CE6 JUMPI POP POP SWAP1 DUP5 PUSH1 0x1 SWAP6 SWAP5 SWAP4 SWAP3 LT PUSH2 0x1CCD JUMPI JUMPDEST POP POP POP DUP2 SHL ADD SWAP1 SSTORE JUMP JUMPDEST ADD SLOAD PUSH1 0x0 NOT PUSH1 0xF8 DUP5 PUSH1 0x3 SHL AND SHR NOT AND SWAP1 SSTORE CODESIZE DUP1 DUP1 PUSH2 0x1CC3 JUMP JUMPDEST DUP5 SWAP6 DUP2 SWAP3 SWAP6 DUP6 ADD SLOAD DUP2 SSTORE PUSH1 0x1 DUP1 SWAP2 ADD SWAP7 ADD SWAP5 ADD SWAP1 PUSH2 0x1CAC JUMP JUMPDEST POP POP JUMP JUMPDEST PUSH1 0x0 NOT DUP2 EQ PUSH2 0x2C8 JUMPI PUSH1 0x1 ADD SWAP1 JUMP JUMPDEST ISZERO PUSH2 0x1D19 JUMPI JUMP JUMPDEST PUSH1 0x40 MLOAD PUSH3 0x461BCD PUSH1 0xE5 SHL DUP2 MSTORE PUSH1 0x20 PUSH1 0x4 DUP3 ADD MSTORE PUSH1 0x2E PUSH1 0x24 DUP3 ADD MSTORE PUSH32 0x43616C6C657220697320616C7265616479206361727279696E67206120537573 PUSH1 0x44 DUP3 ADD MSTORE PUSH14 0x7577617461726920546F6B656E21 PUSH1 0x90 SHL PUSH1 0x64 DUP3 ADD MSTORE PUSH1 0x84 SWAP1 REVERT JUMPDEST PUSH1 0x40 MLOAD SWAP1 PUSH1 0x60 DUP3 ADD DUP3 DUP2 LT PUSH1 0x1 PUSH1 0x1 PUSH1 0x40 SHL SUB DUP3 GT OR PUSH2 0x7B2 JUMPI PUSH1 0x40 MSTORE PUSH1 0x0 PUSH1 0x40 DUP4 DUP3 DUP2 MSTORE DUP3 PUSH1 0x20 DUP3 ADD MSTORE ADD MSTORE JUMP JUMPDEST PUSH1 0x40 MLOAD SWAP1 PUSH2 0x1DB1 DUP3 PUSH2 0x18FF JUMP JUMPDEST DUP2 PUSH1 0x60 DUP2 MSTORE PUSH1 0x20 PUSH2 0x1DC0 PUSH2 0x1D75 JUMP JUMPDEST SWAP2 ADD MSTORE JUMP JUMPDEST PUSH1 0x1 PUSH1 0x1 PUSH1 0x40 SHL SUB DUP2 GT PUSH2 0x7B2 JUMPI PUSH1 0x5 SHL PUSH1 0x20 ADD SWAP1 JUMP INVALID KECCAK256 0x2E XOR PUSH8 0xCADE063E32A2EB33 SWAP11 0x24 PUSH16 0x853A1A233314949BA8D9E2AC766F6ED8 BASEFEE KECCAK256 0x2E XOR PUSH8 0xCADE063E32A2EB33 SWAP11 0x24 PUSH16 0x853A1A233314949BA8D9E2AC766F6ED8 0x4A KECCAK256 0x2E XOR PUSH8 0xCADE063E32A2EB33 SWAP11 0x24 PUSH16 0x853A1A233314949BA8D9E2AC766F6ED8 SELFBALANCE LOG2 PUSH5 0x6970667358 0x22 SLT KECCAK256 CREATE2 CALLCODE 0xAD EXP 0xF7 SWAP9 0x1E 0x26 LOG4 DUP15 SWAP14 0xD3 PUSH8 0xC0911B9FF5E9A0BE 0xC1 PUSH7 0xA8FBA80D173B05 0xD0 SGT PUSH5 0x736F6C6343 STOP ADDMOD SLT STOP CALLER "},"gasEstimates":{"creation":{"codeDepositCost":"1558800","executionCost":"1641","totalCost":"1560441"},"external":{"aimInitialSusu(uint256,string,string,string)":"infinite","dropSusu(uint256,string)":"infinite","getCurrentState()":"infinite","giveSusuwatari()":"infinite","registerMe()":"infinite","tryPickupSusu(uint256,string)":"infinite"}},"methodIdentifiers":{"aimInitialSusu(uint256,string,string,string)":"78630748","dropSusu(uint256,string)":"3e14c7da","getCurrentState()":"378aa701","giveSusuwatari()":"7298c3c3","registerMe()":"9a198d61","tryPickupSusu(uint256,string)":"b95d0b04"}},"storageLayout":{"storage":[],"types":null},"userdoc":{"kind":"user","methods":{},"version":1}}}}